{
	"contracts/GoingUpProjects.sol": {
		"GoingUpProjects": {
			"abi": [
				{
					"inputs": [],
					"stateMutability": "nonpayable",
					"type": "constructor"
				},
				{
					"inputs": [
						{
							"internalType": "address",
							"name": "",
							"type": "address"
						}
					],
					"name": "admins",
					"outputs": [
						{
							"internalType": "bool",
							"name": "",
							"type": "bool"
						}
					],
					"stateMutability": "view",
					"type": "function"
				},
				{
					"inputs": [
						{
							"internalType": "string",
							"name": "name",
							"type": "string"
						},
						{
							"internalType": "string",
							"name": "description",
							"type": "string"
						},
						{
							"internalType": "uint256",
							"name": "started",
							"type": "uint256"
						},
						{
							"internalType": "uint256",
							"name": "ended",
							"type": "uint256"
						},
						{
							"internalType": "string",
							"name": "primaryUrl",
							"type": "string"
						},
						{
							"internalType": "string[]",
							"name": "tags",
							"type": "string[]"
						}
					],
					"name": "create",
					"outputs": [],
					"stateMutability": "nonpayable",
					"type": "function"
				},
				{
					"inputs": [],
					"name": "owner",
					"outputs": [
						{
							"internalType": "address",
							"name": "",
							"type": "address"
						}
					],
					"stateMutability": "view",
					"type": "function"
				},
				{
					"inputs": [],
					"name": "price",
					"outputs": [
						{
							"internalType": "uint256",
							"name": "",
							"type": "uint256"
						}
					],
					"stateMutability": "view",
					"type": "function"
				},
				{
					"inputs": [
						{
							"internalType": "uint256",
							"name": "",
							"type": "uint256"
						}
					],
					"name": "projects",
					"outputs": [
						{
							"internalType": "uint256",
							"name": "id",
							"type": "uint256"
						},
						{
							"internalType": "string",
							"name": "name",
							"type": "string"
						},
						{
							"internalType": "string",
							"name": "description",
							"type": "string"
						},
						{
							"internalType": "uint256",
							"name": "started",
							"type": "uint256"
						},
						{
							"internalType": "uint256",
							"name": "ended",
							"type": "uint256"
						},
						{
							"internalType": "string",
							"name": "primaryUrl",
							"type": "string"
						},
						{
							"internalType": "address",
							"name": "owner",
							"type": "address"
						},
						{
							"internalType": "bool",
							"name": "active",
							"type": "bool"
						},
						{
							"internalType": "bool",
							"name": "allowMembersToEdit",
							"type": "bool"
						}
					],
					"stateMutability": "view",
					"type": "function"
				},
				{
					"inputs": [
						{
							"internalType": "address",
							"name": "targetAddress",
							"type": "address"
						},
						{
							"internalType": "bool",
							"name": "isAdmin",
							"type": "bool"
						}
					],
					"name": "setAdmin",
					"outputs": [],
					"stateMutability": "nonpayable",
					"type": "function"
				},
				{
					"inputs": [
						{
							"internalType": "uint256",
							"name": "newPrice",
							"type": "uint256"
						}
					],
					"name": "setPrice",
					"outputs": [],
					"stateMutability": "nonpayable",
					"type": "function"
				},
				{
					"inputs": [
						{
							"internalType": "uint256",
							"name": "id",
							"type": "uint256"
						},
						{
							"internalType": "string[]",
							"name": "fields",
							"type": "string[]"
						},
						{
							"internalType": "string[]",
							"name": "values",
							"type": "string[]"
						}
					],
					"name": "update",
					"outputs": [],
					"stateMutability": "nonpayable",
					"type": "function"
				},
				{
					"inputs": [
						{
							"internalType": "address",
							"name": "tokenAddress",
							"type": "address"
						},
						{
							"internalType": "uint256",
							"name": "tokenID",
							"type": "uint256"
						},
						{
							"internalType": "uint256",
							"name": "amount",
							"type": "uint256"
						},
						{
							"internalType": "bytes",
							"name": "data",
							"type": "bytes"
						}
					],
					"name": "withdrawERC1155",
					"outputs": [],
					"stateMutability": "nonpayable",
					"type": "function"
				},
				{
					"inputs": [
						{
							"internalType": "address",
							"name": "tokenAddress",
							"type": "address"
						},
						{
							"internalType": "uint256",
							"name": "amount",
							"type": "uint256"
						}
					],
					"name": "withdrawERC20",
					"outputs": [],
					"stateMutability": "nonpayable",
					"type": "function"
				},
				{
					"inputs": [
						{
							"internalType": "address",
							"name": "tokenAddress",
							"type": "address"
						},
						{
							"internalType": "uint256",
							"name": "tokenID",
							"type": "uint256"
						}
					],
					"name": "withdrawERC721",
					"outputs": [],
					"stateMutability": "nonpayable",
					"type": "function"
				},
				{
					"inputs": [],
					"name": "withdrawFunds",
					"outputs": [],
					"stateMutability": "nonpayable",
					"type": "function"
				}
			],
			"devdoc": {
				"author": "Mark Ibanez",
				"kind": "dev",
				"methods": {
					"create(string,string,uint256,uint256,string,string[])": {
						"params": {
							"description": "Project description",
							"ended": "Project ended (Unix timestamp, set to zero if you do not want to set any value)",
							"name": "Project name",
							"primaryUrl": "Project primary url",
							"started": "Project start (Unix timestamp, set to zero if you do not want to set any value)",
							"tags": "Project tags"
						}
					},
					"setAdmin(address,bool)": {
						"params": {
							"isAdmin": "Admin flag to set (true means address is admin, false mean address is not admin)",
							"targetAddress": "Target address to set admin flag"
						}
					},
					"setPrice(uint256)": {
						"params": {
							"newPrice": "New price for creating and updating projects"
						}
					},
					"withdrawERC1155(address,uint256,uint256,bytes)": {
						"params": {
							"tokenAddress": "Address of ERC1155 contract",
							"tokenID": "Token ID to withdraw"
						}
					},
					"withdrawERC20(address,uint256)": {
						"params": {
							"amount": "Amount to transfer",
							"tokenAddress": "Address of ERC20 contract"
						}
					},
					"withdrawERC721(address,uint256)": {
						"params": {
							"tokenAddress": "Address of ERC721 contract",
							"tokenID": "Token ID to withdraw"
						}
					}
				},
				"title": "GoingUP Platform Projects Smart Contract",
				"version": 1
			},
			"evm": {
				"assembly": "    /* \"contracts/GoingUpProjects.sol\":328:5044  contract GoingUpProjects {... */\n  mstore(0x40, 0x80)\n    /* \"contracts/GoingUpProjects.sol\":763:764  1 */\n  0x01\n    /* \"contracts/GoingUpProjects.sol\":735:764  uint256 private idCounter = 1 */\n  0x00\n  sstore\n    /* \"contracts/GoingUpProjects.sol\":1334:1346  1 * 10 ** 16 */\n  0x2386f26fc10000\n    /* \"contracts/GoingUpProjects.sol\":1311:1346  uint256 public price = 1 * 10 ** 16 */\n  0x03\n  sstore\n    /* \"contracts/GoingUpProjects.sol\":667:727  constructor () {        ... */\n  callvalue\n  dup1\n  iszero\n  tag_1\n  jumpi\n  0x00\n  dup1\n  revert\ntag_1:\n  pop\n    /* \"contracts/GoingUpProjects.sol\":701:706  owner */\n  0x01\n    /* \"contracts/GoingUpProjects.sol\":701:719  owner = msg.sender */\n  dup1\n  sload\n  not(sub(shl(0xa0, 0x01), 0x01))\n  and\n    /* \"contracts/GoingUpProjects.sol\":709:719  msg.sender */\n  caller\n    /* \"contracts/GoingUpProjects.sol\":701:719  owner = msg.sender */\n  or\n  swap1\n  sstore\n    /* \"contracts/GoingUpProjects.sol\":328:5044  contract GoingUpProjects {... */\n  dataSize(sub_0)\n  dup1\n  dataOffset(sub_0)\n  0x00\n  codecopy\n  0x00\n  return\nstop\n\nsub_0: assembly {\n        /* \"contracts/GoingUpProjects.sol\":328:5044  contract GoingUpProjects {... */\n      mstore(0x40, 0x80)\n      callvalue\n      dup1\n      iszero\n      tag_1\n      jumpi\n      0x00\n      dup1\n      revert\n    tag_1:\n      pop\n      jumpi(tag_2, lt(calldatasize, 0x04))\n      shr(0xe0, calldataload(0x00))\n      dup1\n      0x91b7f5ed\n      gt\n      tag_15\n      jumpi\n      dup1\n      0x91b7f5ed\n      eq\n      tag_9\n      jumpi\n      dup1\n      0xa035b1fe\n      eq\n      tag_10\n      jumpi\n      dup1\n      0xa1538bde\n      eq\n      tag_11\n      jumpi\n      dup1\n      0xa1db9782\n      eq\n      tag_12\n      jumpi\n      dup1\n      0xf28a8104\n      eq\n      tag_13\n      jumpi\n      dup1\n      0xf3e414f8\n      eq\n      tag_14\n      jumpi\n      0x00\n      dup1\n      revert\n    tag_15:\n      dup1\n      0x107046bd\n      eq\n      tag_3\n      jumpi\n      dup1\n      0x230abfd0\n      eq\n      tag_4\n      jumpi\n      dup1\n      0x24600fc3\n      eq\n      tag_5\n      jumpi\n      dup1\n      0x429b62e5\n      eq\n      tag_6\n      jumpi\n      dup1\n      0x4b0bddd2\n      eq\n      tag_7\n      jumpi\n      dup1\n      0x8da5cb5b\n      eq\n      tag_8\n      jumpi\n    tag_2:\n      0x00\n      dup1\n      revert\n        /* \"contracts/GoingUpProjects.sol\":1619:1662  mapping(uint256 => Project) public projects */\n    tag_3:\n      tag_16\n      tag_17\n      calldatasize\n      0x04\n      tag_18\n      jump\t// in\n    tag_17:\n      tag_19\n      jump\t// in\n    tag_16:\n      mload(0x40)\n      tag_20\n      swap10\n      swap9\n      swap8\n      swap7\n      swap6\n      swap5\n      swap4\n      swap3\n      swap2\n      swap1\n      tag_21\n      jump\t// in\n    tag_20:\n      mload(0x40)\n      dup1\n      swap2\n      sub\n      swap1\n      return\n        /* \"contracts/GoingUpProjects.sol\":2892:3614  function create(string memory name, string memory description, uint started, uint ended, string memory primaryUrl, string[] memory tags) public {... */\n    tag_4:\n      tag_22\n      tag_23\n      calldatasize\n      0x04\n      tag_24\n      jump\t// in\n    tag_23:\n      tag_25\n      jump\t// in\n    tag_22:\n      stop\n        /* \"contracts/GoingUpProjects.sol\":3790:3902  function withdrawFunds() public onlyAdmin {... */\n    tag_5:\n      tag_22\n      tag_27\n      jump\t// in\n        /* \"contracts/GoingUpProjects.sol\":800:838  mapping(address => bool) public admins */\n    tag_6:\n      tag_28\n      tag_29\n      calldatasize\n      0x04\n      tag_30\n      jump\t// in\n    tag_29:\n      mstore(0x20, 0x02)\n      0x00\n      swap1\n      dup2\n      mstore\n      0x40\n      swap1\n      keccak256\n      sload\n      0xff\n      and\n      dup2\n      jump\n    tag_28:\n      mload(0x40)\n        /* \"#utility.yul\":5381:5395   */\n      swap1\n      iszero\n        /* \"#utility.yul\":5374:5396   */\n      iszero\n        /* \"#utility.yul\":5356:5397   */\n      dup2\n      mstore\n        /* \"#utility.yul\":5344:5346   */\n      0x20\n        /* \"#utility.yul\":5329:5347   */\n      add\n        /* \"contracts/GoingUpProjects.sol\":800:838  mapping(address => bool) public admins */\n      tag_20\n        /* \"#utility.yul\":5216:5403   */\n      jump\n        /* \"contracts/GoingUpProjects.sol\":1181:1303  function setAdmin(address targetAddress, bool isAdmin) public onlyAdmin {... */\n    tag_7:\n      tag_22\n      tag_35\n      calldatasize\n      0x04\n      tag_36\n      jump\t// in\n    tag_35:\n      tag_37\n      jump\t// in\n        /* \"contracts/GoingUpProjects.sol\":773:793  address public owner */\n    tag_8:\n      sload(0x01)\n      tag_38\n      swap1\n      sub(shl(0xa0, 0x01), 0x01)\n      and\n      dup2\n      jump\n    tag_38:\n      mload(0x40)\n      sub(shl(0xa0, 0x01), 0x01)\n        /* \"#utility.yul\":6015:6047   */\n      swap1\n      swap2\n      and\n        /* \"#utility.yul\":5997:6048   */\n      dup2\n      mstore\n        /* \"#utility.yul\":5985:5987   */\n      0x20\n        /* \"#utility.yul\":5970:5988   */\n      add\n        /* \"contracts/GoingUpProjects.sol\":773:793  address public owner */\n      tag_20\n        /* \"#utility.yul\":5851:6054   */\n      jump\n        /* \"contracts/GoingUpProjects.sol\":1523:1611  function setPrice(uint256 newPrice) public onlyAdmin {... */\n    tag_9:\n      tag_22\n      tag_43\n      calldatasize\n      0x04\n      tag_18\n      jump\t// in\n    tag_43:\n      tag_44\n      jump\t// in\n        /* \"contracts/GoingUpProjects.sol\":1311:1346  uint256 public price = 1 * 10 ** 16 */\n    tag_10:\n      tag_45\n      sload(0x03)\n      dup2\n      jump\n    tag_45:\n      mload(0x40)\n        /* \"#utility.yul\":6205:6230   */\n      swap1\n      dup2\n      mstore\n        /* \"#utility.yul\":6193:6195   */\n      0x20\n        /* \"#utility.yul\":6178:6196   */\n      add\n        /* \"contracts/GoingUpProjects.sol\":1311:1346  uint256 public price = 1 * 10 ** 16 */\n      tag_20\n        /* \"#utility.yul\":6059:6236   */\n      jump\n        /* \"contracts/GoingUpProjects.sol\":4766:5041  function withdrawERC1155(address tokenAddress, uint256 tokenID, uint256 amount, bytes memory data) external onlyAdmin {... */\n    tag_11:\n      tag_22\n      tag_50\n      calldatasize\n      0x04\n      tag_51\n      jump\t// in\n    tag_50:\n      tag_52\n      jump\t// in\n        /* \"contracts/GoingUpProjects.sol\":4046:4241  function withdrawERC20(address tokenAddress, uint256 amount) external onlyAdmin {... */\n    tag_12:\n      tag_22\n      tag_54\n      calldatasize\n      0x04\n      tag_55\n      jump\t// in\n    tag_54:\n      tag_56\n      jump\t// in\n        /* \"contracts/GoingUpProjects.sol\":3622:3734  function update(uint256 id, string[] memory fields, string[] memory values) public canEditProject(id) {... */\n    tag_13:\n      tag_22\n      tag_58\n      calldatasize\n      0x04\n      tag_59\n      jump\t// in\n    tag_58:\n      tag_60\n      jump\t// in\n        /* \"contracts/GoingUpProjects.sol\":4389:4612  function withdrawERC721(address tokenAddress, uint256 tokenID) external onlyAdmin {... */\n    tag_14:\n      tag_22\n      tag_62\n      calldatasize\n      0x04\n      tag_55\n      jump\t// in\n    tag_62:\n      tag_63\n      jump\t// in\n        /* \"contracts/GoingUpProjects.sol\":1619:1662  mapping(uint256 => Project) public projects */\n    tag_19:\n      mstore(0x20, 0x04)\n      0x00\n      swap1\n      dup2\n      mstore\n      0x40\n      swap1\n      keccak256\n      dup1\n      sload\n      0x01\n      dup3\n      add\n      dup1\n      sload\n      swap2\n      swap3\n      swap2\n      tag_64\n      swap1\n      tag_65\n      jump\t// in\n    tag_64:\n      dup1\n      0x1f\n      add\n      0x20\n      dup1\n      swap2\n      div\n      mul\n      0x20\n      add\n      mload(0x40)\n      swap1\n      dup2\n      add\n      0x40\n      mstore\n      dup1\n      swap3\n      swap2\n      swap1\n      dup2\n      dup2\n      mstore\n      0x20\n      add\n      dup3\n      dup1\n      sload\n      tag_66\n      swap1\n      tag_65\n      jump\t// in\n    tag_66:\n      dup1\n      iszero\n      tag_67\n      jumpi\n      dup1\n      0x1f\n      lt\n      tag_68\n      jumpi\n      0x0100\n      dup1\n      dup4\n      sload\n      div\n      mul\n      dup4\n      mstore\n      swap2\n      0x20\n      add\n      swap2\n      jump(tag_67)\n    tag_68:\n      dup3\n      add\n      swap2\n      swap1\n      0x00\n      mstore\n      keccak256(0x00, 0x20)\n      swap1\n    tag_69:\n      dup2\n      sload\n      dup2\n      mstore\n      swap1\n      0x01\n      add\n      swap1\n      0x20\n      add\n      dup1\n      dup4\n      gt\n      tag_69\n      jumpi\n      dup3\n      swap1\n      sub\n      0x1f\n      and\n      dup3\n      add\n      swap2\n    tag_67:\n      pop\n      pop\n      pop\n      pop\n      pop\n      swap1\n      dup1\n      0x02\n      add\n      dup1\n      sload\n      tag_70\n      swap1\n      tag_65\n      jump\t// in\n    tag_70:\n      dup1\n      0x1f\n      add\n      0x20\n      dup1\n      swap2\n      div\n      mul\n      0x20\n      add\n      mload(0x40)\n      swap1\n      dup2\n      add\n      0x40\n      mstore\n      dup1\n      swap3\n      swap2\n      swap1\n      dup2\n      dup2\n      mstore\n      0x20\n      add\n      dup3\n      dup1\n      sload\n      tag_71\n      swap1\n      tag_65\n      jump\t// in\n    tag_71:\n      dup1\n      iszero\n      tag_72\n      jumpi\n      dup1\n      0x1f\n      lt\n      tag_73\n      jumpi\n      0x0100\n      dup1\n      dup4\n      sload\n      div\n      mul\n      dup4\n      mstore\n      swap2\n      0x20\n      add\n      swap2\n      jump(tag_72)\n    tag_73:\n      dup3\n      add\n      swap2\n      swap1\n      0x00\n      mstore\n      keccak256(0x00, 0x20)\n      swap1\n    tag_74:\n      dup2\n      sload\n      dup2\n      mstore\n      swap1\n      0x01\n      add\n      swap1\n      0x20\n      add\n      dup1\n      dup4\n      gt\n      tag_74\n      jumpi\n      dup3\n      swap1\n      sub\n      0x1f\n      and\n      dup3\n      add\n      swap2\n    tag_72:\n      pop\n      pop\n      pop\n      pop\n      pop\n      swap1\n      dup1\n      0x03\n      add\n      sload\n      swap1\n      dup1\n      0x04\n      add\n      sload\n      swap1\n      dup1\n      0x05\n      add\n      dup1\n      sload\n      tag_75\n      swap1\n      tag_65\n      jump\t// in\n    tag_75:\n      dup1\n      0x1f\n      add\n      0x20\n      dup1\n      swap2\n      div\n      mul\n      0x20\n      add\n      mload(0x40)\n      swap1\n      dup2\n      add\n      0x40\n      mstore\n      dup1\n      swap3\n      swap2\n      swap1\n      dup2\n      dup2\n      mstore\n      0x20\n      add\n      dup3\n      dup1\n      sload\n      tag_76\n      swap1\n      tag_65\n      jump\t// in\n    tag_76:\n      dup1\n      iszero\n      tag_77\n      jumpi\n      dup1\n      0x1f\n      lt\n      tag_78\n      jumpi\n      0x0100\n      dup1\n      dup4\n      sload\n      div\n      mul\n      dup4\n      mstore\n      swap2\n      0x20\n      add\n      swap2\n      jump(tag_77)\n    tag_78:\n      dup3\n      add\n      swap2\n      swap1\n      0x00\n      mstore\n      keccak256(0x00, 0x20)\n      swap1\n    tag_79:\n      dup2\n      sload\n      dup2\n      mstore\n      swap1\n      0x01\n      add\n      swap1\n      0x20\n      add\n      dup1\n      dup4\n      gt\n      tag_79\n      jumpi\n      dup3\n      swap1\n      sub\n      0x1f\n      and\n      dup3\n      add\n      swap2\n    tag_77:\n      pop\n      pop\n      pop\n      pop\n      0x07\n      dup4\n      add\n      sload\n      0x09\n      swap1\n      swap4\n      add\n      sload\n      swap2\n      swap3\n      sub(shl(0xa0, 0x01), 0x01)\n      and\n      swap2\n      0xff\n      dup1\n      dup3\n      and\n      swap3\n      pop\n      0x0100\n      swap1\n      swap2\n      div\n      and\n      dup10\n      jump\t// out\n        /* \"contracts/GoingUpProjects.sol\":2892:3614  function create(string memory name, string memory description, uint started, uint ended, string memory primaryUrl, string[] memory tags) public {... */\n    tag_25:\n        /* \"contracts/GoingUpProjects.sol\":3047:3072  Project memory newProject */\n      tag_81\n      mload(0x40)\n      dup1\n      0x0160\n      add\n      0x40\n      mstore\n      dup1\n      0x00\n      dup2\n      mstore\n      0x20\n      add\n      0x60\n      dup2\n      mstore\n      0x20\n      add\n      0x60\n      dup2\n      mstore\n      0x20\n      add\n      0x00\n      dup2\n      mstore\n      0x20\n      add\n      0x00\n      dup2\n      mstore\n      0x20\n      add\n      0x60\n      dup2\n      mstore\n      0x20\n      add\n      0x60\n      dup2\n      mstore\n      0x20\n      add\n      and(sub(shl(0xa0, 0x01), 0x01), 0x00)\n      dup2\n      mstore\n      0x20\n      add\n      0x60\n      dup2\n      mstore\n      0x20\n      add\n      iszero(iszero(0x00))\n      dup2\n      mstore\n      0x20\n      add\n      iszero(iszero(0x00))\n      dup2\n      mstore\n      pop\n      swap1\n      jump\n    tag_81:\n        /* \"contracts/GoingUpProjects.sol\":3101:3110  idCounter */\n      0x00\n      dup1\n      sload\n        /* \"contracts/GoingUpProjects.sol\":3085:3110  newProject.id = idCounter */\n      dup1\n      dup4\n      mstore\n        /* \"contracts/GoingUpProjects.sol\":3121:3136  newProject.name */\n      0x20\n      dup1\n      dup5\n      add\n        /* \"contracts/GoingUpProjects.sol\":3121:3143  newProject.name = name */\n      dup11\n      dup2\n      mstore\n        /* \"contracts/GoingUpProjects.sol\":3154:3176  newProject.description */\n      0x40\n      dup1\n      dup7\n      add\n        /* \"contracts/GoingUpProjects.sol\":3154:3190  newProject.description = description */\n      dup12\n      swap1\n      mstore\n        /* \"contracts/GoingUpProjects.sol\":3201:3219  newProject.started */\n      0x60\n      dup1\n      dup8\n      add\n        /* \"contracts/GoingUpProjects.sol\":3201:3229  newProject.started = started */\n      dup12\n      swap1\n      mstore\n        /* \"contracts/GoingUpProjects.sol\":3240:3256  newProject.ended */\n      0x80\n      dup8\n      add\n        /* \"contracts/GoingUpProjects.sol\":3240:3264  newProject.ended = ended */\n      dup11\n      swap1\n      mstore\n        /* \"contracts/GoingUpProjects.sol\":3275:3296  newProject.primaryUrl */\n      0xa0\n      dup8\n      add\n        /* \"contracts/GoingUpProjects.sol\":3275:3309  newProject.primaryUrl = primaryUrl */\n      dup10\n      swap1\n      mstore\n        /* \"contracts/GoingUpProjects.sol\":3320:3335  newProject.tags */\n      0xc0\n      dup8\n      add\n        /* \"contracts/GoingUpProjects.sol\":3320:3342  newProject.tags = tags */\n      dup9\n      swap1\n      mstore\n        /* \"contracts/GoingUpProjects.sol\":3372:3382  msg.sender */\n      caller\n        /* \"contracts/GoingUpProjects.sol\":3353:3369  newProject.owner */\n      0xe0\n      dup9\n      add\n        /* \"contracts/GoingUpProjects.sol\":3353:3382  newProject.owner = msg.sender */\n      mstore\n        /* \"contracts/GoingUpProjects.sol\":3428:3446  newProject.members */\n      0x0100\n      dup8\n      add\n        /* \"contracts/GoingUpProjects.sol\":3428:3456  newProject.members = members */\n      dup2\n      swap1\n      mstore\n        /* \"contracts/GoingUpProjects.sol\":3487:3491  true */\n      0x01\n        /* \"contracts/GoingUpProjects.sol\":3467:3484  newProject.active */\n      0x0120\n      dup9\n      add\n        /* \"contracts/GoingUpProjects.sol\":3467:3491  newProject.active = true */\n      dup2\n      swap1\n      mstore\n        /* \"contracts/GoingUpProjects.sol\":3502:3531  newProject.allowMembersToEdit */\n      0x0140\n      dup9\n      add\n        /* \"contracts/GoingUpProjects.sol\":3502:3539  newProject.allowMembersToEdit = false */\n      dup8\n      swap1\n      mstore\n        /* \"contracts/GoingUpProjects.sol\":3552:3571  projects[idCounter] */\n      swap5\n      dup7\n      mstore\n        /* \"contracts/GoingUpProjects.sol\":3552:3560  projects */\n      0x04\n        /* \"contracts/GoingUpProjects.sol\":3552:3571  projects[idCounter] */\n      dup5\n      mstore\n      swap5\n      keccak256\n        /* \"contracts/GoingUpProjects.sol\":3552:3584  projects[idCounter] = newProject */\n      dup6\n      mload\n      dup2\n      sstore\n      swap1\n      mload\n      dup1\n      mload\n        /* \"contracts/GoingUpProjects.sol\":3085:3095  newProject */\n      dup7\n      swap5\n        /* \"contracts/GoingUpProjects.sol\":3552:3571  projects[idCounter] */\n      swap3\n      swap4\n        /* \"contracts/GoingUpProjects.sol\":3552:3584  projects[idCounter] = newProject */\n      tag_83\n      swap4\n      dup6\n      add\n      swap3\n      add\n      swap1\n      tag_84\n      jump\t// in\n    tag_83:\n      pop\n      0x40\n      dup3\n      add\n      mload\n      dup1\n      mload\n      tag_85\n      swap2\n      0x02\n      dup5\n      add\n      swap2\n      0x20\n      swap1\n      swap2\n      add\n      swap1\n      tag_84\n      jump\t// in\n    tag_85:\n      pop\n      0x60\n      dup3\n      add\n      mload\n      0x03\n      dup3\n      add\n      sstore\n      0x80\n      dup3\n      add\n      mload\n      0x04\n      dup3\n      add\n      sstore\n      0xa0\n      dup3\n      add\n      mload\n      dup1\n      mload\n      tag_86\n      swap2\n      0x05\n      dup5\n      add\n      swap2\n      0x20\n      swap1\n      swap2\n      add\n      swap1\n      tag_84\n      jump\t// in\n    tag_86:\n      pop\n      0xc0\n      dup3\n      add\n      mload\n      dup1\n      mload\n      tag_87\n      swap2\n      0x06\n      dup5\n      add\n      swap2\n      0x20\n      swap1\n      swap2\n      add\n      swap1\n      tag_88\n      jump\t// in\n    tag_87:\n      pop\n      0xe0\n      dup3\n      add\n      mload\n      0x07\n      dup3\n      add\n      dup1\n      sload\n      not(sub(shl(0xa0, 0x01), 0x01))\n      and\n      sub(shl(0xa0, 0x01), 0x01)\n      swap1\n      swap3\n      and\n      swap2\n      swap1\n      swap2\n      or\n      swap1\n      sstore\n      0x0100\n      dup3\n      add\n      mload\n      dup1\n      mload\n      tag_89\n      swap2\n      0x08\n      dup5\n      add\n      swap2\n      0x20\n      swap1\n      swap2\n      add\n      swap1\n      tag_90\n      jump\t// in\n    tag_89:\n      pop\n      0x0120\n      dup3\n      add\n      mload\n      0x09\n      swap1\n      swap2\n      add\n      dup1\n      sload\n      0x0140\n      swap1\n      swap4\n      add\n      mload\n      iszero\n      iszero\n      0x0100\n      mul\n      not(0xff00)\n      swap3\n      iszero\n      iszero\n      swap3\n      swap1\n      swap3\n      and\n      not(0xffff)\n      swap1\n      swap4\n      and\n      swap3\n      swap1\n      swap3\n      or\n      or\n      swap1\n      sstore\n      0x00\n        /* \"contracts/GoingUpProjects.sol\":3595:3606  idCounter++ */\n      dup1\n      sload\n      swap1\n        /* \"contracts/GoingUpProjects.sol\":3552:3584  projects[idCounter] = newProject */\n      dup1\n        /* \"contracts/GoingUpProjects.sol\":3595:3606  idCounter++ */\n      tag_91\n      dup4\n      tag_92\n      jump\t// in\n    tag_91:\n      swap2\n      swap1\n      pop\n      sstore\n      pop\n        /* \"contracts/GoingUpProjects.sol\":3036:3614  {... */\n      pop\n      pop\n        /* \"contracts/GoingUpProjects.sol\":2892:3614  function create(string memory name, string memory description, uint started, uint ended, string memory primaryUrl, string[] memory tags) public {... */\n      pop\n      pop\n      pop\n      pop\n      pop\n      pop\n      jump\t// out\n        /* \"contracts/GoingUpProjects.sol\":3790:3902  function withdrawFunds() public onlyAdmin {... */\n    tag_27:\n        /* \"contracts/GoingUpProjects.sol\":883:888  owner */\n      and(sub(shl(0xa0, 0x01), 0x01), sload(0x01))\n        /* \"contracts/GoingUpProjects.sol\":892:902  msg.sender */\n      caller\n        /* \"contracts/GoingUpProjects.sol\":883:902  owner == msg.sender */\n      eq\n      dup1\n        /* \"contracts/GoingUpProjects.sol\":883:924  owner == msg.sender || admins[msg.sender] */\n      tag_94\n      jumpi\n      pop\n        /* \"contracts/GoingUpProjects.sol\":913:923  msg.sender */\n      caller\n        /* \"contracts/GoingUpProjects.sol\":906:924  admins[msg.sender] */\n      0x00\n      swap1\n      dup2\n      mstore\n        /* \"contracts/GoingUpProjects.sol\":906:912  admins */\n      0x02\n        /* \"contracts/GoingUpProjects.sol\":906:924  admins[msg.sender] */\n      0x20\n      mstore\n      0x40\n      swap1\n      keccak256\n      sload\n      0xff\n      and\n        /* \"contracts/GoingUpProjects.sol\":883:924  owner == msg.sender || admins[msg.sender] */\n    tag_94:\n        /* \"contracts/GoingUpProjects.sol\":875:938  require(owner == msg.sender || admins[msg.sender], \"not admin\") */\n      tag_95\n      jumpi\n      mload(0x40)\n      shl(0xe5, 0x461bcd)\n      dup2\n      mstore\n      0x04\n      add\n      tag_96\n      swap1\n      tag_97\n      jump\t// in\n    tag_96:\n      mload(0x40)\n      dup1\n      swap2\n      sub\n      swap1\n      revert\n    tag_95:\n        /* \"contracts/GoingUpProjects.sol\":3843:3894  payable(msg.sender).transfer(address(this).balance) */\n      mload(0x40)\n        /* \"contracts/GoingUpProjects.sol\":3851:3861  msg.sender */\n      caller\n      swap1\n        /* \"contracts/GoingUpProjects.sol\":3872:3893  address(this).balance */\n      selfbalance\n        /* \"contracts/GoingUpProjects.sol\":3843:3894  payable(msg.sender).transfer(address(this).balance) */\n      dup1\n      iszero\n      0x08fc\n      mul\n      swap2\n      0x00\n      dup2\n      dup2\n      dup2\n        /* \"contracts/GoingUpProjects.sol\":3872:3893  address(this).balance */\n      dup6\n        /* \"contracts/GoingUpProjects.sol\":3851:3861  msg.sender */\n      dup9\n        /* \"contracts/GoingUpProjects.sol\":3843:3894  payable(msg.sender).transfer(address(this).balance) */\n      dup9\n      call\n      swap4\n      pop\n      pop\n      pop\n      pop\n      iszero\n      dup1\n      iszero\n      tag_100\n      jumpi\n      returndatasize\n      0x00\n      dup1\n      returndatacopy\n      revert(0x00, returndatasize)\n    tag_100:\n      pop\n        /* \"contracts/GoingUpProjects.sol\":3790:3902  function withdrawFunds() public onlyAdmin {... */\n      jump\t// out\n        /* \"contracts/GoingUpProjects.sol\":1181:1303  function setAdmin(address targetAddress, bool isAdmin) public onlyAdmin {... */\n    tag_37:\n        /* \"contracts/GoingUpProjects.sol\":883:888  owner */\n      and(sub(shl(0xa0, 0x01), 0x01), sload(0x01))\n        /* \"contracts/GoingUpProjects.sol\":892:902  msg.sender */\n      caller\n        /* \"contracts/GoingUpProjects.sol\":883:902  owner == msg.sender */\n      eq\n      dup1\n        /* \"contracts/GoingUpProjects.sol\":883:924  owner == msg.sender || admins[msg.sender] */\n      tag_102\n      jumpi\n      pop\n        /* \"contracts/GoingUpProjects.sol\":913:923  msg.sender */\n      caller\n        /* \"contracts/GoingUpProjects.sol\":906:924  admins[msg.sender] */\n      0x00\n      swap1\n      dup2\n      mstore\n        /* \"contracts/GoingUpProjects.sol\":906:912  admins */\n      0x02\n        /* \"contracts/GoingUpProjects.sol\":906:924  admins[msg.sender] */\n      0x20\n      mstore\n      0x40\n      swap1\n      keccak256\n      sload\n      0xff\n      and\n        /* \"contracts/GoingUpProjects.sol\":883:924  owner == msg.sender || admins[msg.sender] */\n    tag_102:\n        /* \"contracts/GoingUpProjects.sol\":875:938  require(owner == msg.sender || admins[msg.sender], \"not admin\") */\n      tag_103\n      jumpi\n      mload(0x40)\n      shl(0xe5, 0x461bcd)\n      dup2\n      mstore\n      0x04\n      add\n      tag_96\n      swap1\n      tag_97\n      jump\t// in\n    tag_103:\n      sub(shl(0xa0, 0x01), 0x01)\n        /* \"contracts/GoingUpProjects.sol\":1264:1285  admins[targetAddress] */\n      swap2\n      swap1\n      swap2\n      and\n      0x00\n      swap1\n      dup2\n      mstore\n        /* \"contracts/GoingUpProjects.sol\":1264:1270  admins */\n      0x02\n        /* \"contracts/GoingUpProjects.sol\":1264:1285  admins[targetAddress] */\n      0x20\n      mstore\n      0x40\n      swap1\n      keccak256\n        /* \"contracts/GoingUpProjects.sol\":1264:1295  admins[targetAddress] = isAdmin */\n      dup1\n      sload\n      not(0xff)\n      and\n      swap2\n      iszero\n      iszero\n      swap2\n      swap1\n      swap2\n      or\n      swap1\n      sstore\n        /* \"contracts/GoingUpProjects.sol\":1181:1303  function setAdmin(address targetAddress, bool isAdmin) public onlyAdmin {... */\n      jump\t// out\n        /* \"contracts/GoingUpProjects.sol\":1523:1611  function setPrice(uint256 newPrice) public onlyAdmin {... */\n    tag_44:\n        /* \"contracts/GoingUpProjects.sol\":883:888  owner */\n      and(sub(shl(0xa0, 0x01), 0x01), sload(0x01))\n        /* \"contracts/GoingUpProjects.sol\":892:902  msg.sender */\n      caller\n        /* \"contracts/GoingUpProjects.sol\":883:902  owner == msg.sender */\n      eq\n      dup1\n        /* \"contracts/GoingUpProjects.sol\":883:924  owner == msg.sender || admins[msg.sender] */\n      tag_107\n      jumpi\n      pop\n        /* \"contracts/GoingUpProjects.sol\":913:923  msg.sender */\n      caller\n        /* \"contracts/GoingUpProjects.sol\":906:924  admins[msg.sender] */\n      0x00\n      swap1\n      dup2\n      mstore\n        /* \"contracts/GoingUpProjects.sol\":906:912  admins */\n      0x02\n        /* \"contracts/GoingUpProjects.sol\":906:924  admins[msg.sender] */\n      0x20\n      mstore\n      0x40\n      swap1\n      keccak256\n      sload\n      0xff\n      and\n        /* \"contracts/GoingUpProjects.sol\":883:924  owner == msg.sender || admins[msg.sender] */\n    tag_107:\n        /* \"contracts/GoingUpProjects.sol\":875:938  require(owner == msg.sender || admins[msg.sender], \"not admin\") */\n      tag_108\n      jumpi\n      mload(0x40)\n      shl(0xe5, 0x461bcd)\n      dup2\n      mstore\n      0x04\n      add\n      tag_96\n      swap1\n      tag_97\n      jump\t// in\n    tag_108:\n        /* \"contracts/GoingUpProjects.sol\":1587:1592  price */\n      0x03\n        /* \"contracts/GoingUpProjects.sol\":1587:1603  price = newPrice */\n      sstore\n        /* \"contracts/GoingUpProjects.sol\":1523:1611  function setPrice(uint256 newPrice) public onlyAdmin {... */\n      jump\t// out\n        /* \"contracts/GoingUpProjects.sol\":4766:5041  function withdrawERC1155(address tokenAddress, uint256 tokenID, uint256 amount, bytes memory data) external onlyAdmin {... */\n    tag_52:\n        /* \"contracts/GoingUpProjects.sol\":883:888  owner */\n      and(sub(shl(0xa0, 0x01), 0x01), sload(0x01))\n        /* \"contracts/GoingUpProjects.sol\":892:902  msg.sender */\n      caller\n        /* \"contracts/GoingUpProjects.sol\":883:902  owner == msg.sender */\n      eq\n      dup1\n        /* \"contracts/GoingUpProjects.sol\":883:924  owner == msg.sender || admins[msg.sender] */\n      tag_112\n      jumpi\n      pop\n        /* \"contracts/GoingUpProjects.sol\":913:923  msg.sender */\n      caller\n        /* \"contracts/GoingUpProjects.sol\":906:924  admins[msg.sender] */\n      0x00\n      swap1\n      dup2\n      mstore\n        /* \"contracts/GoingUpProjects.sol\":906:912  admins */\n      0x02\n        /* \"contracts/GoingUpProjects.sol\":906:924  admins[msg.sender] */\n      0x20\n      mstore\n      0x40\n      swap1\n      keccak256\n      sload\n      0xff\n      and\n        /* \"contracts/GoingUpProjects.sol\":883:924  owner == msg.sender || admins[msg.sender] */\n    tag_112:\n        /* \"contracts/GoingUpProjects.sol\":875:938  require(owner == msg.sender || admins[msg.sender], \"not admin\") */\n      tag_113\n      jumpi\n      mload(0x40)\n      shl(0xe5, 0x461bcd)\n      dup2\n      mstore\n      0x04\n      add\n      tag_96\n      swap1\n      tag_97\n      jump\t// in\n    tag_113:\n        /* \"contracts/GoingUpProjects.sol\":4953:5033  tokenContract.safeTransferFrom(address(this), msg.sender, tokenID, amount, data) */\n      mload(0x40)\n      shl(0xe1, 0x79212195)\n      dup2\n      mstore\n        /* \"contracts/GoingUpProjects.sol\":4929:4941  tokenAddress */\n      dup5\n      swap1\n      sub(shl(0xa0, 0x01), 0x01)\n        /* \"contracts/GoingUpProjects.sol\":4953:4983  tokenContract.safeTransferFrom */\n      dup3\n      and\n      swap1\n      0xf242432a\n      swap1\n        /* \"contracts/GoingUpProjects.sol\":4953:5033  tokenContract.safeTransferFrom(address(this), msg.sender, tokenID, amount, data) */\n      tag_116\n      swap1\n        /* \"contracts/GoingUpProjects.sol\":4992:4996  this */\n      address\n      swap1\n        /* \"contracts/GoingUpProjects.sol\":4999:5009  msg.sender */\n      caller\n      swap1\n        /* \"contracts/GoingUpProjects.sol\":5011:5018  tokenID */\n      dup10\n      swap1\n        /* \"contracts/GoingUpProjects.sol\":5020:5026  amount */\n      dup10\n      swap1\n        /* \"contracts/GoingUpProjects.sol\":5028:5032  data */\n      dup10\n      swap1\n        /* \"contracts/GoingUpProjects.sol\":4953:5033  tokenContract.safeTransferFrom(address(this), msg.sender, tokenID, amount, data) */\n      0x04\n      add\n      tag_117\n      jump\t// in\n    tag_116:\n      0x00\n      mload(0x40)\n      dup1\n      dup4\n      sub\n      dup2\n      0x00\n      dup8\n      dup1\n      extcodesize\n      iszero\n      dup1\n      iszero\n      tag_118\n      jumpi\n      0x00\n      dup1\n      revert\n    tag_118:\n      pop\n      gas\n      call\n      iszero\n      dup1\n      iszero\n      tag_120\n      jumpi\n      returndatasize\n      0x00\n      dup1\n      returndatacopy\n      revert(0x00, returndatasize)\n    tag_120:\n      pop\n      pop\n      pop\n      pop\n        /* \"contracts/GoingUpProjects.sol\":4884:5041  {... */\n      pop\n        /* \"contracts/GoingUpProjects.sol\":4766:5041  function withdrawERC1155(address tokenAddress, uint256 tokenID, uint256 amount, bytes memory data) external onlyAdmin {... */\n      pop\n      pop\n      pop\n      pop\n      jump\t// out\n        /* \"contracts/GoingUpProjects.sol\":4046:4241  function withdrawERC20(address tokenAddress, uint256 amount) external onlyAdmin {... */\n    tag_56:\n        /* \"contracts/GoingUpProjects.sol\":883:888  owner */\n      and(sub(shl(0xa0, 0x01), 0x01), sload(0x01))\n        /* \"contracts/GoingUpProjects.sol\":892:902  msg.sender */\n      caller\n        /* \"contracts/GoingUpProjects.sol\":883:902  owner == msg.sender */\n      eq\n      dup1\n        /* \"contracts/GoingUpProjects.sol\":883:924  owner == msg.sender || admins[msg.sender] */\n      tag_122\n      jumpi\n      pop\n        /* \"contracts/GoingUpProjects.sol\":913:923  msg.sender */\n      caller\n        /* \"contracts/GoingUpProjects.sol\":906:924  admins[msg.sender] */\n      0x00\n      swap1\n      dup2\n      mstore\n        /* \"contracts/GoingUpProjects.sol\":906:912  admins */\n      0x02\n        /* \"contracts/GoingUpProjects.sol\":906:924  admins[msg.sender] */\n      0x20\n      mstore\n      0x40\n      swap1\n      keccak256\n      sload\n      0xff\n      and\n        /* \"contracts/GoingUpProjects.sol\":883:924  owner == msg.sender || admins[msg.sender] */\n    tag_122:\n        /* \"contracts/GoingUpProjects.sol\":875:938  require(owner == msg.sender || admins[msg.sender], \"not admin\") */\n      tag_123\n      jumpi\n      mload(0x40)\n      shl(0xe5, 0x461bcd)\n      dup2\n      mstore\n      0x04\n      add\n      tag_96\n      swap1\n      tag_97\n      jump\t// in\n    tag_123:\n        /* \"contracts/GoingUpProjects.sol\":4191:4233  tokenContract.transfer(msg.sender, amount) */\n      mload(0x40)\n      shl(0xe0, 0xa9059cbb)\n      dup2\n      mstore\n        /* \"contracts/GoingUpProjects.sol\":4214:4224  msg.sender */\n      caller\n        /* \"contracts/GoingUpProjects.sol\":4191:4233  tokenContract.transfer(msg.sender, amount) */\n      0x04\n      dup3\n      add\n        /* \"#utility.yul\":9551:9602   */\n      mstore\n        /* \"#utility.yul\":9618:9636   */\n      0x24\n      dup2\n      add\n        /* \"#utility.yul\":9611:9645   */\n      dup3\n      swap1\n      mstore\n        /* \"contracts/GoingUpProjects.sol\":4167:4179  tokenAddress */\n      dup3\n      swap1\n      sub(shl(0xa0, 0x01), 0x01)\n        /* \"contracts/GoingUpProjects.sol\":4191:4213  tokenContract.transfer */\n      dup3\n      and\n      swap1\n      0xa9059cbb\n      swap1\n        /* \"#utility.yul\":9524:9542   */\n      0x44\n      add\n        /* \"contracts/GoingUpProjects.sol\":4191:4233  tokenContract.transfer(msg.sender, amount) */\n      0x20\n      mload(0x40)\n      dup1\n      dup4\n      sub\n      dup2\n      0x00\n      dup8\n      gas\n      call\n      iszero\n      dup1\n      iszero\n      tag_129\n      jumpi\n      returndatasize\n      0x00\n      dup1\n      returndatacopy\n      revert(0x00, returndatasize)\n    tag_129:\n      pop\n      pop\n      pop\n      pop\n      mload(0x40)\n      returndatasize\n      not(0x1f)\n      0x1f\n      dup3\n      add\n      and\n      dup3\n      add\n      dup1\n      0x40\n      mstore\n      pop\n      dup2\n      add\n      swap1\n      tag_130\n      swap2\n      swap1\n      tag_131\n      jump\t// in\n    tag_130:\n      pop\n        /* \"contracts/GoingUpProjects.sol\":4126:4241  {... */\n      pop\n        /* \"contracts/GoingUpProjects.sol\":4046:4241  function withdrawERC20(address tokenAddress, uint256 amount) external onlyAdmin {... */\n      pop\n      pop\n      jump\t// out\n        /* \"contracts/GoingUpProjects.sol\":3622:3734  function update(uint256 id, string[] memory fields, string[] memory values) public canEditProject(id) {... */\n    tag_60:\n        /* \"contracts/GoingUpProjects.sol\":1723:1745  Project memory project */\n      0x00\n        /* \"contracts/GoingUpProjects.sol\":1748:1767  projects[projectId] */\n      dup4\n      dup2\n      mstore\n        /* \"contracts/GoingUpProjects.sol\":1748:1756  projects */\n      0x04\n        /* \"contracts/GoingUpProjects.sol\":1748:1767  projects[projectId] */\n      0x20\n      swap1\n      dup2\n      mstore\n      0x40\n      dup1\n      dup4\n      keccak256\n        /* \"contracts/GoingUpProjects.sol\":1723:1767  Project memory project = projects[projectId] */\n      dup2\n      mload\n      0x0160\n      dup2\n      add\n      swap1\n      swap3\n      mstore\n      dup1\n      sload\n      dup3\n      mstore\n      0x01\n      dup2\n      add\n      dup1\n      sload\n        /* \"contracts/GoingUpProjects.sol\":3720:3722  id */\n      dup9\n      swap6\n        /* \"contracts/GoingUpProjects.sol\":1723:1745  Project memory project */\n      swap5\n        /* \"contracts/GoingUpProjects.sol\":1723:1767  Project memory project = projects[projectId] */\n      dup5\n      add\n      swap2\n      swap1\n      tag_133\n      swap1\n      tag_65\n      jump\t// in\n    tag_133:\n      dup1\n      0x1f\n      add\n      0x20\n      dup1\n      swap2\n      div\n      mul\n      0x20\n      add\n      mload(0x40)\n      swap1\n      dup2\n      add\n      0x40\n      mstore\n      dup1\n      swap3\n      swap2\n      swap1\n      dup2\n      dup2\n      mstore\n      0x20\n      add\n      dup3\n      dup1\n      sload\n      tag_134\n      swap1\n      tag_65\n      jump\t// in\n    tag_134:\n      dup1\n      iszero\n      tag_135\n      jumpi\n      dup1\n      0x1f\n      lt\n      tag_136\n      jumpi\n      0x0100\n      dup1\n      dup4\n      sload\n      div\n      mul\n      dup4\n      mstore\n      swap2\n      0x20\n      add\n      swap2\n      jump(tag_135)\n    tag_136:\n      dup3\n      add\n      swap2\n      swap1\n      0x00\n      mstore\n      keccak256(0x00, 0x20)\n      swap1\n    tag_137:\n      dup2\n      sload\n      dup2\n      mstore\n      swap1\n      0x01\n      add\n      swap1\n      0x20\n      add\n      dup1\n      dup4\n      gt\n      tag_137\n      jumpi\n      dup3\n      swap1\n      sub\n      0x1f\n      and\n      dup3\n      add\n      swap2\n    tag_135:\n      pop\n      pop\n      pop\n      pop\n      pop\n      dup2\n      mstore\n      0x20\n      add\n      0x02\n      dup3\n      add\n      dup1\n      sload\n      tag_138\n      swap1\n      tag_65\n      jump\t// in\n    tag_138:\n      dup1\n      0x1f\n      add\n      0x20\n      dup1\n      swap2\n      div\n      mul\n      0x20\n      add\n      mload(0x40)\n      swap1\n      dup2\n      add\n      0x40\n      mstore\n      dup1\n      swap3\n      swap2\n      swap1\n      dup2\n      dup2\n      mstore\n      0x20\n      add\n      dup3\n      dup1\n      sload\n      tag_139\n      swap1\n      tag_65\n      jump\t// in\n    tag_139:\n      dup1\n      iszero\n      tag_140\n      jumpi\n      dup1\n      0x1f\n      lt\n      tag_141\n      jumpi\n      0x0100\n      dup1\n      dup4\n      sload\n      div\n      mul\n      dup4\n      mstore\n      swap2\n      0x20\n      add\n      swap2\n      jump(tag_140)\n    tag_141:\n      dup3\n      add\n      swap2\n      swap1\n      0x00\n      mstore\n      keccak256(0x00, 0x20)\n      swap1\n    tag_142:\n      dup2\n      sload\n      dup2\n      mstore\n      swap1\n      0x01\n      add\n      swap1\n      0x20\n      add\n      dup1\n      dup4\n      gt\n      tag_142\n      jumpi\n      dup3\n      swap1\n      sub\n      0x1f\n      and\n      dup3\n      add\n      swap2\n    tag_140:\n      pop\n      pop\n      pop\n      pop\n      pop\n      dup2\n      mstore\n      0x20\n      add\n      0x03\n      dup3\n      add\n      sload\n      dup2\n      mstore\n      0x20\n      add\n      0x04\n      dup3\n      add\n      sload\n      dup2\n      mstore\n      0x20\n      add\n      0x05\n      dup3\n      add\n      dup1\n      sload\n      tag_143\n      swap1\n      tag_65\n      jump\t// in\n    tag_143:\n      dup1\n      0x1f\n      add\n      0x20\n      dup1\n      swap2\n      div\n      mul\n      0x20\n      add\n      mload(0x40)\n      swap1\n      dup2\n      add\n      0x40\n      mstore\n      dup1\n      swap3\n      swap2\n      swap1\n      dup2\n      dup2\n      mstore\n      0x20\n      add\n      dup3\n      dup1\n      sload\n      tag_144\n      swap1\n      tag_65\n      jump\t// in\n    tag_144:\n      dup1\n      iszero\n      tag_145\n      jumpi\n      dup1\n      0x1f\n      lt\n      tag_146\n      jumpi\n      0x0100\n      dup1\n      dup4\n      sload\n      div\n      mul\n      dup4\n      mstore\n      swap2\n      0x20\n      add\n      swap2\n      jump(tag_145)\n    tag_146:\n      dup3\n      add\n      swap2\n      swap1\n      0x00\n      mstore\n      keccak256(0x00, 0x20)\n      swap1\n    tag_147:\n      dup2\n      sload\n      dup2\n      mstore\n      swap1\n      0x01\n      add\n      swap1\n      0x20\n      add\n      dup1\n      dup4\n      gt\n      tag_147\n      jumpi\n      dup3\n      swap1\n      sub\n      0x1f\n      and\n      dup3\n      add\n      swap2\n    tag_145:\n      pop\n      pop\n      pop\n      pop\n      pop\n      dup2\n      mstore\n      0x20\n      add\n      0x06\n      dup3\n      add\n      dup1\n      sload\n      dup1\n      0x20\n      mul\n      0x20\n      add\n      mload(0x40)\n      swap1\n      dup2\n      add\n      0x40\n      mstore\n      dup1\n      swap3\n      swap2\n      swap1\n      dup2\n      dup2\n      mstore\n      0x20\n      add\n      0x00\n      swap1\n    tag_148:\n      dup3\n      dup3\n      lt\n      iszero\n      tag_149\n      jumpi\n      dup4\n      dup3\n      swap1\n      0x00\n      mstore\n      keccak256(0x00, 0x20)\n      add\n      dup1\n      sload\n      tag_151\n      swap1\n      tag_65\n      jump\t// in\n    tag_151:\n      dup1\n      0x1f\n      add\n      0x20\n      dup1\n      swap2\n      div\n      mul\n      0x20\n      add\n      mload(0x40)\n      swap1\n      dup2\n      add\n      0x40\n      mstore\n      dup1\n      swap3\n      swap2\n      swap1\n      dup2\n      dup2\n      mstore\n      0x20\n      add\n      dup3\n      dup1\n      sload\n      tag_152\n      swap1\n      tag_65\n      jump\t// in\n    tag_152:\n      dup1\n      iszero\n      tag_153\n      jumpi\n      dup1\n      0x1f\n      lt\n      tag_154\n      jumpi\n      0x0100\n      dup1\n      dup4\n      sload\n      div\n      mul\n      dup4\n      mstore\n      swap2\n      0x20\n      add\n      swap2\n      jump(tag_153)\n    tag_154:\n      dup3\n      add\n      swap2\n      swap1\n      0x00\n      mstore\n      keccak256(0x00, 0x20)\n      swap1\n    tag_155:\n      dup2\n      sload\n      dup2\n      mstore\n      swap1\n      0x01\n      add\n      swap1\n      0x20\n      add\n      dup1\n      dup4\n      gt\n      tag_155\n      jumpi\n      dup3\n      swap1\n      sub\n      0x1f\n      and\n      dup3\n      add\n      swap2\n    tag_153:\n      pop\n      pop\n      pop\n      pop\n      pop\n      dup2\n      mstore\n      0x20\n      add\n      swap1\n      0x01\n      add\n      swap1\n      jump(tag_148)\n    tag_149:\n      pop\n      pop\n      pop\n      swap1\n      dup3\n      mstore\n      pop\n      0x07\n      dup3\n      add\n      sload\n      sub(shl(0xa0, 0x01), 0x01)\n      and\n      0x20\n      dup1\n      dup4\n      add\n      swap2\n      swap1\n      swap2\n      mstore\n      0x08\n      dup4\n      add\n      dup1\n      sload\n      0x40\n      dup1\n      mload\n      dup3\n      dup6\n      mul\n      dup2\n      add\n      dup6\n      add\n      dup3\n      mstore\n      dup3\n      dup2\n      mstore\n      swap5\n      add\n      swap4\n      swap3\n      dup4\n      add\n      dup3\n      dup3\n      dup1\n      iszero\n      tag_156\n      jumpi\n      0x20\n      mul\n      dup3\n      add\n      swap2\n      swap1\n      0x00\n      mstore\n      keccak256(0x00, 0x20)\n      swap1\n    tag_157:\n      dup2\n      sload\n      sub(shl(0xa0, 0x01), 0x01)\n      and\n      dup2\n      mstore\n      0x01\n      swap1\n      swap2\n      add\n      swap1\n      0x20\n      add\n      dup1\n      dup4\n      gt\n      tag_157\n      jumpi\n    tag_156:\n      pop\n      pop\n      pop\n      swap2\n      dup4\n      mstore\n      pop\n      pop\n      0x09\n      swap2\n      swap1\n      swap2\n      add\n      sload\n      0xff\n      dup1\n      dup3\n      and\n      iszero\n      iszero\n      0x20\n      dup5\n      add\n      mstore\n      0x0100\n      swap1\n      swap2\n      div\n      and\n      iszero\n      iszero\n      0x40\n      swap1\n      swap2\n      add\n      mstore\n        /* \"contracts/GoingUpProjects.sol\":1806:1819  project.owner */\n      0xe0\n      dup2\n      add\n      mload\n      swap1\n      swap2\n      pop\n      sub(shl(0xa0, 0x01), 0x01)\n        /* \"contracts/GoingUpProjects.sol\":1792:1819  msg.sender == project.owner */\n      and\n        /* \"contracts/GoingUpProjects.sol\":1792:1802  msg.sender */\n      caller\n        /* \"contracts/GoingUpProjects.sol\":1788:2473  if (msg.sender == project.owner) {... */\n      eq\n      tag_164\n      jumpi\n        /* \"contracts/GoingUpProjects.sol\":1875:1882  project */\n      dup1\n        /* \"contracts/GoingUpProjects.sol\":1875:1901  project.allowMembersToEdit */\n      0x0140\n      add\n      mload\n        /* \"contracts/GoingUpProjects.sol\":1870:2450  if (!project.allowMembersToEdit) {... */\n      tag_161\n      jumpi\n        /* \"contracts/GoingUpProjects.sol\":1922:1951  revert(\"cannot edit project\") */\n      mload(0x40)\n      shl(0xe5, 0x461bcd)\n      dup2\n      mstore\n        /* \"#utility.yul\":10108:10110   */\n      0x20\n        /* \"contracts/GoingUpProjects.sol\":1922:1951  revert(\"cannot edit project\") */\n      0x04\n      dup3\n      add\n        /* \"#utility.yul\":10090:10111   */\n      mstore\n        /* \"#utility.yul\":10147:10149   */\n      0x13\n        /* \"#utility.yul\":10127:10145   */\n      0x24\n      dup3\n      add\n        /* \"#utility.yul\":10120:10150   */\n      mstore\n      shl(0x6a, 0x18d85b9b9bdd0819591a5d081c1c9bda9958dd)\n        /* \"#utility.yul\":10166:10184   */\n      0x44\n      dup3\n      add\n        /* \"#utility.yul\":10159:10208   */\n      mstore\n        /* \"#utility.yul\":10225:10243   */\n      0x64\n      add\n        /* \"contracts/GoingUpProjects.sol\":1922:1951  revert(\"cannot edit project\") */\n      tag_96\n        /* \"#utility.yul\":9906:10249   */\n      jump\n        /* \"contracts/GoingUpProjects.sol\":1870:2450  if (!project.allowMembersToEdit) {... */\n    tag_161:\n        /* \"contracts/GoingUpProjects.sol\":1992:2005  bool isMember */\n      0x00\n        /* \"contracts/GoingUpProjects.sol\":2037:2043  uint i */\n      dup1\n        /* \"contracts/GoingUpProjects.sol\":2032:2306  for (uint i = 0; i < project.members.length; i++) {... */\n    tag_165:\n        /* \"contracts/GoingUpProjects.sol\":2053:2060  project */\n      dup3\n        /* \"contracts/GoingUpProjects.sol\":2053:2068  project.members */\n      0x0100\n      add\n      mload\n        /* \"contracts/GoingUpProjects.sol\":2053:2075  project.members.length */\n      mload\n        /* \"contracts/GoingUpProjects.sol\":2049:2050  i */\n      dup2\n        /* \"contracts/GoingUpProjects.sol\":2049:2075  i < project.members.length */\n      lt\n        /* \"contracts/GoingUpProjects.sol\":2032:2306  for (uint i = 0; i < project.members.length; i++) {... */\n      iszero\n      tag_166\n      jumpi\n        /* \"contracts/GoingUpProjects.sol\":2105:2119  address member */\n      0x00\n        /* \"contracts/GoingUpProjects.sol\":2122:2129  project */\n      dup4\n        /* \"contracts/GoingUpProjects.sol\":2122:2137  project.members */\n      0x0100\n      add\n      mload\n        /* \"contracts/GoingUpProjects.sol\":2138:2139  i */\n      dup3\n        /* \"contracts/GoingUpProjects.sol\":2122:2140  project.members[i] */\n      dup2\n      mload\n      dup2\n      lt\n      tag_169\n      jumpi\n      tag_169\n      tag_170\n      jump\t// in\n    tag_169:\n      0x20\n      mul\n      0x20\n      add\n      add\n      mload\n        /* \"contracts/GoingUpProjects.sol\":2105:2140  address member = project.members[i] */\n      swap1\n      pop\n        /* \"contracts/GoingUpProjects.sol\":2181:2187  member */\n      dup1\n      sub(shl(0xa0, 0x01), 0x01)\n        /* \"contracts/GoingUpProjects.sol\":2167:2187  msg.sender == member */\n      and\n        /* \"contracts/GoingUpProjects.sol\":2167:2177  msg.sender */\n      caller\n      sub(shl(0xa0, 0x01), 0x01)\n        /* \"contracts/GoingUpProjects.sol\":2167:2187  msg.sender == member */\n      and\n      sub\n        /* \"contracts/GoingUpProjects.sol\":2163:2287  if (msg.sender == member) {... */\n      tag_171\n      jumpi\n        /* \"contracts/GoingUpProjects.sol\":2227:2231  true */\n      0x01\n        /* \"contracts/GoingUpProjects.sol\":2216:2231  isMember = true */\n      swap3\n      pop\n        /* \"contracts/GoingUpProjects.sol\":2258:2263  break */\n      pop\n      jump(tag_166)\n        /* \"contracts/GoingUpProjects.sol\":2163:2287  if (msg.sender == member) {... */\n    tag_171:\n      pop\n        /* \"contracts/GoingUpProjects.sol\":2077:2080  i++ */\n      dup1\n      tag_172\n      dup2\n      tag_92\n      jump\t// in\n    tag_172:\n      swap2\n      pop\n      pop\n        /* \"contracts/GoingUpProjects.sol\":2032:2306  for (uint i = 0; i < project.members.length; i++) {... */\n      jump(tag_165)\n    tag_166:\n      pop\n        /* \"contracts/GoingUpProjects.sol\":2331:2339  isMember */\n      dup1\n        /* \"contracts/GoingUpProjects.sol\":2326:2413  if (!isMember) {... */\n      tag_173\n      jumpi\n        /* \"contracts/GoingUpProjects.sol\":2364:2393  revert(\"cannot edit project\") */\n      mload(0x40)\n      shl(0xe5, 0x461bcd)\n      dup2\n      mstore\n        /* \"#utility.yul\":10108:10110   */\n      0x20\n        /* \"contracts/GoingUpProjects.sol\":2364:2393  revert(\"cannot edit project\") */\n      0x04\n      dup3\n      add\n        /* \"#utility.yul\":10090:10111   */\n      mstore\n        /* \"#utility.yul\":10147:10149   */\n      0x13\n        /* \"#utility.yul\":10127:10145   */\n      0x24\n      dup3\n      add\n        /* \"#utility.yul\":10120:10150   */\n      mstore\n      shl(0x6a, 0x18d85b9b9bdd0819591a5d081c1c9bda9958dd)\n        /* \"#utility.yul\":10166:10184   */\n      0x44\n      dup3\n      add\n        /* \"#utility.yul\":10159:10208   */\n      mstore\n        /* \"#utility.yul\":10225:10243   */\n      0x64\n      add\n        /* \"contracts/GoingUpProjects.sol\":2364:2393  revert(\"cannot edit project\") */\n      tag_96\n        /* \"#utility.yul\":9906:10249   */\n      jump\n        /* \"contracts/GoingUpProjects.sol\":2326:2413  if (!isMember) {... */\n    tag_173:\n        /* \"contracts/GoingUpProjects.sol\":1973:2450  {... */\n      pop\n        /* \"contracts/GoingUpProjects.sol\":1870:2450  if (!project.allowMembersToEdit) {... */\n    tag_164:\n        /* \"contracts/GoingUpProjects.sol\":1712:2483  {... */\n      pop\n        /* \"contracts/GoingUpProjects.sol\":3622:3734  function update(uint256 id, string[] memory fields, string[] memory values) public canEditProject(id) {... */\n      pop\n      pop\n      pop\n      pop\n      jump\t// out\n        /* \"contracts/GoingUpProjects.sol\":4389:4612  function withdrawERC721(address tokenAddress, uint256 tokenID) external onlyAdmin {... */\n    tag_63:\n        /* \"contracts/GoingUpProjects.sol\":883:888  owner */\n      and(sub(shl(0xa0, 0x01), 0x01), sload(0x01))\n        /* \"contracts/GoingUpProjects.sol\":892:902  msg.sender */\n      caller\n        /* \"contracts/GoingUpProjects.sol\":883:902  owner == msg.sender */\n      eq\n      dup1\n        /* \"contracts/GoingUpProjects.sol\":883:924  owner == msg.sender || admins[msg.sender] */\n      tag_177\n      jumpi\n      pop\n        /* \"contracts/GoingUpProjects.sol\":913:923  msg.sender */\n      caller\n        /* \"contracts/GoingUpProjects.sol\":906:924  admins[msg.sender] */\n      0x00\n      swap1\n      dup2\n      mstore\n        /* \"contracts/GoingUpProjects.sol\":906:912  admins */\n      0x02\n        /* \"contracts/GoingUpProjects.sol\":906:924  admins[msg.sender] */\n      0x20\n      mstore\n      0x40\n      swap1\n      keccak256\n      sload\n      0xff\n      and\n        /* \"contracts/GoingUpProjects.sol\":883:924  owner == msg.sender || admins[msg.sender] */\n    tag_177:\n        /* \"contracts/GoingUpProjects.sol\":875:938  require(owner == msg.sender || admins[msg.sender], \"not admin\") */\n      tag_178\n      jumpi\n      mload(0x40)\n      shl(0xe5, 0x461bcd)\n      dup2\n      mstore\n      0x04\n      add\n      tag_96\n      swap1\n      tag_97\n      jump\t// in\n    tag_178:\n        /* \"contracts/GoingUpProjects.sol\":4538:4604  tokenContract.safeTransferFrom(address(this), msg.sender, tokenID) */\n      mload(0x40)\n      shl(0xe1, 0x21421707)\n      dup2\n      mstore\n        /* \"contracts/GoingUpProjects.sol\":4577:4581  this */\n      address\n        /* \"contracts/GoingUpProjects.sol\":4538:4604  tokenContract.safeTransferFrom(address(this), msg.sender, tokenID) */\n      0x04\n      dup3\n      add\n        /* \"#utility.yul\":10626:10660   */\n      mstore\n        /* \"contracts/GoingUpProjects.sol\":4584:4594  msg.sender */\n      caller\n        /* \"#utility.yul\":10676:10694   */\n      0x24\n      dup3\n      add\n        /* \"#utility.yul\":10669:10712   */\n      mstore\n        /* \"#utility.yul\":10728:10746   */\n      0x44\n      dup2\n      add\n        /* \"#utility.yul\":10721:10755   */\n      dup3\n      swap1\n      mstore\n        /* \"contracts/GoingUpProjects.sol\":4514:4526  tokenAddress */\n      dup3\n      swap1\n      sub(shl(0xa0, 0x01), 0x01)\n        /* \"contracts/GoingUpProjects.sol\":4538:4568  tokenContract.safeTransferFrom */\n      dup3\n      and\n      swap1\n      0x42842e0e\n      swap1\n        /* \"#utility.yul\":10561:10579   */\n      0x64\n      add\n        /* \"contracts/GoingUpProjects.sol\":4538:4604  tokenContract.safeTransferFrom(address(this), msg.sender, tokenID) */\n      0x00\n      mload(0x40)\n      dup1\n      dup4\n      sub\n      dup2\n      0x00\n      dup8\n      dup1\n      extcodesize\n      iszero\n      dup1\n      iszero\n      tag_183\n      jumpi\n      0x00\n      dup1\n      revert\n    tag_183:\n      pop\n      gas\n      call\n      iszero\n      dup1\n      iszero\n      tag_185\n      jumpi\n      returndatasize\n      0x00\n      dup1\n      returndatacopy\n      revert(0x00, returndatasize)\n    tag_185:\n      pop\n      pop\n      pop\n      pop\n        /* \"contracts/GoingUpProjects.sol\":4471:4612  {... */\n      pop\n        /* \"contracts/GoingUpProjects.sol\":4389:4612  function withdrawERC721(address tokenAddress, uint256 tokenID) external onlyAdmin {... */\n      pop\n      pop\n      jump\t// out\n    tag_84:\n      dup3\n      dup1\n      sload\n      tag_186\n      swap1\n      tag_65\n      jump\t// in\n    tag_186:\n      swap1\n      0x00\n      mstore\n      keccak256(0x00, 0x20)\n      swap1\n      0x1f\n      add\n      0x20\n      swap1\n      div\n      dup2\n      add\n      swap3\n      dup3\n      tag_188\n      jumpi\n      0x00\n      dup6\n      sstore\n      jump(tag_191)\n    tag_188:\n      dup3\n      0x1f\n      lt\n      tag_189\n      jumpi\n      dup1\n      mload\n      not(0xff)\n      and\n      dup4\n      dup1\n      add\n      or\n      dup6\n      sstore\n      jump(tag_191)\n    tag_189:\n      dup3\n      dup1\n      add\n      0x01\n      add\n      dup6\n      sstore\n      dup3\n      iszero\n      tag_191\n      jumpi\n      swap2\n      dup3\n      add\n    tag_190:\n      dup3\n      dup2\n      gt\n      iszero\n      tag_191\n      jumpi\n      dup3\n      mload\n      dup3\n      sstore\n      swap2\n      0x20\n      add\n      swap2\n      swap1\n      0x01\n      add\n      swap1\n      jump(tag_190)\n    tag_191:\n      pop\n      tag_192\n      swap3\n      swap2\n      pop\n      tag_193\n      jump\t// in\n    tag_192:\n      pop\n      swap1\n      jump\t// out\n    tag_88:\n      dup3\n      dup1\n      sload\n      dup3\n      dup3\n      sstore\n      swap1\n      0x00\n      mstore\n      keccak256(0x00, 0x20)\n      swap1\n      dup2\n      add\n      swap3\n      dup3\n      iszero\n      tag_196\n      jumpi\n      swap2\n      0x20\n      mul\n      dup3\n      add\n    tag_195:\n      dup3\n      dup2\n      gt\n      iszero\n      tag_196\n      jumpi\n      dup3\n      mload\n      dup1\n      mload\n      tag_197\n      swap2\n      dup5\n      swap2\n      0x20\n      swap1\n      swap2\n      add\n      swap1\n      tag_84\n      jump\t// in\n    tag_197:\n      pop\n      swap2\n      0x20\n      add\n      swap2\n      swap1\n      0x01\n      add\n      swap1\n      jump(tag_195)\n    tag_196:\n      pop\n      tag_192\n      swap3\n      swap2\n      pop\n      tag_199\n      jump\t// in\n    tag_90:\n      dup3\n      dup1\n      sload\n      dup3\n      dup3\n      sstore\n      swap1\n      0x00\n      mstore\n      keccak256(0x00, 0x20)\n      swap1\n      dup2\n      add\n      swap3\n      dup3\n      iszero\n      tag_191\n      jumpi\n      swap2\n      0x20\n      mul\n      dup3\n      add\n    tag_201:\n      dup3\n      dup2\n      gt\n      iszero\n      tag_191\n      jumpi\n      dup3\n      mload\n      dup3\n      sload\n      not(sub(shl(0xa0, 0x01), 0x01))\n      and\n      sub(shl(0xa0, 0x01), 0x01)\n      swap1\n      swap2\n      and\n      or\n      dup3\n      sstore\n      0x20\n      swap1\n      swap3\n      add\n      swap2\n      0x01\n      swap1\n      swap2\n      add\n      swap1\n      jump(tag_201)\n    tag_193:\n    tag_204:\n      dup1\n      dup3\n      gt\n      iszero\n      tag_192\n      jumpi\n      0x00\n      dup2\n      sstore\n      0x01\n      add\n      jump(tag_204)\n    tag_199:\n      dup1\n      dup3\n      gt\n      iszero\n      tag_192\n      jumpi\n      0x00\n      tag_208\n      dup3\n      dup3\n      tag_209\n      jump\t// in\n    tag_208:\n      pop\n      0x01\n      add\n      jump(tag_199)\n    tag_209:\n      pop\n      dup1\n      sload\n      tag_210\n      swap1\n      tag_65\n      jump\t// in\n    tag_210:\n      0x00\n      dup3\n      sstore\n      dup1\n      0x1f\n      lt\n      tag_212\n      jumpi\n      pop\n      pop\n      jump\t// out\n    tag_212:\n      0x1f\n      add\n      0x20\n      swap1\n      div\n      swap1\n      0x00\n      mstore\n      keccak256(0x00, 0x20)\n      swap1\n      dup2\n      add\n      swap1\n      tag_100\n      swap2\n      swap1\n      tag_193\n      jump\t// in\n        /* \"#utility.yul\":14:194   */\n    tag_18:\n        /* \"#utility.yul\":73:79   */\n      0x00\n        /* \"#utility.yul\":126:128   */\n      0x20\n        /* \"#utility.yul\":114:123   */\n      dup3\n        /* \"#utility.yul\":105:112   */\n      dup5\n        /* \"#utility.yul\":101:124   */\n      sub\n        /* \"#utility.yul\":97:129   */\n      slt\n        /* \"#utility.yul\":94:146   */\n      iszero\n      tag_224\n      jumpi\n        /* \"#utility.yul\":142:143   */\n      0x00\n        /* \"#utility.yul\":139:140   */\n      dup1\n        /* \"#utility.yul\":132:144   */\n      revert\n        /* \"#utility.yul\":94:146   */\n    tag_224:\n      pop\n        /* \"#utility.yul\":165:188   */\n      calldataload\n      swap2\n        /* \"#utility.yul\":14:194   */\n      swap1\n      pop\n      jump\t// out\n        /* \"#utility.yul\":199:671   */\n    tag_214:\n        /* \"#utility.yul\":241:244   */\n      0x00\n        /* \"#utility.yul\":279:284   */\n      dup2\n        /* \"#utility.yul\":273:285   */\n      mload\n        /* \"#utility.yul\":306:312   */\n      dup1\n        /* \"#utility.yul\":301:304   */\n      dup5\n        /* \"#utility.yul\":294:313   */\n      mstore\n        /* \"#utility.yul\":331:332   */\n      0x00\n        /* \"#utility.yul\":341:503   */\n    tag_226:\n        /* \"#utility.yul\":355:361   */\n      dup2\n        /* \"#utility.yul\":352:353   */\n      dup2\n        /* \"#utility.yul\":349:362   */\n      lt\n        /* \"#utility.yul\":341:503   */\n      iszero\n      tag_228\n      jumpi\n        /* \"#utility.yul\":417:421   */\n      0x20\n        /* \"#utility.yul\":473:486   */\n      dup2\n      dup6\n      add\n        /* \"#utility.yul\":469:491   */\n      dup2\n      add\n        /* \"#utility.yul\":463:492   */\n      mload\n        /* \"#utility.yul\":445:456   */\n      dup7\n      dup4\n      add\n        /* \"#utility.yul\":441:461   */\n      dup3\n      add\n        /* \"#utility.yul\":434:493   */\n      mstore\n        /* \"#utility.yul\":370:382   */\n      add\n        /* \"#utility.yul\":341:503   */\n      jump(tag_226)\n    tag_228:\n        /* \"#utility.yul\":521:527   */\n      dup2\n        /* \"#utility.yul\":518:519   */\n      dup2\n        /* \"#utility.yul\":515:528   */\n      gt\n        /* \"#utility.yul\":512:599   */\n      iszero\n      tag_229\n      jumpi\n        /* \"#utility.yul\":587:588   */\n      0x00\n        /* \"#utility.yul\":580:584   */\n      0x20\n        /* \"#utility.yul\":571:577   */\n      dup4\n        /* \"#utility.yul\":566:569   */\n      dup8\n        /* \"#utility.yul\":562:578   */\n      add\n        /* \"#utility.yul\":558:585   */\n      add\n        /* \"#utility.yul\":551:589   */\n      mstore\n        /* \"#utility.yul\":512:599   */\n    tag_229:\n      pop\n        /* \"#utility.yul\":653:655   */\n      0x1f\n        /* \"#utility.yul\":632:647   */\n      add\n      not(0x1f)\n        /* \"#utility.yul\":628:657   */\n      and\n        /* \"#utility.yul\":619:658   */\n      swap3\n      swap1\n      swap3\n      add\n        /* \"#utility.yul\":660:664   */\n      0x20\n        /* \"#utility.yul\":615:665   */\n      add\n      swap3\n        /* \"#utility.yul\":199:671   */\n      swap2\n      pop\n      pop\n      jump\t// out\n        /* \"#utility.yul\":676:1721   */\n    tag_21:\n        /* \"#utility.yul\":1040:1044   */\n      0x00\n        /* \"#utility.yul\":1069:1072   */\n      0x0120\n        /* \"#utility.yul\":1099:1105   */\n      dup12\n        /* \"#utility.yul\":1088:1097   */\n      dup4\n        /* \"#utility.yul\":1081:1106   */\n      mstore\n        /* \"#utility.yul\":1142:1144   */\n      dup1\n        /* \"#utility.yul\":1137:1139   */\n      0x20\n        /* \"#utility.yul\":1126:1135   */\n      dup5\n        /* \"#utility.yul\":1122:1140   */\n      add\n        /* \"#utility.yul\":1115:1145   */\n      mstore\n        /* \"#utility.yul\":1168:1213   */\n      tag_231\n        /* \"#utility.yul\":1209:1211   */\n      dup2\n        /* \"#utility.yul\":1198:1207   */\n      dup5\n        /* \"#utility.yul\":1194:1212   */\n      add\n        /* \"#utility.yul\":1186:1192   */\n      dup13\n        /* \"#utility.yul\":1168:1213   */\n      tag_214\n      jump\t// in\n    tag_231:\n        /* \"#utility.yul\":1154:1213   */\n      swap1\n      pop\n        /* \"#utility.yul\":1261:1270   */\n      dup3\n        /* \"#utility.yul\":1253:1259   */\n      dup2\n        /* \"#utility.yul\":1249:1271   */\n      sub\n        /* \"#utility.yul\":1244:1246   */\n      0x40\n        /* \"#utility.yul\":1233:1242   */\n      dup5\n        /* \"#utility.yul\":1229:1247   */\n      add\n        /* \"#utility.yul\":1222:1272   */\n      mstore\n        /* \"#utility.yul\":1295:1328   */\n      tag_232\n        /* \"#utility.yul\":1321:1327   */\n      dup2\n        /* \"#utility.yul\":1313:1319   */\n      dup12\n        /* \"#utility.yul\":1295:1328   */\n      tag_214\n      jump\t// in\n    tag_232:\n        /* \"#utility.yul\":1281:1328   */\n      swap1\n      pop\n        /* \"#utility.yul\":1364:1370   */\n      dup9\n        /* \"#utility.yul\":1359:1361   */\n      0x60\n        /* \"#utility.yul\":1348:1357   */\n      dup5\n        /* \"#utility.yul\":1344:1362   */\n      add\n        /* \"#utility.yul\":1337:1371   */\n      mstore\n        /* \"#utility.yul\":1408:1414   */\n      dup8\n        /* \"#utility.yul\":1402:1405   */\n      0x80\n        /* \"#utility.yul\":1391:1400   */\n      dup5\n        /* \"#utility.yul\":1387:1406   */\n      add\n        /* \"#utility.yul\":1380:1415   */\n      mstore\n        /* \"#utility.yul\":1464:1473   */\n      dup3\n        /* \"#utility.yul\":1456:1462   */\n      dup2\n        /* \"#utility.yul\":1452:1474   */\n      sub\n        /* \"#utility.yul\":1446:1449   */\n      0xa0\n        /* \"#utility.yul\":1435:1444   */\n      dup5\n        /* \"#utility.yul\":1431:1450   */\n      add\n        /* \"#utility.yul\":1424:1475   */\n      mstore\n        /* \"#utility.yul\":1492:1525   */\n      tag_233\n        /* \"#utility.yul\":1518:1524   */\n      dup2\n        /* \"#utility.yul\":1510:1516   */\n      dup9\n        /* \"#utility.yul\":1492:1525   */\n      tag_214\n      jump\t// in\n    tag_233:\n      sub(shl(0xa0, 0x01), 0x01)\n        /* \"#utility.yul\":1562:1594   */\n      swap7\n      swap1\n      swap7\n      and\n        /* \"#utility.yul\":1556:1559   */\n      0xc0\n        /* \"#utility.yul\":1541:1560   */\n      dup5\n      add\n        /* \"#utility.yul\":1534:1595   */\n      mstore\n      pop\n      pop\n        /* \"#utility.yul\":1639:1653   */\n      swap2\n      iszero\n        /* \"#utility.yul\":1632:1654   */\n      iszero\n        /* \"#utility.yul\":1626:1629   */\n      0xe0\n        /* \"#utility.yul\":1611:1630   */\n      dup4\n      add\n        /* \"#utility.yul\":1604:1655   */\n      mstore\n        /* \"#utility.yul\":1699:1713   */\n      iszero\n        /* \"#utility.yul\":1692:1714   */\n      iszero\n        /* \"#utility.yul\":1686:1689   */\n      0x0100\n        /* \"#utility.yul\":1671:1690   */\n      swap1\n      swap2\n      add\n        /* \"#utility.yul\":1664:1715   */\n      mstore\n        /* \"#utility.yul\":1484:1525   */\n      swap7\n        /* \"#utility.yul\":676:1721   */\n      swap6\n      pop\n      pop\n      pop\n      pop\n      pop\n      pop\n      jump\t// out\n        /* \"#utility.yul\":1726:1853   */\n    tag_215:\n        /* \"#utility.yul\":1787:1797   */\n      0x4e487b71\n        /* \"#utility.yul\":1782:1785   */\n      0xe0\n        /* \"#utility.yul\":1778:1798   */\n      shl\n        /* \"#utility.yul\":1775:1776   */\n      0x00\n        /* \"#utility.yul\":1768:1799   */\n      mstore\n        /* \"#utility.yul\":1818:1822   */\n      0x41\n        /* \"#utility.yul\":1815:1816   */\n      0x04\n        /* \"#utility.yul\":1808:1823   */\n      mstore\n        /* \"#utility.yul\":1842:1846   */\n      0x24\n        /* \"#utility.yul\":1839:1840   */\n      0x00\n        /* \"#utility.yul\":1832:1847   */\n      revert\n        /* \"#utility.yul\":1858:2133   */\n    tag_216:\n        /* \"#utility.yul\":1929:1931   */\n      0x40\n        /* \"#utility.yul\":1923:1932   */\n      mload\n        /* \"#utility.yul\":1994:1996   */\n      0x1f\n        /* \"#utility.yul\":1975:1988   */\n      dup3\n      add\n      not(0x1f)\n        /* \"#utility.yul\":1971:1998   */\n      and\n        /* \"#utility.yul\":1959:1999   */\n      dup2\n      add\n        /* \"#utility.yul\":2029:2047   */\n      0xffffffffffffffff\n        /* \"#utility.yul\":2014:2048   */\n      dup2\n      gt\n        /* \"#utility.yul\":2050:2072   */\n      dup3\n      dup3\n      lt\n        /* \"#utility.yul\":2011:2073   */\n      or\n        /* \"#utility.yul\":2008:2096   */\n      iszero\n      tag_237\n      jumpi\n        /* \"#utility.yul\":2076:2094   */\n      tag_237\n      tag_215\n      jump\t// in\n    tag_237:\n        /* \"#utility.yul\":2112:2114   */\n      0x40\n        /* \"#utility.yul\":2105:2127   */\n      mstore\n        /* \"#utility.yul\":1858:2133   */\n      swap2\n      swap1\n      pop\n      jump\t// out\n        /* \"#utility.yul\":2138:2545   */\n    tag_217:\n        /* \"#utility.yul\":2203:2208   */\n      0x00\n        /* \"#utility.yul\":2237:2255   */\n      0xffffffffffffffff\n        /* \"#utility.yul\":2229:2235   */\n      dup4\n        /* \"#utility.yul\":2226:2256   */\n      gt\n        /* \"#utility.yul\":2223:2279   */\n      iszero\n      tag_240\n      jumpi\n        /* \"#utility.yul\":2259:2277   */\n      tag_240\n      tag_215\n      jump\t// in\n    tag_240:\n        /* \"#utility.yul\":2297:2354   */\n      tag_241\n        /* \"#utility.yul\":2342:2344   */\n      0x1f\n        /* \"#utility.yul\":2321:2336   */\n      dup5\n      add\n      not(0x1f)\n        /* \"#utility.yul\":2317:2346   */\n      and\n        /* \"#utility.yul\":2348:2352   */\n      0x20\n        /* \"#utility.yul\":2313:2353   */\n      add\n        /* \"#utility.yul\":2297:2354   */\n      tag_216\n      jump\t// in\n    tag_241:\n        /* \"#utility.yul\":2288:2354   */\n      swap1\n      pop\n        /* \"#utility.yul\":2377:2383   */\n      dup3\n        /* \"#utility.yul\":2370:2375   */\n      dup2\n        /* \"#utility.yul\":2363:2384   */\n      mstore\n        /* \"#utility.yul\":2417:2420   */\n      dup4\n        /* \"#utility.yul\":2408:2414   */\n      dup4\n        /* \"#utility.yul\":2403:2406   */\n      dup4\n        /* \"#utility.yul\":2399:2415   */\n      add\n        /* \"#utility.yul\":2396:2421   */\n      gt\n        /* \"#utility.yul\":2393:2438   */\n      iszero\n      tag_242\n      jumpi\n        /* \"#utility.yul\":2434:2435   */\n      0x00\n        /* \"#utility.yul\":2431:2432   */\n      dup1\n        /* \"#utility.yul\":2424:2436   */\n      revert\n        /* \"#utility.yul\":2393:2438   */\n    tag_242:\n        /* \"#utility.yul\":2483:2489   */\n      dup3\n        /* \"#utility.yul\":2478:2481   */\n      dup3\n        /* \"#utility.yul\":2471:2475   */\n      0x20\n        /* \"#utility.yul\":2464:2469   */\n      dup4\n        /* \"#utility.yul\":2460:2476   */\n      add\n        /* \"#utility.yul\":2447:2490   */\n      calldatacopy\n        /* \"#utility.yul\":2537:2538   */\n      0x00\n        /* \"#utility.yul\":2530:2534   */\n      0x20\n        /* \"#utility.yul\":2521:2527   */\n      dup5\n        /* \"#utility.yul\":2514:2519   */\n      dup4\n        /* \"#utility.yul\":2510:2528   */\n      add\n        /* \"#utility.yul\":2506:2535   */\n      add\n        /* \"#utility.yul\":2499:2539   */\n      mstore\n        /* \"#utility.yul\":2138:2545   */\n      swap4\n      swap3\n      pop\n      pop\n      pop\n      jump\t// out\n        /* \"#utility.yul\":2550:2772   */\n    tag_218:\n        /* \"#utility.yul\":2593:2598   */\n      0x00\n        /* \"#utility.yul\":2646:2649   */\n      dup3\n        /* \"#utility.yul\":2639:2643   */\n      0x1f\n        /* \"#utility.yul\":2631:2637   */\n      dup4\n        /* \"#utility.yul\":2627:2644   */\n      add\n        /* \"#utility.yul\":2623:2650   */\n      slt\n        /* \"#utility.yul\":2613:2668   */\n      tag_244\n      jumpi\n        /* \"#utility.yul\":2664:2665   */\n      0x00\n        /* \"#utility.yul\":2661:2662   */\n      dup1\n        /* \"#utility.yul\":2654:2666   */\n      revert\n        /* \"#utility.yul\":2613:2668   */\n    tag_244:\n        /* \"#utility.yul\":2686:2766   */\n      tag_245\n        /* \"#utility.yul\":2762:2765   */\n      dup4\n        /* \"#utility.yul\":2753:2759   */\n      dup4\n        /* \"#utility.yul\":2740:2760   */\n      calldataload\n        /* \"#utility.yul\":2733:2737   */\n      0x20\n        /* \"#utility.yul\":2725:2731   */\n      dup6\n        /* \"#utility.yul\":2721:2738   */\n      add\n        /* \"#utility.yul\":2686:2766   */\n      tag_217\n      jump\t// in\n    tag_245:\n        /* \"#utility.yul\":2677:2766   */\n      swap4\n        /* \"#utility.yul\":2550:2772   */\n      swap3\n      pop\n      pop\n      pop\n      jump\t// out\n        /* \"#utility.yul\":2777:3720   */\n    tag_219:\n        /* \"#utility.yul\":2830:2835   */\n      0x00\n        /* \"#utility.yul\":2883:2886   */\n      dup3\n        /* \"#utility.yul\":2876:2880   */\n      0x1f\n        /* \"#utility.yul\":2868:2874   */\n      dup4\n        /* \"#utility.yul\":2864:2881   */\n      add\n        /* \"#utility.yul\":2860:2887   */\n      slt\n        /* \"#utility.yul\":2850:2905   */\n      tag_247\n      jumpi\n        /* \"#utility.yul\":2901:2902   */\n      0x00\n        /* \"#utility.yul\":2898:2899   */\n      dup1\n        /* \"#utility.yul\":2891:2903   */\n      revert\n        /* \"#utility.yul\":2850:2905   */\n    tag_247:\n        /* \"#utility.yul\":2937:2943   */\n      dup2\n        /* \"#utility.yul\":2924:2944   */\n      calldataload\n        /* \"#utility.yul\":2963:2967   */\n      0x20\n        /* \"#utility.yul\":2986:3004   */\n      0xffffffffffffffff\n        /* \"#utility.yul\":3023:3025   */\n      dup1\n        /* \"#utility.yul\":3019:3021   */\n      dup4\n        /* \"#utility.yul\":3016:3026   */\n      gt\n        /* \"#utility.yul\":3013:3049   */\n      iszero\n      tag_249\n      jumpi\n        /* \"#utility.yul\":3029:3047   */\n      tag_249\n      tag_215\n      jump\t// in\n    tag_249:\n        /* \"#utility.yul\":3075:3077   */\n      dup3\n        /* \"#utility.yul\":3072:3073   */\n      0x05\n        /* \"#utility.yul\":3068:3078   */\n      shl\n        /* \"#utility.yul\":3098:3126   */\n      tag_250\n        /* \"#utility.yul\":3122:3124   */\n      dup4\n        /* \"#utility.yul\":3118:3120   */\n      dup3\n        /* \"#utility.yul\":3114:3125   */\n      add\n        /* \"#utility.yul\":3098:3126   */\n      tag_216\n      jump\t// in\n    tag_250:\n        /* \"#utility.yul\":3160:3175   */\n      swap4\n      dup5\n      mstore\n        /* \"#utility.yul\":3230:3245   */\n      dup6\n      dup2\n      add\n        /* \"#utility.yul\":3226:3250   */\n      dup4\n      add\n      swap4\n        /* \"#utility.yul\":3191:3203   */\n      dup4\n      dup2\n      add\n      swap1\n        /* \"#utility.yul\":3262:3277   */\n      dup9\n      dup7\n      gt\n        /* \"#utility.yul\":3259:3294   */\n      iszero\n      tag_251\n      jumpi\n        /* \"#utility.yul\":3290:3291   */\n      0x00\n        /* \"#utility.yul\":3287:3288   */\n      dup1\n        /* \"#utility.yul\":3280:3292   */\n      revert\n        /* \"#utility.yul\":3259:3294   */\n    tag_251:\n        /* \"#utility.yul\":3326:3328   */\n      dup5\n        /* \"#utility.yul\":3318:3324   */\n      dup9\n        /* \"#utility.yul\":3314:3329   */\n      add\n        /* \"#utility.yul\":3303:3329   */\n      swap3\n      pop\n        /* \"#utility.yul\":3338:3691   */\n    tag_252:\n        /* \"#utility.yul\":3354:3360   */\n      dup6\n        /* \"#utility.yul\":3349:3352   */\n      dup4\n        /* \"#utility.yul\":3346:3361   */\n      lt\n        /* \"#utility.yul\":3338:3691   */\n      iszero\n      tag_254\n      jumpi\n        /* \"#utility.yul\":3440:3443   */\n      dup3\n        /* \"#utility.yul\":3427:3444   */\n      calldataload\n        /* \"#utility.yul\":3476:3478   */\n      dup5\n        /* \"#utility.yul\":3463:3474   */\n      dup2\n        /* \"#utility.yul\":3460:3479   */\n      gt\n        /* \"#utility.yul\":3457:3566   */\n      iszero\n      tag_255\n      jumpi\n        /* \"#utility.yul\":3520:3521   */\n      0x00\n        /* \"#utility.yul\":3549:3551   */\n      dup1\n        /* \"#utility.yul\":3545:3547   */\n      dup2\n        /* \"#utility.yul\":3538:3552   */\n      revert\n        /* \"#utility.yul\":3457:3566   */\n    tag_255:\n        /* \"#utility.yul\":3591:3648   */\n      tag_256\n        /* \"#utility.yul\":3644:3647   */\n      dup11\n        /* \"#utility.yul\":3639:3641   */\n      dup8\n        /* \"#utility.yul\":3625:3636   */\n      dup4\n        /* \"#utility.yul\":3617:3623   */\n      dup13\n        /* \"#utility.yul\":3613:3637   */\n      add\n        /* \"#utility.yul\":3609:3642   */\n      add\n        /* \"#utility.yul\":3591:3648   */\n      tag_218\n      jump\t// in\n    tag_256:\n        /* \"#utility.yul\":3579:3649   */\n      dup4\n      mstore\n      pop\n        /* \"#utility.yul\":3371:3383   */\n      swap2\n      dup5\n      add\n      swap2\n        /* \"#utility.yul\":3669:3681   */\n      swap1\n      dup5\n      add\n      swap1\n        /* \"#utility.yul\":3338:3691   */\n      jump(tag_252)\n    tag_254:\n        /* \"#utility.yul\":3709:3714   */\n      swap9\n        /* \"#utility.yul\":2777:3720   */\n      swap8\n      pop\n      pop\n      pop\n      pop\n      pop\n      pop\n      pop\n      pop\n      jump\t// out\n        /* \"#utility.yul\":3725:4842   */\n    tag_24:\n        /* \"#utility.yul\":3894:3900   */\n      0x00\n        /* \"#utility.yul\":3902:3908   */\n      dup1\n        /* \"#utility.yul\":3910:3916   */\n      0x00\n        /* \"#utility.yul\":3918:3924   */\n      dup1\n        /* \"#utility.yul\":3926:3932   */\n      0x00\n        /* \"#utility.yul\":3934:3940   */\n      dup1\n        /* \"#utility.yul\":3987:3990   */\n      0xc0\n        /* \"#utility.yul\":3975:3984   */\n      dup8\n        /* \"#utility.yul\":3966:3973   */\n      dup10\n        /* \"#utility.yul\":3962:3985   */\n      sub\n        /* \"#utility.yul\":3958:3991   */\n      slt\n        /* \"#utility.yul\":3955:4008   */\n      iszero\n      tag_258\n      jumpi\n        /* \"#utility.yul\":4004:4005   */\n      0x00\n        /* \"#utility.yul\":4001:4002   */\n      dup1\n        /* \"#utility.yul\":3994:4006   */\n      revert\n        /* \"#utility.yul\":3955:4008   */\n    tag_258:\n        /* \"#utility.yul\":4044:4053   */\n      dup7\n        /* \"#utility.yul\":4031:4054   */\n      calldataload\n        /* \"#utility.yul\":4073:4091   */\n      0xffffffffffffffff\n        /* \"#utility.yul\":4114:4116   */\n      dup1\n        /* \"#utility.yul\":4106:4112   */\n      dup3\n        /* \"#utility.yul\":4103:4117   */\n      gt\n        /* \"#utility.yul\":4100:4134   */\n      iszero\n      tag_259\n      jumpi\n        /* \"#utility.yul\":4130:4131   */\n      0x00\n        /* \"#utility.yul\":4127:4128   */\n      dup1\n        /* \"#utility.yul\":4120:4132   */\n      revert\n        /* \"#utility.yul\":4100:4134   */\n    tag_259:\n        /* \"#utility.yul\":4153:4203   */\n      tag_260\n        /* \"#utility.yul\":4195:4202   */\n      dup11\n        /* \"#utility.yul\":4186:4192   */\n      dup4\n        /* \"#utility.yul\":4175:4184   */\n      dup12\n        /* \"#utility.yul\":4171:4193   */\n      add\n        /* \"#utility.yul\":4153:4203   */\n      tag_218\n      jump\t// in\n    tag_260:\n        /* \"#utility.yul\":4143:4203   */\n      swap8\n      pop\n        /* \"#utility.yul\":4256:4258   */\n      0x20\n        /* \"#utility.yul\":4245:4254   */\n      dup10\n        /* \"#utility.yul\":4241:4259   */\n      add\n        /* \"#utility.yul\":4228:4260   */\n      calldataload\n        /* \"#utility.yul\":4212:4260   */\n      swap2\n      pop\n        /* \"#utility.yul\":4285:4287   */\n      dup1\n        /* \"#utility.yul\":4275:4283   */\n      dup3\n        /* \"#utility.yul\":4272:4288   */\n      gt\n        /* \"#utility.yul\":4269:4305   */\n      iszero\n      tag_261\n      jumpi\n        /* \"#utility.yul\":4301:4302   */\n      0x00\n        /* \"#utility.yul\":4298:4299   */\n      dup1\n        /* \"#utility.yul\":4291:4303   */\n      revert\n        /* \"#utility.yul\":4269:4305   */\n    tag_261:\n        /* \"#utility.yul\":4324:4376   */\n      tag_262\n        /* \"#utility.yul\":4368:4375   */\n      dup11\n        /* \"#utility.yul\":4357:4365   */\n      dup4\n        /* \"#utility.yul\":4346:4355   */\n      dup12\n        /* \"#utility.yul\":4342:4366   */\n      add\n        /* \"#utility.yul\":4324:4376   */\n      tag_218\n      jump\t// in\n    tag_262:\n        /* \"#utility.yul\":4314:4376   */\n      swap7\n      pop\n        /* \"#utility.yul\":4423:4425   */\n      0x40\n        /* \"#utility.yul\":4412:4421   */\n      dup10\n        /* \"#utility.yul\":4408:4426   */\n      add\n        /* \"#utility.yul\":4395:4427   */\n      calldataload\n        /* \"#utility.yul\":4385:4427   */\n      swap6\n      pop\n        /* \"#utility.yul\":4474:4476   */\n      0x60\n        /* \"#utility.yul\":4463:4472   */\n      dup10\n        /* \"#utility.yul\":4459:4477   */\n      add\n        /* \"#utility.yul\":4446:4478   */\n      calldataload\n        /* \"#utility.yul\":4436:4478   */\n      swap5\n      pop\n        /* \"#utility.yul\":4531:4534   */\n      0x80\n        /* \"#utility.yul\":4520:4529   */\n      dup10\n        /* \"#utility.yul\":4516:4535   */\n      add\n        /* \"#utility.yul\":4503:4536   */\n      calldataload\n        /* \"#utility.yul\":4487:4536   */\n      swap2\n      pop\n        /* \"#utility.yul\":4561:4563   */\n      dup1\n        /* \"#utility.yul\":4551:4559   */\n      dup3\n        /* \"#utility.yul\":4548:4564   */\n      gt\n        /* \"#utility.yul\":4545:4581   */\n      iszero\n      tag_263\n      jumpi\n        /* \"#utility.yul\":4577:4578   */\n      0x00\n        /* \"#utility.yul\":4574:4575   */\n      dup1\n        /* \"#utility.yul\":4567:4579   */\n      revert\n        /* \"#utility.yul\":4545:4581   */\n    tag_263:\n        /* \"#utility.yul\":4600:4652   */\n      tag_264\n        /* \"#utility.yul\":4644:4651   */\n      dup11\n        /* \"#utility.yul\":4633:4641   */\n      dup4\n        /* \"#utility.yul\":4622:4631   */\n      dup12\n        /* \"#utility.yul\":4618:4642   */\n      add\n        /* \"#utility.yul\":4600:4652   */\n      tag_218\n      jump\t// in\n    tag_264:\n        /* \"#utility.yul\":4590:4652   */\n      swap4\n      pop\n        /* \"#utility.yul\":4705:4708   */\n      0xa0\n        /* \"#utility.yul\":4694:4703   */\n      dup10\n        /* \"#utility.yul\":4690:4709   */\n      add\n        /* \"#utility.yul\":4677:4710   */\n      calldataload\n        /* \"#utility.yul\":4661:4710   */\n      swap2\n      pop\n        /* \"#utility.yul\":4735:4737   */\n      dup1\n        /* \"#utility.yul\":4725:4733   */\n      dup3\n        /* \"#utility.yul\":4722:4738   */\n      gt\n        /* \"#utility.yul\":4719:4755   */\n      iszero\n      tag_265\n      jumpi\n        /* \"#utility.yul\":4751:4752   */\n      0x00\n        /* \"#utility.yul\":4748:4749   */\n      dup1\n        /* \"#utility.yul\":4741:4753   */\n      revert\n        /* \"#utility.yul\":4719:4755   */\n    tag_265:\n      pop\n        /* \"#utility.yul\":4774:4836   */\n      tag_266\n        /* \"#utility.yul\":4828:4835   */\n      dup10\n        /* \"#utility.yul\":4817:4825   */\n      dup3\n        /* \"#utility.yul\":4806:4815   */\n      dup11\n        /* \"#utility.yul\":4802:4826   */\n      add\n        /* \"#utility.yul\":4774:4836   */\n      tag_219\n      jump\t// in\n    tag_266:\n        /* \"#utility.yul\":4764:4836   */\n      swap2\n      pop\n      pop\n        /* \"#utility.yul\":3725:4842   */\n      swap3\n      swap6\n      pop\n      swap3\n      swap6\n      pop\n      swap3\n      swap6\n      jump\t// out\n        /* \"#utility.yul\":4847:5020   */\n    tag_220:\n        /* \"#utility.yul\":4915:4935   */\n      dup1\n      calldataload\n      sub(shl(0xa0, 0x01), 0x01)\n        /* \"#utility.yul\":4964:4995   */\n      dup2\n      and\n        /* \"#utility.yul\":4954:4996   */\n      dup2\n      eq\n        /* \"#utility.yul\":4944:5014   */\n      tag_268\n      jumpi\n        /* \"#utility.yul\":5010:5011   */\n      0x00\n        /* \"#utility.yul\":5007:5008   */\n      dup1\n        /* \"#utility.yul\":5000:5012   */\n      revert\n        /* \"#utility.yul\":4944:5014   */\n    tag_268:\n        /* \"#utility.yul\":4847:5020   */\n      swap2\n      swap1\n      pop\n      jump\t// out\n        /* \"#utility.yul\":5025:5211   */\n    tag_30:\n        /* \"#utility.yul\":5084:5090   */\n      0x00\n        /* \"#utility.yul\":5137:5139   */\n      0x20\n        /* \"#utility.yul\":5125:5134   */\n      dup3\n        /* \"#utility.yul\":5116:5123   */\n      dup5\n        /* \"#utility.yul\":5112:5135   */\n      sub\n        /* \"#utility.yul\":5108:5140   */\n      slt\n        /* \"#utility.yul\":5105:5157   */\n      iszero\n      tag_270\n      jumpi\n        /* \"#utility.yul\":5153:5154   */\n      0x00\n        /* \"#utility.yul\":5150:5151   */\n      dup1\n        /* \"#utility.yul\":5143:5155   */\n      revert\n        /* \"#utility.yul\":5105:5157   */\n    tag_270:\n        /* \"#utility.yul\":5176:5205   */\n      tag_245\n        /* \"#utility.yul\":5195:5204   */\n      dup3\n        /* \"#utility.yul\":5176:5205   */\n      tag_220\n      jump\t// in\n        /* \"#utility.yul\":5408:5526   */\n    tag_221:\n        /* \"#utility.yul\":5494:5499   */\n      dup1\n        /* \"#utility.yul\":5487:5500   */\n      iszero\n        /* \"#utility.yul\":5480:5501   */\n      iszero\n        /* \"#utility.yul\":5473:5478   */\n      dup2\n        /* \"#utility.yul\":5470:5502   */\n      eq\n        /* \"#utility.yul\":5460:5520   */\n      tag_100\n      jumpi\n        /* \"#utility.yul\":5516:5517   */\n      0x00\n        /* \"#utility.yul\":5513:5514   */\n      dup1\n        /* \"#utility.yul\":5506:5518   */\n      revert\n        /* \"#utility.yul\":5531:5846   */\n    tag_36:\n        /* \"#utility.yul\":5596:5602   */\n      0x00\n        /* \"#utility.yul\":5604:5610   */\n      dup1\n        /* \"#utility.yul\":5657:5659   */\n      0x40\n        /* \"#utility.yul\":5645:5654   */\n      dup4\n        /* \"#utility.yul\":5636:5643   */\n      dup6\n        /* \"#utility.yul\":5632:5655   */\n      sub\n        /* \"#utility.yul\":5628:5660   */\n      slt\n        /* \"#utility.yul\":5625:5677   */\n      iszero\n      tag_276\n      jumpi\n        /* \"#utility.yul\":5673:5674   */\n      0x00\n        /* \"#utility.yul\":5670:5671   */\n      dup1\n        /* \"#utility.yul\":5663:5675   */\n      revert\n        /* \"#utility.yul\":5625:5677   */\n    tag_276:\n        /* \"#utility.yul\":5696:5725   */\n      tag_277\n        /* \"#utility.yul\":5715:5724   */\n      dup4\n        /* \"#utility.yul\":5696:5725   */\n      tag_220\n      jump\t// in\n    tag_277:\n        /* \"#utility.yul\":5686:5725   */\n      swap2\n      pop\n        /* \"#utility.yul\":5775:5777   */\n      0x20\n        /* \"#utility.yul\":5764:5773   */\n      dup4\n        /* \"#utility.yul\":5760:5778   */\n      add\n        /* \"#utility.yul\":5747:5779   */\n      calldataload\n        /* \"#utility.yul\":5788:5816   */\n      tag_278\n        /* \"#utility.yul\":5810:5815   */\n      dup2\n        /* \"#utility.yul\":5788:5816   */\n      tag_221\n      jump\t// in\n    tag_278:\n        /* \"#utility.yul\":5835:5840   */\n      dup1\n        /* \"#utility.yul\":5825:5840   */\n      swap2\n      pop\n      pop\n        /* \"#utility.yul\":5531:5846   */\n      swap3\n      pop\n      swap3\n      swap1\n      pop\n      jump\t// out\n        /* \"#utility.yul\":6241:6902   */\n    tag_51:\n        /* \"#utility.yul\":6336:6342   */\n      0x00\n        /* \"#utility.yul\":6344:6350   */\n      dup1\n        /* \"#utility.yul\":6352:6358   */\n      0x00\n        /* \"#utility.yul\":6360:6366   */\n      dup1\n        /* \"#utility.yul\":6413:6416   */\n      0x80\n        /* \"#utility.yul\":6401:6410   */\n      dup6\n        /* \"#utility.yul\":6392:6399   */\n      dup8\n        /* \"#utility.yul\":6388:6411   */\n      sub\n        /* \"#utility.yul\":6384:6417   */\n      slt\n        /* \"#utility.yul\":6381:6434   */\n      iszero\n      tag_282\n      jumpi\n        /* \"#utility.yul\":6430:6431   */\n      0x00\n        /* \"#utility.yul\":6427:6428   */\n      dup1\n        /* \"#utility.yul\":6420:6432   */\n      revert\n        /* \"#utility.yul\":6381:6434   */\n    tag_282:\n        /* \"#utility.yul\":6453:6482   */\n      tag_283\n        /* \"#utility.yul\":6472:6481   */\n      dup6\n        /* \"#utility.yul\":6453:6482   */\n      tag_220\n      jump\t// in\n    tag_283:\n        /* \"#utility.yul\":6443:6482   */\n      swap4\n      pop\n        /* \"#utility.yul\":6529:6531   */\n      0x20\n        /* \"#utility.yul\":6518:6527   */\n      dup6\n        /* \"#utility.yul\":6514:6532   */\n      add\n        /* \"#utility.yul\":6501:6533   */\n      calldataload\n        /* \"#utility.yul\":6491:6533   */\n      swap3\n      pop\n        /* \"#utility.yul\":6580:6582   */\n      0x40\n        /* \"#utility.yul\":6569:6578   */\n      dup6\n        /* \"#utility.yul\":6565:6583   */\n      add\n        /* \"#utility.yul\":6552:6584   */\n      calldataload\n        /* \"#utility.yul\":6542:6584   */\n      swap2\n      pop\n        /* \"#utility.yul\":6635:6637   */\n      0x60\n        /* \"#utility.yul\":6624:6633   */\n      dup6\n        /* \"#utility.yul\":6620:6638   */\n      add\n        /* \"#utility.yul\":6607:6639   */\n      calldataload\n        /* \"#utility.yul\":6662:6680   */\n      0xffffffffffffffff\n        /* \"#utility.yul\":6654:6660   */\n      dup2\n        /* \"#utility.yul\":6651:6681   */\n      gt\n        /* \"#utility.yul\":6648:6698   */\n      iszero\n      tag_284\n      jumpi\n        /* \"#utility.yul\":6694:6695   */\n      0x00\n        /* \"#utility.yul\":6691:6692   */\n      dup1\n        /* \"#utility.yul\":6684:6696   */\n      revert\n        /* \"#utility.yul\":6648:6698   */\n    tag_284:\n        /* \"#utility.yul\":6717:6739   */\n      dup6\n      add\n        /* \"#utility.yul\":6770:6774   */\n      0x1f\n        /* \"#utility.yul\":6762:6775   */\n      dup2\n      add\n        /* \"#utility.yul\":6758:6785   */\n      dup8\n      sgt\n        /* \"#utility.yul\":6748:6803   */\n      tag_285\n      jumpi\n        /* \"#utility.yul\":6799:6800   */\n      0x00\n        /* \"#utility.yul\":6796:6797   */\n      dup1\n        /* \"#utility.yul\":6789:6801   */\n      revert\n        /* \"#utility.yul\":6748:6803   */\n    tag_285:\n        /* \"#utility.yul\":6822:6896   */\n      tag_286\n        /* \"#utility.yul\":6888:6895   */\n      dup8\n        /* \"#utility.yul\":6883:6885   */\n      dup3\n        /* \"#utility.yul\":6870:6886   */\n      calldataload\n        /* \"#utility.yul\":6865:6867   */\n      0x20\n        /* \"#utility.yul\":6861:6863   */\n      dup5\n        /* \"#utility.yul\":6857:6868   */\n      add\n        /* \"#utility.yul\":6822:6896   */\n      tag_217\n      jump\t// in\n    tag_286:\n        /* \"#utility.yul\":6812:6896   */\n      swap2\n      pop\n      pop\n        /* \"#utility.yul\":6241:6902   */\n      swap3\n      swap6\n      swap2\n      swap5\n      pop\n      swap3\n      pop\n      jump\t// out\n        /* \"#utility.yul\":6907:7161   */\n    tag_55:\n        /* \"#utility.yul\":6975:6981   */\n      0x00\n        /* \"#utility.yul\":6983:6989   */\n      dup1\n        /* \"#utility.yul\":7036:7038   */\n      0x40\n        /* \"#utility.yul\":7024:7033   */\n      dup4\n        /* \"#utility.yul\":7015:7022   */\n      dup6\n        /* \"#utility.yul\":7011:7034   */\n      sub\n        /* \"#utility.yul\":7007:7039   */\n      slt\n        /* \"#utility.yul\":7004:7056   */\n      iszero\n      tag_288\n      jumpi\n        /* \"#utility.yul\":7052:7053   */\n      0x00\n        /* \"#utility.yul\":7049:7050   */\n      dup1\n        /* \"#utility.yul\":7042:7054   */\n      revert\n        /* \"#utility.yul\":7004:7056   */\n    tag_288:\n        /* \"#utility.yul\":7075:7104   */\n      tag_289\n        /* \"#utility.yul\":7094:7103   */\n      dup4\n        /* \"#utility.yul\":7075:7104   */\n      tag_220\n      jump\t// in\n    tag_289:\n        /* \"#utility.yul\":7065:7104   */\n      swap5\n        /* \"#utility.yul\":7151:7153   */\n      0x20\n        /* \"#utility.yul\":7136:7154   */\n      swap4\n      swap1\n      swap4\n      add\n        /* \"#utility.yul\":7123:7155   */\n      calldataload\n      swap4\n      pop\n      pop\n      pop\n        /* \"#utility.yul\":6907:7161   */\n      jump\t// out\n        /* \"#utility.yul\":7166:7847   */\n    tag_59:\n        /* \"#utility.yul\":7313:7319   */\n      0x00\n        /* \"#utility.yul\":7321:7327   */\n      dup1\n        /* \"#utility.yul\":7329:7335   */\n      0x00\n        /* \"#utility.yul\":7382:7384   */\n      0x60\n        /* \"#utility.yul\":7370:7379   */\n      dup5\n        /* \"#utility.yul\":7361:7368   */\n      dup7\n        /* \"#utility.yul\":7357:7380   */\n      sub\n        /* \"#utility.yul\":7353:7385   */\n      slt\n        /* \"#utility.yul\":7350:7402   */\n      iszero\n      tag_291\n      jumpi\n        /* \"#utility.yul\":7398:7399   */\n      0x00\n        /* \"#utility.yul\":7395:7396   */\n      dup1\n        /* \"#utility.yul\":7388:7400   */\n      revert\n        /* \"#utility.yul\":7350:7402   */\n    tag_291:\n        /* \"#utility.yul\":7434:7443   */\n      dup4\n        /* \"#utility.yul\":7421:7444   */\n      calldataload\n        /* \"#utility.yul\":7411:7444   */\n      swap3\n      pop\n        /* \"#utility.yul\":7495:7497   */\n      0x20\n        /* \"#utility.yul\":7484:7493   */\n      dup5\n        /* \"#utility.yul\":7480:7498   */\n      add\n        /* \"#utility.yul\":7467:7499   */\n      calldataload\n        /* \"#utility.yul\":7518:7536   */\n      0xffffffffffffffff\n        /* \"#utility.yul\":7559:7561   */\n      dup1\n        /* \"#utility.yul\":7551:7557   */\n      dup3\n        /* \"#utility.yul\":7548:7562   */\n      gt\n        /* \"#utility.yul\":7545:7579   */\n      iszero\n      tag_292\n      jumpi\n        /* \"#utility.yul\":7575:7576   */\n      0x00\n        /* \"#utility.yul\":7572:7573   */\n      dup1\n        /* \"#utility.yul\":7565:7577   */\n      revert\n        /* \"#utility.yul\":7545:7579   */\n    tag_292:\n        /* \"#utility.yul\":7598:7658   */\n      tag_293\n        /* \"#utility.yul\":7650:7657   */\n      dup8\n        /* \"#utility.yul\":7641:7647   */\n      dup4\n        /* \"#utility.yul\":7630:7639   */\n      dup9\n        /* \"#utility.yul\":7626:7648   */\n      add\n        /* \"#utility.yul\":7598:7658   */\n      tag_219\n      jump\t// in\n    tag_293:\n        /* \"#utility.yul\":7588:7658   */\n      swap4\n      pop\n        /* \"#utility.yul\":7711:7713   */\n      0x40\n        /* \"#utility.yul\":7700:7709   */\n      dup7\n        /* \"#utility.yul\":7696:7714   */\n      add\n        /* \"#utility.yul\":7683:7715   */\n      calldataload\n        /* \"#utility.yul\":7667:7715   */\n      swap2\n      pop\n        /* \"#utility.yul\":7740:7742   */\n      dup1\n        /* \"#utility.yul\":7730:7738   */\n      dup3\n        /* \"#utility.yul\":7727:7743   */\n      gt\n        /* \"#utility.yul\":7724:7760   */\n      iszero\n      tag_294\n      jumpi\n        /* \"#utility.yul\":7756:7757   */\n      0x00\n        /* \"#utility.yul\":7753:7754   */\n      dup1\n        /* \"#utility.yul\":7746:7758   */\n      revert\n        /* \"#utility.yul\":7724:7760   */\n    tag_294:\n      pop\n        /* \"#utility.yul\":7779:7841   */\n      tag_295\n        /* \"#utility.yul\":7833:7840   */\n      dup7\n        /* \"#utility.yul\":7822:7830   */\n      dup3\n        /* \"#utility.yul\":7811:7820   */\n      dup8\n        /* \"#utility.yul\":7807:7831   */\n      add\n        /* \"#utility.yul\":7779:7841   */\n      tag_219\n      jump\t// in\n    tag_295:\n        /* \"#utility.yul\":7769:7841   */\n      swap2\n      pop\n      pop\n        /* \"#utility.yul\":7166:7847   */\n      swap3\n      pop\n      swap3\n      pop\n      swap3\n      jump\t// out\n        /* \"#utility.yul\":7852:8232   */\n    tag_65:\n        /* \"#utility.yul\":7931:7932   */\n      0x01\n        /* \"#utility.yul\":7927:7939   */\n      dup2\n      dup2\n      shr\n      swap1\n        /* \"#utility.yul\":7974:7986   */\n      dup3\n      and\n      dup1\n        /* \"#utility.yul\":7995:8056   */\n      tag_297\n      jumpi\n        /* \"#utility.yul\":8049:8053   */\n      0x7f\n        /* \"#utility.yul\":8041:8047   */\n      dup3\n        /* \"#utility.yul\":8037:8054   */\n      and\n        /* \"#utility.yul\":8027:8054   */\n      swap2\n      pop\n        /* \"#utility.yul\":7995:8056   */\n    tag_297:\n        /* \"#utility.yul\":8102:8104   */\n      0x20\n        /* \"#utility.yul\":8094:8100   */\n      dup3\n        /* \"#utility.yul\":8091:8105   */\n      lt\n        /* \"#utility.yul\":8071:8089   */\n      dup2\n        /* \"#utility.yul\":8068:8106   */\n      sub\n        /* \"#utility.yul\":8065:8226   */\n      tag_298\n      jumpi\n        /* \"#utility.yul\":8148:8158   */\n      0x4e487b71\n        /* \"#utility.yul\":8143:8146   */\n      0xe0\n        /* \"#utility.yul\":8139:8159   */\n      shl\n        /* \"#utility.yul\":8136:8137   */\n      0x00\n        /* \"#utility.yul\":8129:8160   */\n      mstore\n        /* \"#utility.yul\":8183:8187   */\n      0x22\n        /* \"#utility.yul\":8180:8181   */\n      0x04\n        /* \"#utility.yul\":8173:8188   */\n      mstore\n        /* \"#utility.yul\":8211:8215   */\n      0x24\n        /* \"#utility.yul\":8208:8209   */\n      0x00\n        /* \"#utility.yul\":8201:8216   */\n      revert\n        /* \"#utility.yul\":8065:8226   */\n    tag_298:\n      pop\n        /* \"#utility.yul\":7852:8232   */\n      swap2\n      swap1\n      pop\n      jump\t// out\n        /* \"#utility.yul\":8237:8469   */\n    tag_92:\n        /* \"#utility.yul\":8276:8279   */\n      0x00\n        /* \"#utility.yul\":8297:8314   */\n      0x01\n      dup3\n      add\n        /* \"#utility.yul\":8294:8434   */\n      tag_300\n      jumpi\n        /* \"#utility.yul\":8356:8366   */\n      0x4e487b71\n        /* \"#utility.yul\":8351:8354   */\n      0xe0\n        /* \"#utility.yul\":8347:8367   */\n      shl\n        /* \"#utility.yul\":8344:8345   */\n      0x00\n        /* \"#utility.yul\":8337:8368   */\n      mstore\n        /* \"#utility.yul\":8391:8395   */\n      0x11\n        /* \"#utility.yul\":8388:8389   */\n      0x04\n        /* \"#utility.yul\":8381:8396   */\n      mstore\n        /* \"#utility.yul\":8419:8423   */\n      0x24\n        /* \"#utility.yul\":8416:8417   */\n      0x00\n        /* \"#utility.yul\":8409:8424   */\n      revert\n        /* \"#utility.yul\":8294:8434   */\n    tag_300:\n      pop\n        /* \"#utility.yul\":8461:8462   */\n      0x01\n        /* \"#utility.yul\":8450:8463   */\n      add\n      swap1\n        /* \"#utility.yul\":8237:8469   */\n      jump\t// out\n        /* \"#utility.yul\":8474:8806   */\n    tag_97:\n        /* \"#utility.yul\":8676:8678   */\n      0x20\n        /* \"#utility.yul\":8658:8679   */\n      dup1\n      dup3\n      mstore\n        /* \"#utility.yul\":8715:8716   */\n      0x09\n        /* \"#utility.yul\":8695:8713   */\n      swap1\n      dup3\n      add\n        /* \"#utility.yul\":8688:8717   */\n      mstore\n      shl(0xb9, 0x3737ba1030b236b4b7)\n        /* \"#utility.yul\":8748:8750   */\n      0x40\n        /* \"#utility.yul\":8733:8751   */\n      dup3\n      add\n        /* \"#utility.yul\":8726:8765   */\n      mstore\n        /* \"#utility.yul\":8797:8799   */\n      0x60\n        /* \"#utility.yul\":8782:8800   */\n      add\n      swap1\n        /* \"#utility.yul\":8474:8806   */\n      jump\t// out\n        /* \"#utility.yul\":8811:9372   */\n    tag_117:\n      sub(shl(0xa0, 0x01), 0x01)\n        /* \"#utility.yul\":9108:9123   */\n      dup7\n      dup2\n      and\n        /* \"#utility.yul\":9090:9124   */\n      dup3\n      mstore\n        /* \"#utility.yul\":9160:9175   */\n      dup6\n      and\n        /* \"#utility.yul\":9155:9157   */\n      0x20\n        /* \"#utility.yul\":9140:9158   */\n      dup3\n      add\n        /* \"#utility.yul\":9133:9176   */\n      mstore\n        /* \"#utility.yul\":9207:9209   */\n      0x40\n        /* \"#utility.yul\":9192:9210   */\n      dup2\n      add\n        /* \"#utility.yul\":9185:9219   */\n      dup5\n      swap1\n      mstore\n        /* \"#utility.yul\":9250:9252   */\n      0x60\n        /* \"#utility.yul\":9235:9253   */\n      dup2\n      add\n        /* \"#utility.yul\":9228:9262   */\n      dup4\n      swap1\n      mstore\n        /* \"#utility.yul\":9070:9073   */\n      0xa0\n        /* \"#utility.yul\":9293:9296   */\n      0x80\n        /* \"#utility.yul\":9278:9297   */\n      dup3\n      add\n        /* \"#utility.yul\":9271:9303   */\n      dup2\n      swap1\n      mstore\n        /* \"#utility.yul\":9033:9037   */\n      0x00\n      swap1\n        /* \"#utility.yul\":9320:9366   */\n      tag_303\n      swap1\n        /* \"#utility.yul\":9346:9365   */\n      dup4\n      add\n        /* \"#utility.yul\":9338:9344   */\n      dup5\n        /* \"#utility.yul\":9320:9366   */\n      tag_214\n      jump\t// in\n    tag_303:\n        /* \"#utility.yul\":9312:9366   */\n      swap8\n        /* \"#utility.yul\":8811:9372   */\n      swap7\n      pop\n      pop\n      pop\n      pop\n      pop\n      pop\n      pop\n      jump\t// out\n        /* \"#utility.yul\":9656:9901   */\n    tag_131:\n        /* \"#utility.yul\":9723:9729   */\n      0x00\n        /* \"#utility.yul\":9776:9778   */\n      0x20\n        /* \"#utility.yul\":9764:9773   */\n      dup3\n        /* \"#utility.yul\":9755:9762   */\n      dup5\n        /* \"#utility.yul\":9751:9774   */\n      sub\n        /* \"#utility.yul\":9747:9779   */\n      slt\n        /* \"#utility.yul\":9744:9796   */\n      iszero\n      tag_306\n      jumpi\n        /* \"#utility.yul\":9792:9793   */\n      0x00\n        /* \"#utility.yul\":9789:9790   */\n      dup1\n        /* \"#utility.yul\":9782:9794   */\n      revert\n        /* \"#utility.yul\":9744:9796   */\n    tag_306:\n        /* \"#utility.yul\":9824:9833   */\n      dup2\n        /* \"#utility.yul\":9818:9834   */\n      mload\n        /* \"#utility.yul\":9843:9871   */\n      tag_245\n        /* \"#utility.yul\":9865:9870   */\n      dup2\n        /* \"#utility.yul\":9843:9871   */\n      tag_221\n      jump\t// in\n        /* \"#utility.yul\":10254:10381   */\n    tag_170:\n        /* \"#utility.yul\":10315:10325   */\n      0x4e487b71\n        /* \"#utility.yul\":10310:10313   */\n      0xe0\n        /* \"#utility.yul\":10306:10326   */\n      shl\n        /* \"#utility.yul\":10303:10304   */\n      0x00\n        /* \"#utility.yul\":10296:10327   */\n      mstore\n        /* \"#utility.yul\":10346:10350   */\n      0x32\n        /* \"#utility.yul\":10343:10344   */\n      0x04\n        /* \"#utility.yul\":10336:10351   */\n      mstore\n        /* \"#utility.yul\":10370:10374   */\n      0x24\n        /* \"#utility.yul\":10367:10368   */\n      0x00\n        /* \"#utility.yul\":10360:10375   */\n      revert\n\n    auxdata: 0xa264697066735822122084c3668530674c7787f8f695c2ae952e42340298241c830f9ef160177e7891b764736f6c634300080e0033\n}\n",
				"bytecode": {
					"linkReferences": {},
					"object": "60806040526001600055662386f26fc1000060035534801561002057600080fd5b50600180546001600160a01b031916331790556114e0806100426000396000f3fe608060405234801561001057600080fd5b50600436106100b45760003560e01c806391b7f5ed1161007157806391b7f5ed14610178578063a035b1fe1461018b578063a1538bde146101a2578063a1db9782146101b5578063f28a8104146101c8578063f3e414f8146101db57600080fd5b8063107046bd146100b9578063230abfd0146100ea57806324600fc3146100ff578063429b62e5146101075780634b0bddd21461013a5780638da5cb5b1461014d575b600080fd5b6100cc6100c7366004610f20565b6101ee565b6040516100e199989796959493929190610f86565b60405180910390f35b6100fd6100f8366004611167565b6103dd565b005b6100fd6105bb565b61012a610115366004611242565b60026020526000908152604090205460ff1681565b60405190151581526020016100e1565b6100fd61014836600461126b565b610637565b600154610160906001600160a01b031681565b6040516001600160a01b0390911681526020016100e1565b6100fd610186366004610f20565b6106a6565b61019460035481565b6040519081526020016100e1565b6100fd6101b03660046112a2565b6106ef565b6100fd6101c3366004611317565b6107a2565b6100fd6101d6366004611341565b61085f565b6100fd6101e9366004611317565b610cd1565b60046020526000908152604090208054600182018054919291610210906113ae565b80601f016020809104026020016040519081016040528092919081815260200182805461023c906113ae565b80156102895780601f1061025e57610100808354040283529160200191610289565b820191906000526020600020905b81548152906001019060200180831161026c57829003601f168201915b50505050509080600201805461029e906113ae565b80601f01602080910402602001604051908101604052809291908181526020018280546102ca906113ae565b80156103175780601f106102ec57610100808354040283529160200191610317565b820191906000526020600020905b8154815290600101906020018083116102fa57829003601f168201915b505050505090806003015490806004015490806005018054610338906113ae565b80601f0160208091040260200160405190810160405280929190818152602001828054610364906113ae565b80156103b15780601f10610386576101008083540402835291602001916103b1565b820191906000526020600020905b81548152906001019060200180831161039457829003601f168201915b50505050600783015460099093015491926001600160a01b03169160ff80821692506101009091041689565b6104476040518061016001604052806000815260200160608152602001606081526020016000815260200160008152602001606081526020016060815260200160006001600160a01b03168152602001606081526020016000151581526020016000151581525090565b6000805480835260208084018a815260408086018b905260608087018b9052608087018a905260a0870189905260c087018890523360e088015261010087018190526001610120880181905261014088018790529486526004845294208551815590518051869492936104be938501920190610d82565b50604082015180516104da916002840191602090910190610d82565b50606082015160038201556080820151600482015560a0820151805161050a916005840191602090910190610d82565b5060c08201518051610526916006840191602090910190610e06565b5060e08201516007820180546001600160a01b0319166001600160a01b039092169190911790556101008201518051610569916008840191602090910190610e5f565b50610120820151600990910180546101409093015115156101000261ff00199215159290921661ffff19909316929092171790556000805490806105ac836113e8565b91905055505050505050505050565b6001546001600160a01b03163314806105e357503360009081526002602052604090205460ff165b6106085760405162461bcd60e51b81526004016105ff9061140f565b60405180910390fd5b60405133904780156108fc02916000818181858888f19350505050158015610634573d6000803e3d6000fd5b50565b6001546001600160a01b031633148061065f57503360009081526002602052604090205460ff165b61067b5760405162461bcd60e51b81526004016105ff9061140f565b6001600160a01b03919091166000908152600260205260409020805460ff1916911515919091179055565b6001546001600160a01b03163314806106ce57503360009081526002602052604090205460ff165b6106ea5760405162461bcd60e51b81526004016105ff9061140f565b600355565b6001546001600160a01b031633148061071757503360009081526002602052604090205460ff165b6107335760405162461bcd60e51b81526004016105ff9061140f565b604051637921219560e11b815284906001600160a01b0382169063f242432a906107699030903390899089908990600401611432565b600060405180830381600087803b15801561078357600080fd5b505af1158015610797573d6000803e3d6000fd5b505050505050505050565b6001546001600160a01b03163314806107ca57503360009081526002602052604090205460ff165b6107e65760405162461bcd60e51b81526004016105ff9061140f565b60405163a9059cbb60e01b81523360048201526024810182905282906001600160a01b0382169063a9059cbb906044016020604051808303816000875af1158015610835573d6000803e3d6000fd5b505050506040513d601f19601f820116820180604052508101906108599190611477565b50505050565b6000838152600460209081526040808320815161016081019092528054825260018101805488959484019190610894906113ae565b80601f01602080910402602001604051908101604052809291908181526020018280546108c0906113ae565b801561090d5780601f106108e25761010080835404028352916020019161090d565b820191906000526020600020905b8154815290600101906020018083116108f057829003601f168201915b50505050508152602001600282018054610926906113ae565b80601f0160208091040260200160405190810160405280929190818152602001828054610952906113ae565b801561099f5780601f106109745761010080835404028352916020019161099f565b820191906000526020600020905b81548152906001019060200180831161098257829003601f168201915b5050505050815260200160038201548152602001600482015481526020016005820180546109cc906113ae565b80601f01602080910402602001604051908101604052809291908181526020018280546109f8906113ae565b8015610a455780601f10610a1a57610100808354040283529160200191610a45565b820191906000526020600020905b815481529060010190602001808311610a2857829003601f168201915b5050505050815260200160068201805480602002602001604051908101604052809291908181526020016000905b82821015610b1f578382906000526020600020018054610a92906113ae565b80601f0160208091040260200160405190810160405280929190818152602001828054610abe906113ae565b8015610b0b5780601f10610ae057610100808354040283529160200191610b0b565b820191906000526020600020905b815481529060010190602001808311610aee57829003601f168201915b505050505081526020019060010190610a73565b5050509082525060078201546001600160a01b03166020808301919091526008830180546040805182850281018501825282815294019392830182828015610b9057602002820191906000526020600020905b81546001600160a01b03168152600190910190602001808311610b72575b50505091835250506009919091015460ff8082161515602084015261010090910416151560409091015260e08101519091506001600160a01b03163314610cca57806101400151610c195760405162461bcd60e51b815260206004820152601360248201527218d85b9b9bdd0819591a5d081c1c9bda9958dd606a1b60448201526064016105ff565b6000805b82610100015151811015610c845760008361010001518281518110610c4457610c44611494565b60200260200101519050806001600160a01b0316336001600160a01b031603610c71576001925050610c84565b5080610c7c816113e8565b915050610c1d565b5080610cc85760405162461bcd60e51b815260206004820152601360248201527218d85b9b9bdd0819591a5d081c1c9bda9958dd606a1b60448201526064016105ff565b505b5050505050565b6001546001600160a01b0316331480610cf957503360009081526002602052604090205460ff165b610d155760405162461bcd60e51b81526004016105ff9061140f565b604051632142170760e11b81523060048201523360248201526044810182905282906001600160a01b038216906342842e0e90606401600060405180830381600087803b158015610d6557600080fd5b505af1158015610d79573d6000803e3d6000fd5b50505050505050565b828054610d8e906113ae565b90600052602060002090601f016020900481019282610db05760008555610df6565b82601f10610dc957805160ff1916838001178555610df6565b82800160010185558215610df6579182015b82811115610df6578251825591602001919060010190610ddb565b50610e02929150610eb4565b5090565b828054828255906000526020600020908101928215610e53579160200282015b82811115610e535782518051610e43918491602090910190610d82565b5091602001919060010190610e26565b50610e02929150610ec9565b828054828255906000526020600020908101928215610df6579160200282015b82811115610df657825182546001600160a01b0319166001600160a01b03909116178255602090920191600190910190610e7f565b5b80821115610e025760008155600101610eb5565b80821115610e02576000610edd8282610ee6565b50600101610ec9565b508054610ef2906113ae565b6000825580601f10610f02575050565b601f0160209004906000526020600020908101906106349190610eb4565b600060208284031215610f3257600080fd5b5035919050565b6000815180845260005b81811015610f5f57602081850181015186830182015201610f43565b81811115610f71576000602083870101525b50601f01601f19169290920160200192915050565b60006101208b8352806020840152610fa08184018c610f39565b90508281036040840152610fb4818b610f39565b905088606084015287608084015282810360a0840152610fd48188610f39565b6001600160a01b039690961660c0840152505091151560e08301521515610100909101529695505050505050565b634e487b7160e01b600052604160045260246000fd5b604051601f8201601f1916810167ffffffffffffffff8111828210171561104157611041611002565b604052919050565b600067ffffffffffffffff83111561106357611063611002565b611076601f8401601f1916602001611018565b905082815283838301111561108a57600080fd5b828260208301376000602084830101529392505050565b600082601f8301126110b257600080fd5b6110c183833560208501611049565b9392505050565b600082601f8301126110d957600080fd5b8135602067ffffffffffffffff808311156110f6576110f6611002565b8260051b611105838201611018565b938452858101830193838101908886111561111f57600080fd5b84880192505b8583101561115b5782358481111561113d5760008081fd5b61114b8a87838c01016110a1565b8352509184019190840190611125565b98975050505050505050565b60008060008060008060c0878903121561118057600080fd5b863567ffffffffffffffff8082111561119857600080fd5b6111a48a838b016110a1565b975060208901359150808211156111ba57600080fd5b6111c68a838b016110a1565b9650604089013595506060890135945060808901359150808211156111ea57600080fd5b6111f68a838b016110a1565b935060a089013591508082111561120c57600080fd5b5061121989828a016110c8565b9150509295509295509295565b80356001600160a01b038116811461123d57600080fd5b919050565b60006020828403121561125457600080fd5b6110c182611226565b801515811461063457600080fd5b6000806040838503121561127e57600080fd5b61128783611226565b915060208301356112978161125d565b809150509250929050565b600080600080608085870312156112b857600080fd5b6112c185611226565b93506020850135925060408501359150606085013567ffffffffffffffff8111156112eb57600080fd5b8501601f810187136112fc57600080fd5b61130b87823560208401611049565b91505092959194509250565b6000806040838503121561132a57600080fd5b61133383611226565b946020939093013593505050565b60008060006060848603121561135657600080fd5b83359250602084013567ffffffffffffffff8082111561137557600080fd5b611381878388016110c8565b9350604086013591508082111561139757600080fd5b506113a4868287016110c8565b9150509250925092565b600181811c908216806113c257607f821691505b6020821081036113e257634e487b7160e01b600052602260045260246000fd5b50919050565b60006001820161140857634e487b7160e01b600052601160045260246000fd5b5060010190565b6020808252600990820152683737ba1030b236b4b760b91b604082015260600190565b6001600160a01b03868116825285166020820152604081018490526060810183905260a06080820181905260009061146c90830184610f39565b979650505050505050565b60006020828403121561148957600080fd5b81516110c18161125d565b634e487b7160e01b600052603260045260246000fdfea264697066735822122084c3668530674c7787f8f695c2ae952e42340298241c830f9ef160177e7891b764736f6c634300080e0033",
					"opcodes": "PUSH1 0x80 PUSH1 0x40 MSTORE PUSH1 0x1 PUSH1 0x0 SSTORE PUSH7 0x2386F26FC10000 PUSH1 0x3 SSTORE CALLVALUE DUP1 ISZERO PUSH2 0x20 JUMPI PUSH1 0x0 DUP1 REVERT JUMPDEST POP PUSH1 0x1 DUP1 SLOAD PUSH1 0x1 PUSH1 0x1 PUSH1 0xA0 SHL SUB NOT AND CALLER OR SWAP1 SSTORE PUSH2 0x14E0 DUP1 PUSH2 0x42 PUSH1 0x0 CODECOPY PUSH1 0x0 RETURN INVALID PUSH1 0x80 PUSH1 0x40 MSTORE CALLVALUE DUP1 ISZERO PUSH2 0x10 JUMPI PUSH1 0x0 DUP1 REVERT JUMPDEST POP PUSH1 0x4 CALLDATASIZE LT PUSH2 0xB4 JUMPI PUSH1 0x0 CALLDATALOAD PUSH1 0xE0 SHR DUP1 PUSH4 0x91B7F5ED GT PUSH2 0x71 JUMPI DUP1 PUSH4 0x91B7F5ED EQ PUSH2 0x178 JUMPI DUP1 PUSH4 0xA035B1FE EQ PUSH2 0x18B JUMPI DUP1 PUSH4 0xA1538BDE EQ PUSH2 0x1A2 JUMPI DUP1 PUSH4 0xA1DB9782 EQ PUSH2 0x1B5 JUMPI DUP1 PUSH4 0xF28A8104 EQ PUSH2 0x1C8 JUMPI DUP1 PUSH4 0xF3E414F8 EQ PUSH2 0x1DB JUMPI PUSH1 0x0 DUP1 REVERT JUMPDEST DUP1 PUSH4 0x107046BD EQ PUSH2 0xB9 JUMPI DUP1 PUSH4 0x230ABFD0 EQ PUSH2 0xEA JUMPI DUP1 PUSH4 0x24600FC3 EQ PUSH2 0xFF JUMPI DUP1 PUSH4 0x429B62E5 EQ PUSH2 0x107 JUMPI DUP1 PUSH4 0x4B0BDDD2 EQ PUSH2 0x13A JUMPI DUP1 PUSH4 0x8DA5CB5B EQ PUSH2 0x14D JUMPI JUMPDEST PUSH1 0x0 DUP1 REVERT JUMPDEST PUSH2 0xCC PUSH2 0xC7 CALLDATASIZE PUSH1 0x4 PUSH2 0xF20 JUMP JUMPDEST PUSH2 0x1EE JUMP JUMPDEST PUSH1 0x40 MLOAD PUSH2 0xE1 SWAP10 SWAP9 SWAP8 SWAP7 SWAP6 SWAP5 SWAP4 SWAP3 SWAP2 SWAP1 PUSH2 0xF86 JUMP JUMPDEST PUSH1 0x40 MLOAD DUP1 SWAP2 SUB SWAP1 RETURN JUMPDEST PUSH2 0xFD PUSH2 0xF8 CALLDATASIZE PUSH1 0x4 PUSH2 0x1167 JUMP JUMPDEST PUSH2 0x3DD JUMP JUMPDEST STOP JUMPDEST PUSH2 0xFD PUSH2 0x5BB JUMP JUMPDEST PUSH2 0x12A PUSH2 0x115 CALLDATASIZE PUSH1 0x4 PUSH2 0x1242 JUMP JUMPDEST PUSH1 0x2 PUSH1 0x20 MSTORE PUSH1 0x0 SWAP1 DUP2 MSTORE PUSH1 0x40 SWAP1 KECCAK256 SLOAD PUSH1 0xFF AND DUP2 JUMP JUMPDEST PUSH1 0x40 MLOAD SWAP1 ISZERO ISZERO DUP2 MSTORE PUSH1 0x20 ADD PUSH2 0xE1 JUMP JUMPDEST PUSH2 0xFD PUSH2 0x148 CALLDATASIZE PUSH1 0x4 PUSH2 0x126B JUMP JUMPDEST PUSH2 0x637 JUMP JUMPDEST PUSH1 0x1 SLOAD PUSH2 0x160 SWAP1 PUSH1 0x1 PUSH1 0x1 PUSH1 0xA0 SHL SUB AND DUP2 JUMP JUMPDEST PUSH1 0x40 MLOAD PUSH1 0x1 PUSH1 0x1 PUSH1 0xA0 SHL SUB SWAP1 SWAP2 AND DUP2 MSTORE PUSH1 0x20 ADD PUSH2 0xE1 JUMP JUMPDEST PUSH2 0xFD PUSH2 0x186 CALLDATASIZE PUSH1 0x4 PUSH2 0xF20 JUMP JUMPDEST PUSH2 0x6A6 JUMP JUMPDEST PUSH2 0x194 PUSH1 0x3 SLOAD DUP2 JUMP JUMPDEST PUSH1 0x40 MLOAD SWAP1 DUP2 MSTORE PUSH1 0x20 ADD PUSH2 0xE1 JUMP JUMPDEST PUSH2 0xFD PUSH2 0x1B0 CALLDATASIZE PUSH1 0x4 PUSH2 0x12A2 JUMP JUMPDEST PUSH2 0x6EF JUMP JUMPDEST PUSH2 0xFD PUSH2 0x1C3 CALLDATASIZE PUSH1 0x4 PUSH2 0x1317 JUMP JUMPDEST PUSH2 0x7A2 JUMP JUMPDEST PUSH2 0xFD PUSH2 0x1D6 CALLDATASIZE PUSH1 0x4 PUSH2 0x1341 JUMP JUMPDEST PUSH2 0x85F JUMP JUMPDEST PUSH2 0xFD PUSH2 0x1E9 CALLDATASIZE PUSH1 0x4 PUSH2 0x1317 JUMP JUMPDEST PUSH2 0xCD1 JUMP JUMPDEST PUSH1 0x4 PUSH1 0x20 MSTORE PUSH1 0x0 SWAP1 DUP2 MSTORE PUSH1 0x40 SWAP1 KECCAK256 DUP1 SLOAD PUSH1 0x1 DUP3 ADD DUP1 SLOAD SWAP2 SWAP3 SWAP2 PUSH2 0x210 SWAP1 PUSH2 0x13AE JUMP JUMPDEST DUP1 PUSH1 0x1F ADD PUSH1 0x20 DUP1 SWAP2 DIV MUL PUSH1 0x20 ADD PUSH1 0x40 MLOAD SWAP1 DUP2 ADD PUSH1 0x40 MSTORE DUP1 SWAP3 SWAP2 SWAP1 DUP2 DUP2 MSTORE PUSH1 0x20 ADD DUP3 DUP1 SLOAD PUSH2 0x23C SWAP1 PUSH2 0x13AE JUMP JUMPDEST DUP1 ISZERO PUSH2 0x289 JUMPI DUP1 PUSH1 0x1F LT PUSH2 0x25E JUMPI PUSH2 0x100 DUP1 DUP4 SLOAD DIV MUL DUP4 MSTORE SWAP2 PUSH1 0x20 ADD SWAP2 PUSH2 0x289 JUMP JUMPDEST DUP3 ADD SWAP2 SWAP1 PUSH1 0x0 MSTORE PUSH1 0x20 PUSH1 0x0 KECCAK256 SWAP1 JUMPDEST DUP2 SLOAD DUP2 MSTORE SWAP1 PUSH1 0x1 ADD SWAP1 PUSH1 0x20 ADD DUP1 DUP4 GT PUSH2 0x26C JUMPI DUP3 SWAP1 SUB PUSH1 0x1F AND DUP3 ADD SWAP2 JUMPDEST POP POP POP POP POP SWAP1 DUP1 PUSH1 0x2 ADD DUP1 SLOAD PUSH2 0x29E SWAP1 PUSH2 0x13AE JUMP JUMPDEST DUP1 PUSH1 0x1F ADD PUSH1 0x20 DUP1 SWAP2 DIV MUL PUSH1 0x20 ADD PUSH1 0x40 MLOAD SWAP1 DUP2 ADD PUSH1 0x40 MSTORE DUP1 SWAP3 SWAP2 SWAP1 DUP2 DUP2 MSTORE PUSH1 0x20 ADD DUP3 DUP1 SLOAD PUSH2 0x2CA SWAP1 PUSH2 0x13AE JUMP JUMPDEST DUP1 ISZERO PUSH2 0x317 JUMPI DUP1 PUSH1 0x1F LT PUSH2 0x2EC JUMPI PUSH2 0x100 DUP1 DUP4 SLOAD DIV MUL DUP4 MSTORE SWAP2 PUSH1 0x20 ADD SWAP2 PUSH2 0x317 JUMP JUMPDEST DUP3 ADD SWAP2 SWAP1 PUSH1 0x0 MSTORE PUSH1 0x20 PUSH1 0x0 KECCAK256 SWAP1 JUMPDEST DUP2 SLOAD DUP2 MSTORE SWAP1 PUSH1 0x1 ADD SWAP1 PUSH1 0x20 ADD DUP1 DUP4 GT PUSH2 0x2FA JUMPI DUP3 SWAP1 SUB PUSH1 0x1F AND DUP3 ADD SWAP2 JUMPDEST POP POP POP POP POP SWAP1 DUP1 PUSH1 0x3 ADD SLOAD SWAP1 DUP1 PUSH1 0x4 ADD SLOAD SWAP1 DUP1 PUSH1 0x5 ADD DUP1 SLOAD PUSH2 0x338 SWAP1 PUSH2 0x13AE JUMP JUMPDEST DUP1 PUSH1 0x1F ADD PUSH1 0x20 DUP1 SWAP2 DIV MUL PUSH1 0x20 ADD PUSH1 0x40 MLOAD SWAP1 DUP2 ADD PUSH1 0x40 MSTORE DUP1 SWAP3 SWAP2 SWAP1 DUP2 DUP2 MSTORE PUSH1 0x20 ADD DUP3 DUP1 SLOAD PUSH2 0x364 SWAP1 PUSH2 0x13AE JUMP JUMPDEST DUP1 ISZERO PUSH2 0x3B1 JUMPI DUP1 PUSH1 0x1F LT PUSH2 0x386 JUMPI PUSH2 0x100 DUP1 DUP4 SLOAD DIV MUL DUP4 MSTORE SWAP2 PUSH1 0x20 ADD SWAP2 PUSH2 0x3B1 JUMP JUMPDEST DUP3 ADD SWAP2 SWAP1 PUSH1 0x0 MSTORE PUSH1 0x20 PUSH1 0x0 KECCAK256 SWAP1 JUMPDEST DUP2 SLOAD DUP2 MSTORE SWAP1 PUSH1 0x1 ADD SWAP1 PUSH1 0x20 ADD DUP1 DUP4 GT PUSH2 0x394 JUMPI DUP3 SWAP1 SUB PUSH1 0x1F AND DUP3 ADD SWAP2 JUMPDEST POP POP POP POP PUSH1 0x7 DUP4 ADD SLOAD PUSH1 0x9 SWAP1 SWAP4 ADD SLOAD SWAP2 SWAP3 PUSH1 0x1 PUSH1 0x1 PUSH1 0xA0 SHL SUB AND SWAP2 PUSH1 0xFF DUP1 DUP3 AND SWAP3 POP PUSH2 0x100 SWAP1 SWAP2 DIV AND DUP10 JUMP JUMPDEST PUSH2 0x447 PUSH1 0x40 MLOAD DUP1 PUSH2 0x160 ADD PUSH1 0x40 MSTORE DUP1 PUSH1 0x0 DUP2 MSTORE PUSH1 0x20 ADD PUSH1 0x60 DUP2 MSTORE PUSH1 0x20 ADD PUSH1 0x60 DUP2 MSTORE PUSH1 0x20 ADD PUSH1 0x0 DUP2 MSTORE PUSH1 0x20 ADD PUSH1 0x0 DUP2 MSTORE PUSH1 0x20 ADD PUSH1 0x60 DUP2 MSTORE PUSH1 0x20 ADD PUSH1 0x60 DUP2 MSTORE PUSH1 0x20 ADD PUSH1 0x0 PUSH1 0x1 PUSH1 0x1 PUSH1 0xA0 SHL SUB AND DUP2 MSTORE PUSH1 0x20 ADD PUSH1 0x60 DUP2 MSTORE PUSH1 0x20 ADD PUSH1 0x0 ISZERO ISZERO DUP2 MSTORE PUSH1 0x20 ADD PUSH1 0x0 ISZERO ISZERO DUP2 MSTORE POP SWAP1 JUMP JUMPDEST PUSH1 0x0 DUP1 SLOAD DUP1 DUP4 MSTORE PUSH1 0x20 DUP1 DUP5 ADD DUP11 DUP2 MSTORE PUSH1 0x40 DUP1 DUP7 ADD DUP12 SWAP1 MSTORE PUSH1 0x60 DUP1 DUP8 ADD DUP12 SWAP1 MSTORE PUSH1 0x80 DUP8 ADD DUP11 SWAP1 MSTORE PUSH1 0xA0 DUP8 ADD DUP10 SWAP1 MSTORE PUSH1 0xC0 DUP8 ADD DUP9 SWAP1 MSTORE CALLER PUSH1 0xE0 DUP9 ADD MSTORE PUSH2 0x100 DUP8 ADD DUP2 SWAP1 MSTORE PUSH1 0x1 PUSH2 0x120 DUP9 ADD DUP2 SWAP1 MSTORE PUSH2 0x140 DUP9 ADD DUP8 SWAP1 MSTORE SWAP5 DUP7 MSTORE PUSH1 0x4 DUP5 MSTORE SWAP5 KECCAK256 DUP6 MLOAD DUP2 SSTORE SWAP1 MLOAD DUP1 MLOAD DUP7 SWAP5 SWAP3 SWAP4 PUSH2 0x4BE SWAP4 DUP6 ADD SWAP3 ADD SWAP1 PUSH2 0xD82 JUMP JUMPDEST POP PUSH1 0x40 DUP3 ADD MLOAD DUP1 MLOAD PUSH2 0x4DA SWAP2 PUSH1 0x2 DUP5 ADD SWAP2 PUSH1 0x20 SWAP1 SWAP2 ADD SWAP1 PUSH2 0xD82 JUMP JUMPDEST POP PUSH1 0x60 DUP3 ADD MLOAD PUSH1 0x3 DUP3 ADD SSTORE PUSH1 0x80 DUP3 ADD MLOAD PUSH1 0x4 DUP3 ADD SSTORE PUSH1 0xA0 DUP3 ADD MLOAD DUP1 MLOAD PUSH2 0x50A SWAP2 PUSH1 0x5 DUP5 ADD SWAP2 PUSH1 0x20 SWAP1 SWAP2 ADD SWAP1 PUSH2 0xD82 JUMP JUMPDEST POP PUSH1 0xC0 DUP3 ADD MLOAD DUP1 MLOAD PUSH2 0x526 SWAP2 PUSH1 0x6 DUP5 ADD SWAP2 PUSH1 0x20 SWAP1 SWAP2 ADD SWAP1 PUSH2 0xE06 JUMP JUMPDEST POP PUSH1 0xE0 DUP3 ADD MLOAD PUSH1 0x7 DUP3 ADD DUP1 SLOAD PUSH1 0x1 PUSH1 0x1 PUSH1 0xA0 SHL SUB NOT AND PUSH1 0x1 PUSH1 0x1 PUSH1 0xA0 SHL SUB SWAP1 SWAP3 AND SWAP2 SWAP1 SWAP2 OR SWAP1 SSTORE PUSH2 0x100 DUP3 ADD MLOAD DUP1 MLOAD PUSH2 0x569 SWAP2 PUSH1 0x8 DUP5 ADD SWAP2 PUSH1 0x20 SWAP1 SWAP2 ADD SWAP1 PUSH2 0xE5F JUMP JUMPDEST POP PUSH2 0x120 DUP3 ADD MLOAD PUSH1 0x9 SWAP1 SWAP2 ADD DUP1 SLOAD PUSH2 0x140 SWAP1 SWAP4 ADD MLOAD ISZERO ISZERO PUSH2 0x100 MUL PUSH2 0xFF00 NOT SWAP3 ISZERO ISZERO SWAP3 SWAP1 SWAP3 AND PUSH2 0xFFFF NOT SWAP1 SWAP4 AND SWAP3 SWAP1 SWAP3 OR OR SWAP1 SSTORE PUSH1 0x0 DUP1 SLOAD SWAP1 DUP1 PUSH2 0x5AC DUP4 PUSH2 0x13E8 JUMP JUMPDEST SWAP2 SWAP1 POP SSTORE POP POP POP POP POP POP POP POP POP JUMP JUMPDEST PUSH1 0x1 SLOAD PUSH1 0x1 PUSH1 0x1 PUSH1 0xA0 SHL SUB AND CALLER EQ DUP1 PUSH2 0x5E3 JUMPI POP CALLER PUSH1 0x0 SWAP1 DUP2 MSTORE PUSH1 0x2 PUSH1 0x20 MSTORE PUSH1 0x40 SWAP1 KECCAK256 SLOAD PUSH1 0xFF AND JUMPDEST PUSH2 0x608 JUMPI PUSH1 0x40 MLOAD PUSH3 0x461BCD PUSH1 0xE5 SHL DUP2 MSTORE PUSH1 0x4 ADD PUSH2 0x5FF SWAP1 PUSH2 0x140F JUMP JUMPDEST PUSH1 0x40 MLOAD DUP1 SWAP2 SUB SWAP1 REVERT JUMPDEST PUSH1 0x40 MLOAD CALLER SWAP1 SELFBALANCE DUP1 ISZERO PUSH2 0x8FC MUL SWAP2 PUSH1 0x0 DUP2 DUP2 DUP2 DUP6 DUP9 DUP9 CALL SWAP4 POP POP POP POP ISZERO DUP1 ISZERO PUSH2 0x634 JUMPI RETURNDATASIZE PUSH1 0x0 DUP1 RETURNDATACOPY RETURNDATASIZE PUSH1 0x0 REVERT JUMPDEST POP JUMP JUMPDEST PUSH1 0x1 SLOAD PUSH1 0x1 PUSH1 0x1 PUSH1 0xA0 SHL SUB AND CALLER EQ DUP1 PUSH2 0x65F JUMPI POP CALLER PUSH1 0x0 SWAP1 DUP2 MSTORE PUSH1 0x2 PUSH1 0x20 MSTORE PUSH1 0x40 SWAP1 KECCAK256 SLOAD PUSH1 0xFF AND JUMPDEST PUSH2 0x67B JUMPI PUSH1 0x40 MLOAD PUSH3 0x461BCD PUSH1 0xE5 SHL DUP2 MSTORE PUSH1 0x4 ADD PUSH2 0x5FF SWAP1 PUSH2 0x140F JUMP JUMPDEST PUSH1 0x1 PUSH1 0x1 PUSH1 0xA0 SHL SUB SWAP2 SWAP1 SWAP2 AND PUSH1 0x0 SWAP1 DUP2 MSTORE PUSH1 0x2 PUSH1 0x20 MSTORE PUSH1 0x40 SWAP1 KECCAK256 DUP1 SLOAD PUSH1 0xFF NOT AND SWAP2 ISZERO ISZERO SWAP2 SWAP1 SWAP2 OR SWAP1 SSTORE JUMP JUMPDEST PUSH1 0x1 SLOAD PUSH1 0x1 PUSH1 0x1 PUSH1 0xA0 SHL SUB AND CALLER EQ DUP1 PUSH2 0x6CE JUMPI POP CALLER PUSH1 0x0 SWAP1 DUP2 MSTORE PUSH1 0x2 PUSH1 0x20 MSTORE PUSH1 0x40 SWAP1 KECCAK256 SLOAD PUSH1 0xFF AND JUMPDEST PUSH2 0x6EA JUMPI PUSH1 0x40 MLOAD PUSH3 0x461BCD PUSH1 0xE5 SHL DUP2 MSTORE PUSH1 0x4 ADD PUSH2 0x5FF SWAP1 PUSH2 0x140F JUMP JUMPDEST PUSH1 0x3 SSTORE JUMP JUMPDEST PUSH1 0x1 SLOAD PUSH1 0x1 PUSH1 0x1 PUSH1 0xA0 SHL SUB AND CALLER EQ DUP1 PUSH2 0x717 JUMPI POP CALLER PUSH1 0x0 SWAP1 DUP2 MSTORE PUSH1 0x2 PUSH1 0x20 MSTORE PUSH1 0x40 SWAP1 KECCAK256 SLOAD PUSH1 0xFF AND JUMPDEST PUSH2 0x733 JUMPI PUSH1 0x40 MLOAD PUSH3 0x461BCD PUSH1 0xE5 SHL DUP2 MSTORE PUSH1 0x4 ADD PUSH2 0x5FF SWAP1 PUSH2 0x140F JUMP JUMPDEST PUSH1 0x40 MLOAD PUSH4 0x79212195 PUSH1 0xE1 SHL DUP2 MSTORE DUP5 SWAP1 PUSH1 0x1 PUSH1 0x1 PUSH1 0xA0 SHL SUB DUP3 AND SWAP1 PUSH4 0xF242432A SWAP1 PUSH2 0x769 SWAP1 ADDRESS SWAP1 CALLER SWAP1 DUP10 SWAP1 DUP10 SWAP1 DUP10 SWAP1 PUSH1 0x4 ADD PUSH2 0x1432 JUMP JUMPDEST PUSH1 0x0 PUSH1 0x40 MLOAD DUP1 DUP4 SUB DUP2 PUSH1 0x0 DUP8 DUP1 EXTCODESIZE ISZERO DUP1 ISZERO PUSH2 0x783 JUMPI PUSH1 0x0 DUP1 REVERT JUMPDEST POP GAS CALL ISZERO DUP1 ISZERO PUSH2 0x797 JUMPI RETURNDATASIZE PUSH1 0x0 DUP1 RETURNDATACOPY RETURNDATASIZE PUSH1 0x0 REVERT JUMPDEST POP POP POP POP POP POP POP POP POP JUMP JUMPDEST PUSH1 0x1 SLOAD PUSH1 0x1 PUSH1 0x1 PUSH1 0xA0 SHL SUB AND CALLER EQ DUP1 PUSH2 0x7CA JUMPI POP CALLER PUSH1 0x0 SWAP1 DUP2 MSTORE PUSH1 0x2 PUSH1 0x20 MSTORE PUSH1 0x40 SWAP1 KECCAK256 SLOAD PUSH1 0xFF AND JUMPDEST PUSH2 0x7E6 JUMPI PUSH1 0x40 MLOAD PUSH3 0x461BCD PUSH1 0xE5 SHL DUP2 MSTORE PUSH1 0x4 ADD PUSH2 0x5FF SWAP1 PUSH2 0x140F JUMP JUMPDEST PUSH1 0x40 MLOAD PUSH4 0xA9059CBB PUSH1 0xE0 SHL DUP2 MSTORE CALLER PUSH1 0x4 DUP3 ADD MSTORE PUSH1 0x24 DUP2 ADD DUP3 SWAP1 MSTORE DUP3 SWAP1 PUSH1 0x1 PUSH1 0x1 PUSH1 0xA0 SHL SUB DUP3 AND SWAP1 PUSH4 0xA9059CBB SWAP1 PUSH1 0x44 ADD PUSH1 0x20 PUSH1 0x40 MLOAD DUP1 DUP4 SUB DUP2 PUSH1 0x0 DUP8 GAS CALL ISZERO DUP1 ISZERO PUSH2 0x835 JUMPI RETURNDATASIZE PUSH1 0x0 DUP1 RETURNDATACOPY RETURNDATASIZE PUSH1 0x0 REVERT JUMPDEST POP POP POP POP PUSH1 0x40 MLOAD RETURNDATASIZE PUSH1 0x1F NOT PUSH1 0x1F DUP3 ADD AND DUP3 ADD DUP1 PUSH1 0x40 MSTORE POP DUP2 ADD SWAP1 PUSH2 0x859 SWAP2 SWAP1 PUSH2 0x1477 JUMP JUMPDEST POP POP POP POP JUMP JUMPDEST PUSH1 0x0 DUP4 DUP2 MSTORE PUSH1 0x4 PUSH1 0x20 SWAP1 DUP2 MSTORE PUSH1 0x40 DUP1 DUP4 KECCAK256 DUP2 MLOAD PUSH2 0x160 DUP2 ADD SWAP1 SWAP3 MSTORE DUP1 SLOAD DUP3 MSTORE PUSH1 0x1 DUP2 ADD DUP1 SLOAD DUP9 SWAP6 SWAP5 DUP5 ADD SWAP2 SWAP1 PUSH2 0x894 SWAP1 PUSH2 0x13AE JUMP JUMPDEST DUP1 PUSH1 0x1F ADD PUSH1 0x20 DUP1 SWAP2 DIV MUL PUSH1 0x20 ADD PUSH1 0x40 MLOAD SWAP1 DUP2 ADD PUSH1 0x40 MSTORE DUP1 SWAP3 SWAP2 SWAP1 DUP2 DUP2 MSTORE PUSH1 0x20 ADD DUP3 DUP1 SLOAD PUSH2 0x8C0 SWAP1 PUSH2 0x13AE JUMP JUMPDEST DUP1 ISZERO PUSH2 0x90D JUMPI DUP1 PUSH1 0x1F LT PUSH2 0x8E2 JUMPI PUSH2 0x100 DUP1 DUP4 SLOAD DIV MUL DUP4 MSTORE SWAP2 PUSH1 0x20 ADD SWAP2 PUSH2 0x90D JUMP JUMPDEST DUP3 ADD SWAP2 SWAP1 PUSH1 0x0 MSTORE PUSH1 0x20 PUSH1 0x0 KECCAK256 SWAP1 JUMPDEST DUP2 SLOAD DUP2 MSTORE SWAP1 PUSH1 0x1 ADD SWAP1 PUSH1 0x20 ADD DUP1 DUP4 GT PUSH2 0x8F0 JUMPI DUP3 SWAP1 SUB PUSH1 0x1F AND DUP3 ADD SWAP2 JUMPDEST POP POP POP POP POP DUP2 MSTORE PUSH1 0x20 ADD PUSH1 0x2 DUP3 ADD DUP1 SLOAD PUSH2 0x926 SWAP1 PUSH2 0x13AE JUMP JUMPDEST DUP1 PUSH1 0x1F ADD PUSH1 0x20 DUP1 SWAP2 DIV MUL PUSH1 0x20 ADD PUSH1 0x40 MLOAD SWAP1 DUP2 ADD PUSH1 0x40 MSTORE DUP1 SWAP3 SWAP2 SWAP1 DUP2 DUP2 MSTORE PUSH1 0x20 ADD DUP3 DUP1 SLOAD PUSH2 0x952 SWAP1 PUSH2 0x13AE JUMP JUMPDEST DUP1 ISZERO PUSH2 0x99F JUMPI DUP1 PUSH1 0x1F LT PUSH2 0x974 JUMPI PUSH2 0x100 DUP1 DUP4 SLOAD DIV MUL DUP4 MSTORE SWAP2 PUSH1 0x20 ADD SWAP2 PUSH2 0x99F JUMP JUMPDEST DUP3 ADD SWAP2 SWAP1 PUSH1 0x0 MSTORE PUSH1 0x20 PUSH1 0x0 KECCAK256 SWAP1 JUMPDEST DUP2 SLOAD DUP2 MSTORE SWAP1 PUSH1 0x1 ADD SWAP1 PUSH1 0x20 ADD DUP1 DUP4 GT PUSH2 0x982 JUMPI DUP3 SWAP1 SUB PUSH1 0x1F AND DUP3 ADD SWAP2 JUMPDEST POP POP POP POP POP DUP2 MSTORE PUSH1 0x20 ADD PUSH1 0x3 DUP3 ADD SLOAD DUP2 MSTORE PUSH1 0x20 ADD PUSH1 0x4 DUP3 ADD SLOAD DUP2 MSTORE PUSH1 0x20 ADD PUSH1 0x5 DUP3 ADD DUP1 SLOAD PUSH2 0x9CC SWAP1 PUSH2 0x13AE JUMP JUMPDEST DUP1 PUSH1 0x1F ADD PUSH1 0x20 DUP1 SWAP2 DIV MUL PUSH1 0x20 ADD PUSH1 0x40 MLOAD SWAP1 DUP2 ADD PUSH1 0x40 MSTORE DUP1 SWAP3 SWAP2 SWAP1 DUP2 DUP2 MSTORE PUSH1 0x20 ADD DUP3 DUP1 SLOAD PUSH2 0x9F8 SWAP1 PUSH2 0x13AE JUMP JUMPDEST DUP1 ISZERO PUSH2 0xA45 JUMPI DUP1 PUSH1 0x1F LT PUSH2 0xA1A JUMPI PUSH2 0x100 DUP1 DUP4 SLOAD DIV MUL DUP4 MSTORE SWAP2 PUSH1 0x20 ADD SWAP2 PUSH2 0xA45 JUMP JUMPDEST DUP3 ADD SWAP2 SWAP1 PUSH1 0x0 MSTORE PUSH1 0x20 PUSH1 0x0 KECCAK256 SWAP1 JUMPDEST DUP2 SLOAD DUP2 MSTORE SWAP1 PUSH1 0x1 ADD SWAP1 PUSH1 0x20 ADD DUP1 DUP4 GT PUSH2 0xA28 JUMPI DUP3 SWAP1 SUB PUSH1 0x1F AND DUP3 ADD SWAP2 JUMPDEST POP POP POP POP POP DUP2 MSTORE PUSH1 0x20 ADD PUSH1 0x6 DUP3 ADD DUP1 SLOAD DUP1 PUSH1 0x20 MUL PUSH1 0x20 ADD PUSH1 0x40 MLOAD SWAP1 DUP2 ADD PUSH1 0x40 MSTORE DUP1 SWAP3 SWAP2 SWAP1 DUP2 DUP2 MSTORE PUSH1 0x20 ADD PUSH1 0x0 SWAP1 JUMPDEST DUP3 DUP3 LT ISZERO PUSH2 0xB1F JUMPI DUP4 DUP3 SWAP1 PUSH1 0x0 MSTORE PUSH1 0x20 PUSH1 0x0 KECCAK256 ADD DUP1 SLOAD PUSH2 0xA92 SWAP1 PUSH2 0x13AE JUMP JUMPDEST DUP1 PUSH1 0x1F ADD PUSH1 0x20 DUP1 SWAP2 DIV MUL PUSH1 0x20 ADD PUSH1 0x40 MLOAD SWAP1 DUP2 ADD PUSH1 0x40 MSTORE DUP1 SWAP3 SWAP2 SWAP1 DUP2 DUP2 MSTORE PUSH1 0x20 ADD DUP3 DUP1 SLOAD PUSH2 0xABE SWAP1 PUSH2 0x13AE JUMP JUMPDEST DUP1 ISZERO PUSH2 0xB0B JUMPI DUP1 PUSH1 0x1F LT PUSH2 0xAE0 JUMPI PUSH2 0x100 DUP1 DUP4 SLOAD DIV MUL DUP4 MSTORE SWAP2 PUSH1 0x20 ADD SWAP2 PUSH2 0xB0B JUMP JUMPDEST DUP3 ADD SWAP2 SWAP1 PUSH1 0x0 MSTORE PUSH1 0x20 PUSH1 0x0 KECCAK256 SWAP1 JUMPDEST DUP2 SLOAD DUP2 MSTORE SWAP1 PUSH1 0x1 ADD SWAP1 PUSH1 0x20 ADD DUP1 DUP4 GT PUSH2 0xAEE JUMPI DUP3 SWAP1 SUB PUSH1 0x1F AND DUP3 ADD SWAP2 JUMPDEST POP POP POP POP POP DUP2 MSTORE PUSH1 0x20 ADD SWAP1 PUSH1 0x1 ADD SWAP1 PUSH2 0xA73 JUMP JUMPDEST POP POP POP SWAP1 DUP3 MSTORE POP PUSH1 0x7 DUP3 ADD SLOAD PUSH1 0x1 PUSH1 0x1 PUSH1 0xA0 SHL SUB AND PUSH1 0x20 DUP1 DUP4 ADD SWAP2 SWAP1 SWAP2 MSTORE PUSH1 0x8 DUP4 ADD DUP1 SLOAD PUSH1 0x40 DUP1 MLOAD DUP3 DUP6 MUL DUP2 ADD DUP6 ADD DUP3 MSTORE DUP3 DUP2 MSTORE SWAP5 ADD SWAP4 SWAP3 DUP4 ADD DUP3 DUP3 DUP1 ISZERO PUSH2 0xB90 JUMPI PUSH1 0x20 MUL DUP3 ADD SWAP2 SWAP1 PUSH1 0x0 MSTORE PUSH1 0x20 PUSH1 0x0 KECCAK256 SWAP1 JUMPDEST DUP2 SLOAD PUSH1 0x1 PUSH1 0x1 PUSH1 0xA0 SHL SUB AND DUP2 MSTORE PUSH1 0x1 SWAP1 SWAP2 ADD SWAP1 PUSH1 0x20 ADD DUP1 DUP4 GT PUSH2 0xB72 JUMPI JUMPDEST POP POP POP SWAP2 DUP4 MSTORE POP POP PUSH1 0x9 SWAP2 SWAP1 SWAP2 ADD SLOAD PUSH1 0xFF DUP1 DUP3 AND ISZERO ISZERO PUSH1 0x20 DUP5 ADD MSTORE PUSH2 0x100 SWAP1 SWAP2 DIV AND ISZERO ISZERO PUSH1 0x40 SWAP1 SWAP2 ADD MSTORE PUSH1 0xE0 DUP2 ADD MLOAD SWAP1 SWAP2 POP PUSH1 0x1 PUSH1 0x1 PUSH1 0xA0 SHL SUB AND CALLER EQ PUSH2 0xCCA JUMPI DUP1 PUSH2 0x140 ADD MLOAD PUSH2 0xC19 JUMPI PUSH1 0x40 MLOAD PUSH3 0x461BCD PUSH1 0xE5 SHL DUP2 MSTORE PUSH1 0x20 PUSH1 0x4 DUP3 ADD MSTORE PUSH1 0x13 PUSH1 0x24 DUP3 ADD MSTORE PUSH19 0x18D85B9B9BDD0819591A5D081C1C9BDA9958DD PUSH1 0x6A SHL PUSH1 0x44 DUP3 ADD MSTORE PUSH1 0x64 ADD PUSH2 0x5FF JUMP JUMPDEST PUSH1 0x0 DUP1 JUMPDEST DUP3 PUSH2 0x100 ADD MLOAD MLOAD DUP2 LT ISZERO PUSH2 0xC84 JUMPI PUSH1 0x0 DUP4 PUSH2 0x100 ADD MLOAD DUP3 DUP2 MLOAD DUP2 LT PUSH2 0xC44 JUMPI PUSH2 0xC44 PUSH2 0x1494 JUMP JUMPDEST PUSH1 0x20 MUL PUSH1 0x20 ADD ADD MLOAD SWAP1 POP DUP1 PUSH1 0x1 PUSH1 0x1 PUSH1 0xA0 SHL SUB AND CALLER PUSH1 0x1 PUSH1 0x1 PUSH1 0xA0 SHL SUB AND SUB PUSH2 0xC71 JUMPI PUSH1 0x1 SWAP3 POP POP PUSH2 0xC84 JUMP JUMPDEST POP DUP1 PUSH2 0xC7C DUP2 PUSH2 0x13E8 JUMP JUMPDEST SWAP2 POP POP PUSH2 0xC1D JUMP JUMPDEST POP DUP1 PUSH2 0xCC8 JUMPI PUSH1 0x40 MLOAD PUSH3 0x461BCD PUSH1 0xE5 SHL DUP2 MSTORE PUSH1 0x20 PUSH1 0x4 DUP3 ADD MSTORE PUSH1 0x13 PUSH1 0x24 DUP3 ADD MSTORE PUSH19 0x18D85B9B9BDD0819591A5D081C1C9BDA9958DD PUSH1 0x6A SHL PUSH1 0x44 DUP3 ADD MSTORE PUSH1 0x64 ADD PUSH2 0x5FF JUMP JUMPDEST POP JUMPDEST POP POP POP POP POP JUMP JUMPDEST PUSH1 0x1 SLOAD PUSH1 0x1 PUSH1 0x1 PUSH1 0xA0 SHL SUB AND CALLER EQ DUP1 PUSH2 0xCF9 JUMPI POP CALLER PUSH1 0x0 SWAP1 DUP2 MSTORE PUSH1 0x2 PUSH1 0x20 MSTORE PUSH1 0x40 SWAP1 KECCAK256 SLOAD PUSH1 0xFF AND JUMPDEST PUSH2 0xD15 JUMPI PUSH1 0x40 MLOAD PUSH3 0x461BCD PUSH1 0xE5 SHL DUP2 MSTORE PUSH1 0x4 ADD PUSH2 0x5FF SWAP1 PUSH2 0x140F JUMP JUMPDEST PUSH1 0x40 MLOAD PUSH4 0x21421707 PUSH1 0xE1 SHL DUP2 MSTORE ADDRESS PUSH1 0x4 DUP3 ADD MSTORE CALLER PUSH1 0x24 DUP3 ADD MSTORE PUSH1 0x44 DUP2 ADD DUP3 SWAP1 MSTORE DUP3 SWAP1 PUSH1 0x1 PUSH1 0x1 PUSH1 0xA0 SHL SUB DUP3 AND SWAP1 PUSH4 0x42842E0E SWAP1 PUSH1 0x64 ADD PUSH1 0x0 PUSH1 0x40 MLOAD DUP1 DUP4 SUB DUP2 PUSH1 0x0 DUP8 DUP1 EXTCODESIZE ISZERO DUP1 ISZERO PUSH2 0xD65 JUMPI PUSH1 0x0 DUP1 REVERT JUMPDEST POP GAS CALL ISZERO DUP1 ISZERO PUSH2 0xD79 JUMPI RETURNDATASIZE PUSH1 0x0 DUP1 RETURNDATACOPY RETURNDATASIZE PUSH1 0x0 REVERT JUMPDEST POP POP POP POP POP POP POP JUMP JUMPDEST DUP3 DUP1 SLOAD PUSH2 0xD8E SWAP1 PUSH2 0x13AE JUMP JUMPDEST SWAP1 PUSH1 0x0 MSTORE PUSH1 0x20 PUSH1 0x0 KECCAK256 SWAP1 PUSH1 0x1F ADD PUSH1 0x20 SWAP1 DIV DUP2 ADD SWAP3 DUP3 PUSH2 0xDB0 JUMPI PUSH1 0x0 DUP6 SSTORE PUSH2 0xDF6 JUMP JUMPDEST DUP3 PUSH1 0x1F LT PUSH2 0xDC9 JUMPI DUP1 MLOAD PUSH1 0xFF NOT AND DUP4 DUP1 ADD OR DUP6 SSTORE PUSH2 0xDF6 JUMP JUMPDEST DUP3 DUP1 ADD PUSH1 0x1 ADD DUP6 SSTORE DUP3 ISZERO PUSH2 0xDF6 JUMPI SWAP2 DUP3 ADD JUMPDEST DUP3 DUP2 GT ISZERO PUSH2 0xDF6 JUMPI DUP3 MLOAD DUP3 SSTORE SWAP2 PUSH1 0x20 ADD SWAP2 SWAP1 PUSH1 0x1 ADD SWAP1 PUSH2 0xDDB JUMP JUMPDEST POP PUSH2 0xE02 SWAP3 SWAP2 POP PUSH2 0xEB4 JUMP JUMPDEST POP SWAP1 JUMP JUMPDEST DUP3 DUP1 SLOAD DUP3 DUP3 SSTORE SWAP1 PUSH1 0x0 MSTORE PUSH1 0x20 PUSH1 0x0 KECCAK256 SWAP1 DUP2 ADD SWAP3 DUP3 ISZERO PUSH2 0xE53 JUMPI SWAP2 PUSH1 0x20 MUL DUP3 ADD JUMPDEST DUP3 DUP2 GT ISZERO PUSH2 0xE53 JUMPI DUP3 MLOAD DUP1 MLOAD PUSH2 0xE43 SWAP2 DUP5 SWAP2 PUSH1 0x20 SWAP1 SWAP2 ADD SWAP1 PUSH2 0xD82 JUMP JUMPDEST POP SWAP2 PUSH1 0x20 ADD SWAP2 SWAP1 PUSH1 0x1 ADD SWAP1 PUSH2 0xE26 JUMP JUMPDEST POP PUSH2 0xE02 SWAP3 SWAP2 POP PUSH2 0xEC9 JUMP JUMPDEST DUP3 DUP1 SLOAD DUP3 DUP3 SSTORE SWAP1 PUSH1 0x0 MSTORE PUSH1 0x20 PUSH1 0x0 KECCAK256 SWAP1 DUP2 ADD SWAP3 DUP3 ISZERO PUSH2 0xDF6 JUMPI SWAP2 PUSH1 0x20 MUL DUP3 ADD JUMPDEST DUP3 DUP2 GT ISZERO PUSH2 0xDF6 JUMPI DUP3 MLOAD DUP3 SLOAD PUSH1 0x1 PUSH1 0x1 PUSH1 0xA0 SHL SUB NOT AND PUSH1 0x1 PUSH1 0x1 PUSH1 0xA0 SHL SUB SWAP1 SWAP2 AND OR DUP3 SSTORE PUSH1 0x20 SWAP1 SWAP3 ADD SWAP2 PUSH1 0x1 SWAP1 SWAP2 ADD SWAP1 PUSH2 0xE7F JUMP JUMPDEST JUMPDEST DUP1 DUP3 GT ISZERO PUSH2 0xE02 JUMPI PUSH1 0x0 DUP2 SSTORE PUSH1 0x1 ADD PUSH2 0xEB5 JUMP JUMPDEST DUP1 DUP3 GT ISZERO PUSH2 0xE02 JUMPI PUSH1 0x0 PUSH2 0xEDD DUP3 DUP3 PUSH2 0xEE6 JUMP JUMPDEST POP PUSH1 0x1 ADD PUSH2 0xEC9 JUMP JUMPDEST POP DUP1 SLOAD PUSH2 0xEF2 SWAP1 PUSH2 0x13AE JUMP JUMPDEST PUSH1 0x0 DUP3 SSTORE DUP1 PUSH1 0x1F LT PUSH2 0xF02 JUMPI POP POP JUMP JUMPDEST PUSH1 0x1F ADD PUSH1 0x20 SWAP1 DIV SWAP1 PUSH1 0x0 MSTORE PUSH1 0x20 PUSH1 0x0 KECCAK256 SWAP1 DUP2 ADD SWAP1 PUSH2 0x634 SWAP2 SWAP1 PUSH2 0xEB4 JUMP JUMPDEST PUSH1 0x0 PUSH1 0x20 DUP3 DUP5 SUB SLT ISZERO PUSH2 0xF32 JUMPI PUSH1 0x0 DUP1 REVERT JUMPDEST POP CALLDATALOAD SWAP2 SWAP1 POP JUMP JUMPDEST PUSH1 0x0 DUP2 MLOAD DUP1 DUP5 MSTORE PUSH1 0x0 JUMPDEST DUP2 DUP2 LT ISZERO PUSH2 0xF5F JUMPI PUSH1 0x20 DUP2 DUP6 ADD DUP2 ADD MLOAD DUP7 DUP4 ADD DUP3 ADD MSTORE ADD PUSH2 0xF43 JUMP JUMPDEST DUP2 DUP2 GT ISZERO PUSH2 0xF71 JUMPI PUSH1 0x0 PUSH1 0x20 DUP4 DUP8 ADD ADD MSTORE JUMPDEST POP PUSH1 0x1F ADD PUSH1 0x1F NOT AND SWAP3 SWAP1 SWAP3 ADD PUSH1 0x20 ADD SWAP3 SWAP2 POP POP JUMP JUMPDEST PUSH1 0x0 PUSH2 0x120 DUP12 DUP4 MSTORE DUP1 PUSH1 0x20 DUP5 ADD MSTORE PUSH2 0xFA0 DUP2 DUP5 ADD DUP13 PUSH2 0xF39 JUMP JUMPDEST SWAP1 POP DUP3 DUP2 SUB PUSH1 0x40 DUP5 ADD MSTORE PUSH2 0xFB4 DUP2 DUP12 PUSH2 0xF39 JUMP JUMPDEST SWAP1 POP DUP9 PUSH1 0x60 DUP5 ADD MSTORE DUP8 PUSH1 0x80 DUP5 ADD MSTORE DUP3 DUP2 SUB PUSH1 0xA0 DUP5 ADD MSTORE PUSH2 0xFD4 DUP2 DUP9 PUSH2 0xF39 JUMP JUMPDEST PUSH1 0x1 PUSH1 0x1 PUSH1 0xA0 SHL SUB SWAP7 SWAP1 SWAP7 AND PUSH1 0xC0 DUP5 ADD MSTORE POP POP SWAP2 ISZERO ISZERO PUSH1 0xE0 DUP4 ADD MSTORE ISZERO ISZERO PUSH2 0x100 SWAP1 SWAP2 ADD MSTORE SWAP7 SWAP6 POP POP POP POP POP POP JUMP JUMPDEST PUSH4 0x4E487B71 PUSH1 0xE0 SHL PUSH1 0x0 MSTORE PUSH1 0x41 PUSH1 0x4 MSTORE PUSH1 0x24 PUSH1 0x0 REVERT JUMPDEST PUSH1 0x40 MLOAD PUSH1 0x1F DUP3 ADD PUSH1 0x1F NOT AND DUP2 ADD PUSH8 0xFFFFFFFFFFFFFFFF DUP2 GT DUP3 DUP3 LT OR ISZERO PUSH2 0x1041 JUMPI PUSH2 0x1041 PUSH2 0x1002 JUMP JUMPDEST PUSH1 0x40 MSTORE SWAP2 SWAP1 POP JUMP JUMPDEST PUSH1 0x0 PUSH8 0xFFFFFFFFFFFFFFFF DUP4 GT ISZERO PUSH2 0x1063 JUMPI PUSH2 0x1063 PUSH2 0x1002 JUMP JUMPDEST PUSH2 0x1076 PUSH1 0x1F DUP5 ADD PUSH1 0x1F NOT AND PUSH1 0x20 ADD PUSH2 0x1018 JUMP JUMPDEST SWAP1 POP DUP3 DUP2 MSTORE DUP4 DUP4 DUP4 ADD GT ISZERO PUSH2 0x108A JUMPI PUSH1 0x0 DUP1 REVERT JUMPDEST DUP3 DUP3 PUSH1 0x20 DUP4 ADD CALLDATACOPY PUSH1 0x0 PUSH1 0x20 DUP5 DUP4 ADD ADD MSTORE SWAP4 SWAP3 POP POP POP JUMP JUMPDEST PUSH1 0x0 DUP3 PUSH1 0x1F DUP4 ADD SLT PUSH2 0x10B2 JUMPI PUSH1 0x0 DUP1 REVERT JUMPDEST PUSH2 0x10C1 DUP4 DUP4 CALLDATALOAD PUSH1 0x20 DUP6 ADD PUSH2 0x1049 JUMP JUMPDEST SWAP4 SWAP3 POP POP POP JUMP JUMPDEST PUSH1 0x0 DUP3 PUSH1 0x1F DUP4 ADD SLT PUSH2 0x10D9 JUMPI PUSH1 0x0 DUP1 REVERT JUMPDEST DUP2 CALLDATALOAD PUSH1 0x20 PUSH8 0xFFFFFFFFFFFFFFFF DUP1 DUP4 GT ISZERO PUSH2 0x10F6 JUMPI PUSH2 0x10F6 PUSH2 0x1002 JUMP JUMPDEST DUP3 PUSH1 0x5 SHL PUSH2 0x1105 DUP4 DUP3 ADD PUSH2 0x1018 JUMP JUMPDEST SWAP4 DUP5 MSTORE DUP6 DUP2 ADD DUP4 ADD SWAP4 DUP4 DUP2 ADD SWAP1 DUP9 DUP7 GT ISZERO PUSH2 0x111F JUMPI PUSH1 0x0 DUP1 REVERT JUMPDEST DUP5 DUP9 ADD SWAP3 POP JUMPDEST DUP6 DUP4 LT ISZERO PUSH2 0x115B JUMPI DUP3 CALLDATALOAD DUP5 DUP2 GT ISZERO PUSH2 0x113D JUMPI PUSH1 0x0 DUP1 DUP2 REVERT JUMPDEST PUSH2 0x114B DUP11 DUP8 DUP4 DUP13 ADD ADD PUSH2 0x10A1 JUMP JUMPDEST DUP4 MSTORE POP SWAP2 DUP5 ADD SWAP2 SWAP1 DUP5 ADD SWAP1 PUSH2 0x1125 JUMP JUMPDEST SWAP9 SWAP8 POP POP POP POP POP POP POP POP JUMP JUMPDEST PUSH1 0x0 DUP1 PUSH1 0x0 DUP1 PUSH1 0x0 DUP1 PUSH1 0xC0 DUP8 DUP10 SUB SLT ISZERO PUSH2 0x1180 JUMPI PUSH1 0x0 DUP1 REVERT JUMPDEST DUP7 CALLDATALOAD PUSH8 0xFFFFFFFFFFFFFFFF DUP1 DUP3 GT ISZERO PUSH2 0x1198 JUMPI PUSH1 0x0 DUP1 REVERT JUMPDEST PUSH2 0x11A4 DUP11 DUP4 DUP12 ADD PUSH2 0x10A1 JUMP JUMPDEST SWAP8 POP PUSH1 0x20 DUP10 ADD CALLDATALOAD SWAP2 POP DUP1 DUP3 GT ISZERO PUSH2 0x11BA JUMPI PUSH1 0x0 DUP1 REVERT JUMPDEST PUSH2 0x11C6 DUP11 DUP4 DUP12 ADD PUSH2 0x10A1 JUMP JUMPDEST SWAP7 POP PUSH1 0x40 DUP10 ADD CALLDATALOAD SWAP6 POP PUSH1 0x60 DUP10 ADD CALLDATALOAD SWAP5 POP PUSH1 0x80 DUP10 ADD CALLDATALOAD SWAP2 POP DUP1 DUP3 GT ISZERO PUSH2 0x11EA JUMPI PUSH1 0x0 DUP1 REVERT JUMPDEST PUSH2 0x11F6 DUP11 DUP4 DUP12 ADD PUSH2 0x10A1 JUMP JUMPDEST SWAP4 POP PUSH1 0xA0 DUP10 ADD CALLDATALOAD SWAP2 POP DUP1 DUP3 GT ISZERO PUSH2 0x120C JUMPI PUSH1 0x0 DUP1 REVERT JUMPDEST POP PUSH2 0x1219 DUP10 DUP3 DUP11 ADD PUSH2 0x10C8 JUMP JUMPDEST SWAP2 POP POP SWAP3 SWAP6 POP SWAP3 SWAP6 POP SWAP3 SWAP6 JUMP JUMPDEST DUP1 CALLDATALOAD PUSH1 0x1 PUSH1 0x1 PUSH1 0xA0 SHL SUB DUP2 AND DUP2 EQ PUSH2 0x123D JUMPI PUSH1 0x0 DUP1 REVERT JUMPDEST SWAP2 SWAP1 POP JUMP JUMPDEST PUSH1 0x0 PUSH1 0x20 DUP3 DUP5 SUB SLT ISZERO PUSH2 0x1254 JUMPI PUSH1 0x0 DUP1 REVERT JUMPDEST PUSH2 0x10C1 DUP3 PUSH2 0x1226 JUMP JUMPDEST DUP1 ISZERO ISZERO DUP2 EQ PUSH2 0x634 JUMPI PUSH1 0x0 DUP1 REVERT JUMPDEST PUSH1 0x0 DUP1 PUSH1 0x40 DUP4 DUP6 SUB SLT ISZERO PUSH2 0x127E JUMPI PUSH1 0x0 DUP1 REVERT JUMPDEST PUSH2 0x1287 DUP4 PUSH2 0x1226 JUMP JUMPDEST SWAP2 POP PUSH1 0x20 DUP4 ADD CALLDATALOAD PUSH2 0x1297 DUP2 PUSH2 0x125D JUMP JUMPDEST DUP1 SWAP2 POP POP SWAP3 POP SWAP3 SWAP1 POP JUMP JUMPDEST PUSH1 0x0 DUP1 PUSH1 0x0 DUP1 PUSH1 0x80 DUP6 DUP8 SUB SLT ISZERO PUSH2 0x12B8 JUMPI PUSH1 0x0 DUP1 REVERT JUMPDEST PUSH2 0x12C1 DUP6 PUSH2 0x1226 JUMP JUMPDEST SWAP4 POP PUSH1 0x20 DUP6 ADD CALLDATALOAD SWAP3 POP PUSH1 0x40 DUP6 ADD CALLDATALOAD SWAP2 POP PUSH1 0x60 DUP6 ADD CALLDATALOAD PUSH8 0xFFFFFFFFFFFFFFFF DUP2 GT ISZERO PUSH2 0x12EB JUMPI PUSH1 0x0 DUP1 REVERT JUMPDEST DUP6 ADD PUSH1 0x1F DUP2 ADD DUP8 SGT PUSH2 0x12FC JUMPI PUSH1 0x0 DUP1 REVERT JUMPDEST PUSH2 0x130B DUP8 DUP3 CALLDATALOAD PUSH1 0x20 DUP5 ADD PUSH2 0x1049 JUMP JUMPDEST SWAP2 POP POP SWAP3 SWAP6 SWAP2 SWAP5 POP SWAP3 POP JUMP JUMPDEST PUSH1 0x0 DUP1 PUSH1 0x40 DUP4 DUP6 SUB SLT ISZERO PUSH2 0x132A JUMPI PUSH1 0x0 DUP1 REVERT JUMPDEST PUSH2 0x1333 DUP4 PUSH2 0x1226 JUMP JUMPDEST SWAP5 PUSH1 0x20 SWAP4 SWAP1 SWAP4 ADD CALLDATALOAD SWAP4 POP POP POP JUMP JUMPDEST PUSH1 0x0 DUP1 PUSH1 0x0 PUSH1 0x60 DUP5 DUP7 SUB SLT ISZERO PUSH2 0x1356 JUMPI PUSH1 0x0 DUP1 REVERT JUMPDEST DUP4 CALLDATALOAD SWAP3 POP PUSH1 0x20 DUP5 ADD CALLDATALOAD PUSH8 0xFFFFFFFFFFFFFFFF DUP1 DUP3 GT ISZERO PUSH2 0x1375 JUMPI PUSH1 0x0 DUP1 REVERT JUMPDEST PUSH2 0x1381 DUP8 DUP4 DUP9 ADD PUSH2 0x10C8 JUMP JUMPDEST SWAP4 POP PUSH1 0x40 DUP7 ADD CALLDATALOAD SWAP2 POP DUP1 DUP3 GT ISZERO PUSH2 0x1397 JUMPI PUSH1 0x0 DUP1 REVERT JUMPDEST POP PUSH2 0x13A4 DUP7 DUP3 DUP8 ADD PUSH2 0x10C8 JUMP JUMPDEST SWAP2 POP POP SWAP3 POP SWAP3 POP SWAP3 JUMP JUMPDEST PUSH1 0x1 DUP2 DUP2 SHR SWAP1 DUP3 AND DUP1 PUSH2 0x13C2 JUMPI PUSH1 0x7F DUP3 AND SWAP2 POP JUMPDEST PUSH1 0x20 DUP3 LT DUP2 SUB PUSH2 0x13E2 JUMPI PUSH4 0x4E487B71 PUSH1 0xE0 SHL PUSH1 0x0 MSTORE PUSH1 0x22 PUSH1 0x4 MSTORE PUSH1 0x24 PUSH1 0x0 REVERT JUMPDEST POP SWAP2 SWAP1 POP JUMP JUMPDEST PUSH1 0x0 PUSH1 0x1 DUP3 ADD PUSH2 0x1408 JUMPI PUSH4 0x4E487B71 PUSH1 0xE0 SHL PUSH1 0x0 MSTORE PUSH1 0x11 PUSH1 0x4 MSTORE PUSH1 0x24 PUSH1 0x0 REVERT JUMPDEST POP PUSH1 0x1 ADD SWAP1 JUMP JUMPDEST PUSH1 0x20 DUP1 DUP3 MSTORE PUSH1 0x9 SWAP1 DUP3 ADD MSTORE PUSH9 0x3737BA1030B236B4B7 PUSH1 0xB9 SHL PUSH1 0x40 DUP3 ADD MSTORE PUSH1 0x60 ADD SWAP1 JUMP JUMPDEST PUSH1 0x1 PUSH1 0x1 PUSH1 0xA0 SHL SUB DUP7 DUP2 AND DUP3 MSTORE DUP6 AND PUSH1 0x20 DUP3 ADD MSTORE PUSH1 0x40 DUP2 ADD DUP5 SWAP1 MSTORE PUSH1 0x60 DUP2 ADD DUP4 SWAP1 MSTORE PUSH1 0xA0 PUSH1 0x80 DUP3 ADD DUP2 SWAP1 MSTORE PUSH1 0x0 SWAP1 PUSH2 0x146C SWAP1 DUP4 ADD DUP5 PUSH2 0xF39 JUMP JUMPDEST SWAP8 SWAP7 POP POP POP POP POP POP POP JUMP JUMPDEST PUSH1 0x0 PUSH1 0x20 DUP3 DUP5 SUB SLT ISZERO PUSH2 0x1489 JUMPI PUSH1 0x0 DUP1 REVERT JUMPDEST DUP2 MLOAD PUSH2 0x10C1 DUP2 PUSH2 0x125D JUMP JUMPDEST PUSH4 0x4E487B71 PUSH1 0xE0 SHL PUSH1 0x0 MSTORE PUSH1 0x32 PUSH1 0x4 MSTORE PUSH1 0x24 PUSH1 0x0 REVERT INVALID LOG2 PUSH5 0x6970667358 0x22 SLT KECCAK256 DUP5 0xC3 PUSH7 0x8530674C7787F8 0xF6 SWAP6 0xC2 0xAE SWAP6 0x2E TIMESTAMP CALLVALUE MUL SWAP9 0x24 SHR DUP4 0xF SWAP15 CALL PUSH1 0x17 PUSH31 0x7891B764736F6C634300080E00330000000000000000000000000000000000 "
				},
				"gasEstimates": {
					"creation": {
						"codeDepositCost": "1068800",
						"executionCost": "69554",
						"totalCost": "1138354"
					},
					"external": {
						"admins(address)": "2598",
						"create(string,string,uint256,uint256,string,string[])": "infinite",
						"owner()": "2448",
						"price()": "2317",
						"projects(uint256)": "infinite",
						"setAdmin(address,bool)": "29148",
						"setPrice(uint256)": "26660",
						"update(uint256,string[],string[])": "infinite",
						"withdrawERC1155(address,uint256,uint256,bytes)": "infinite",
						"withdrawERC20(address,uint256)": "infinite",
						"withdrawERC721(address,uint256)": "infinite",
						"withdrawFunds()": "infinite"
					}
				},
				"methodIdentifiers": {
					"admins(address)": "429b62e5",
					"create(string,string,uint256,uint256,string,string[])": "230abfd0",
					"owner()": "8da5cb5b",
					"price()": "a035b1fe",
					"projects(uint256)": "107046bd",
					"setAdmin(address,bool)": "4b0bddd2",
					"setPrice(uint256)": "91b7f5ed",
					"update(uint256,string[],string[])": "f28a8104",
					"withdrawERC1155(address,uint256,uint256,bytes)": "a1538bde",
					"withdrawERC20(address,uint256)": "a1db9782",
					"withdrawERC721(address,uint256)": "f3e414f8",
					"withdrawFunds()": "24600fc3"
				}
			},
			"storageLayout": {
				"storage": [
					{
						"astId": 370,
						"contract": "contracts/GoingUpProjects.sol:GoingUpProjects",
						"label": "idCounter",
						"offset": 0,
						"slot": "0",
						"type": "t_uint256"
					},
					{
						"astId": 372,
						"contract": "contracts/GoingUpProjects.sol:GoingUpProjects",
						"label": "owner",
						"offset": 0,
						"slot": "1",
						"type": "t_address"
					},
					{
						"astId": 376,
						"contract": "contracts/GoingUpProjects.sol:GoingUpProjects",
						"label": "admins",
						"offset": 0,
						"slot": "2",
						"type": "t_mapping(t_address,t_bool)"
					},
					{
						"astId": 417,
						"contract": "contracts/GoingUpProjects.sol:GoingUpProjects",
						"label": "price",
						"offset": 0,
						"slot": "3",
						"type": "t_uint256"
					},
					{
						"astId": 435,
						"contract": "contracts/GoingUpProjects.sol:GoingUpProjects",
						"label": "projects",
						"offset": 0,
						"slot": "4",
						"type": "t_mapping(t_uint256,t_struct(Project)358_storage)"
					}
				],
				"types": {
					"t_address": {
						"encoding": "inplace",
						"label": "address",
						"numberOfBytes": "20"
					},
					"t_array(t_address)dyn_storage": {
						"base": "t_address",
						"encoding": "dynamic_array",
						"label": "address[]",
						"numberOfBytes": "32"
					},
					"t_array(t_string_storage)dyn_storage": {
						"base": "t_string_storage",
						"encoding": "dynamic_array",
						"label": "string[]",
						"numberOfBytes": "32"
					},
					"t_bool": {
						"encoding": "inplace",
						"label": "bool",
						"numberOfBytes": "1"
					},
					"t_mapping(t_address,t_bool)": {
						"encoding": "mapping",
						"key": "t_address",
						"label": "mapping(address => bool)",
						"numberOfBytes": "32",
						"value": "t_bool"
					},
					"t_mapping(t_uint256,t_struct(Project)358_storage)": {
						"encoding": "mapping",
						"key": "t_uint256",
						"label": "mapping(uint256 => struct GoingUpProjects.Project)",
						"numberOfBytes": "32",
						"value": "t_struct(Project)358_storage"
					},
					"t_string_storage": {
						"encoding": "bytes",
						"label": "string",
						"numberOfBytes": "32"
					},
					"t_struct(Project)358_storage": {
						"encoding": "inplace",
						"label": "struct GoingUpProjects.Project",
						"members": [
							{
								"astId": 335,
								"contract": "contracts/GoingUpProjects.sol:GoingUpProjects",
								"label": "id",
								"offset": 0,
								"slot": "0",
								"type": "t_uint256"
							},
							{
								"astId": 337,
								"contract": "contracts/GoingUpProjects.sol:GoingUpProjects",
								"label": "name",
								"offset": 0,
								"slot": "1",
								"type": "t_string_storage"
							},
							{
								"astId": 339,
								"contract": "contracts/GoingUpProjects.sol:GoingUpProjects",
								"label": "description",
								"offset": 0,
								"slot": "2",
								"type": "t_string_storage"
							},
							{
								"astId": 341,
								"contract": "contracts/GoingUpProjects.sol:GoingUpProjects",
								"label": "started",
								"offset": 0,
								"slot": "3",
								"type": "t_uint256"
							},
							{
								"astId": 343,
								"contract": "contracts/GoingUpProjects.sol:GoingUpProjects",
								"label": "ended",
								"offset": 0,
								"slot": "4",
								"type": "t_uint256"
							},
							{
								"astId": 345,
								"contract": "contracts/GoingUpProjects.sol:GoingUpProjects",
								"label": "primaryUrl",
								"offset": 0,
								"slot": "5",
								"type": "t_string_storage"
							},
							{
								"astId": 348,
								"contract": "contracts/GoingUpProjects.sol:GoingUpProjects",
								"label": "tags",
								"offset": 0,
								"slot": "6",
								"type": "t_array(t_string_storage)dyn_storage"
							},
							{
								"astId": 350,
								"contract": "contracts/GoingUpProjects.sol:GoingUpProjects",
								"label": "owner",
								"offset": 0,
								"slot": "7",
								"type": "t_address"
							},
							{
								"astId": 353,
								"contract": "contracts/GoingUpProjects.sol:GoingUpProjects",
								"label": "members",
								"offset": 0,
								"slot": "8",
								"type": "t_array(t_address)dyn_storage"
							},
							{
								"astId": 355,
								"contract": "contracts/GoingUpProjects.sol:GoingUpProjects",
								"label": "active",
								"offset": 0,
								"slot": "9",
								"type": "t_bool"
							},
							{
								"astId": 357,
								"contract": "contracts/GoingUpProjects.sol:GoingUpProjects",
								"label": "allowMembersToEdit",
								"offset": 1,
								"slot": "9",
								"type": "t_bool"
							}
						],
						"numberOfBytes": "320"
					},
					"t_uint256": {
						"encoding": "inplace",
						"label": "uint256",
						"numberOfBytes": "32"
					}
				}
			},
			"userdoc": {
				"kind": "user",
				"methods": {
					"create(string,string,uint256,uint256,string,string[])": {
						"notice": "Create a project"
					},
					"setAdmin(address,bool)": {
						"notice": "Sets the admin flag for address"
					},
					"setPrice(uint256)": {
						"notice": "Sets the price for creating and updating projects"
					},
					"withdrawERC1155(address,uint256,uint256,bytes)": {
						"notice": "Withdraw ERC1155 token"
					},
					"withdrawERC20(address,uint256)": {
						"notice": "Withdraw ERC20 tokens"
					},
					"withdrawERC721(address,uint256)": {
						"notice": "Withdraw ERC721 token"
					},
					"withdrawFunds()": {
						"notice": "Withdraw native tokens (matic)"
					}
				},
				"version": 1
			}
		}
	}
}