{
	"contracts/GoingUpProjects.sol": {
		"GoingUpProjects": {
			"abi": [
				{
					"inputs": [],
					"stateMutability": "nonpayable",
					"type": "constructor"
				},
				{
					"inputs": [
						{
							"internalType": "address",
							"name": "",
							"type": "address"
						}
					],
					"name": "admins",
					"outputs": [
						{
							"internalType": "bool",
							"name": "",
							"type": "bool"
						}
					],
					"stateMutability": "view",
					"type": "function"
				},
				{
					"inputs": [
						{
							"internalType": "string",
							"name": "name",
							"type": "string"
						},
						{
							"internalType": "string",
							"name": "description",
							"type": "string"
						},
						{
							"internalType": "uint256",
							"name": "started",
							"type": "uint256"
						},
						{
							"internalType": "uint256",
							"name": "ended",
							"type": "uint256"
						},
						{
							"internalType": "string",
							"name": "primaryUrl",
							"type": "string"
						},
						{
							"internalType": "string[]",
							"name": "tags",
							"type": "string[]"
						}
					],
					"name": "create",
					"outputs": [],
					"stateMutability": "payable",
					"type": "function"
				},
				{
					"inputs": [],
					"name": "owner",
					"outputs": [
						{
							"internalType": "address",
							"name": "",
							"type": "address"
						}
					],
					"stateMutability": "view",
					"type": "function"
				},
				{
					"inputs": [],
					"name": "price",
					"outputs": [
						{
							"internalType": "uint256",
							"name": "",
							"type": "uint256"
						}
					],
					"stateMutability": "view",
					"type": "function"
				},
				{
					"inputs": [
						{
							"internalType": "uint256",
							"name": "",
							"type": "uint256"
						}
					],
					"name": "projects",
					"outputs": [
						{
							"internalType": "uint256",
							"name": "id",
							"type": "uint256"
						},
						{
							"internalType": "string",
							"name": "name",
							"type": "string"
						},
						{
							"internalType": "string",
							"name": "description",
							"type": "string"
						},
						{
							"internalType": "uint256",
							"name": "started",
							"type": "uint256"
						},
						{
							"internalType": "uint256",
							"name": "ended",
							"type": "uint256"
						},
						{
							"internalType": "string",
							"name": "primaryUrl",
							"type": "string"
						},
						{
							"internalType": "address",
							"name": "owner",
							"type": "address"
						},
						{
							"internalType": "bool",
							"name": "active",
							"type": "bool"
						},
						{
							"internalType": "bool",
							"name": "allowMembersToEdit",
							"type": "bool"
						}
					],
					"stateMutability": "view",
					"type": "function"
				},
				{
					"inputs": [
						{
							"internalType": "address",
							"name": "targetAddress",
							"type": "address"
						},
						{
							"internalType": "bool",
							"name": "isAdmin",
							"type": "bool"
						}
					],
					"name": "setAdmin",
					"outputs": [],
					"stateMutability": "nonpayable",
					"type": "function"
				},
				{
					"inputs": [
						{
							"internalType": "uint256",
							"name": "newPrice",
							"type": "uint256"
						}
					],
					"name": "setPrice",
					"outputs": [],
					"stateMutability": "nonpayable",
					"type": "function"
				},
				{
					"inputs": [
						{
							"internalType": "uint256",
							"name": "id",
							"type": "uint256"
						},
						{
							"internalType": "string",
							"name": "name",
							"type": "string"
						},
						{
							"internalType": "string",
							"name": "description",
							"type": "string"
						},
						{
							"internalType": "uint256",
							"name": "started",
							"type": "uint256"
						},
						{
							"internalType": "uint256",
							"name": "ended",
							"type": "uint256"
						},
						{
							"internalType": "string",
							"name": "primaryUrl",
							"type": "string"
						},
						{
							"internalType": "string[]",
							"name": "tags",
							"type": "string[]"
						}
					],
					"name": "update",
					"outputs": [],
					"stateMutability": "payable",
					"type": "function"
				},
				{
					"inputs": [
						{
							"internalType": "address",
							"name": "tokenAddress",
							"type": "address"
						},
						{
							"internalType": "uint256",
							"name": "tokenID",
							"type": "uint256"
						},
						{
							"internalType": "uint256",
							"name": "amount",
							"type": "uint256"
						},
						{
							"internalType": "bytes",
							"name": "data",
							"type": "bytes"
						}
					],
					"name": "withdrawERC1155",
					"outputs": [],
					"stateMutability": "nonpayable",
					"type": "function"
				},
				{
					"inputs": [
						{
							"internalType": "address",
							"name": "tokenAddress",
							"type": "address"
						},
						{
							"internalType": "uint256",
							"name": "amount",
							"type": "uint256"
						}
					],
					"name": "withdrawERC20",
					"outputs": [],
					"stateMutability": "nonpayable",
					"type": "function"
				},
				{
					"inputs": [
						{
							"internalType": "address",
							"name": "tokenAddress",
							"type": "address"
						},
						{
							"internalType": "uint256",
							"name": "tokenID",
							"type": "uint256"
						}
					],
					"name": "withdrawERC721",
					"outputs": [],
					"stateMutability": "nonpayable",
					"type": "function"
				},
				{
					"inputs": [],
					"name": "withdrawFunds",
					"outputs": [],
					"stateMutability": "nonpayable",
					"type": "function"
				}
			],
			"devdoc": {
				"author": "Mark Ibanez",
				"kind": "dev",
				"methods": {
					"create(string,string,uint256,uint256,string,string[])": {
						"params": {
							"description": "Project description",
							"ended": "Project ended (Unix timestamp, set to zero if you do not want to set any value)",
							"name": "Project name",
							"primaryUrl": "Project primary url",
							"started": "Project start (Unix timestamp, set to zero if you do not want to set any value)",
							"tags": "Project tags"
						}
					},
					"setAdmin(address,bool)": {
						"params": {
							"isAdmin": "Admin flag to set (true means address is admin, false mean address is not admin)",
							"targetAddress": "Target address to set admin flag"
						}
					},
					"setPrice(uint256)": {
						"params": {
							"newPrice": "New price for creating and updating projects"
						}
					},
					"update(uint256,string,string,uint256,uint256,string,string[])": {
						"params": {
							"description": "Project description",
							"ended": "Project ended (Unix timestamp, set to zero if you do not want to set any value)",
							"id": "Project ID",
							"name": "Project name",
							"primaryUrl": "Project primary url",
							"started": "Project start (Unix timestamp, set to zero if you do not want to set any value)",
							"tags": "Project tags"
						}
					},
					"withdrawERC1155(address,uint256,uint256,bytes)": {
						"params": {
							"tokenAddress": "Address of ERC1155 contract",
							"tokenID": "Token ID to withdraw"
						}
					},
					"withdrawERC20(address,uint256)": {
						"params": {
							"amount": "Amount to transfer",
							"tokenAddress": "Address of ERC20 contract"
						}
					},
					"withdrawERC721(address,uint256)": {
						"params": {
							"tokenAddress": "Address of ERC721 contract",
							"tokenID": "Token ID to withdraw"
						}
					}
				},
				"title": "GoingUP Platform Projects Smart Contract",
				"version": 1
			},
			"evm": {
				"assembly": "    /* \"contracts/GoingUpProjects.sol\":328:6203  contract GoingUpProjects {... */\n  mstore(0x40, 0x80)\n    /* \"contracts/GoingUpProjects.sol\":763:764  1 */\n  0x01\n    /* \"contracts/GoingUpProjects.sol\":735:764  uint256 private idCounter = 1 */\n  0x00\n  sstore\n    /* \"contracts/GoingUpProjects.sol\":1437:1449  1 * 10 ** 16 */\n  0x2386f26fc10000\n    /* \"contracts/GoingUpProjects.sol\":1414:1449  uint256 public price = 1 * 10 ** 16 */\n  0x03\n  sstore\n    /* \"contracts/GoingUpProjects.sol\":667:727  constructor () {        ... */\n  callvalue\n  dup1\n  iszero\n  tag_1\n  jumpi\n  0x00\n  dup1\n  revert\ntag_1:\n  pop\n    /* \"contracts/GoingUpProjects.sol\":701:706  owner */\n  0x01\n    /* \"contracts/GoingUpProjects.sol\":701:719  owner = msg.sender */\n  dup1\n  sload\n  not(sub(shl(0xa0, 0x01), 0x01))\n  and\n    /* \"contracts/GoingUpProjects.sol\":709:719  msg.sender */\n  caller\n    /* \"contracts/GoingUpProjects.sol\":701:719  owner = msg.sender */\n  or\n  swap1\n  sstore\n    /* \"contracts/GoingUpProjects.sol\":328:6203  contract GoingUpProjects {... */\n  dataSize(sub_0)\n  dup1\n  dataOffset(sub_0)\n  0x00\n  codecopy\n  0x00\n  return\nstop\n\nsub_0: assembly {\n        /* \"contracts/GoingUpProjects.sol\":328:6203  contract GoingUpProjects {... */\n      mstore(0x40, 0x80)\n      jumpi(tag_1, lt(calldatasize, 0x04))\n      shr(0xe0, calldataload(0x00))\n      dup1\n      0x91b7f5ed\n      gt\n      tag_14\n      jumpi\n      dup1\n      0x91b7f5ed\n      eq\n      tag_8\n      jumpi\n      dup1\n      0xa035b1fe\n      eq\n      tag_9\n      jumpi\n      dup1\n      0xa1538bde\n      eq\n      tag_10\n      jumpi\n      dup1\n      0xa1db9782\n      eq\n      tag_11\n      jumpi\n      dup1\n      0xe3a51523\n      eq\n      tag_12\n      jumpi\n      dup1\n      0xf3e414f8\n      eq\n      tag_13\n      jumpi\n      0x00\n      dup1\n      revert\n    tag_14:\n      dup1\n      0x107046bd\n      eq\n      tag_2\n      jumpi\n      dup1\n      0x230abfd0\n      eq\n      tag_3\n      jumpi\n      dup1\n      0x24600fc3\n      eq\n      tag_4\n      jumpi\n      dup1\n      0x429b62e5\n      eq\n      tag_5\n      jumpi\n      dup1\n      0x4b0bddd2\n      eq\n      tag_6\n      jumpi\n      dup1\n      0x8da5cb5b\n      eq\n      tag_7\n      jumpi\n    tag_1:\n      0x00\n      dup1\n      revert\n        /* \"contracts/GoingUpProjects.sol\":1827:1870  mapping(uint256 => Project) public projects */\n    tag_2:\n      callvalue\n      dup1\n      iszero\n      tag_15\n      jumpi\n      0x00\n      dup1\n      revert\n    tag_15:\n      pop\n      tag_16\n      tag_17\n      calldatasize\n      0x04\n      tag_18\n      jump\t// in\n    tag_17:\n      tag_19\n      jump\t// in\n    tag_16:\n      mload(0x40)\n      tag_20\n      swap10\n      swap9\n      swap8\n      swap7\n      swap6\n      swap5\n      swap4\n      swap3\n      swap2\n      swap1\n      tag_21\n      jump\t// in\n    tag_20:\n      mload(0x40)\n      dup1\n      swap2\n      sub\n      swap1\n      return\n        /* \"contracts/GoingUpProjects.sol\":3100:3841  function create(string memory name, string memory description, uint started, uint ended, string memory primaryUrl, string[] memory tags) public payable sentEnough {... */\n    tag_3:\n      tag_22\n      tag_23\n      calldatasize\n      0x04\n      tag_24\n      jump\t// in\n    tag_23:\n      tag_25\n      jump\t// in\n    tag_22:\n      stop\n        /* \"contracts/GoingUpProjects.sol\":4949:5061  function withdrawFunds() public onlyAdmin {... */\n    tag_4:\n      callvalue\n      dup1\n      iszero\n      tag_26\n      jumpi\n      0x00\n      dup1\n      revert\n    tag_26:\n      pop\n      tag_22\n      tag_28\n      jump\t// in\n        /* \"contracts/GoingUpProjects.sol\":903:941  mapping(address => bool) public admins */\n    tag_5:\n      callvalue\n      dup1\n      iszero\n      tag_29\n      jumpi\n      0x00\n      dup1\n      revert\n    tag_29:\n      pop\n      tag_30\n      tag_31\n      calldatasize\n      0x04\n      tag_32\n      jump\t// in\n    tag_31:\n      mstore(0x20, 0x02)\n      0x00\n      swap1\n      dup2\n      mstore\n      0x40\n      swap1\n      keccak256\n      sload\n      0xff\n      and\n      dup2\n      jump\n    tag_30:\n      mload(0x40)\n        /* \"#utility.yul\":5381:5395   */\n      swap1\n      iszero\n        /* \"#utility.yul\":5374:5396   */\n      iszero\n        /* \"#utility.yul\":5356:5397   */\n      dup2\n      mstore\n        /* \"#utility.yul\":5344:5346   */\n      0x20\n        /* \"#utility.yul\":5329:5347   */\n      add\n        /* \"contracts/GoingUpProjects.sol\":903:941  mapping(address => bool) public admins */\n      tag_20\n        /* \"#utility.yul\":5216:5403   */\n      jump\n        /* \"contracts/GoingUpProjects.sol\":1284:1406  function setAdmin(address targetAddress, bool isAdmin) public onlyAdmin {... */\n    tag_6:\n      callvalue\n      dup1\n      iszero\n      tag_36\n      jumpi\n      0x00\n      dup1\n      revert\n    tag_36:\n      pop\n      tag_22\n      tag_38\n      calldatasize\n      0x04\n      tag_39\n      jump\t// in\n    tag_38:\n      tag_40\n      jump\t// in\n        /* \"contracts/GoingUpProjects.sol\":773:793  address public owner */\n    tag_7:\n      callvalue\n      dup1\n      iszero\n      tag_41\n      jumpi\n      0x00\n      dup1\n      revert\n    tag_41:\n      pop\n      sload(0x01)\n      tag_42\n      swap1\n      sub(shl(0xa0, 0x01), 0x01)\n      and\n      dup2\n      jump\n    tag_42:\n      mload(0x40)\n      sub(shl(0xa0, 0x01), 0x01)\n        /* \"#utility.yul\":6015:6047   */\n      swap1\n      swap2\n      and\n        /* \"#utility.yul\":5997:6048   */\n      dup2\n      mstore\n        /* \"#utility.yul\":5985:5987   */\n      0x20\n        /* \"#utility.yul\":5970:5988   */\n      add\n        /* \"contracts/GoingUpProjects.sol\":773:793  address public owner */\n      tag_20\n        /* \"#utility.yul\":5851:6054   */\n      jump\n        /* \"contracts/GoingUpProjects.sol\":1731:1819  function setPrice(uint256 newPrice) public onlyAdmin {... */\n    tag_8:\n      callvalue\n      dup1\n      iszero\n      tag_46\n      jumpi\n      0x00\n      dup1\n      revert\n    tag_46:\n      pop\n      tag_22\n      tag_48\n      calldatasize\n      0x04\n      tag_18\n      jump\t// in\n    tag_48:\n      tag_49\n      jump\t// in\n        /* \"contracts/GoingUpProjects.sol\":1414:1449  uint256 public price = 1 * 10 ** 16 */\n    tag_9:\n      callvalue\n      dup1\n      iszero\n      tag_50\n      jumpi\n      0x00\n      dup1\n      revert\n    tag_50:\n      pop\n      tag_51\n      sload(0x03)\n      dup2\n      jump\n    tag_51:\n      mload(0x40)\n        /* \"#utility.yul\":6205:6230   */\n      swap1\n      dup2\n      mstore\n        /* \"#utility.yul\":6193:6195   */\n      0x20\n        /* \"#utility.yul\":6178:6196   */\n      add\n        /* \"contracts/GoingUpProjects.sol\":1414:1449  uint256 public price = 1 * 10 ** 16 */\n      tag_20\n        /* \"#utility.yul\":6059:6236   */\n      jump\n        /* \"contracts/GoingUpProjects.sol\":5925:6200  function withdrawERC1155(address tokenAddress, uint256 tokenID, uint256 amount, bytes memory data) external onlyAdmin {... */\n    tag_10:\n      callvalue\n      dup1\n      iszero\n      tag_55\n      jumpi\n      0x00\n      dup1\n      revert\n    tag_55:\n      pop\n      tag_22\n      tag_57\n      calldatasize\n      0x04\n      tag_58\n      jump\t// in\n    tag_57:\n      tag_59\n      jump\t// in\n        /* \"contracts/GoingUpProjects.sol\":5205:5400  function withdrawERC20(address tokenAddress, uint256 amount) external onlyAdmin {... */\n    tag_11:\n      callvalue\n      dup1\n      iszero\n      tag_60\n      jumpi\n      0x00\n      dup1\n      revert\n    tag_60:\n      pop\n      tag_22\n      tag_62\n      calldatasize\n      0x04\n      tag_63\n      jump\t// in\n    tag_62:\n      tag_64\n      jump\t// in\n        /* \"contracts/GoingUpProjects.sol\":4280:4893  function update(uint256 id, string memory name, string memory description, uint started, uint ended, string memory primaryUrl, string[] memory tags) public payable sentEnough canEditProject(id) {... */\n    tag_12:\n      tag_22\n      tag_66\n      calldatasize\n      0x04\n      tag_67\n      jump\t// in\n    tag_66:\n      tag_68\n      jump\t// in\n        /* \"contracts/GoingUpProjects.sol\":5548:5771  function withdrawERC721(address tokenAddress, uint256 tokenID) external onlyAdmin {... */\n    tag_13:\n      callvalue\n      dup1\n      iszero\n      tag_69\n      jumpi\n      0x00\n      dup1\n      revert\n    tag_69:\n      pop\n      tag_22\n      tag_71\n      calldatasize\n      0x04\n      tag_63\n      jump\t// in\n    tag_71:\n      tag_72\n      jump\t// in\n        /* \"contracts/GoingUpProjects.sol\":1827:1870  mapping(uint256 => Project) public projects */\n    tag_19:\n      mstore(0x20, 0x04)\n      0x00\n      swap1\n      dup2\n      mstore\n      0x40\n      swap1\n      keccak256\n      dup1\n      sload\n      0x01\n      dup3\n      add\n      dup1\n      sload\n      swap2\n      swap3\n      swap2\n      tag_73\n      swap1\n      tag_74\n      jump\t// in\n    tag_73:\n      dup1\n      0x1f\n      add\n      0x20\n      dup1\n      swap2\n      div\n      mul\n      0x20\n      add\n      mload(0x40)\n      swap1\n      dup2\n      add\n      0x40\n      mstore\n      dup1\n      swap3\n      swap2\n      swap1\n      dup2\n      dup2\n      mstore\n      0x20\n      add\n      dup3\n      dup1\n      sload\n      tag_75\n      swap1\n      tag_74\n      jump\t// in\n    tag_75:\n      dup1\n      iszero\n      tag_76\n      jumpi\n      dup1\n      0x1f\n      lt\n      tag_77\n      jumpi\n      0x0100\n      dup1\n      dup4\n      sload\n      div\n      mul\n      dup4\n      mstore\n      swap2\n      0x20\n      add\n      swap2\n      jump(tag_76)\n    tag_77:\n      dup3\n      add\n      swap2\n      swap1\n      0x00\n      mstore\n      keccak256(0x00, 0x20)\n      swap1\n    tag_78:\n      dup2\n      sload\n      dup2\n      mstore\n      swap1\n      0x01\n      add\n      swap1\n      0x20\n      add\n      dup1\n      dup4\n      gt\n      tag_78\n      jumpi\n      dup3\n      swap1\n      sub\n      0x1f\n      and\n      dup3\n      add\n      swap2\n    tag_76:\n      pop\n      pop\n      pop\n      pop\n      pop\n      swap1\n      dup1\n      0x02\n      add\n      dup1\n      sload\n      tag_79\n      swap1\n      tag_74\n      jump\t// in\n    tag_79:\n      dup1\n      0x1f\n      add\n      0x20\n      dup1\n      swap2\n      div\n      mul\n      0x20\n      add\n      mload(0x40)\n      swap1\n      dup2\n      add\n      0x40\n      mstore\n      dup1\n      swap3\n      swap2\n      swap1\n      dup2\n      dup2\n      mstore\n      0x20\n      add\n      dup3\n      dup1\n      sload\n      tag_80\n      swap1\n      tag_74\n      jump\t// in\n    tag_80:\n      dup1\n      iszero\n      tag_81\n      jumpi\n      dup1\n      0x1f\n      lt\n      tag_82\n      jumpi\n      0x0100\n      dup1\n      dup4\n      sload\n      div\n      mul\n      dup4\n      mstore\n      swap2\n      0x20\n      add\n      swap2\n      jump(tag_81)\n    tag_82:\n      dup3\n      add\n      swap2\n      swap1\n      0x00\n      mstore\n      keccak256(0x00, 0x20)\n      swap1\n    tag_83:\n      dup2\n      sload\n      dup2\n      mstore\n      swap1\n      0x01\n      add\n      swap1\n      0x20\n      add\n      dup1\n      dup4\n      gt\n      tag_83\n      jumpi\n      dup3\n      swap1\n      sub\n      0x1f\n      and\n      dup3\n      add\n      swap2\n    tag_81:\n      pop\n      pop\n      pop\n      pop\n      pop\n      swap1\n      dup1\n      0x03\n      add\n      sload\n      swap1\n      dup1\n      0x04\n      add\n      sload\n      swap1\n      dup1\n      0x05\n      add\n      dup1\n      sload\n      tag_84\n      swap1\n      tag_74\n      jump\t// in\n    tag_84:\n      dup1\n      0x1f\n      add\n      0x20\n      dup1\n      swap2\n      div\n      mul\n      0x20\n      add\n      mload(0x40)\n      swap1\n      dup2\n      add\n      0x40\n      mstore\n      dup1\n      swap3\n      swap2\n      swap1\n      dup2\n      dup2\n      mstore\n      0x20\n      add\n      dup3\n      dup1\n      sload\n      tag_85\n      swap1\n      tag_74\n      jump\t// in\n    tag_85:\n      dup1\n      iszero\n      tag_86\n      jumpi\n      dup1\n      0x1f\n      lt\n      tag_87\n      jumpi\n      0x0100\n      dup1\n      dup4\n      sload\n      div\n      mul\n      dup4\n      mstore\n      swap2\n      0x20\n      add\n      swap2\n      jump(tag_86)\n    tag_87:\n      dup3\n      add\n      swap2\n      swap1\n      0x00\n      mstore\n      keccak256(0x00, 0x20)\n      swap1\n    tag_88:\n      dup2\n      sload\n      dup2\n      mstore\n      swap1\n      0x01\n      add\n      swap1\n      0x20\n      add\n      dup1\n      dup4\n      gt\n      tag_88\n      jumpi\n      dup3\n      swap1\n      sub\n      0x1f\n      and\n      dup3\n      add\n      swap2\n    tag_86:\n      pop\n      pop\n      pop\n      pop\n      0x07\n      dup4\n      add\n      sload\n      0x09\n      swap1\n      swap4\n      add\n      sload\n      swap2\n      swap3\n      sub(shl(0xa0, 0x01), 0x01)\n      and\n      swap2\n      0xff\n      dup1\n      dup3\n      and\n      swap3\n      pop\n      0x0100\n      swap1\n      swap2\n      div\n      and\n      dup10\n      jump\t// out\n        /* \"contracts/GoingUpProjects.sol\":3100:3841  function create(string memory name, string memory description, uint started, uint ended, string memory primaryUrl, string[] memory tags) public payable sentEnough {... */\n    tag_25:\n        /* \"contracts/GoingUpProjects.sol\":1539:1544  price */\n      sload(0x03)\n        /* \"contracts/GoingUpProjects.sol\":1526:1535  msg.value */\n      callvalue\n        /* \"contracts/GoingUpProjects.sol\":1526:1544  msg.value >= price */\n      lt\n      iszero\n        /* \"contracts/GoingUpProjects.sol\":1518:1568  require(msg.value >= price, \"did not send enough\") */\n      tag_90\n      jumpi\n      mload(0x40)\n      shl(0xe5, 0x461bcd)\n      dup2\n      mstore\n        /* \"#utility.yul\":8944:8946   */\n      0x20\n        /* \"contracts/GoingUpProjects.sol\":1518:1568  require(msg.value >= price, \"did not send enough\") */\n      0x04\n      dup3\n      add\n        /* \"#utility.yul\":8926:8947   */\n      mstore\n        /* \"#utility.yul\":8983:8985   */\n      0x13\n        /* \"#utility.yul\":8963:8981   */\n      0x24\n      dup3\n      add\n        /* \"#utility.yul\":8956:8986   */\n      mstore\n      shl(0x6b, 0x0c8d2c840dcdee840e6cadcc840cadcdeeaced)\n        /* \"#utility.yul\":9002:9020   */\n      0x44\n      dup3\n      add\n        /* \"#utility.yul\":8995:9044   */\n      mstore\n        /* \"#utility.yul\":9061:9079   */\n      0x64\n      add\n        /* \"contracts/GoingUpProjects.sol\":1518:1568  require(msg.value >= price, \"did not send enough\") */\n    tag_91:\n      mload(0x40)\n      dup1\n      swap2\n      sub\n      swap1\n      revert\n    tag_90:\n        /* \"contracts/GoingUpProjects.sol\":3274:3299  Project memory newProject */\n      tag_94\n      mload(0x40)\n      dup1\n      0x0160\n      add\n      0x40\n      mstore\n      dup1\n      0x00\n      dup2\n      mstore\n      0x20\n      add\n      0x60\n      dup2\n      mstore\n      0x20\n      add\n      0x60\n      dup2\n      mstore\n      0x20\n      add\n      0x00\n      dup2\n      mstore\n      0x20\n      add\n      0x00\n      dup2\n      mstore\n      0x20\n      add\n      0x60\n      dup2\n      mstore\n      0x20\n      add\n      0x60\n      dup2\n      mstore\n      0x20\n      add\n      and(sub(shl(0xa0, 0x01), 0x01), 0x00)\n      dup2\n      mstore\n      0x20\n      add\n      0x60\n      dup2\n      mstore\n      0x20\n      add\n      iszero(iszero(0x00))\n      dup2\n      mstore\n      0x20\n      add\n      iszero(iszero(0x00))\n      dup2\n      mstore\n      pop\n      swap1\n      jump\n    tag_94:\n        /* \"contracts/GoingUpProjects.sol\":3328:3337  idCounter */\n      0x00\n      dup1\n      sload\n        /* \"contracts/GoingUpProjects.sol\":3312:3337  newProject.id = idCounter */\n      dup1\n      dup4\n      mstore\n        /* \"contracts/GoingUpProjects.sol\":3348:3363  newProject.name */\n      0x20\n      dup1\n      dup5\n      add\n        /* \"contracts/GoingUpProjects.sol\":3348:3370  newProject.name = name */\n      dup11\n      dup2\n      mstore\n        /* \"contracts/GoingUpProjects.sol\":3381:3403  newProject.description */\n      0x40\n      dup1\n      dup7\n      add\n        /* \"contracts/GoingUpProjects.sol\":3381:3417  newProject.description = description */\n      dup12\n      swap1\n      mstore\n        /* \"contracts/GoingUpProjects.sol\":3428:3446  newProject.started */\n      0x60\n      dup1\n      dup8\n      add\n        /* \"contracts/GoingUpProjects.sol\":3428:3456  newProject.started = started */\n      dup12\n      swap1\n      mstore\n        /* \"contracts/GoingUpProjects.sol\":3467:3483  newProject.ended */\n      0x80\n      dup8\n      add\n        /* \"contracts/GoingUpProjects.sol\":3467:3491  newProject.ended = ended */\n      dup11\n      swap1\n      mstore\n        /* \"contracts/GoingUpProjects.sol\":3502:3523  newProject.primaryUrl */\n      0xa0\n      dup8\n      add\n        /* \"contracts/GoingUpProjects.sol\":3502:3536  newProject.primaryUrl = primaryUrl */\n      dup10\n      swap1\n      mstore\n        /* \"contracts/GoingUpProjects.sol\":3547:3562  newProject.tags */\n      0xc0\n      dup8\n      add\n        /* \"contracts/GoingUpProjects.sol\":3547:3569  newProject.tags = tags */\n      dup9\n      swap1\n      mstore\n        /* \"contracts/GoingUpProjects.sol\":3599:3609  msg.sender */\n      caller\n        /* \"contracts/GoingUpProjects.sol\":3580:3596  newProject.owner */\n      0xe0\n      dup9\n      add\n        /* \"contracts/GoingUpProjects.sol\":3580:3609  newProject.owner = msg.sender */\n      mstore\n        /* \"contracts/GoingUpProjects.sol\":3655:3673  newProject.members */\n      0x0100\n      dup8\n      add\n        /* \"contracts/GoingUpProjects.sol\":3655:3683  newProject.members = members */\n      dup2\n      swap1\n      mstore\n        /* \"contracts/GoingUpProjects.sol\":3714:3718  true */\n      0x01\n        /* \"contracts/GoingUpProjects.sol\":3694:3711  newProject.active */\n      0x0120\n      dup9\n      add\n        /* \"contracts/GoingUpProjects.sol\":3694:3718  newProject.active = true */\n      dup2\n      swap1\n      mstore\n        /* \"contracts/GoingUpProjects.sol\":3729:3758  newProject.allowMembersToEdit */\n      0x0140\n      dup9\n      add\n        /* \"contracts/GoingUpProjects.sol\":3729:3766  newProject.allowMembersToEdit = false */\n      dup8\n      swap1\n      mstore\n        /* \"contracts/GoingUpProjects.sol\":3779:3798  projects[idCounter] */\n      swap5\n      dup7\n      mstore\n        /* \"contracts/GoingUpProjects.sol\":3779:3787  projects */\n      0x04\n        /* \"contracts/GoingUpProjects.sol\":3779:3798  projects[idCounter] */\n      dup5\n      mstore\n      swap5\n      keccak256\n        /* \"contracts/GoingUpProjects.sol\":3779:3811  projects[idCounter] = newProject */\n      dup6\n      mload\n      dup2\n      sstore\n      swap1\n      mload\n      dup1\n      mload\n        /* \"contracts/GoingUpProjects.sol\":3312:3322  newProject */\n      dup7\n      swap5\n        /* \"contracts/GoingUpProjects.sol\":3779:3798  projects[idCounter] */\n      swap3\n      swap4\n        /* \"contracts/GoingUpProjects.sol\":3779:3811  projects[idCounter] = newProject */\n      tag_96\n      swap4\n      dup6\n      add\n      swap3\n      add\n      swap1\n      tag_97\n      jump\t// in\n    tag_96:\n      pop\n      0x40\n      dup3\n      add\n      mload\n      dup1\n      mload\n      tag_98\n      swap2\n      0x02\n      dup5\n      add\n      swap2\n      0x20\n      swap1\n      swap2\n      add\n      swap1\n      tag_97\n      jump\t// in\n    tag_98:\n      pop\n      0x60\n      dup3\n      add\n      mload\n      0x03\n      dup3\n      add\n      sstore\n      0x80\n      dup3\n      add\n      mload\n      0x04\n      dup3\n      add\n      sstore\n      0xa0\n      dup3\n      add\n      mload\n      dup1\n      mload\n      tag_99\n      swap2\n      0x05\n      dup5\n      add\n      swap2\n      0x20\n      swap1\n      swap2\n      add\n      swap1\n      tag_97\n      jump\t// in\n    tag_99:\n      pop\n      0xc0\n      dup3\n      add\n      mload\n      dup1\n      mload\n      tag_100\n      swap2\n      0x06\n      dup5\n      add\n      swap2\n      0x20\n      swap1\n      swap2\n      add\n      swap1\n      tag_101\n      jump\t// in\n    tag_100:\n      pop\n      0xe0\n      dup3\n      add\n      mload\n      0x07\n      dup3\n      add\n      dup1\n      sload\n      not(sub(shl(0xa0, 0x01), 0x01))\n      and\n      sub(shl(0xa0, 0x01), 0x01)\n      swap1\n      swap3\n      and\n      swap2\n      swap1\n      swap2\n      or\n      swap1\n      sstore\n      0x0100\n      dup3\n      add\n      mload\n      dup1\n      mload\n      tag_102\n      swap2\n      0x08\n      dup5\n      add\n      swap2\n      0x20\n      swap1\n      swap2\n      add\n      swap1\n      tag_103\n      jump\t// in\n    tag_102:\n      pop\n      0x0120\n      dup3\n      add\n      mload\n      0x09\n      swap1\n      swap2\n      add\n      dup1\n      sload\n      0x0140\n      swap1\n      swap4\n      add\n      mload\n      iszero\n      iszero\n      0x0100\n      mul\n      not(0xff00)\n      swap3\n      iszero\n      iszero\n      swap3\n      swap1\n      swap3\n      and\n      not(0xffff)\n      swap1\n      swap4\n      and\n      swap3\n      swap1\n      swap3\n      or\n      or\n      swap1\n      sstore\n      0x00\n        /* \"contracts/GoingUpProjects.sol\":3822:3833  idCounter++ */\n      dup1\n      sload\n      swap1\n        /* \"contracts/GoingUpProjects.sol\":3779:3811  projects[idCounter] = newProject */\n      dup1\n        /* \"contracts/GoingUpProjects.sol\":3822:3833  idCounter++ */\n      tag_104\n      dup4\n      tag_105\n      jump\t// in\n    tag_104:\n      swap2\n      swap1\n      pop\n      sstore\n      pop\n        /* \"contracts/GoingUpProjects.sol\":3263:3841  {... */\n      pop\n      pop\n        /* \"contracts/GoingUpProjects.sol\":3100:3841  function create(string memory name, string memory description, uint started, uint ended, string memory primaryUrl, string[] memory tags) public payable sentEnough {... */\n      pop\n      pop\n      pop\n      pop\n      pop\n      pop\n      jump\t// out\n        /* \"contracts/GoingUpProjects.sol\":4949:5061  function withdrawFunds() public onlyAdmin {... */\n    tag_28:\n        /* \"contracts/GoingUpProjects.sol\":986:991  owner */\n      and(sub(shl(0xa0, 0x01), 0x01), sload(0x01))\n        /* \"contracts/GoingUpProjects.sol\":995:1005  msg.sender */\n      caller\n        /* \"contracts/GoingUpProjects.sol\":986:1005  owner == msg.sender */\n      eq\n      dup1\n        /* \"contracts/GoingUpProjects.sol\":986:1027  owner == msg.sender || admins[msg.sender] */\n      tag_107\n      jumpi\n      pop\n        /* \"contracts/GoingUpProjects.sol\":1016:1026  msg.sender */\n      caller\n        /* \"contracts/GoingUpProjects.sol\":1009:1027  admins[msg.sender] */\n      0x00\n      swap1\n      dup2\n      mstore\n        /* \"contracts/GoingUpProjects.sol\":1009:1015  admins */\n      0x02\n        /* \"contracts/GoingUpProjects.sol\":1009:1027  admins[msg.sender] */\n      0x20\n      mstore\n      0x40\n      swap1\n      keccak256\n      sload\n      0xff\n      and\n        /* \"contracts/GoingUpProjects.sol\":986:1027  owner == msg.sender || admins[msg.sender] */\n    tag_107:\n        /* \"contracts/GoingUpProjects.sol\":978:1041  require(owner == msg.sender || admins[msg.sender], \"not admin\") */\n      tag_108\n      jumpi\n      mload(0x40)\n      shl(0xe5, 0x461bcd)\n      dup2\n      mstore\n      0x04\n      add\n      tag_91\n      swap1\n      tag_110\n      jump\t// in\n    tag_108:\n        /* \"contracts/GoingUpProjects.sol\":5002:5053  payable(msg.sender).transfer(address(this).balance) */\n      mload(0x40)\n        /* \"contracts/GoingUpProjects.sol\":5010:5020  msg.sender */\n      caller\n      swap1\n        /* \"contracts/GoingUpProjects.sol\":5031:5052  address(this).balance */\n      selfbalance\n        /* \"contracts/GoingUpProjects.sol\":5002:5053  payable(msg.sender).transfer(address(this).balance) */\n      dup1\n      iszero\n      0x08fc\n      mul\n      swap2\n      0x00\n      dup2\n      dup2\n      dup2\n        /* \"contracts/GoingUpProjects.sol\":5031:5052  address(this).balance */\n      dup6\n        /* \"contracts/GoingUpProjects.sol\":5010:5020  msg.sender */\n      dup9\n        /* \"contracts/GoingUpProjects.sol\":5002:5053  payable(msg.sender).transfer(address(this).balance) */\n      dup9\n      call\n      swap4\n      pop\n      pop\n      pop\n      pop\n      iszero\n      dup1\n      iszero\n      tag_113\n      jumpi\n      returndatasize\n      0x00\n      dup1\n      returndatacopy\n      revert(0x00, returndatasize)\n    tag_113:\n      pop\n        /* \"contracts/GoingUpProjects.sol\":4949:5061  function withdrawFunds() public onlyAdmin {... */\n      jump\t// out\n        /* \"contracts/GoingUpProjects.sol\":1284:1406  function setAdmin(address targetAddress, bool isAdmin) public onlyAdmin {... */\n    tag_40:\n        /* \"contracts/GoingUpProjects.sol\":986:991  owner */\n      and(sub(shl(0xa0, 0x01), 0x01), sload(0x01))\n        /* \"contracts/GoingUpProjects.sol\":995:1005  msg.sender */\n      caller\n        /* \"contracts/GoingUpProjects.sol\":986:1005  owner == msg.sender */\n      eq\n      dup1\n        /* \"contracts/GoingUpProjects.sol\":986:1027  owner == msg.sender || admins[msg.sender] */\n      tag_115\n      jumpi\n      pop\n        /* \"contracts/GoingUpProjects.sol\":1016:1026  msg.sender */\n      caller\n        /* \"contracts/GoingUpProjects.sol\":1009:1027  admins[msg.sender] */\n      0x00\n      swap1\n      dup2\n      mstore\n        /* \"contracts/GoingUpProjects.sol\":1009:1015  admins */\n      0x02\n        /* \"contracts/GoingUpProjects.sol\":1009:1027  admins[msg.sender] */\n      0x20\n      mstore\n      0x40\n      swap1\n      keccak256\n      sload\n      0xff\n      and\n        /* \"contracts/GoingUpProjects.sol\":986:1027  owner == msg.sender || admins[msg.sender] */\n    tag_115:\n        /* \"contracts/GoingUpProjects.sol\":978:1041  require(owner == msg.sender || admins[msg.sender], \"not admin\") */\n      tag_116\n      jumpi\n      mload(0x40)\n      shl(0xe5, 0x461bcd)\n      dup2\n      mstore\n      0x04\n      add\n      tag_91\n      swap1\n      tag_110\n      jump\t// in\n    tag_116:\n      sub(shl(0xa0, 0x01), 0x01)\n        /* \"contracts/GoingUpProjects.sol\":1367:1388  admins[targetAddress] */\n      swap2\n      swap1\n      swap2\n      and\n      0x00\n      swap1\n      dup2\n      mstore\n        /* \"contracts/GoingUpProjects.sol\":1367:1373  admins */\n      0x02\n        /* \"contracts/GoingUpProjects.sol\":1367:1388  admins[targetAddress] */\n      0x20\n      mstore\n      0x40\n      swap1\n      keccak256\n        /* \"contracts/GoingUpProjects.sol\":1367:1398  admins[targetAddress] = isAdmin */\n      dup1\n      sload\n      not(0xff)\n      and\n      swap2\n      iszero\n      iszero\n      swap2\n      swap1\n      swap2\n      or\n      swap1\n      sstore\n        /* \"contracts/GoingUpProjects.sol\":1284:1406  function setAdmin(address targetAddress, bool isAdmin) public onlyAdmin {... */\n      jump\t// out\n        /* \"contracts/GoingUpProjects.sol\":1731:1819  function setPrice(uint256 newPrice) public onlyAdmin {... */\n    tag_49:\n        /* \"contracts/GoingUpProjects.sol\":986:991  owner */\n      and(sub(shl(0xa0, 0x01), 0x01), sload(0x01))\n        /* \"contracts/GoingUpProjects.sol\":995:1005  msg.sender */\n      caller\n        /* \"contracts/GoingUpProjects.sol\":986:1005  owner == msg.sender */\n      eq\n      dup1\n        /* \"contracts/GoingUpProjects.sol\":986:1027  owner == msg.sender || admins[msg.sender] */\n      tag_120\n      jumpi\n      pop\n        /* \"contracts/GoingUpProjects.sol\":1016:1026  msg.sender */\n      caller\n        /* \"contracts/GoingUpProjects.sol\":1009:1027  admins[msg.sender] */\n      0x00\n      swap1\n      dup2\n      mstore\n        /* \"contracts/GoingUpProjects.sol\":1009:1015  admins */\n      0x02\n        /* \"contracts/GoingUpProjects.sol\":1009:1027  admins[msg.sender] */\n      0x20\n      mstore\n      0x40\n      swap1\n      keccak256\n      sload\n      0xff\n      and\n        /* \"contracts/GoingUpProjects.sol\":986:1027  owner == msg.sender || admins[msg.sender] */\n    tag_120:\n        /* \"contracts/GoingUpProjects.sol\":978:1041  require(owner == msg.sender || admins[msg.sender], \"not admin\") */\n      tag_121\n      jumpi\n      mload(0x40)\n      shl(0xe5, 0x461bcd)\n      dup2\n      mstore\n      0x04\n      add\n      tag_91\n      swap1\n      tag_110\n      jump\t// in\n    tag_121:\n        /* \"contracts/GoingUpProjects.sol\":1795:1800  price */\n      0x03\n        /* \"contracts/GoingUpProjects.sol\":1795:1811  price = newPrice */\n      sstore\n        /* \"contracts/GoingUpProjects.sol\":1731:1819  function setPrice(uint256 newPrice) public onlyAdmin {... */\n      jump\t// out\n        /* \"contracts/GoingUpProjects.sol\":5925:6200  function withdrawERC1155(address tokenAddress, uint256 tokenID, uint256 amount, bytes memory data) external onlyAdmin {... */\n    tag_59:\n        /* \"contracts/GoingUpProjects.sol\":986:991  owner */\n      and(sub(shl(0xa0, 0x01), 0x01), sload(0x01))\n        /* \"contracts/GoingUpProjects.sol\":995:1005  msg.sender */\n      caller\n        /* \"contracts/GoingUpProjects.sol\":986:1005  owner == msg.sender */\n      eq\n      dup1\n        /* \"contracts/GoingUpProjects.sol\":986:1027  owner == msg.sender || admins[msg.sender] */\n      tag_125\n      jumpi\n      pop\n        /* \"contracts/GoingUpProjects.sol\":1016:1026  msg.sender */\n      caller\n        /* \"contracts/GoingUpProjects.sol\":1009:1027  admins[msg.sender] */\n      0x00\n      swap1\n      dup2\n      mstore\n        /* \"contracts/GoingUpProjects.sol\":1009:1015  admins */\n      0x02\n        /* \"contracts/GoingUpProjects.sol\":1009:1027  admins[msg.sender] */\n      0x20\n      mstore\n      0x40\n      swap1\n      keccak256\n      sload\n      0xff\n      and\n        /* \"contracts/GoingUpProjects.sol\":986:1027  owner == msg.sender || admins[msg.sender] */\n    tag_125:\n        /* \"contracts/GoingUpProjects.sol\":978:1041  require(owner == msg.sender || admins[msg.sender], \"not admin\") */\n      tag_126\n      jumpi\n      mload(0x40)\n      shl(0xe5, 0x461bcd)\n      dup2\n      mstore\n      0x04\n      add\n      tag_91\n      swap1\n      tag_110\n      jump\t// in\n    tag_126:\n        /* \"contracts/GoingUpProjects.sol\":6112:6192  tokenContract.safeTransferFrom(address(this), msg.sender, tokenID, amount, data) */\n      mload(0x40)\n      shl(0xe1, 0x79212195)\n      dup2\n      mstore\n        /* \"contracts/GoingUpProjects.sol\":6088:6100  tokenAddress */\n      dup5\n      swap1\n      sub(shl(0xa0, 0x01), 0x01)\n        /* \"contracts/GoingUpProjects.sol\":6112:6142  tokenContract.safeTransferFrom */\n      dup3\n      and\n      swap1\n      0xf242432a\n      swap1\n        /* \"contracts/GoingUpProjects.sol\":6112:6192  tokenContract.safeTransferFrom(address(this), msg.sender, tokenID, amount, data) */\n      tag_129\n      swap1\n        /* \"contracts/GoingUpProjects.sol\":6151:6155  this */\n      address\n      swap1\n        /* \"contracts/GoingUpProjects.sol\":6158:6168  msg.sender */\n      caller\n      swap1\n        /* \"contracts/GoingUpProjects.sol\":6170:6177  tokenID */\n      dup10\n      swap1\n        /* \"contracts/GoingUpProjects.sol\":6179:6185  amount */\n      dup10\n      swap1\n        /* \"contracts/GoingUpProjects.sol\":6187:6191  data */\n      dup10\n      swap1\n        /* \"contracts/GoingUpProjects.sol\":6112:6192  tokenContract.safeTransferFrom(address(this), msg.sender, tokenID, amount, data) */\n      0x04\n      add\n      tag_130\n      jump\t// in\n    tag_129:\n      0x00\n      mload(0x40)\n      dup1\n      dup4\n      sub\n      dup2\n      0x00\n      dup8\n      dup1\n      extcodesize\n      iszero\n      dup1\n      iszero\n      tag_131\n      jumpi\n      0x00\n      dup1\n      revert\n    tag_131:\n      pop\n      gas\n      call\n      iszero\n      dup1\n      iszero\n      tag_133\n      jumpi\n      returndatasize\n      0x00\n      dup1\n      returndatacopy\n      revert(0x00, returndatasize)\n    tag_133:\n      pop\n      pop\n      pop\n      pop\n        /* \"contracts/GoingUpProjects.sol\":6043:6200  {... */\n      pop\n        /* \"contracts/GoingUpProjects.sol\":5925:6200  function withdrawERC1155(address tokenAddress, uint256 tokenID, uint256 amount, bytes memory data) external onlyAdmin {... */\n      pop\n      pop\n      pop\n      pop\n      jump\t// out\n        /* \"contracts/GoingUpProjects.sol\":5205:5400  function withdrawERC20(address tokenAddress, uint256 amount) external onlyAdmin {... */\n    tag_64:\n        /* \"contracts/GoingUpProjects.sol\":986:991  owner */\n      and(sub(shl(0xa0, 0x01), 0x01), sload(0x01))\n        /* \"contracts/GoingUpProjects.sol\":995:1005  msg.sender */\n      caller\n        /* \"contracts/GoingUpProjects.sol\":986:1005  owner == msg.sender */\n      eq\n      dup1\n        /* \"contracts/GoingUpProjects.sol\":986:1027  owner == msg.sender || admins[msg.sender] */\n      tag_135\n      jumpi\n      pop\n        /* \"contracts/GoingUpProjects.sol\":1016:1026  msg.sender */\n      caller\n        /* \"contracts/GoingUpProjects.sol\":1009:1027  admins[msg.sender] */\n      0x00\n      swap1\n      dup2\n      mstore\n        /* \"contracts/GoingUpProjects.sol\":1009:1015  admins */\n      0x02\n        /* \"contracts/GoingUpProjects.sol\":1009:1027  admins[msg.sender] */\n      0x20\n      mstore\n      0x40\n      swap1\n      keccak256\n      sload\n      0xff\n      and\n        /* \"contracts/GoingUpProjects.sol\":986:1027  owner == msg.sender || admins[msg.sender] */\n    tag_135:\n        /* \"contracts/GoingUpProjects.sol\":978:1041  require(owner == msg.sender || admins[msg.sender], \"not admin\") */\n      tag_136\n      jumpi\n      mload(0x40)\n      shl(0xe5, 0x461bcd)\n      dup2\n      mstore\n      0x04\n      add\n      tag_91\n      swap1\n      tag_110\n      jump\t// in\n    tag_136:\n        /* \"contracts/GoingUpProjects.sol\":5350:5392  tokenContract.transfer(msg.sender, amount) */\n      mload(0x40)\n      shl(0xe0, 0xa9059cbb)\n      dup2\n      mstore\n        /* \"contracts/GoingUpProjects.sol\":5373:5383  msg.sender */\n      caller\n        /* \"contracts/GoingUpProjects.sol\":5350:5392  tokenContract.transfer(msg.sender, amount) */\n      0x04\n      dup3\n      add\n        /* \"#utility.yul\":10404:10455   */\n      mstore\n        /* \"#utility.yul\":10471:10489   */\n      0x24\n      dup2\n      add\n        /* \"#utility.yul\":10464:10498   */\n      dup3\n      swap1\n      mstore\n        /* \"contracts/GoingUpProjects.sol\":5326:5338  tokenAddress */\n      dup3\n      swap1\n      sub(shl(0xa0, 0x01), 0x01)\n        /* \"contracts/GoingUpProjects.sol\":5350:5372  tokenContract.transfer */\n      dup3\n      and\n      swap1\n      0xa9059cbb\n      swap1\n        /* \"#utility.yul\":10377:10395   */\n      0x44\n      add\n        /* \"contracts/GoingUpProjects.sol\":5350:5392  tokenContract.transfer(msg.sender, amount) */\n      0x20\n      mload(0x40)\n      dup1\n      dup4\n      sub\n      dup2\n      0x00\n      dup8\n      gas\n      call\n      iszero\n      dup1\n      iszero\n      tag_142\n      jumpi\n      returndatasize\n      0x00\n      dup1\n      returndatacopy\n      revert(0x00, returndatasize)\n    tag_142:\n      pop\n      pop\n      pop\n      pop\n      mload(0x40)\n      returndatasize\n      not(0x1f)\n      0x1f\n      dup3\n      add\n      and\n      dup3\n      add\n      dup1\n      0x40\n      mstore\n      pop\n      dup2\n      add\n      swap1\n      tag_143\n      swap2\n      swap1\n      tag_144\n      jump\t// in\n    tag_143:\n      pop\n        /* \"contracts/GoingUpProjects.sol\":5285:5400  {... */\n      pop\n        /* \"contracts/GoingUpProjects.sol\":5205:5400  function withdrawERC20(address tokenAddress, uint256 amount) external onlyAdmin {... */\n      pop\n      pop\n      jump\t// out\n        /* \"contracts/GoingUpProjects.sol\":4280:4893  function update(uint256 id, string memory name, string memory description, uint started, uint ended, string memory primaryUrl, string[] memory tags) public payable sentEnough canEditProject(id) {... */\n    tag_68:\n        /* \"contracts/GoingUpProjects.sol\":1539:1544  price */\n      sload(0x03)\n        /* \"contracts/GoingUpProjects.sol\":1526:1535  msg.value */\n      callvalue\n        /* \"contracts/GoingUpProjects.sol\":1526:1544  msg.value >= price */\n      lt\n      iszero\n        /* \"contracts/GoingUpProjects.sol\":1518:1568  require(msg.value >= price, \"did not send enough\") */\n      tag_146\n      jumpi\n      mload(0x40)\n      shl(0xe5, 0x461bcd)\n      dup2\n      mstore\n        /* \"#utility.yul\":8944:8946   */\n      0x20\n        /* \"contracts/GoingUpProjects.sol\":1518:1568  require(msg.value >= price, \"did not send enough\") */\n      0x04\n      dup3\n      add\n        /* \"#utility.yul\":8926:8947   */\n      mstore\n        /* \"#utility.yul\":8983:8985   */\n      0x13\n        /* \"#utility.yul\":8963:8981   */\n      0x24\n      dup3\n      add\n        /* \"#utility.yul\":8956:8986   */\n      mstore\n      shl(0x6b, 0x0c8d2c840dcdee840e6cadcc840cadcdeeaced)\n        /* \"#utility.yul\":9002:9020   */\n      0x44\n      dup3\n      add\n        /* \"#utility.yul\":8995:9044   */\n      mstore\n        /* \"#utility.yul\":9061:9079   */\n      0x64\n      add\n        /* \"contracts/GoingUpProjects.sol\":1518:1568  require(msg.value >= price, \"did not send enough\") */\n      tag_91\n        /* \"#utility.yul\":8742:9085   */\n      jump\n        /* \"contracts/GoingUpProjects.sol\":1518:1568  require(msg.value >= price, \"did not send enough\") */\n    tag_146:\n        /* \"contracts/GoingUpProjects.sol\":1931:1953  Project memory project */\n      0x00\n        /* \"contracts/GoingUpProjects.sol\":1956:1975  projects[projectId] */\n      dup8\n      dup2\n      mstore\n        /* \"contracts/GoingUpProjects.sol\":1956:1964  projects */\n      0x04\n        /* \"contracts/GoingUpProjects.sol\":1956:1975  projects[projectId] */\n      0x20\n      swap1\n      dup2\n      mstore\n      0x40\n      dup1\n      dup4\n      keccak256\n        /* \"contracts/GoingUpProjects.sol\":1931:1975  Project memory project = projects[projectId] */\n      dup2\n      mload\n      0x0160\n      dup2\n      add\n      swap1\n      swap3\n      mstore\n      dup1\n      sload\n      dup3\n      mstore\n      0x01\n      dup2\n      add\n      dup1\n      sload\n        /* \"contracts/GoingUpProjects.sol\":4470:4472  id */\n      dup13\n      swap6\n        /* \"contracts/GoingUpProjects.sol\":1931:1953  Project memory project */\n      swap5\n        /* \"contracts/GoingUpProjects.sol\":1931:1975  Project memory project = projects[projectId] */\n      dup5\n      add\n      swap2\n      swap1\n      tag_149\n      swap1\n      tag_74\n      jump\t// in\n    tag_149:\n      dup1\n      0x1f\n      add\n      0x20\n      dup1\n      swap2\n      div\n      mul\n      0x20\n      add\n      mload(0x40)\n      swap1\n      dup2\n      add\n      0x40\n      mstore\n      dup1\n      swap3\n      swap2\n      swap1\n      dup2\n      dup2\n      mstore\n      0x20\n      add\n      dup3\n      dup1\n      sload\n      tag_150\n      swap1\n      tag_74\n      jump\t// in\n    tag_150:\n      dup1\n      iszero\n      tag_151\n      jumpi\n      dup1\n      0x1f\n      lt\n      tag_152\n      jumpi\n      0x0100\n      dup1\n      dup4\n      sload\n      div\n      mul\n      dup4\n      mstore\n      swap2\n      0x20\n      add\n      swap2\n      jump(tag_151)\n    tag_152:\n      dup3\n      add\n      swap2\n      swap1\n      0x00\n      mstore\n      keccak256(0x00, 0x20)\n      swap1\n    tag_153:\n      dup2\n      sload\n      dup2\n      mstore\n      swap1\n      0x01\n      add\n      swap1\n      0x20\n      add\n      dup1\n      dup4\n      gt\n      tag_153\n      jumpi\n      dup3\n      swap1\n      sub\n      0x1f\n      and\n      dup3\n      add\n      swap2\n    tag_151:\n      pop\n      pop\n      pop\n      pop\n      pop\n      dup2\n      mstore\n      0x20\n      add\n      0x02\n      dup3\n      add\n      dup1\n      sload\n      tag_154\n      swap1\n      tag_74\n      jump\t// in\n    tag_154:\n      dup1\n      0x1f\n      add\n      0x20\n      dup1\n      swap2\n      div\n      mul\n      0x20\n      add\n      mload(0x40)\n      swap1\n      dup2\n      add\n      0x40\n      mstore\n      dup1\n      swap3\n      swap2\n      swap1\n      dup2\n      dup2\n      mstore\n      0x20\n      add\n      dup3\n      dup1\n      sload\n      tag_155\n      swap1\n      tag_74\n      jump\t// in\n    tag_155:\n      dup1\n      iszero\n      tag_156\n      jumpi\n      dup1\n      0x1f\n      lt\n      tag_157\n      jumpi\n      0x0100\n      dup1\n      dup4\n      sload\n      div\n      mul\n      dup4\n      mstore\n      swap2\n      0x20\n      add\n      swap2\n      jump(tag_156)\n    tag_157:\n      dup3\n      add\n      swap2\n      swap1\n      0x00\n      mstore\n      keccak256(0x00, 0x20)\n      swap1\n    tag_158:\n      dup2\n      sload\n      dup2\n      mstore\n      swap1\n      0x01\n      add\n      swap1\n      0x20\n      add\n      dup1\n      dup4\n      gt\n      tag_158\n      jumpi\n      dup3\n      swap1\n      sub\n      0x1f\n      and\n      dup3\n      add\n      swap2\n    tag_156:\n      pop\n      pop\n      pop\n      pop\n      pop\n      dup2\n      mstore\n      0x20\n      add\n      0x03\n      dup3\n      add\n      sload\n      dup2\n      mstore\n      0x20\n      add\n      0x04\n      dup3\n      add\n      sload\n      dup2\n      mstore\n      0x20\n      add\n      0x05\n      dup3\n      add\n      dup1\n      sload\n      tag_159\n      swap1\n      tag_74\n      jump\t// in\n    tag_159:\n      dup1\n      0x1f\n      add\n      0x20\n      dup1\n      swap2\n      div\n      mul\n      0x20\n      add\n      mload(0x40)\n      swap1\n      dup2\n      add\n      0x40\n      mstore\n      dup1\n      swap3\n      swap2\n      swap1\n      dup2\n      dup2\n      mstore\n      0x20\n      add\n      dup3\n      dup1\n      sload\n      tag_160\n      swap1\n      tag_74\n      jump\t// in\n    tag_160:\n      dup1\n      iszero\n      tag_161\n      jumpi\n      dup1\n      0x1f\n      lt\n      tag_162\n      jumpi\n      0x0100\n      dup1\n      dup4\n      sload\n      div\n      mul\n      dup4\n      mstore\n      swap2\n      0x20\n      add\n      swap2\n      jump(tag_161)\n    tag_162:\n      dup3\n      add\n      swap2\n      swap1\n      0x00\n      mstore\n      keccak256(0x00, 0x20)\n      swap1\n    tag_163:\n      dup2\n      sload\n      dup2\n      mstore\n      swap1\n      0x01\n      add\n      swap1\n      0x20\n      add\n      dup1\n      dup4\n      gt\n      tag_163\n      jumpi\n      dup3\n      swap1\n      sub\n      0x1f\n      and\n      dup3\n      add\n      swap2\n    tag_161:\n      pop\n      pop\n      pop\n      pop\n      pop\n      dup2\n      mstore\n      0x20\n      add\n      0x06\n      dup3\n      add\n      dup1\n      sload\n      dup1\n      0x20\n      mul\n      0x20\n      add\n      mload(0x40)\n      swap1\n      dup2\n      add\n      0x40\n      mstore\n      dup1\n      swap3\n      swap2\n      swap1\n      dup2\n      dup2\n      mstore\n      0x20\n      add\n      0x00\n      swap1\n    tag_164:\n      dup3\n      dup3\n      lt\n      iszero\n      tag_165\n      jumpi\n      dup4\n      dup3\n      swap1\n      0x00\n      mstore\n      keccak256(0x00, 0x20)\n      add\n      dup1\n      sload\n      tag_167\n      swap1\n      tag_74\n      jump\t// in\n    tag_167:\n      dup1\n      0x1f\n      add\n      0x20\n      dup1\n      swap2\n      div\n      mul\n      0x20\n      add\n      mload(0x40)\n      swap1\n      dup2\n      add\n      0x40\n      mstore\n      dup1\n      swap3\n      swap2\n      swap1\n      dup2\n      dup2\n      mstore\n      0x20\n      add\n      dup3\n      dup1\n      sload\n      tag_168\n      swap1\n      tag_74\n      jump\t// in\n    tag_168:\n      dup1\n      iszero\n      tag_169\n      jumpi\n      dup1\n      0x1f\n      lt\n      tag_170\n      jumpi\n      0x0100\n      dup1\n      dup4\n      sload\n      div\n      mul\n      dup4\n      mstore\n      swap2\n      0x20\n      add\n      swap2\n      jump(tag_169)\n    tag_170:\n      dup3\n      add\n      swap2\n      swap1\n      0x00\n      mstore\n      keccak256(0x00, 0x20)\n      swap1\n    tag_171:\n      dup2\n      sload\n      dup2\n      mstore\n      swap1\n      0x01\n      add\n      swap1\n      0x20\n      add\n      dup1\n      dup4\n      gt\n      tag_171\n      jumpi\n      dup3\n      swap1\n      sub\n      0x1f\n      and\n      dup3\n      add\n      swap2\n    tag_169:\n      pop\n      pop\n      pop\n      pop\n      pop\n      dup2\n      mstore\n      0x20\n      add\n      swap1\n      0x01\n      add\n      swap1\n      jump(tag_164)\n    tag_165:\n      pop\n      pop\n      pop\n      swap1\n      dup3\n      mstore\n      pop\n      0x07\n      dup3\n      add\n      sload\n      sub(shl(0xa0, 0x01), 0x01)\n      and\n      0x20\n      dup1\n      dup4\n      add\n      swap2\n      swap1\n      swap2\n      mstore\n      0x08\n      dup4\n      add\n      dup1\n      sload\n      0x40\n      dup1\n      mload\n      dup3\n      dup6\n      mul\n      dup2\n      add\n      dup6\n      add\n      dup3\n      mstore\n      dup3\n      dup2\n      mstore\n      swap5\n      add\n      swap4\n      swap3\n      dup4\n      add\n      dup3\n      dup3\n      dup1\n      iszero\n      tag_172\n      jumpi\n      0x20\n      mul\n      dup3\n      add\n      swap2\n      swap1\n      0x00\n      mstore\n      keccak256(0x00, 0x20)\n      swap1\n    tag_173:\n      dup2\n      sload\n      sub(shl(0xa0, 0x01), 0x01)\n      and\n      dup2\n      mstore\n      0x01\n      swap1\n      swap2\n      add\n      swap1\n      0x20\n      add\n      dup1\n      dup4\n      gt\n      tag_173\n      jumpi\n    tag_172:\n      pop\n      pop\n      pop\n      swap2\n      dup4\n      mstore\n      pop\n      pop\n      0x09\n      swap2\n      swap1\n      swap2\n      add\n      sload\n      0xff\n      dup1\n      dup3\n      and\n      iszero\n      iszero\n      0x20\n      dup5\n      add\n      mstore\n      0x0100\n      swap1\n      swap2\n      div\n      and\n      iszero\n      iszero\n      0x40\n      swap1\n      swap2\n      add\n      mstore\n        /* \"contracts/GoingUpProjects.sol\":2014:2027  project.owner */\n      0xe0\n      dup2\n      add\n      mload\n        /* \"contracts/GoingUpProjects.sol\":1931:1975  Project memory project = projects[projectId] */\n      swap1\n      swap2\n      pop\n      sub(shl(0xa0, 0x01), 0x01)\n        /* \"contracts/GoingUpProjects.sol\":2000:2027  msg.sender == project.owner */\n      and\n        /* \"contracts/GoingUpProjects.sol\":2000:2010  msg.sender */\n      caller\n        /* \"contracts/GoingUpProjects.sol\":2000:2027  msg.sender == project.owner */\n      sub\n        /* \"contracts/GoingUpProjects.sol\":1996:2681  if (msg.sender == project.owner) {... */\n      tag_174\n      jumpi\n        /* \"contracts/GoingUpProjects.sol\":4503:4512  idCounter */\n      0x00\n      dup1\n      sload\n        /* \"contracts/GoingUpProjects.sol\":4485:4497  projects[id] */\n      dup11\n      dup3\n      mstore\n        /* \"contracts/GoingUpProjects.sol\":4485:4493  projects */\n      0x04\n        /* \"contracts/GoingUpProjects.sol\":4485:4497  projects[id] */\n      0x20\n      swap1\n      dup2\n      mstore\n      0x40\n      swap1\n      swap3\n      keccak256\n        /* \"contracts/GoingUpProjects.sol\":4485:4512  projects[id].id = idCounter */\n      swap1\n      dup2\n      sstore\n        /* \"contracts/GoingUpProjects.sol\":4523:4547  projects[id].name = name */\n      dup10\n      mload\n      tag_176\n      swap3\n        /* \"contracts/GoingUpProjects.sol\":4523:4540  projects[id].name */\n      0x01\n      swap1\n      swap3\n      add\n      swap2\n        /* \"contracts/GoingUpProjects.sol\":4523:4547  projects[id].name = name */\n      dup12\n      add\n      swap1\n      tag_97\n      jump\t// in\n    tag_176:\n      pop\n        /* \"contracts/GoingUpProjects.sol\":4558:4570  projects[id] */\n      0x00\n      dup10\n      dup2\n      mstore\n        /* \"contracts/GoingUpProjects.sol\":4558:4566  projects */\n      0x04\n        /* \"contracts/GoingUpProjects.sol\":4558:4570  projects[id] */\n      0x20\n      swap1\n      dup2\n      mstore\n      0x40\n      swap1\n      swap2\n      keccak256\n        /* \"contracts/GoingUpProjects.sol\":4558:4596  projects[id].description = description */\n      dup9\n      mload\n      tag_177\n      swap3\n        /* \"contracts/GoingUpProjects.sol\":4558:4582  projects[id].description */\n      0x02\n      swap1\n      swap3\n      add\n      swap2\n        /* \"contracts/GoingUpProjects.sol\":4558:4596  projects[id].description = description */\n      dup11\n      add\n      swap1\n      tag_97\n      jump\t// in\n    tag_177:\n      pop\n        /* \"contracts/GoingUpProjects.sol\":4607:4619  projects[id] */\n      0x00\n      dup10\n      dup2\n      mstore\n        /* \"contracts/GoingUpProjects.sol\":4607:4615  projects */\n      0x04\n        /* \"contracts/GoingUpProjects.sol\":4607:4619  projects[id] */\n      0x20\n      dup2\n      dup2\n      mstore\n      0x40\n      swap1\n      swap3\n      keccak256\n        /* \"contracts/GoingUpProjects.sol\":4607:4627  projects[id].started */\n      0x03\n      dup2\n      add\n        /* \"contracts/GoingUpProjects.sol\":4607:4637  projects[id].started = started */\n      dup10\n      swap1\n      sstore\n        /* \"contracts/GoingUpProjects.sol\":4648:4666  projects[id].ended */\n      swap1\n      dup2\n      add\n        /* \"contracts/GoingUpProjects.sol\":4648:4674  projects[id].ended = ended */\n      dup8\n      swap1\n      sstore\n        /* \"contracts/GoingUpProjects.sol\":4685:4721  projects[id].primaryUrl = primaryUrl */\n      dup6\n      mload\n      tag_178\n      swap3\n        /* \"contracts/GoingUpProjects.sol\":4685:4708  projects[id].primaryUrl */\n      0x05\n      swap1\n      swap3\n      add\n      swap2\n        /* \"contracts/GoingUpProjects.sol\":4685:4721  projects[id].primaryUrl = primaryUrl */\n      dup8\n      add\n      swap1\n      tag_97\n      jump\t// in\n    tag_178:\n      pop\n        /* \"contracts/GoingUpProjects.sol\":4732:4744  projects[id] */\n      0x00\n      dup10\n      dup2\n      mstore\n        /* \"contracts/GoingUpProjects.sol\":4732:4740  projects */\n      0x04\n        /* \"contracts/GoingUpProjects.sol\":4732:4744  projects[id] */\n      0x20\n      swap1\n      dup2\n      mstore\n      0x40\n      swap1\n      swap2\n      keccak256\n        /* \"contracts/GoingUpProjects.sol\":4732:4756  projects[id].tags = tags */\n      dup5\n      mload\n      tag_179\n      swap3\n        /* \"contracts/GoingUpProjects.sol\":4732:4749  projects[id].tags */\n      0x06\n      swap1\n      swap3\n      add\n      swap2\n        /* \"contracts/GoingUpProjects.sol\":4732:4756  projects[id].tags = tags */\n      dup7\n      add\n      swap1\n      tag_101\n      jump\t// in\n    tag_179:\n      pop\n        /* \"contracts/GoingUpProjects.sol\":4767:4779  projects[id] */\n      0x00\n      dup10\n      dup2\n      mstore\n        /* \"contracts/GoingUpProjects.sol\":4767:4775  projects */\n      0x04\n        /* \"contracts/GoingUpProjects.sol\":4767:4779  projects[id] */\n      0x20\n      mstore\n      0x40\n      swap1\n      keccak256\n        /* \"contracts/GoingUpProjects.sol\":4767:4785  projects[id].owner */\n      0x07\n      dup2\n      add\n        /* \"contracts/GoingUpProjects.sol\":4767:4798  projects[id].owner = msg.sender */\n      dup1\n      sload\n      not(sub(shl(0xa0, 0x01), 0x01))\n      and\n        /* \"contracts/GoingUpProjects.sol\":4788:4798  msg.sender */\n      caller\n        /* \"contracts/GoingUpProjects.sol\":4767:4798  projects[id].owner = msg.sender */\n      or\n      swap1\n      sstore\n        /* \"contracts/GoingUpProjects.sol\":4809:4828  projects[id].active */\n      0x09\n      add\n        /* \"contracts/GoingUpProjects.sol\":4809:4835  projects[id].active = true */\n      dup1\n      sload\n      not(0xffff)\n        /* \"contracts/GoingUpProjects.sol\":4846:4885  projects[id].allowMembersToEdit = false */\n      and\n        /* \"contracts/GoingUpProjects.sol\":4767:4798  projects[id].owner = msg.sender */\n      0x01\n        /* \"contracts/GoingUpProjects.sol\":4846:4885  projects[id].allowMembersToEdit = false */\n      or\n      swap1\n      sstore\n        /* \"contracts/GoingUpProjects.sol\":1996:2681  if (msg.sender == project.owner) {... */\n      jump(tag_133)\n    tag_174:\n        /* \"contracts/GoingUpProjects.sol\":2083:2090  project */\n      dup1\n        /* \"contracts/GoingUpProjects.sol\":2083:2109  project.allowMembersToEdit */\n      0x0140\n      add\n      mload\n        /* \"contracts/GoingUpProjects.sol\":2078:2658  if (!project.allowMembersToEdit) {... */\n      tag_181\n      jumpi\n        /* \"contracts/GoingUpProjects.sol\":2130:2159  revert(\"cannot edit project\") */\n      mload(0x40)\n      shl(0xe5, 0x461bcd)\n      dup2\n      mstore\n        /* \"#utility.yul\":10961:10963   */\n      0x20\n        /* \"contracts/GoingUpProjects.sol\":2130:2159  revert(\"cannot edit project\") */\n      0x04\n      dup3\n      add\n        /* \"#utility.yul\":10943:10964   */\n      mstore\n        /* \"#utility.yul\":11000:11002   */\n      0x13\n        /* \"#utility.yul\":10980:10998   */\n      0x24\n      dup3\n      add\n        /* \"#utility.yul\":10973:11003   */\n      mstore\n      shl(0x6a, 0x18d85b9b9bdd0819591a5d081c1c9bda9958dd)\n        /* \"#utility.yul\":11019:11037   */\n      0x44\n      dup3\n      add\n        /* \"#utility.yul\":11012:11061   */\n      mstore\n        /* \"#utility.yul\":11078:11096   */\n      0x64\n      add\n        /* \"contracts/GoingUpProjects.sol\":2130:2159  revert(\"cannot edit project\") */\n      tag_91\n        /* \"#utility.yul\":10759:11102   */\n      jump\n        /* \"contracts/GoingUpProjects.sol\":2078:2658  if (!project.allowMembersToEdit) {... */\n    tag_181:\n        /* \"contracts/GoingUpProjects.sol\":2200:2213  bool isMember */\n      0x00\n        /* \"contracts/GoingUpProjects.sol\":2245:2251  uint i */\n      dup1\n        /* \"contracts/GoingUpProjects.sol\":2240:2514  for (uint i = 0; i < project.members.length; i++) {... */\n    tag_185:\n        /* \"contracts/GoingUpProjects.sol\":2261:2268  project */\n      dup3\n        /* \"contracts/GoingUpProjects.sol\":2261:2276  project.members */\n      0x0100\n      add\n      mload\n        /* \"contracts/GoingUpProjects.sol\":2261:2283  project.members.length */\n      mload\n        /* \"contracts/GoingUpProjects.sol\":2257:2258  i */\n      dup2\n        /* \"contracts/GoingUpProjects.sol\":2257:2283  i < project.members.length */\n      lt\n        /* \"contracts/GoingUpProjects.sol\":2240:2514  for (uint i = 0; i < project.members.length; i++) {... */\n      iszero\n      tag_186\n      jumpi\n        /* \"contracts/GoingUpProjects.sol\":2313:2327  address member */\n      0x00\n        /* \"contracts/GoingUpProjects.sol\":2330:2337  project */\n      dup4\n        /* \"contracts/GoingUpProjects.sol\":2330:2345  project.members */\n      0x0100\n      add\n      mload\n        /* \"contracts/GoingUpProjects.sol\":2346:2347  i */\n      dup3\n        /* \"contracts/GoingUpProjects.sol\":2330:2348  project.members[i] */\n      dup2\n      mload\n      dup2\n      lt\n      tag_189\n      jumpi\n      tag_189\n      tag_190\n      jump\t// in\n    tag_189:\n      0x20\n      mul\n      0x20\n      add\n      add\n      mload\n        /* \"contracts/GoingUpProjects.sol\":2313:2348  address member = project.members[i] */\n      swap1\n      pop\n        /* \"contracts/GoingUpProjects.sol\":2389:2395  member */\n      dup1\n      sub(shl(0xa0, 0x01), 0x01)\n        /* \"contracts/GoingUpProjects.sol\":2375:2395  msg.sender == member */\n      and\n        /* \"contracts/GoingUpProjects.sol\":2375:2385  msg.sender */\n      caller\n      sub(shl(0xa0, 0x01), 0x01)\n        /* \"contracts/GoingUpProjects.sol\":2375:2395  msg.sender == member */\n      and\n      sub\n        /* \"contracts/GoingUpProjects.sol\":2371:2495  if (msg.sender == member) {... */\n      tag_191\n      jumpi\n        /* \"contracts/GoingUpProjects.sol\":2435:2439  true */\n      0x01\n        /* \"contracts/GoingUpProjects.sol\":2424:2439  isMember = true */\n      swap3\n      pop\n        /* \"contracts/GoingUpProjects.sol\":2466:2471  break */\n      pop\n      jump(tag_186)\n        /* \"contracts/GoingUpProjects.sol\":2371:2495  if (msg.sender == member) {... */\n    tag_191:\n      pop\n        /* \"contracts/GoingUpProjects.sol\":2285:2288  i++ */\n      dup1\n      tag_192\n      dup2\n      tag_105\n      jump\t// in\n    tag_192:\n      swap2\n      pop\n      pop\n        /* \"contracts/GoingUpProjects.sol\":2240:2514  for (uint i = 0; i < project.members.length; i++) {... */\n      jump(tag_185)\n    tag_186:\n      pop\n        /* \"contracts/GoingUpProjects.sol\":2539:2547  isMember */\n      dup1\n        /* \"contracts/GoingUpProjects.sol\":2534:2621  if (!isMember) {... */\n      tag_193\n      jumpi\n        /* \"contracts/GoingUpProjects.sol\":2572:2601  revert(\"cannot edit project\") */\n      mload(0x40)\n      shl(0xe5, 0x461bcd)\n      dup2\n      mstore\n        /* \"#utility.yul\":10961:10963   */\n      0x20\n        /* \"contracts/GoingUpProjects.sol\":2572:2601  revert(\"cannot edit project\") */\n      0x04\n      dup3\n      add\n        /* \"#utility.yul\":10943:10964   */\n      mstore\n        /* \"#utility.yul\":11000:11002   */\n      0x13\n        /* \"#utility.yul\":10980:10998   */\n      0x24\n      dup3\n      add\n        /* \"#utility.yul\":10973:11003   */\n      mstore\n      shl(0x6a, 0x18d85b9b9bdd0819591a5d081c1c9bda9958dd)\n        /* \"#utility.yul\":11019:11037   */\n      0x44\n      dup3\n      add\n        /* \"#utility.yul\":11012:11061   */\n      mstore\n        /* \"#utility.yul\":11078:11096   */\n      0x64\n      add\n        /* \"contracts/GoingUpProjects.sol\":2572:2601  revert(\"cannot edit project\") */\n      tag_91\n        /* \"#utility.yul\":10759:11102   */\n      jump\n        /* \"contracts/GoingUpProjects.sol\":2534:2621  if (!isMember) {... */\n    tag_193:\n        /* \"contracts/GoingUpProjects.sol\":4503:4512  idCounter */\n      0x00\n      dup1\n      sload\n        /* \"contracts/GoingUpProjects.sol\":4485:4497  projects[id] */\n      dup12\n      dup3\n      mstore\n        /* \"contracts/GoingUpProjects.sol\":4485:4493  projects */\n      0x04\n        /* \"contracts/GoingUpProjects.sol\":4485:4497  projects[id] */\n      0x20\n      swap1\n      dup2\n      mstore\n      0x40\n      swap1\n      swap3\n      keccak256\n        /* \"contracts/GoingUpProjects.sol\":4485:4512  projects[id].id = idCounter */\n      swap1\n      dup2\n      sstore\n        /* \"contracts/GoingUpProjects.sol\":4523:4547  projects[id].name = name */\n      dup11\n      mload\n      tag_196\n      swap3\n        /* \"contracts/GoingUpProjects.sol\":4523:4540  projects[id].name */\n      0x01\n      swap1\n      swap3\n      add\n      swap2\n        /* \"contracts/GoingUpProjects.sol\":4523:4547  projects[id].name = name */\n      dup13\n      add\n      swap1\n      tag_97\n      jump\t// in\n    tag_196:\n      pop\n        /* \"contracts/GoingUpProjects.sol\":4558:4570  projects[id] */\n      0x00\n      dup11\n      dup2\n      mstore\n        /* \"contracts/GoingUpProjects.sol\":4558:4566  projects */\n      0x04\n        /* \"contracts/GoingUpProjects.sol\":4558:4570  projects[id] */\n      0x20\n      swap1\n      dup2\n      mstore\n      0x40\n      swap1\n      swap2\n      keccak256\n        /* \"contracts/GoingUpProjects.sol\":4558:4596  projects[id].description = description */\n      dup10\n      mload\n      tag_197\n      swap3\n        /* \"contracts/GoingUpProjects.sol\":4558:4582  projects[id].description */\n      0x02\n      swap1\n      swap3\n      add\n      swap2\n        /* \"contracts/GoingUpProjects.sol\":4558:4596  projects[id].description = description */\n      dup12\n      add\n      swap1\n      tag_97\n      jump\t// in\n    tag_197:\n      pop\n        /* \"contracts/GoingUpProjects.sol\":4607:4619  projects[id] */\n      0x00\n      dup11\n      dup2\n      mstore\n        /* \"contracts/GoingUpProjects.sol\":4607:4615  projects */\n      0x04\n        /* \"contracts/GoingUpProjects.sol\":4607:4619  projects[id] */\n      0x20\n      dup2\n      dup2\n      mstore\n      0x40\n      swap1\n      swap3\n      keccak256\n        /* \"contracts/GoingUpProjects.sol\":4607:4627  projects[id].started */\n      0x03\n      dup2\n      add\n        /* \"contracts/GoingUpProjects.sol\":4607:4637  projects[id].started = started */\n      dup11\n      swap1\n      sstore\n        /* \"contracts/GoingUpProjects.sol\":4648:4666  projects[id].ended */\n      swap1\n      dup2\n      add\n        /* \"contracts/GoingUpProjects.sol\":4648:4674  projects[id].ended = ended */\n      dup9\n      swap1\n      sstore\n        /* \"contracts/GoingUpProjects.sol\":4685:4721  projects[id].primaryUrl = primaryUrl */\n      dup7\n      mload\n      tag_198\n      swap3\n        /* \"contracts/GoingUpProjects.sol\":4685:4708  projects[id].primaryUrl */\n      0x05\n      swap1\n      swap3\n      add\n      swap2\n        /* \"contracts/GoingUpProjects.sol\":4685:4721  projects[id].primaryUrl = primaryUrl */\n      dup9\n      add\n      swap1\n      tag_97\n      jump\t// in\n    tag_198:\n      pop\n        /* \"contracts/GoingUpProjects.sol\":4732:4744  projects[id] */\n      0x00\n      dup11\n      dup2\n      mstore\n        /* \"contracts/GoingUpProjects.sol\":4732:4740  projects */\n      0x04\n        /* \"contracts/GoingUpProjects.sol\":4732:4744  projects[id] */\n      0x20\n      swap1\n      dup2\n      mstore\n      0x40\n      swap1\n      swap2\n      keccak256\n        /* \"contracts/GoingUpProjects.sol\":4732:4756  projects[id].tags = tags */\n      dup6\n      mload\n      tag_199\n      swap3\n        /* \"contracts/GoingUpProjects.sol\":4732:4749  projects[id].tags */\n      0x06\n      swap1\n      swap3\n      add\n      swap2\n        /* \"contracts/GoingUpProjects.sol\":4732:4756  projects[id].tags = tags */\n      dup8\n      add\n      swap1\n      tag_101\n      jump\t// in\n    tag_199:\n      pop\n      pop\n        /* \"contracts/GoingUpProjects.sol\":4767:4779  projects[id] */\n      0x00\n      dup10\n      dup2\n      mstore\n        /* \"contracts/GoingUpProjects.sol\":4767:4775  projects */\n      0x04\n        /* \"contracts/GoingUpProjects.sol\":4767:4779  projects[id] */\n      0x20\n      mstore\n      0x40\n      swap1\n      keccak256\n        /* \"contracts/GoingUpProjects.sol\":4767:4785  projects[id].owner */\n      0x07\n      dup2\n      add\n        /* \"contracts/GoingUpProjects.sol\":4767:4798  projects[id].owner = msg.sender */\n      dup1\n      sload\n      not(sub(shl(0xa0, 0x01), 0x01))\n      and\n        /* \"contracts/GoingUpProjects.sol\":4788:4798  msg.sender */\n      caller\n        /* \"contracts/GoingUpProjects.sol\":4767:4798  projects[id].owner = msg.sender */\n      or\n      swap1\n      sstore\n        /* \"contracts/GoingUpProjects.sol\":4809:4828  projects[id].active */\n      0x09\n      add\n        /* \"contracts/GoingUpProjects.sol\":4809:4835  projects[id].active = true */\n      dup1\n      sload\n      not(0xffff)\n        /* \"contracts/GoingUpProjects.sol\":4846:4885  projects[id].allowMembersToEdit = false */\n      and\n        /* \"contracts/GoingUpProjects.sol\":4767:4798  projects[id].owner = msg.sender */\n      0x01\n        /* \"contracts/GoingUpProjects.sol\":4846:4885  projects[id].allowMembersToEdit = false */\n      or\n      swap1\n      sstore\n        /* \"contracts/GoingUpProjects.sol\":1920:2691  {... */\n      pop\n        /* \"contracts/GoingUpProjects.sol\":1579:1580  _ */\n      pop\n        /* \"contracts/GoingUpProjects.sol\":4280:4893  function update(uint256 id, string memory name, string memory description, uint started, uint ended, string memory primaryUrl, string[] memory tags) public payable sentEnough canEditProject(id) {... */\n      pop\n      pop\n      pop\n      pop\n      pop\n      pop\n      pop\n      jump\t// out\n        /* \"contracts/GoingUpProjects.sol\":5548:5771  function withdrawERC721(address tokenAddress, uint256 tokenID) external onlyAdmin {... */\n    tag_72:\n        /* \"contracts/GoingUpProjects.sol\":986:991  owner */\n      and(sub(shl(0xa0, 0x01), 0x01), sload(0x01))\n        /* \"contracts/GoingUpProjects.sol\":995:1005  msg.sender */\n      caller\n        /* \"contracts/GoingUpProjects.sol\":986:1005  owner == msg.sender */\n      eq\n      dup1\n        /* \"contracts/GoingUpProjects.sol\":986:1027  owner == msg.sender || admins[msg.sender] */\n      tag_201\n      jumpi\n      pop\n        /* \"contracts/GoingUpProjects.sol\":1016:1026  msg.sender */\n      caller\n        /* \"contracts/GoingUpProjects.sol\":1009:1027  admins[msg.sender] */\n      0x00\n      swap1\n      dup2\n      mstore\n        /* \"contracts/GoingUpProjects.sol\":1009:1015  admins */\n      0x02\n        /* \"contracts/GoingUpProjects.sol\":1009:1027  admins[msg.sender] */\n      0x20\n      mstore\n      0x40\n      swap1\n      keccak256\n      sload\n      0xff\n      and\n        /* \"contracts/GoingUpProjects.sol\":986:1027  owner == msg.sender || admins[msg.sender] */\n    tag_201:\n        /* \"contracts/GoingUpProjects.sol\":978:1041  require(owner == msg.sender || admins[msg.sender], \"not admin\") */\n      tag_202\n      jumpi\n      mload(0x40)\n      shl(0xe5, 0x461bcd)\n      dup2\n      mstore\n      0x04\n      add\n      tag_91\n      swap1\n      tag_110\n      jump\t// in\n    tag_202:\n        /* \"contracts/GoingUpProjects.sol\":5697:5763  tokenContract.safeTransferFrom(address(this), msg.sender, tokenID) */\n      mload(0x40)\n      shl(0xe1, 0x21421707)\n      dup2\n      mstore\n        /* \"contracts/GoingUpProjects.sol\":5736:5740  this */\n      address\n        /* \"contracts/GoingUpProjects.sol\":5697:5763  tokenContract.safeTransferFrom(address(this), msg.sender, tokenID) */\n      0x04\n      dup3\n      add\n        /* \"#utility.yul\":11479:11513   */\n      mstore\n        /* \"contracts/GoingUpProjects.sol\":5743:5753  msg.sender */\n      caller\n        /* \"#utility.yul\":11529:11547   */\n      0x24\n      dup3\n      add\n        /* \"#utility.yul\":11522:11565   */\n      mstore\n        /* \"#utility.yul\":11581:11599   */\n      0x44\n      dup2\n      add\n        /* \"#utility.yul\":11574:11608   */\n      dup3\n      swap1\n      mstore\n        /* \"contracts/GoingUpProjects.sol\":5673:5685  tokenAddress */\n      dup3\n      swap1\n      sub(shl(0xa0, 0x01), 0x01)\n        /* \"contracts/GoingUpProjects.sol\":5697:5727  tokenContract.safeTransferFrom */\n      dup3\n      and\n      swap1\n      0x42842e0e\n      swap1\n        /* \"#utility.yul\":11414:11432   */\n      0x64\n      add\n        /* \"contracts/GoingUpProjects.sol\":5697:5763  tokenContract.safeTransferFrom(address(this), msg.sender, tokenID) */\n      0x00\n      mload(0x40)\n      dup1\n      dup4\n      sub\n      dup2\n      0x00\n      dup8\n      dup1\n      extcodesize\n      iszero\n      dup1\n      iszero\n      tag_207\n      jumpi\n      0x00\n      dup1\n      revert\n    tag_207:\n      pop\n      gas\n      call\n      iszero\n      dup1\n      iszero\n      tag_209\n      jumpi\n      returndatasize\n      0x00\n      dup1\n      returndatacopy\n      revert(0x00, returndatasize)\n    tag_209:\n      pop\n      pop\n      pop\n      pop\n        /* \"contracts/GoingUpProjects.sol\":5630:5771  {... */\n      pop\n        /* \"contracts/GoingUpProjects.sol\":5548:5771  function withdrawERC721(address tokenAddress, uint256 tokenID) external onlyAdmin {... */\n      pop\n      pop\n      jump\t// out\n    tag_97:\n      dup3\n      dup1\n      sload\n      tag_210\n      swap1\n      tag_74\n      jump\t// in\n    tag_210:\n      swap1\n      0x00\n      mstore\n      keccak256(0x00, 0x20)\n      swap1\n      0x1f\n      add\n      0x20\n      swap1\n      div\n      dup2\n      add\n      swap3\n      dup3\n      tag_212\n      jumpi\n      0x00\n      dup6\n      sstore\n      jump(tag_215)\n    tag_212:\n      dup3\n      0x1f\n      lt\n      tag_213\n      jumpi\n      dup1\n      mload\n      not(0xff)\n      and\n      dup4\n      dup1\n      add\n      or\n      dup6\n      sstore\n      jump(tag_215)\n    tag_213:\n      dup3\n      dup1\n      add\n      0x01\n      add\n      dup6\n      sstore\n      dup3\n      iszero\n      tag_215\n      jumpi\n      swap2\n      dup3\n      add\n    tag_214:\n      dup3\n      dup2\n      gt\n      iszero\n      tag_215\n      jumpi\n      dup3\n      mload\n      dup3\n      sstore\n      swap2\n      0x20\n      add\n      swap2\n      swap1\n      0x01\n      add\n      swap1\n      jump(tag_214)\n    tag_215:\n      pop\n      tag_216\n      swap3\n      swap2\n      pop\n      tag_217\n      jump\t// in\n    tag_216:\n      pop\n      swap1\n      jump\t// out\n    tag_101:\n      dup3\n      dup1\n      sload\n      dup3\n      dup3\n      sstore\n      swap1\n      0x00\n      mstore\n      keccak256(0x00, 0x20)\n      swap1\n      dup2\n      add\n      swap3\n      dup3\n      iszero\n      tag_220\n      jumpi\n      swap2\n      0x20\n      mul\n      dup3\n      add\n    tag_219:\n      dup3\n      dup2\n      gt\n      iszero\n      tag_220\n      jumpi\n      dup3\n      mload\n      dup1\n      mload\n      tag_221\n      swap2\n      dup5\n      swap2\n      0x20\n      swap1\n      swap2\n      add\n      swap1\n      tag_97\n      jump\t// in\n    tag_221:\n      pop\n      swap2\n      0x20\n      add\n      swap2\n      swap1\n      0x01\n      add\n      swap1\n      jump(tag_219)\n    tag_220:\n      pop\n      tag_216\n      swap3\n      swap2\n      pop\n      tag_223\n      jump\t// in\n    tag_103:\n      dup3\n      dup1\n      sload\n      dup3\n      dup3\n      sstore\n      swap1\n      0x00\n      mstore\n      keccak256(0x00, 0x20)\n      swap1\n      dup2\n      add\n      swap3\n      dup3\n      iszero\n      tag_215\n      jumpi\n      swap2\n      0x20\n      mul\n      dup3\n      add\n    tag_225:\n      dup3\n      dup2\n      gt\n      iszero\n      tag_215\n      jumpi\n      dup3\n      mload\n      dup3\n      sload\n      not(sub(shl(0xa0, 0x01), 0x01))\n      and\n      sub(shl(0xa0, 0x01), 0x01)\n      swap1\n      swap2\n      and\n      or\n      dup3\n      sstore\n      0x20\n      swap1\n      swap3\n      add\n      swap2\n      0x01\n      swap1\n      swap2\n      add\n      swap1\n      jump(tag_225)\n    tag_217:\n    tag_228:\n      dup1\n      dup3\n      gt\n      iszero\n      tag_216\n      jumpi\n      0x00\n      dup2\n      sstore\n      0x01\n      add\n      jump(tag_228)\n    tag_223:\n      dup1\n      dup3\n      gt\n      iszero\n      tag_216\n      jumpi\n      0x00\n      tag_232\n      dup3\n      dup3\n      tag_233\n      jump\t// in\n    tag_232:\n      pop\n      0x01\n      add\n      jump(tag_223)\n    tag_233:\n      pop\n      dup1\n      sload\n      tag_234\n      swap1\n      tag_74\n      jump\t// in\n    tag_234:\n      0x00\n      dup3\n      sstore\n      dup1\n      0x1f\n      lt\n      tag_236\n      jumpi\n      pop\n      pop\n      jump\t// out\n    tag_236:\n      0x1f\n      add\n      0x20\n      swap1\n      div\n      swap1\n      0x00\n      mstore\n      keccak256(0x00, 0x20)\n      swap1\n      dup2\n      add\n      swap1\n      tag_113\n      swap2\n      swap1\n      tag_217\n      jump\t// in\n        /* \"#utility.yul\":14:194   */\n    tag_18:\n        /* \"#utility.yul\":73:79   */\n      0x00\n        /* \"#utility.yul\":126:128   */\n      0x20\n        /* \"#utility.yul\":114:123   */\n      dup3\n        /* \"#utility.yul\":105:112   */\n      dup5\n        /* \"#utility.yul\":101:124   */\n      sub\n        /* \"#utility.yul\":97:129   */\n      slt\n        /* \"#utility.yul\":94:146   */\n      iszero\n      tag_248\n      jumpi\n        /* \"#utility.yul\":142:143   */\n      0x00\n        /* \"#utility.yul\":139:140   */\n      dup1\n        /* \"#utility.yul\":132:144   */\n      revert\n        /* \"#utility.yul\":94:146   */\n    tag_248:\n      pop\n        /* \"#utility.yul\":165:188   */\n      calldataload\n      swap2\n        /* \"#utility.yul\":14:194   */\n      swap1\n      pop\n      jump\t// out\n        /* \"#utility.yul\":199:671   */\n    tag_238:\n        /* \"#utility.yul\":241:244   */\n      0x00\n        /* \"#utility.yul\":279:284   */\n      dup2\n        /* \"#utility.yul\":273:285   */\n      mload\n        /* \"#utility.yul\":306:312   */\n      dup1\n        /* \"#utility.yul\":301:304   */\n      dup5\n        /* \"#utility.yul\":294:313   */\n      mstore\n        /* \"#utility.yul\":331:332   */\n      0x00\n        /* \"#utility.yul\":341:503   */\n    tag_250:\n        /* \"#utility.yul\":355:361   */\n      dup2\n        /* \"#utility.yul\":352:353   */\n      dup2\n        /* \"#utility.yul\":349:362   */\n      lt\n        /* \"#utility.yul\":341:503   */\n      iszero\n      tag_252\n      jumpi\n        /* \"#utility.yul\":417:421   */\n      0x20\n        /* \"#utility.yul\":473:486   */\n      dup2\n      dup6\n      add\n        /* \"#utility.yul\":469:491   */\n      dup2\n      add\n        /* \"#utility.yul\":463:492   */\n      mload\n        /* \"#utility.yul\":445:456   */\n      dup7\n      dup4\n      add\n        /* \"#utility.yul\":441:461   */\n      dup3\n      add\n        /* \"#utility.yul\":434:493   */\n      mstore\n        /* \"#utility.yul\":370:382   */\n      add\n        /* \"#utility.yul\":341:503   */\n      jump(tag_250)\n    tag_252:\n        /* \"#utility.yul\":521:527   */\n      dup2\n        /* \"#utility.yul\":518:519   */\n      dup2\n        /* \"#utility.yul\":515:528   */\n      gt\n        /* \"#utility.yul\":512:599   */\n      iszero\n      tag_253\n      jumpi\n        /* \"#utility.yul\":587:588   */\n      0x00\n        /* \"#utility.yul\":580:584   */\n      0x20\n        /* \"#utility.yul\":571:577   */\n      dup4\n        /* \"#utility.yul\":566:569   */\n      dup8\n        /* \"#utility.yul\":562:578   */\n      add\n        /* \"#utility.yul\":558:585   */\n      add\n        /* \"#utility.yul\":551:589   */\n      mstore\n        /* \"#utility.yul\":512:599   */\n    tag_253:\n      pop\n        /* \"#utility.yul\":653:655   */\n      0x1f\n        /* \"#utility.yul\":632:647   */\n      add\n      not(0x1f)\n        /* \"#utility.yul\":628:657   */\n      and\n        /* \"#utility.yul\":619:658   */\n      swap3\n      swap1\n      swap3\n      add\n        /* \"#utility.yul\":660:664   */\n      0x20\n        /* \"#utility.yul\":615:665   */\n      add\n      swap3\n        /* \"#utility.yul\":199:671   */\n      swap2\n      pop\n      pop\n      jump\t// out\n        /* \"#utility.yul\":676:1721   */\n    tag_21:\n        /* \"#utility.yul\":1040:1044   */\n      0x00\n        /* \"#utility.yul\":1069:1072   */\n      0x0120\n        /* \"#utility.yul\":1099:1105   */\n      dup12\n        /* \"#utility.yul\":1088:1097   */\n      dup4\n        /* \"#utility.yul\":1081:1106   */\n      mstore\n        /* \"#utility.yul\":1142:1144   */\n      dup1\n        /* \"#utility.yul\":1137:1139   */\n      0x20\n        /* \"#utility.yul\":1126:1135   */\n      dup5\n        /* \"#utility.yul\":1122:1140   */\n      add\n        /* \"#utility.yul\":1115:1145   */\n      mstore\n        /* \"#utility.yul\":1168:1213   */\n      tag_255\n        /* \"#utility.yul\":1209:1211   */\n      dup2\n        /* \"#utility.yul\":1198:1207   */\n      dup5\n        /* \"#utility.yul\":1194:1212   */\n      add\n        /* \"#utility.yul\":1186:1192   */\n      dup13\n        /* \"#utility.yul\":1168:1213   */\n      tag_238\n      jump\t// in\n    tag_255:\n        /* \"#utility.yul\":1154:1213   */\n      swap1\n      pop\n        /* \"#utility.yul\":1261:1270   */\n      dup3\n        /* \"#utility.yul\":1253:1259   */\n      dup2\n        /* \"#utility.yul\":1249:1271   */\n      sub\n        /* \"#utility.yul\":1244:1246   */\n      0x40\n        /* \"#utility.yul\":1233:1242   */\n      dup5\n        /* \"#utility.yul\":1229:1247   */\n      add\n        /* \"#utility.yul\":1222:1272   */\n      mstore\n        /* \"#utility.yul\":1295:1328   */\n      tag_256\n        /* \"#utility.yul\":1321:1327   */\n      dup2\n        /* \"#utility.yul\":1313:1319   */\n      dup12\n        /* \"#utility.yul\":1295:1328   */\n      tag_238\n      jump\t// in\n    tag_256:\n        /* \"#utility.yul\":1281:1328   */\n      swap1\n      pop\n        /* \"#utility.yul\":1364:1370   */\n      dup9\n        /* \"#utility.yul\":1359:1361   */\n      0x60\n        /* \"#utility.yul\":1348:1357   */\n      dup5\n        /* \"#utility.yul\":1344:1362   */\n      add\n        /* \"#utility.yul\":1337:1371   */\n      mstore\n        /* \"#utility.yul\":1408:1414   */\n      dup8\n        /* \"#utility.yul\":1402:1405   */\n      0x80\n        /* \"#utility.yul\":1391:1400   */\n      dup5\n        /* \"#utility.yul\":1387:1406   */\n      add\n        /* \"#utility.yul\":1380:1415   */\n      mstore\n        /* \"#utility.yul\":1464:1473   */\n      dup3\n        /* \"#utility.yul\":1456:1462   */\n      dup2\n        /* \"#utility.yul\":1452:1474   */\n      sub\n        /* \"#utility.yul\":1446:1449   */\n      0xa0\n        /* \"#utility.yul\":1435:1444   */\n      dup5\n        /* \"#utility.yul\":1431:1450   */\n      add\n        /* \"#utility.yul\":1424:1475   */\n      mstore\n        /* \"#utility.yul\":1492:1525   */\n      tag_257\n        /* \"#utility.yul\":1518:1524   */\n      dup2\n        /* \"#utility.yul\":1510:1516   */\n      dup9\n        /* \"#utility.yul\":1492:1525   */\n      tag_238\n      jump\t// in\n    tag_257:\n      sub(shl(0xa0, 0x01), 0x01)\n        /* \"#utility.yul\":1562:1594   */\n      swap7\n      swap1\n      swap7\n      and\n        /* \"#utility.yul\":1556:1559   */\n      0xc0\n        /* \"#utility.yul\":1541:1560   */\n      dup5\n      add\n        /* \"#utility.yul\":1534:1595   */\n      mstore\n      pop\n      pop\n        /* \"#utility.yul\":1639:1653   */\n      swap2\n      iszero\n        /* \"#utility.yul\":1632:1654   */\n      iszero\n        /* \"#utility.yul\":1626:1629   */\n      0xe0\n        /* \"#utility.yul\":1611:1630   */\n      dup4\n      add\n        /* \"#utility.yul\":1604:1655   */\n      mstore\n        /* \"#utility.yul\":1699:1713   */\n      iszero\n        /* \"#utility.yul\":1692:1714   */\n      iszero\n        /* \"#utility.yul\":1686:1689   */\n      0x0100\n        /* \"#utility.yul\":1671:1690   */\n      swap1\n      swap2\n      add\n        /* \"#utility.yul\":1664:1715   */\n      mstore\n        /* \"#utility.yul\":1484:1525   */\n      swap7\n        /* \"#utility.yul\":676:1721   */\n      swap6\n      pop\n      pop\n      pop\n      pop\n      pop\n      pop\n      jump\t// out\n        /* \"#utility.yul\":1726:1853   */\n    tag_239:\n        /* \"#utility.yul\":1787:1797   */\n      0x4e487b71\n        /* \"#utility.yul\":1782:1785   */\n      0xe0\n        /* \"#utility.yul\":1778:1798   */\n      shl\n        /* \"#utility.yul\":1775:1776   */\n      0x00\n        /* \"#utility.yul\":1768:1799   */\n      mstore\n        /* \"#utility.yul\":1818:1822   */\n      0x41\n        /* \"#utility.yul\":1815:1816   */\n      0x04\n        /* \"#utility.yul\":1808:1823   */\n      mstore\n        /* \"#utility.yul\":1842:1846   */\n      0x24\n        /* \"#utility.yul\":1839:1840   */\n      0x00\n        /* \"#utility.yul\":1832:1847   */\n      revert\n        /* \"#utility.yul\":1858:2133   */\n    tag_240:\n        /* \"#utility.yul\":1929:1931   */\n      0x40\n        /* \"#utility.yul\":1923:1932   */\n      mload\n        /* \"#utility.yul\":1994:1996   */\n      0x1f\n        /* \"#utility.yul\":1975:1988   */\n      dup3\n      add\n      not(0x1f)\n        /* \"#utility.yul\":1971:1998   */\n      and\n        /* \"#utility.yul\":1959:1999   */\n      dup2\n      add\n        /* \"#utility.yul\":2029:2047   */\n      0xffffffffffffffff\n        /* \"#utility.yul\":2014:2048   */\n      dup2\n      gt\n        /* \"#utility.yul\":2050:2072   */\n      dup3\n      dup3\n      lt\n        /* \"#utility.yul\":2011:2073   */\n      or\n        /* \"#utility.yul\":2008:2096   */\n      iszero\n      tag_261\n      jumpi\n        /* \"#utility.yul\":2076:2094   */\n      tag_261\n      tag_239\n      jump\t// in\n    tag_261:\n        /* \"#utility.yul\":2112:2114   */\n      0x40\n        /* \"#utility.yul\":2105:2127   */\n      mstore\n        /* \"#utility.yul\":1858:2133   */\n      swap2\n      swap1\n      pop\n      jump\t// out\n        /* \"#utility.yul\":2138:2545   */\n    tag_241:\n        /* \"#utility.yul\":2203:2208   */\n      0x00\n        /* \"#utility.yul\":2237:2255   */\n      0xffffffffffffffff\n        /* \"#utility.yul\":2229:2235   */\n      dup4\n        /* \"#utility.yul\":2226:2256   */\n      gt\n        /* \"#utility.yul\":2223:2279   */\n      iszero\n      tag_264\n      jumpi\n        /* \"#utility.yul\":2259:2277   */\n      tag_264\n      tag_239\n      jump\t// in\n    tag_264:\n        /* \"#utility.yul\":2297:2354   */\n      tag_265\n        /* \"#utility.yul\":2342:2344   */\n      0x1f\n        /* \"#utility.yul\":2321:2336   */\n      dup5\n      add\n      not(0x1f)\n        /* \"#utility.yul\":2317:2346   */\n      and\n        /* \"#utility.yul\":2348:2352   */\n      0x20\n        /* \"#utility.yul\":2313:2353   */\n      add\n        /* \"#utility.yul\":2297:2354   */\n      tag_240\n      jump\t// in\n    tag_265:\n        /* \"#utility.yul\":2288:2354   */\n      swap1\n      pop\n        /* \"#utility.yul\":2377:2383   */\n      dup3\n        /* \"#utility.yul\":2370:2375   */\n      dup2\n        /* \"#utility.yul\":2363:2384   */\n      mstore\n        /* \"#utility.yul\":2417:2420   */\n      dup4\n        /* \"#utility.yul\":2408:2414   */\n      dup4\n        /* \"#utility.yul\":2403:2406   */\n      dup4\n        /* \"#utility.yul\":2399:2415   */\n      add\n        /* \"#utility.yul\":2396:2421   */\n      gt\n        /* \"#utility.yul\":2393:2438   */\n      iszero\n      tag_266\n      jumpi\n        /* \"#utility.yul\":2434:2435   */\n      0x00\n        /* \"#utility.yul\":2431:2432   */\n      dup1\n        /* \"#utility.yul\":2424:2436   */\n      revert\n        /* \"#utility.yul\":2393:2438   */\n    tag_266:\n        /* \"#utility.yul\":2483:2489   */\n      dup3\n        /* \"#utility.yul\":2478:2481   */\n      dup3\n        /* \"#utility.yul\":2471:2475   */\n      0x20\n        /* \"#utility.yul\":2464:2469   */\n      dup4\n        /* \"#utility.yul\":2460:2476   */\n      add\n        /* \"#utility.yul\":2447:2490   */\n      calldatacopy\n        /* \"#utility.yul\":2537:2538   */\n      0x00\n        /* \"#utility.yul\":2530:2534   */\n      0x20\n        /* \"#utility.yul\":2521:2527   */\n      dup5\n        /* \"#utility.yul\":2514:2519   */\n      dup4\n        /* \"#utility.yul\":2510:2528   */\n      add\n        /* \"#utility.yul\":2506:2535   */\n      add\n        /* \"#utility.yul\":2499:2539   */\n      mstore\n        /* \"#utility.yul\":2138:2545   */\n      swap4\n      swap3\n      pop\n      pop\n      pop\n      jump\t// out\n        /* \"#utility.yul\":2550:2772   */\n    tag_242:\n        /* \"#utility.yul\":2593:2598   */\n      0x00\n        /* \"#utility.yul\":2646:2649   */\n      dup3\n        /* \"#utility.yul\":2639:2643   */\n      0x1f\n        /* \"#utility.yul\":2631:2637   */\n      dup4\n        /* \"#utility.yul\":2627:2644   */\n      add\n        /* \"#utility.yul\":2623:2650   */\n      slt\n        /* \"#utility.yul\":2613:2668   */\n      tag_268\n      jumpi\n        /* \"#utility.yul\":2664:2665   */\n      0x00\n        /* \"#utility.yul\":2661:2662   */\n      dup1\n        /* \"#utility.yul\":2654:2666   */\n      revert\n        /* \"#utility.yul\":2613:2668   */\n    tag_268:\n        /* \"#utility.yul\":2686:2766   */\n      tag_269\n        /* \"#utility.yul\":2762:2765   */\n      dup4\n        /* \"#utility.yul\":2753:2759   */\n      dup4\n        /* \"#utility.yul\":2740:2760   */\n      calldataload\n        /* \"#utility.yul\":2733:2737   */\n      0x20\n        /* \"#utility.yul\":2725:2731   */\n      dup6\n        /* \"#utility.yul\":2721:2738   */\n      add\n        /* \"#utility.yul\":2686:2766   */\n      tag_241\n      jump\t// in\n    tag_269:\n        /* \"#utility.yul\":2677:2766   */\n      swap4\n        /* \"#utility.yul\":2550:2772   */\n      swap3\n      pop\n      pop\n      pop\n      jump\t// out\n        /* \"#utility.yul\":2777:3720   */\n    tag_243:\n        /* \"#utility.yul\":2830:2835   */\n      0x00\n        /* \"#utility.yul\":2883:2886   */\n      dup3\n        /* \"#utility.yul\":2876:2880   */\n      0x1f\n        /* \"#utility.yul\":2868:2874   */\n      dup4\n        /* \"#utility.yul\":2864:2881   */\n      add\n        /* \"#utility.yul\":2860:2887   */\n      slt\n        /* \"#utility.yul\":2850:2905   */\n      tag_271\n      jumpi\n        /* \"#utility.yul\":2901:2902   */\n      0x00\n        /* \"#utility.yul\":2898:2899   */\n      dup1\n        /* \"#utility.yul\":2891:2903   */\n      revert\n        /* \"#utility.yul\":2850:2905   */\n    tag_271:\n        /* \"#utility.yul\":2937:2943   */\n      dup2\n        /* \"#utility.yul\":2924:2944   */\n      calldataload\n        /* \"#utility.yul\":2963:2967   */\n      0x20\n        /* \"#utility.yul\":2986:3004   */\n      0xffffffffffffffff\n        /* \"#utility.yul\":3023:3025   */\n      dup1\n        /* \"#utility.yul\":3019:3021   */\n      dup4\n        /* \"#utility.yul\":3016:3026   */\n      gt\n        /* \"#utility.yul\":3013:3049   */\n      iszero\n      tag_273\n      jumpi\n        /* \"#utility.yul\":3029:3047   */\n      tag_273\n      tag_239\n      jump\t// in\n    tag_273:\n        /* \"#utility.yul\":3075:3077   */\n      dup3\n        /* \"#utility.yul\":3072:3073   */\n      0x05\n        /* \"#utility.yul\":3068:3078   */\n      shl\n        /* \"#utility.yul\":3098:3126   */\n      tag_274\n        /* \"#utility.yul\":3122:3124   */\n      dup4\n        /* \"#utility.yul\":3118:3120   */\n      dup3\n        /* \"#utility.yul\":3114:3125   */\n      add\n        /* \"#utility.yul\":3098:3126   */\n      tag_240\n      jump\t// in\n    tag_274:\n        /* \"#utility.yul\":3160:3175   */\n      swap4\n      dup5\n      mstore\n        /* \"#utility.yul\":3230:3245   */\n      dup6\n      dup2\n      add\n        /* \"#utility.yul\":3226:3250   */\n      dup4\n      add\n      swap4\n        /* \"#utility.yul\":3191:3203   */\n      dup4\n      dup2\n      add\n      swap1\n        /* \"#utility.yul\":3262:3277   */\n      dup9\n      dup7\n      gt\n        /* \"#utility.yul\":3259:3294   */\n      iszero\n      tag_275\n      jumpi\n        /* \"#utility.yul\":3290:3291   */\n      0x00\n        /* \"#utility.yul\":3287:3288   */\n      dup1\n        /* \"#utility.yul\":3280:3292   */\n      revert\n        /* \"#utility.yul\":3259:3294   */\n    tag_275:\n        /* \"#utility.yul\":3326:3328   */\n      dup5\n        /* \"#utility.yul\":3318:3324   */\n      dup9\n        /* \"#utility.yul\":3314:3329   */\n      add\n        /* \"#utility.yul\":3303:3329   */\n      swap3\n      pop\n        /* \"#utility.yul\":3338:3691   */\n    tag_276:\n        /* \"#utility.yul\":3354:3360   */\n      dup6\n        /* \"#utility.yul\":3349:3352   */\n      dup4\n        /* \"#utility.yul\":3346:3361   */\n      lt\n        /* \"#utility.yul\":3338:3691   */\n      iszero\n      tag_278\n      jumpi\n        /* \"#utility.yul\":3440:3443   */\n      dup3\n        /* \"#utility.yul\":3427:3444   */\n      calldataload\n        /* \"#utility.yul\":3476:3478   */\n      dup5\n        /* \"#utility.yul\":3463:3474   */\n      dup2\n        /* \"#utility.yul\":3460:3479   */\n      gt\n        /* \"#utility.yul\":3457:3566   */\n      iszero\n      tag_279\n      jumpi\n        /* \"#utility.yul\":3520:3521   */\n      0x00\n        /* \"#utility.yul\":3549:3551   */\n      dup1\n        /* \"#utility.yul\":3545:3547   */\n      dup2\n        /* \"#utility.yul\":3538:3552   */\n      revert\n        /* \"#utility.yul\":3457:3566   */\n    tag_279:\n        /* \"#utility.yul\":3591:3648   */\n      tag_280\n        /* \"#utility.yul\":3644:3647   */\n      dup11\n        /* \"#utility.yul\":3639:3641   */\n      dup8\n        /* \"#utility.yul\":3625:3636   */\n      dup4\n        /* \"#utility.yul\":3617:3623   */\n      dup13\n        /* \"#utility.yul\":3613:3637   */\n      add\n        /* \"#utility.yul\":3609:3642   */\n      add\n        /* \"#utility.yul\":3591:3648   */\n      tag_242\n      jump\t// in\n    tag_280:\n        /* \"#utility.yul\":3579:3649   */\n      dup4\n      mstore\n      pop\n        /* \"#utility.yul\":3371:3383   */\n      swap2\n      dup5\n      add\n      swap2\n        /* \"#utility.yul\":3669:3681   */\n      swap1\n      dup5\n      add\n      swap1\n        /* \"#utility.yul\":3338:3691   */\n      jump(tag_276)\n    tag_278:\n        /* \"#utility.yul\":3709:3714   */\n      swap9\n        /* \"#utility.yul\":2777:3720   */\n      swap8\n      pop\n      pop\n      pop\n      pop\n      pop\n      pop\n      pop\n      pop\n      jump\t// out\n        /* \"#utility.yul\":3725:4842   */\n    tag_24:\n        /* \"#utility.yul\":3894:3900   */\n      0x00\n        /* \"#utility.yul\":3902:3908   */\n      dup1\n        /* \"#utility.yul\":3910:3916   */\n      0x00\n        /* \"#utility.yul\":3918:3924   */\n      dup1\n        /* \"#utility.yul\":3926:3932   */\n      0x00\n        /* \"#utility.yul\":3934:3940   */\n      dup1\n        /* \"#utility.yul\":3987:3990   */\n      0xc0\n        /* \"#utility.yul\":3975:3984   */\n      dup8\n        /* \"#utility.yul\":3966:3973   */\n      dup10\n        /* \"#utility.yul\":3962:3985   */\n      sub\n        /* \"#utility.yul\":3958:3991   */\n      slt\n        /* \"#utility.yul\":3955:4008   */\n      iszero\n      tag_282\n      jumpi\n        /* \"#utility.yul\":4004:4005   */\n      0x00\n        /* \"#utility.yul\":4001:4002   */\n      dup1\n        /* \"#utility.yul\":3994:4006   */\n      revert\n        /* \"#utility.yul\":3955:4008   */\n    tag_282:\n        /* \"#utility.yul\":4044:4053   */\n      dup7\n        /* \"#utility.yul\":4031:4054   */\n      calldataload\n        /* \"#utility.yul\":4073:4091   */\n      0xffffffffffffffff\n        /* \"#utility.yul\":4114:4116   */\n      dup1\n        /* \"#utility.yul\":4106:4112   */\n      dup3\n        /* \"#utility.yul\":4103:4117   */\n      gt\n        /* \"#utility.yul\":4100:4134   */\n      iszero\n      tag_283\n      jumpi\n        /* \"#utility.yul\":4130:4131   */\n      0x00\n        /* \"#utility.yul\":4127:4128   */\n      dup1\n        /* \"#utility.yul\":4120:4132   */\n      revert\n        /* \"#utility.yul\":4100:4134   */\n    tag_283:\n        /* \"#utility.yul\":4153:4203   */\n      tag_284\n        /* \"#utility.yul\":4195:4202   */\n      dup11\n        /* \"#utility.yul\":4186:4192   */\n      dup4\n        /* \"#utility.yul\":4175:4184   */\n      dup12\n        /* \"#utility.yul\":4171:4193   */\n      add\n        /* \"#utility.yul\":4153:4203   */\n      tag_242\n      jump\t// in\n    tag_284:\n        /* \"#utility.yul\":4143:4203   */\n      swap8\n      pop\n        /* \"#utility.yul\":4256:4258   */\n      0x20\n        /* \"#utility.yul\":4245:4254   */\n      dup10\n        /* \"#utility.yul\":4241:4259   */\n      add\n        /* \"#utility.yul\":4228:4260   */\n      calldataload\n        /* \"#utility.yul\":4212:4260   */\n      swap2\n      pop\n        /* \"#utility.yul\":4285:4287   */\n      dup1\n        /* \"#utility.yul\":4275:4283   */\n      dup3\n        /* \"#utility.yul\":4272:4288   */\n      gt\n        /* \"#utility.yul\":4269:4305   */\n      iszero\n      tag_285\n      jumpi\n        /* \"#utility.yul\":4301:4302   */\n      0x00\n        /* \"#utility.yul\":4298:4299   */\n      dup1\n        /* \"#utility.yul\":4291:4303   */\n      revert\n        /* \"#utility.yul\":4269:4305   */\n    tag_285:\n        /* \"#utility.yul\":4324:4376   */\n      tag_286\n        /* \"#utility.yul\":4368:4375   */\n      dup11\n        /* \"#utility.yul\":4357:4365   */\n      dup4\n        /* \"#utility.yul\":4346:4355   */\n      dup12\n        /* \"#utility.yul\":4342:4366   */\n      add\n        /* \"#utility.yul\":4324:4376   */\n      tag_242\n      jump\t// in\n    tag_286:\n        /* \"#utility.yul\":4314:4376   */\n      swap7\n      pop\n        /* \"#utility.yul\":4423:4425   */\n      0x40\n        /* \"#utility.yul\":4412:4421   */\n      dup10\n        /* \"#utility.yul\":4408:4426   */\n      add\n        /* \"#utility.yul\":4395:4427   */\n      calldataload\n        /* \"#utility.yul\":4385:4427   */\n      swap6\n      pop\n        /* \"#utility.yul\":4474:4476   */\n      0x60\n        /* \"#utility.yul\":4463:4472   */\n      dup10\n        /* \"#utility.yul\":4459:4477   */\n      add\n        /* \"#utility.yul\":4446:4478   */\n      calldataload\n        /* \"#utility.yul\":4436:4478   */\n      swap5\n      pop\n        /* \"#utility.yul\":4531:4534   */\n      0x80\n        /* \"#utility.yul\":4520:4529   */\n      dup10\n        /* \"#utility.yul\":4516:4535   */\n      add\n        /* \"#utility.yul\":4503:4536   */\n      calldataload\n        /* \"#utility.yul\":4487:4536   */\n      swap2\n      pop\n        /* \"#utility.yul\":4561:4563   */\n      dup1\n        /* \"#utility.yul\":4551:4559   */\n      dup3\n        /* \"#utility.yul\":4548:4564   */\n      gt\n        /* \"#utility.yul\":4545:4581   */\n      iszero\n      tag_287\n      jumpi\n        /* \"#utility.yul\":4577:4578   */\n      0x00\n        /* \"#utility.yul\":4574:4575   */\n      dup1\n        /* \"#utility.yul\":4567:4579   */\n      revert\n        /* \"#utility.yul\":4545:4581   */\n    tag_287:\n        /* \"#utility.yul\":4600:4652   */\n      tag_288\n        /* \"#utility.yul\":4644:4651   */\n      dup11\n        /* \"#utility.yul\":4633:4641   */\n      dup4\n        /* \"#utility.yul\":4622:4631   */\n      dup12\n        /* \"#utility.yul\":4618:4642   */\n      add\n        /* \"#utility.yul\":4600:4652   */\n      tag_242\n      jump\t// in\n    tag_288:\n        /* \"#utility.yul\":4590:4652   */\n      swap4\n      pop\n        /* \"#utility.yul\":4705:4708   */\n      0xa0\n        /* \"#utility.yul\":4694:4703   */\n      dup10\n        /* \"#utility.yul\":4690:4709   */\n      add\n        /* \"#utility.yul\":4677:4710   */\n      calldataload\n        /* \"#utility.yul\":4661:4710   */\n      swap2\n      pop\n        /* \"#utility.yul\":4735:4737   */\n      dup1\n        /* \"#utility.yul\":4725:4733   */\n      dup3\n        /* \"#utility.yul\":4722:4738   */\n      gt\n        /* \"#utility.yul\":4719:4755   */\n      iszero\n      tag_289\n      jumpi\n        /* \"#utility.yul\":4751:4752   */\n      0x00\n        /* \"#utility.yul\":4748:4749   */\n      dup1\n        /* \"#utility.yul\":4741:4753   */\n      revert\n        /* \"#utility.yul\":4719:4755   */\n    tag_289:\n      pop\n        /* \"#utility.yul\":4774:4836   */\n      tag_290\n        /* \"#utility.yul\":4828:4835   */\n      dup10\n        /* \"#utility.yul\":4817:4825   */\n      dup3\n        /* \"#utility.yul\":4806:4815   */\n      dup11\n        /* \"#utility.yul\":4802:4826   */\n      add\n        /* \"#utility.yul\":4774:4836   */\n      tag_243\n      jump\t// in\n    tag_290:\n        /* \"#utility.yul\":4764:4836   */\n      swap2\n      pop\n      pop\n        /* \"#utility.yul\":3725:4842   */\n      swap3\n      swap6\n      pop\n      swap3\n      swap6\n      pop\n      swap3\n      swap6\n      jump\t// out\n        /* \"#utility.yul\":4847:5020   */\n    tag_244:\n        /* \"#utility.yul\":4915:4935   */\n      dup1\n      calldataload\n      sub(shl(0xa0, 0x01), 0x01)\n        /* \"#utility.yul\":4964:4995   */\n      dup2\n      and\n        /* \"#utility.yul\":4954:4996   */\n      dup2\n      eq\n        /* \"#utility.yul\":4944:5014   */\n      tag_292\n      jumpi\n        /* \"#utility.yul\":5010:5011   */\n      0x00\n        /* \"#utility.yul\":5007:5008   */\n      dup1\n        /* \"#utility.yul\":5000:5012   */\n      revert\n        /* \"#utility.yul\":4944:5014   */\n    tag_292:\n        /* \"#utility.yul\":4847:5020   */\n      swap2\n      swap1\n      pop\n      jump\t// out\n        /* \"#utility.yul\":5025:5211   */\n    tag_32:\n        /* \"#utility.yul\":5084:5090   */\n      0x00\n        /* \"#utility.yul\":5137:5139   */\n      0x20\n        /* \"#utility.yul\":5125:5134   */\n      dup3\n        /* \"#utility.yul\":5116:5123   */\n      dup5\n        /* \"#utility.yul\":5112:5135   */\n      sub\n        /* \"#utility.yul\":5108:5140   */\n      slt\n        /* \"#utility.yul\":5105:5157   */\n      iszero\n      tag_294\n      jumpi\n        /* \"#utility.yul\":5153:5154   */\n      0x00\n        /* \"#utility.yul\":5150:5151   */\n      dup1\n        /* \"#utility.yul\":5143:5155   */\n      revert\n        /* \"#utility.yul\":5105:5157   */\n    tag_294:\n        /* \"#utility.yul\":5176:5205   */\n      tag_269\n        /* \"#utility.yul\":5195:5204   */\n      dup3\n        /* \"#utility.yul\":5176:5205   */\n      tag_244\n      jump\t// in\n        /* \"#utility.yul\":5408:5526   */\n    tag_245:\n        /* \"#utility.yul\":5494:5499   */\n      dup1\n        /* \"#utility.yul\":5487:5500   */\n      iszero\n        /* \"#utility.yul\":5480:5501   */\n      iszero\n        /* \"#utility.yul\":5473:5478   */\n      dup2\n        /* \"#utility.yul\":5470:5502   */\n      eq\n        /* \"#utility.yul\":5460:5520   */\n      tag_113\n      jumpi\n        /* \"#utility.yul\":5516:5517   */\n      0x00\n        /* \"#utility.yul\":5513:5514   */\n      dup1\n        /* \"#utility.yul\":5506:5518   */\n      revert\n        /* \"#utility.yul\":5531:5846   */\n    tag_39:\n        /* \"#utility.yul\":5596:5602   */\n      0x00\n        /* \"#utility.yul\":5604:5610   */\n      dup1\n        /* \"#utility.yul\":5657:5659   */\n      0x40\n        /* \"#utility.yul\":5645:5654   */\n      dup4\n        /* \"#utility.yul\":5636:5643   */\n      dup6\n        /* \"#utility.yul\":5632:5655   */\n      sub\n        /* \"#utility.yul\":5628:5660   */\n      slt\n        /* \"#utility.yul\":5625:5677   */\n      iszero\n      tag_300\n      jumpi\n        /* \"#utility.yul\":5673:5674   */\n      0x00\n        /* \"#utility.yul\":5670:5671   */\n      dup1\n        /* \"#utility.yul\":5663:5675   */\n      revert\n        /* \"#utility.yul\":5625:5677   */\n    tag_300:\n        /* \"#utility.yul\":5696:5725   */\n      tag_301\n        /* \"#utility.yul\":5715:5724   */\n      dup4\n        /* \"#utility.yul\":5696:5725   */\n      tag_244\n      jump\t// in\n    tag_301:\n        /* \"#utility.yul\":5686:5725   */\n      swap2\n      pop\n        /* \"#utility.yul\":5775:5777   */\n      0x20\n        /* \"#utility.yul\":5764:5773   */\n      dup4\n        /* \"#utility.yul\":5760:5778   */\n      add\n        /* \"#utility.yul\":5747:5779   */\n      calldataload\n        /* \"#utility.yul\":5788:5816   */\n      tag_302\n        /* \"#utility.yul\":5810:5815   */\n      dup2\n        /* \"#utility.yul\":5788:5816   */\n      tag_245\n      jump\t// in\n    tag_302:\n        /* \"#utility.yul\":5835:5840   */\n      dup1\n        /* \"#utility.yul\":5825:5840   */\n      swap2\n      pop\n      pop\n        /* \"#utility.yul\":5531:5846   */\n      swap3\n      pop\n      swap3\n      swap1\n      pop\n      jump\t// out\n        /* \"#utility.yul\":6241:6902   */\n    tag_58:\n        /* \"#utility.yul\":6336:6342   */\n      0x00\n        /* \"#utility.yul\":6344:6350   */\n      dup1\n        /* \"#utility.yul\":6352:6358   */\n      0x00\n        /* \"#utility.yul\":6360:6366   */\n      dup1\n        /* \"#utility.yul\":6413:6416   */\n      0x80\n        /* \"#utility.yul\":6401:6410   */\n      dup6\n        /* \"#utility.yul\":6392:6399   */\n      dup8\n        /* \"#utility.yul\":6388:6411   */\n      sub\n        /* \"#utility.yul\":6384:6417   */\n      slt\n        /* \"#utility.yul\":6381:6434   */\n      iszero\n      tag_306\n      jumpi\n        /* \"#utility.yul\":6430:6431   */\n      0x00\n        /* \"#utility.yul\":6427:6428   */\n      dup1\n        /* \"#utility.yul\":6420:6432   */\n      revert\n        /* \"#utility.yul\":6381:6434   */\n    tag_306:\n        /* \"#utility.yul\":6453:6482   */\n      tag_307\n        /* \"#utility.yul\":6472:6481   */\n      dup6\n        /* \"#utility.yul\":6453:6482   */\n      tag_244\n      jump\t// in\n    tag_307:\n        /* \"#utility.yul\":6443:6482   */\n      swap4\n      pop\n        /* \"#utility.yul\":6529:6531   */\n      0x20\n        /* \"#utility.yul\":6518:6527   */\n      dup6\n        /* \"#utility.yul\":6514:6532   */\n      add\n        /* \"#utility.yul\":6501:6533   */\n      calldataload\n        /* \"#utility.yul\":6491:6533   */\n      swap3\n      pop\n        /* \"#utility.yul\":6580:6582   */\n      0x40\n        /* \"#utility.yul\":6569:6578   */\n      dup6\n        /* \"#utility.yul\":6565:6583   */\n      add\n        /* \"#utility.yul\":6552:6584   */\n      calldataload\n        /* \"#utility.yul\":6542:6584   */\n      swap2\n      pop\n        /* \"#utility.yul\":6635:6637   */\n      0x60\n        /* \"#utility.yul\":6624:6633   */\n      dup6\n        /* \"#utility.yul\":6620:6638   */\n      add\n        /* \"#utility.yul\":6607:6639   */\n      calldataload\n        /* \"#utility.yul\":6662:6680   */\n      0xffffffffffffffff\n        /* \"#utility.yul\":6654:6660   */\n      dup2\n        /* \"#utility.yul\":6651:6681   */\n      gt\n        /* \"#utility.yul\":6648:6698   */\n      iszero\n      tag_308\n      jumpi\n        /* \"#utility.yul\":6694:6695   */\n      0x00\n        /* \"#utility.yul\":6691:6692   */\n      dup1\n        /* \"#utility.yul\":6684:6696   */\n      revert\n        /* \"#utility.yul\":6648:6698   */\n    tag_308:\n        /* \"#utility.yul\":6717:6739   */\n      dup6\n      add\n        /* \"#utility.yul\":6770:6774   */\n      0x1f\n        /* \"#utility.yul\":6762:6775   */\n      dup2\n      add\n        /* \"#utility.yul\":6758:6785   */\n      dup8\n      sgt\n        /* \"#utility.yul\":6748:6803   */\n      tag_309\n      jumpi\n        /* \"#utility.yul\":6799:6800   */\n      0x00\n        /* \"#utility.yul\":6796:6797   */\n      dup1\n        /* \"#utility.yul\":6789:6801   */\n      revert\n        /* \"#utility.yul\":6748:6803   */\n    tag_309:\n        /* \"#utility.yul\":6822:6896   */\n      tag_310\n        /* \"#utility.yul\":6888:6895   */\n      dup8\n        /* \"#utility.yul\":6883:6885   */\n      dup3\n        /* \"#utility.yul\":6870:6886   */\n      calldataload\n        /* \"#utility.yul\":6865:6867   */\n      0x20\n        /* \"#utility.yul\":6861:6863   */\n      dup5\n        /* \"#utility.yul\":6857:6868   */\n      add\n        /* \"#utility.yul\":6822:6896   */\n      tag_241\n      jump\t// in\n    tag_310:\n        /* \"#utility.yul\":6812:6896   */\n      swap2\n      pop\n      pop\n        /* \"#utility.yul\":6241:6902   */\n      swap3\n      swap6\n      swap2\n      swap5\n      pop\n      swap3\n      pop\n      jump\t// out\n        /* \"#utility.yul\":6907:7161   */\n    tag_63:\n        /* \"#utility.yul\":6975:6981   */\n      0x00\n        /* \"#utility.yul\":6983:6989   */\n      dup1\n        /* \"#utility.yul\":7036:7038   */\n      0x40\n        /* \"#utility.yul\":7024:7033   */\n      dup4\n        /* \"#utility.yul\":7015:7022   */\n      dup6\n        /* \"#utility.yul\":7011:7034   */\n      sub\n        /* \"#utility.yul\":7007:7039   */\n      slt\n        /* \"#utility.yul\":7004:7056   */\n      iszero\n      tag_312\n      jumpi\n        /* \"#utility.yul\":7052:7053   */\n      0x00\n        /* \"#utility.yul\":7049:7050   */\n      dup1\n        /* \"#utility.yul\":7042:7054   */\n      revert\n        /* \"#utility.yul\":7004:7056   */\n    tag_312:\n        /* \"#utility.yul\":7075:7104   */\n      tag_313\n        /* \"#utility.yul\":7094:7103   */\n      dup4\n        /* \"#utility.yul\":7075:7104   */\n      tag_244\n      jump\t// in\n    tag_313:\n        /* \"#utility.yul\":7065:7104   */\n      swap5\n        /* \"#utility.yul\":7151:7153   */\n      0x20\n        /* \"#utility.yul\":7136:7154   */\n      swap4\n      swap1\n      swap4\n      add\n        /* \"#utility.yul\":7123:7155   */\n      calldataload\n      swap4\n      pop\n      pop\n      pop\n        /* \"#utility.yul\":6907:7161   */\n      jump\t// out\n        /* \"#utility.yul\":7166:8352   */\n    tag_67:\n        /* \"#utility.yul\":7344:7350   */\n      0x00\n        /* \"#utility.yul\":7352:7358   */\n      dup1\n        /* \"#utility.yul\":7360:7366   */\n      0x00\n        /* \"#utility.yul\":7368:7374   */\n      dup1\n        /* \"#utility.yul\":7376:7382   */\n      0x00\n        /* \"#utility.yul\":7384:7390   */\n      dup1\n        /* \"#utility.yul\":7392:7398   */\n      0x00\n        /* \"#utility.yul\":7445:7448   */\n      0xe0\n        /* \"#utility.yul\":7433:7442   */\n      dup9\n        /* \"#utility.yul\":7424:7431   */\n      dup11\n        /* \"#utility.yul\":7420:7443   */\n      sub\n        /* \"#utility.yul\":7416:7449   */\n      slt\n        /* \"#utility.yul\":7413:7466   */\n      iszero\n      tag_315\n      jumpi\n        /* \"#utility.yul\":7462:7463   */\n      0x00\n        /* \"#utility.yul\":7459:7460   */\n      dup1\n        /* \"#utility.yul\":7452:7464   */\n      revert\n        /* \"#utility.yul\":7413:7466   */\n    tag_315:\n        /* \"#utility.yul\":7498:7507   */\n      dup8\n        /* \"#utility.yul\":7485:7508   */\n      calldataload\n        /* \"#utility.yul\":7475:7508   */\n      swap7\n      pop\n        /* \"#utility.yul\":7559:7561   */\n      0x20\n        /* \"#utility.yul\":7548:7557   */\n      dup9\n        /* \"#utility.yul\":7544:7562   */\n      add\n        /* \"#utility.yul\":7531:7563   */\n      calldataload\n        /* \"#utility.yul\":7582:7600   */\n      0xffffffffffffffff\n        /* \"#utility.yul\":7623:7625   */\n      dup1\n        /* \"#utility.yul\":7615:7621   */\n      dup3\n        /* \"#utility.yul\":7612:7626   */\n      gt\n        /* \"#utility.yul\":7609:7643   */\n      iszero\n      tag_316\n      jumpi\n        /* \"#utility.yul\":7639:7640   */\n      0x00\n        /* \"#utility.yul\":7636:7637   */\n      dup1\n        /* \"#utility.yul\":7629:7641   */\n      revert\n        /* \"#utility.yul\":7609:7643   */\n    tag_316:\n        /* \"#utility.yul\":7662:7712   */\n      tag_317\n        /* \"#utility.yul\":7704:7711   */\n      dup12\n        /* \"#utility.yul\":7695:7701   */\n      dup4\n        /* \"#utility.yul\":7684:7693   */\n      dup13\n        /* \"#utility.yul\":7680:7702   */\n      add\n        /* \"#utility.yul\":7662:7712   */\n      tag_242\n      jump\t// in\n    tag_317:\n        /* \"#utility.yul\":7652:7712   */\n      swap8\n      pop\n        /* \"#utility.yul\":7765:7767   */\n      0x40\n        /* \"#utility.yul\":7754:7763   */\n      dup11\n        /* \"#utility.yul\":7750:7768   */\n      add\n        /* \"#utility.yul\":7737:7769   */\n      calldataload\n        /* \"#utility.yul\":7721:7769   */\n      swap2\n      pop\n        /* \"#utility.yul\":7794:7796   */\n      dup1\n        /* \"#utility.yul\":7784:7792   */\n      dup3\n        /* \"#utility.yul\":7781:7797   */\n      gt\n        /* \"#utility.yul\":7778:7814   */\n      iszero\n      tag_318\n      jumpi\n        /* \"#utility.yul\":7810:7811   */\n      0x00\n        /* \"#utility.yul\":7807:7808   */\n      dup1\n        /* \"#utility.yul\":7800:7812   */\n      revert\n        /* \"#utility.yul\":7778:7814   */\n    tag_318:\n        /* \"#utility.yul\":7833:7885   */\n      tag_319\n        /* \"#utility.yul\":7877:7884   */\n      dup12\n        /* \"#utility.yul\":7866:7874   */\n      dup4\n        /* \"#utility.yul\":7855:7864   */\n      dup13\n        /* \"#utility.yul\":7851:7875   */\n      add\n        /* \"#utility.yul\":7833:7885   */\n      tag_242\n      jump\t// in\n    tag_319:\n        /* \"#utility.yul\":7823:7885   */\n      swap7\n      pop\n        /* \"#utility.yul\":7932:7934   */\n      0x60\n        /* \"#utility.yul\":7921:7930   */\n      dup11\n        /* \"#utility.yul\":7917:7935   */\n      add\n        /* \"#utility.yul\":7904:7936   */\n      calldataload\n        /* \"#utility.yul\":7894:7936   */\n      swap6\n      pop\n        /* \"#utility.yul\":7983:7986   */\n      0x80\n        /* \"#utility.yul\":7972:7981   */\n      dup11\n        /* \"#utility.yul\":7968:7987   */\n      add\n        /* \"#utility.yul\":7955:7988   */\n      calldataload\n        /* \"#utility.yul\":7945:7988   */\n      swap5\n      pop\n        /* \"#utility.yul\":8041:8044   */\n      0xa0\n        /* \"#utility.yul\":8030:8039   */\n      dup11\n        /* \"#utility.yul\":8026:8045   */\n      add\n        /* \"#utility.yul\":8013:8046   */\n      calldataload\n        /* \"#utility.yul\":7997:8046   */\n      swap2\n      pop\n        /* \"#utility.yul\":8071:8073   */\n      dup1\n        /* \"#utility.yul\":8061:8069   */\n      dup3\n        /* \"#utility.yul\":8058:8074   */\n      gt\n        /* \"#utility.yul\":8055:8091   */\n      iszero\n      tag_320\n      jumpi\n        /* \"#utility.yul\":8087:8088   */\n      0x00\n        /* \"#utility.yul\":8084:8085   */\n      dup1\n        /* \"#utility.yul\":8077:8089   */\n      revert\n        /* \"#utility.yul\":8055:8091   */\n    tag_320:\n        /* \"#utility.yul\":8110:8162   */\n      tag_321\n        /* \"#utility.yul\":8154:8161   */\n      dup12\n        /* \"#utility.yul\":8143:8151   */\n      dup4\n        /* \"#utility.yul\":8132:8141   */\n      dup13\n        /* \"#utility.yul\":8128:8152   */\n      add\n        /* \"#utility.yul\":8110:8162   */\n      tag_242\n      jump\t// in\n    tag_321:\n        /* \"#utility.yul\":8100:8162   */\n      swap4\n      pop\n        /* \"#utility.yul\":8215:8218   */\n      0xc0\n        /* \"#utility.yul\":8204:8213   */\n      dup11\n        /* \"#utility.yul\":8200:8219   */\n      add\n        /* \"#utility.yul\":8187:8220   */\n      calldataload\n        /* \"#utility.yul\":8171:8220   */\n      swap2\n      pop\n        /* \"#utility.yul\":8245:8247   */\n      dup1\n        /* \"#utility.yul\":8235:8243   */\n      dup3\n        /* \"#utility.yul\":8232:8248   */\n      gt\n        /* \"#utility.yul\":8229:8265   */\n      iszero\n      tag_322\n      jumpi\n        /* \"#utility.yul\":8261:8262   */\n      0x00\n        /* \"#utility.yul\":8258:8259   */\n      dup1\n        /* \"#utility.yul\":8251:8263   */\n      revert\n        /* \"#utility.yul\":8229:8265   */\n    tag_322:\n      pop\n        /* \"#utility.yul\":8284:8346   */\n      tag_323\n        /* \"#utility.yul\":8338:8345   */\n      dup11\n        /* \"#utility.yul\":8327:8335   */\n      dup3\n        /* \"#utility.yul\":8316:8325   */\n      dup12\n        /* \"#utility.yul\":8312:8336   */\n      add\n        /* \"#utility.yul\":8284:8346   */\n      tag_243\n      jump\t// in\n    tag_323:\n        /* \"#utility.yul\":8274:8346   */\n      swap2\n      pop\n      pop\n        /* \"#utility.yul\":7166:8352   */\n      swap3\n      swap6\n      swap9\n      swap2\n      swap5\n      swap8\n      pop\n      swap3\n      swap6\n      pop\n      jump\t// out\n        /* \"#utility.yul\":8357:8737   */\n    tag_74:\n        /* \"#utility.yul\":8436:8437   */\n      0x01\n        /* \"#utility.yul\":8432:8444   */\n      dup2\n      dup2\n      shr\n      swap1\n        /* \"#utility.yul\":8479:8491   */\n      dup3\n      and\n      dup1\n        /* \"#utility.yul\":8500:8561   */\n      tag_325\n      jumpi\n        /* \"#utility.yul\":8554:8558   */\n      0x7f\n        /* \"#utility.yul\":8546:8552   */\n      dup3\n        /* \"#utility.yul\":8542:8559   */\n      and\n        /* \"#utility.yul\":8532:8559   */\n      swap2\n      pop\n        /* \"#utility.yul\":8500:8561   */\n    tag_325:\n        /* \"#utility.yul\":8607:8609   */\n      0x20\n        /* \"#utility.yul\":8599:8605   */\n      dup3\n        /* \"#utility.yul\":8596:8610   */\n      lt\n        /* \"#utility.yul\":8576:8594   */\n      dup2\n        /* \"#utility.yul\":8573:8611   */\n      sub\n        /* \"#utility.yul\":8570:8731   */\n      tag_326\n      jumpi\n        /* \"#utility.yul\":8653:8663   */\n      0x4e487b71\n        /* \"#utility.yul\":8648:8651   */\n      0xe0\n        /* \"#utility.yul\":8644:8664   */\n      shl\n        /* \"#utility.yul\":8641:8642   */\n      0x00\n        /* \"#utility.yul\":8634:8665   */\n      mstore\n        /* \"#utility.yul\":8688:8692   */\n      0x22\n        /* \"#utility.yul\":8685:8686   */\n      0x04\n        /* \"#utility.yul\":8678:8693   */\n      mstore\n        /* \"#utility.yul\":8716:8720   */\n      0x24\n        /* \"#utility.yul\":8713:8714   */\n      0x00\n        /* \"#utility.yul\":8706:8721   */\n      revert\n        /* \"#utility.yul\":8570:8731   */\n    tag_326:\n      pop\n        /* \"#utility.yul\":8357:8737   */\n      swap2\n      swap1\n      pop\n      jump\t// out\n        /* \"#utility.yul\":9090:9322   */\n    tag_105:\n        /* \"#utility.yul\":9129:9132   */\n      0x00\n        /* \"#utility.yul\":9150:9167   */\n      0x01\n      dup3\n      add\n        /* \"#utility.yul\":9147:9287   */\n      tag_329\n      jumpi\n        /* \"#utility.yul\":9209:9219   */\n      0x4e487b71\n        /* \"#utility.yul\":9204:9207   */\n      0xe0\n        /* \"#utility.yul\":9200:9220   */\n      shl\n        /* \"#utility.yul\":9197:9198   */\n      0x00\n        /* \"#utility.yul\":9190:9221   */\n      mstore\n        /* \"#utility.yul\":9244:9248   */\n      0x11\n        /* \"#utility.yul\":9241:9242   */\n      0x04\n        /* \"#utility.yul\":9234:9249   */\n      mstore\n        /* \"#utility.yul\":9272:9276   */\n      0x24\n        /* \"#utility.yul\":9269:9270   */\n      0x00\n        /* \"#utility.yul\":9262:9277   */\n      revert\n        /* \"#utility.yul\":9147:9287   */\n    tag_329:\n      pop\n        /* \"#utility.yul\":9314:9315   */\n      0x01\n        /* \"#utility.yul\":9303:9316   */\n      add\n      swap1\n        /* \"#utility.yul\":9090:9322   */\n      jump\t// out\n        /* \"#utility.yul\":9327:9659   */\n    tag_110:\n        /* \"#utility.yul\":9529:9531   */\n      0x20\n        /* \"#utility.yul\":9511:9532   */\n      dup1\n      dup3\n      mstore\n        /* \"#utility.yul\":9568:9569   */\n      0x09\n        /* \"#utility.yul\":9548:9566   */\n      swap1\n      dup3\n      add\n        /* \"#utility.yul\":9541:9570   */\n      mstore\n      shl(0xb9, 0x3737ba1030b236b4b7)\n        /* \"#utility.yul\":9601:9603   */\n      0x40\n        /* \"#utility.yul\":9586:9604   */\n      dup3\n      add\n        /* \"#utility.yul\":9579:9618   */\n      mstore\n        /* \"#utility.yul\":9650:9652   */\n      0x60\n        /* \"#utility.yul\":9635:9653   */\n      add\n      swap1\n        /* \"#utility.yul\":9327:9659   */\n      jump\t// out\n        /* \"#utility.yul\":9664:10225   */\n    tag_130:\n      sub(shl(0xa0, 0x01), 0x01)\n        /* \"#utility.yul\":9961:9976   */\n      dup7\n      dup2\n      and\n        /* \"#utility.yul\":9943:9977   */\n      dup3\n      mstore\n        /* \"#utility.yul\":10013:10028   */\n      dup6\n      and\n        /* \"#utility.yul\":10008:10010   */\n      0x20\n        /* \"#utility.yul\":9993:10011   */\n      dup3\n      add\n        /* \"#utility.yul\":9986:10029   */\n      mstore\n        /* \"#utility.yul\":10060:10062   */\n      0x40\n        /* \"#utility.yul\":10045:10063   */\n      dup2\n      add\n        /* \"#utility.yul\":10038:10072   */\n      dup5\n      swap1\n      mstore\n        /* \"#utility.yul\":10103:10105   */\n      0x60\n        /* \"#utility.yul\":10088:10106   */\n      dup2\n      add\n        /* \"#utility.yul\":10081:10115   */\n      dup4\n      swap1\n      mstore\n        /* \"#utility.yul\":9923:9926   */\n      0xa0\n        /* \"#utility.yul\":10146:10149   */\n      0x80\n        /* \"#utility.yul\":10131:10150   */\n      dup3\n      add\n        /* \"#utility.yul\":10124:10156   */\n      dup2\n      swap1\n      mstore\n        /* \"#utility.yul\":9886:9890   */\n      0x00\n      swap1\n        /* \"#utility.yul\":10173:10219   */\n      tag_332\n      swap1\n        /* \"#utility.yul\":10199:10218   */\n      dup4\n      add\n        /* \"#utility.yul\":10191:10197   */\n      dup5\n        /* \"#utility.yul\":10173:10219   */\n      tag_238\n      jump\t// in\n    tag_332:\n        /* \"#utility.yul\":10165:10219   */\n      swap8\n        /* \"#utility.yul\":9664:10225   */\n      swap7\n      pop\n      pop\n      pop\n      pop\n      pop\n      pop\n      pop\n      jump\t// out\n        /* \"#utility.yul\":10509:10754   */\n    tag_144:\n        /* \"#utility.yul\":10576:10582   */\n      0x00\n        /* \"#utility.yul\":10629:10631   */\n      0x20\n        /* \"#utility.yul\":10617:10626   */\n      dup3\n        /* \"#utility.yul\":10608:10615   */\n      dup5\n        /* \"#utility.yul\":10604:10627   */\n      sub\n        /* \"#utility.yul\":10600:10632   */\n      slt\n        /* \"#utility.yul\":10597:10649   */\n      iszero\n      tag_335\n      jumpi\n        /* \"#utility.yul\":10645:10646   */\n      0x00\n        /* \"#utility.yul\":10642:10643   */\n      dup1\n        /* \"#utility.yul\":10635:10647   */\n      revert\n        /* \"#utility.yul\":10597:10649   */\n    tag_335:\n        /* \"#utility.yul\":10677:10686   */\n      dup2\n        /* \"#utility.yul\":10671:10687   */\n      mload\n        /* \"#utility.yul\":10696:10724   */\n      tag_269\n        /* \"#utility.yul\":10718:10723   */\n      dup2\n        /* \"#utility.yul\":10696:10724   */\n      tag_245\n      jump\t// in\n        /* \"#utility.yul\":11107:11234   */\n    tag_190:\n        /* \"#utility.yul\":11168:11178   */\n      0x4e487b71\n        /* \"#utility.yul\":11163:11166   */\n      0xe0\n        /* \"#utility.yul\":11159:11179   */\n      shl\n        /* \"#utility.yul\":11156:11157   */\n      0x00\n        /* \"#utility.yul\":11149:11180   */\n      mstore\n        /* \"#utility.yul\":11199:11203   */\n      0x32\n        /* \"#utility.yul\":11196:11197   */\n      0x04\n        /* \"#utility.yul\":11189:11204   */\n      mstore\n        /* \"#utility.yul\":11223:11227   */\n      0x24\n        /* \"#utility.yul\":11220:11221   */\n      0x00\n        /* \"#utility.yul\":11213:11228   */\n      revert\n\n    auxdata: 0xa26469706673582212209126b13ba023d5b7703e340ec45974522efc76c530b8aacbe8321e536e009d5264736f6c634300080e0033\n}\n",
				"bytecode": {
					"linkReferences": {},
					"object": "60806040526001600055662386f26fc1000060035534801561002057600080fd5b50600180546001600160a01b031916331790556117fc806100426000396000f3fe6080604052600436106100a75760003560e01c806391b7f5ed1161006457806391b7f5ed146101ac578063a035b1fe146101cc578063a1538bde146101f0578063a1db978214610210578063e3a5152314610230578063f3e414f81461024357600080fd5b8063107046bd146100ac578063230abfd0146100ea57806324600fc3146100ff578063429b62e5146101145780634b0bddd2146101545780638da5cb5b14610174575b600080fd5b3480156100b857600080fd5b506100cc6100c73660046111df565b610263565b6040516100e199989796959493929190611245565b60405180910390f35b6100fd6100f8366004611426565b610452565b005b34801561010b57600080fd5b506100fd61067d565b34801561012057600080fd5b5061014461012f366004611501565b60026020526000908152604090205460ff1681565b60405190151581526020016100e1565b34801561016057600080fd5b506100fd61016f36600461152a565b6106f0565b34801561018057600080fd5b50600154610194906001600160a01b031681565b6040516001600160a01b0390911681526020016100e1565b3480156101b857600080fd5b506100fd6101c73660046111df565b61075f565b3480156101d857600080fd5b506101e260035481565b6040519081526020016100e1565b3480156101fc57600080fd5b506100fd61020b366004611561565b6107a8565b34801561021c57600080fd5b506100fd61022b3660046115d6565b61085b565b6100fd61023e366004611600565b610918565b34801561024f57600080fd5b506100fd61025e3660046115d6565b610f90565b60046020526000908152604090208054600182018054919291610285906116ca565b80601f01602080910402602001604051908101604052809291908181526020018280546102b1906116ca565b80156102fe5780601f106102d3576101008083540402835291602001916102fe565b820191906000526020600020905b8154815290600101906020018083116102e157829003601f168201915b505050505090806002018054610313906116ca565b80601f016020809104026020016040519081016040528092919081815260200182805461033f906116ca565b801561038c5780601f106103615761010080835404028352916020019161038c565b820191906000526020600020905b81548152906001019060200180831161036f57829003601f168201915b5050505050908060030154908060040154908060050180546103ad906116ca565b80601f01602080910402602001604051908101604052809291908181526020018280546103d9906116ca565b80156104265780601f106103fb57610100808354040283529160200191610426565b820191906000526020600020905b81548152906001019060200180831161040957829003601f168201915b50505050600783015460099093015491926001600160a01b03169160ff80821692506101009091041689565b60035434101561049f5760405162461bcd60e51b81526020600482015260136024820152720c8d2c840dcdee840e6cadcc840cadcdeeaced606b1b60448201526064015b60405180910390fd5b6105096040518061016001604052806000815260200160608152602001606081526020016000815260200160008152602001606081526020016060815260200160006001600160a01b03168152602001606081526020016000151581526020016000151581525090565b6000805480835260208084018a815260408086018b905260608087018b9052608087018a905260a0870189905260c087018890523360e08801526101008701819052600161012088018190526101408801879052948652600484529420855181559051805186949293610580938501920190611041565b506040820151805161059c916002840191602090910190611041565b50606082015160038201556080820151600482015560a082015180516105cc916005840191602090910190611041565b5060c082015180516105e89160068401916020909101906110c5565b5060e08201516007820180546001600160a01b0319166001600160a01b03909216919091179055610100820151805161062b91600884019160209091019061111e565b50610120820151600990910180546101409093015115156101000261ff00199215159290921661ffff199093169290921717905560008054908061066e83611704565b91905055505050505050505050565b6001546001600160a01b03163314806106a557503360009081526002602052604090205460ff165b6106c15760405162461bcd60e51b81526004016104969061172b565b60405133904780156108fc02916000818181858888f193505050501580156106ed573d6000803e3d6000fd5b50565b6001546001600160a01b031633148061071857503360009081526002602052604090205460ff165b6107345760405162461bcd60e51b81526004016104969061172b565b6001600160a01b03919091166000908152600260205260409020805460ff1916911515919091179055565b6001546001600160a01b031633148061078757503360009081526002602052604090205460ff165b6107a35760405162461bcd60e51b81526004016104969061172b565b600355565b6001546001600160a01b03163314806107d057503360009081526002602052604090205460ff165b6107ec5760405162461bcd60e51b81526004016104969061172b565b604051637921219560e11b815284906001600160a01b0382169063f242432a90610822903090339089908990899060040161174e565b600060405180830381600087803b15801561083c57600080fd5b505af1158015610850573d6000803e3d6000fd5b505050505050505050565b6001546001600160a01b031633148061088357503360009081526002602052604090205460ff165b61089f5760405162461bcd60e51b81526004016104969061172b565b60405163a9059cbb60e01b81523360048201526024810182905282906001600160a01b0382169063a9059cbb906044016020604051808303816000875af11580156108ee573d6000803e3d6000fd5b505050506040513d601f19601f820116820180604052508101906109129190611793565b50505050565b6003543410156109605760405162461bcd60e51b81526020600482015260136024820152720c8d2c840dcdee840e6cadcc840cadcdeeaced606b1b6044820152606401610496565b600087815260046020908152604080832081516101608101909252805482526001810180548c959484019190610995906116ca565b80601f01602080910402602001604051908101604052809291908181526020018280546109c1906116ca565b8015610a0e5780601f106109e357610100808354040283529160200191610a0e565b820191906000526020600020905b8154815290600101906020018083116109f157829003601f168201915b50505050508152602001600282018054610a27906116ca565b80601f0160208091040260200160405190810160405280929190818152602001828054610a53906116ca565b8015610aa05780601f10610a7557610100808354040283529160200191610aa0565b820191906000526020600020905b815481529060010190602001808311610a8357829003601f168201915b505050505081526020016003820154815260200160048201548152602001600582018054610acd906116ca565b80601f0160208091040260200160405190810160405280929190818152602001828054610af9906116ca565b8015610b465780601f10610b1b57610100808354040283529160200191610b46565b820191906000526020600020905b815481529060010190602001808311610b2957829003601f168201915b5050505050815260200160068201805480602002602001604051908101604052809291908181526020016000905b82821015610c20578382906000526020600020018054610b93906116ca565b80601f0160208091040260200160405190810160405280929190818152602001828054610bbf906116ca565b8015610c0c5780601f10610be157610100808354040283529160200191610c0c565b820191906000526020600020905b815481529060010190602001808311610bef57829003601f168201915b505050505081526020019060010190610b74565b5050509082525060078201546001600160a01b03166020808301919091526008830180546040805182850281018501825282815294019392830182828015610c9157602002820191906000526020600020905b81546001600160a01b03168152600190910190602001808311610c73575b50505091835250506009919091015460ff8082161515602084015261010090910416151560409091015260e08101519091506001600160a01b03163303610db257600080548a82526004602090815260409092209081558951610cfc926001909201918b0190611041565b5060008981526004602090815260409091208851610d22926002909201918a0190611041565b506000898152600460208181526040909220600381018990559081018790558551610d5592600590920191870190611041565b5060008981526004602090815260409091208451610d7b926006909201918601906110c5565b5060008981526004602052604090206007810180546001600160a01b03191633179055600901805461ffff19166001179055610850565b806101400151610dfa5760405162461bcd60e51b815260206004820152601360248201527218d85b9b9bdd0819591a5d081c1c9bda9958dd606a1b6044820152606401610496565b6000805b82610100015151811015610e655760008361010001518281518110610e2557610e256117b0565b60200260200101519050806001600160a01b0316336001600160a01b031603610e52576001925050610e65565b5080610e5d81611704565b915050610dfe565b5080610ea95760405162461bcd60e51b815260206004820152601360248201527218d85b9b9bdd0819591a5d081c1c9bda9958dd606a1b6044820152606401610496565b600080548b82526004602090815260409092209081558a51610ed3926001909201918c0190611041565b5060008a81526004602090815260409091208951610ef9926002909201918b0190611041565b5060008a8152600460208181526040909220600381018a90559081018890558651610f2c92600590920191880190611041565b5060008a81526004602090815260409091208551610f52926006909201918701906110c5565b505060008981526004602052604090206007810180546001600160a01b03191633179055600901805461ffff19166001179055505050505050505050565b6001546001600160a01b0316331480610fb857503360009081526002602052604090205460ff165b610fd45760405162461bcd60e51b81526004016104969061172b565b604051632142170760e11b81523060048201523360248201526044810182905282906001600160a01b038216906342842e0e90606401600060405180830381600087803b15801561102457600080fd5b505af1158015611038573d6000803e3d6000fd5b50505050505050565b82805461104d906116ca565b90600052602060002090601f01602090048101928261106f57600085556110b5565b82601f1061108857805160ff19168380011785556110b5565b828001600101855582156110b5579182015b828111156110b557825182559160200191906001019061109a565b506110c1929150611173565b5090565b828054828255906000526020600020908101928215611112579160200282015b828111156111125782518051611102918491602090910190611041565b50916020019190600101906110e5565b506110c1929150611188565b8280548282559060005260206000209081019282156110b5579160200282015b828111156110b557825182546001600160a01b0319166001600160a01b0390911617825560209092019160019091019061113e565b5b808211156110c15760008155600101611174565b808211156110c157600061119c82826111a5565b50600101611188565b5080546111b1906116ca565b6000825580601f106111c1575050565b601f0160209004906000526020600020908101906106ed9190611173565b6000602082840312156111f157600080fd5b5035919050565b6000815180845260005b8181101561121e57602081850181015186830182015201611202565b81811115611230576000602083870101525b50601f01601f19169290920160200192915050565b60006101208b835280602084015261125f8184018c6111f8565b90508281036040840152611273818b6111f8565b905088606084015287608084015282810360a084015261129381886111f8565b6001600160a01b039690961660c0840152505091151560e08301521515610100909101529695505050505050565b634e487b7160e01b600052604160045260246000fd5b604051601f8201601f1916810167ffffffffffffffff81118282101715611300576113006112c1565b604052919050565b600067ffffffffffffffff831115611322576113226112c1565b611335601f8401601f19166020016112d7565b905082815283838301111561134957600080fd5b828260208301376000602084830101529392505050565b600082601f83011261137157600080fd5b61138083833560208501611308565b9392505050565b600082601f83011261139857600080fd5b8135602067ffffffffffffffff808311156113b5576113b56112c1565b8260051b6113c48382016112d7565b93845285810183019383810190888611156113de57600080fd5b84880192505b8583101561141a578235848111156113fc5760008081fd5b61140a8a87838c0101611360565b83525091840191908401906113e4565b98975050505050505050565b60008060008060008060c0878903121561143f57600080fd5b863567ffffffffffffffff8082111561145757600080fd5b6114638a838b01611360565b9750602089013591508082111561147957600080fd5b6114858a838b01611360565b9650604089013595506060890135945060808901359150808211156114a957600080fd5b6114b58a838b01611360565b935060a08901359150808211156114cb57600080fd5b506114d889828a01611387565b9150509295509295509295565b80356001600160a01b03811681146114fc57600080fd5b919050565b60006020828403121561151357600080fd5b611380826114e5565b80151581146106ed57600080fd5b6000806040838503121561153d57600080fd5b611546836114e5565b915060208301356115568161151c565b809150509250929050565b6000806000806080858703121561157757600080fd5b611580856114e5565b93506020850135925060408501359150606085013567ffffffffffffffff8111156115aa57600080fd5b8501601f810187136115bb57600080fd5b6115ca87823560208401611308565b91505092959194509250565b600080604083850312156115e957600080fd5b6115f2836114e5565b946020939093013593505050565b600080600080600080600060e0888a03121561161b57600080fd5b87359650602088013567ffffffffffffffff8082111561163a57600080fd5b6116468b838c01611360565b975060408a013591508082111561165c57600080fd5b6116688b838c01611360565b965060608a0135955060808a0135945060a08a013591508082111561168c57600080fd5b6116988b838c01611360565b935060c08a01359150808211156116ae57600080fd5b506116bb8a828b01611387565b91505092959891949750929550565b600181811c908216806116de57607f821691505b6020821081036116fe57634e487b7160e01b600052602260045260246000fd5b50919050565b60006001820161172457634e487b7160e01b600052601160045260246000fd5b5060010190565b6020808252600990820152683737ba1030b236b4b760b91b604082015260600190565b6001600160a01b03868116825285166020820152604081018490526060810183905260a060808201819052600090611788908301846111f8565b979650505050505050565b6000602082840312156117a557600080fd5b81516113808161151c565b634e487b7160e01b600052603260045260246000fdfea26469706673582212209126b13ba023d5b7703e340ec45974522efc76c530b8aacbe8321e536e009d5264736f6c634300080e0033",
					"opcodes": "PUSH1 0x80 PUSH1 0x40 MSTORE PUSH1 0x1 PUSH1 0x0 SSTORE PUSH7 0x2386F26FC10000 PUSH1 0x3 SSTORE CALLVALUE DUP1 ISZERO PUSH2 0x20 JUMPI PUSH1 0x0 DUP1 REVERT JUMPDEST POP PUSH1 0x1 DUP1 SLOAD PUSH1 0x1 PUSH1 0x1 PUSH1 0xA0 SHL SUB NOT AND CALLER OR SWAP1 SSTORE PUSH2 0x17FC DUP1 PUSH2 0x42 PUSH1 0x0 CODECOPY PUSH1 0x0 RETURN INVALID PUSH1 0x80 PUSH1 0x40 MSTORE PUSH1 0x4 CALLDATASIZE LT PUSH2 0xA7 JUMPI PUSH1 0x0 CALLDATALOAD PUSH1 0xE0 SHR DUP1 PUSH4 0x91B7F5ED GT PUSH2 0x64 JUMPI DUP1 PUSH4 0x91B7F5ED EQ PUSH2 0x1AC JUMPI DUP1 PUSH4 0xA035B1FE EQ PUSH2 0x1CC JUMPI DUP1 PUSH4 0xA1538BDE EQ PUSH2 0x1F0 JUMPI DUP1 PUSH4 0xA1DB9782 EQ PUSH2 0x210 JUMPI DUP1 PUSH4 0xE3A51523 EQ PUSH2 0x230 JUMPI DUP1 PUSH4 0xF3E414F8 EQ PUSH2 0x243 JUMPI PUSH1 0x0 DUP1 REVERT JUMPDEST DUP1 PUSH4 0x107046BD EQ PUSH2 0xAC JUMPI DUP1 PUSH4 0x230ABFD0 EQ PUSH2 0xEA JUMPI DUP1 PUSH4 0x24600FC3 EQ PUSH2 0xFF JUMPI DUP1 PUSH4 0x429B62E5 EQ PUSH2 0x114 JUMPI DUP1 PUSH4 0x4B0BDDD2 EQ PUSH2 0x154 JUMPI DUP1 PUSH4 0x8DA5CB5B EQ PUSH2 0x174 JUMPI JUMPDEST PUSH1 0x0 DUP1 REVERT JUMPDEST CALLVALUE DUP1 ISZERO PUSH2 0xB8 JUMPI PUSH1 0x0 DUP1 REVERT JUMPDEST POP PUSH2 0xCC PUSH2 0xC7 CALLDATASIZE PUSH1 0x4 PUSH2 0x11DF JUMP JUMPDEST PUSH2 0x263 JUMP JUMPDEST PUSH1 0x40 MLOAD PUSH2 0xE1 SWAP10 SWAP9 SWAP8 SWAP7 SWAP6 SWAP5 SWAP4 SWAP3 SWAP2 SWAP1 PUSH2 0x1245 JUMP JUMPDEST PUSH1 0x40 MLOAD DUP1 SWAP2 SUB SWAP1 RETURN JUMPDEST PUSH2 0xFD PUSH2 0xF8 CALLDATASIZE PUSH1 0x4 PUSH2 0x1426 JUMP JUMPDEST PUSH2 0x452 JUMP JUMPDEST STOP JUMPDEST CALLVALUE DUP1 ISZERO PUSH2 0x10B JUMPI PUSH1 0x0 DUP1 REVERT JUMPDEST POP PUSH2 0xFD PUSH2 0x67D JUMP JUMPDEST CALLVALUE DUP1 ISZERO PUSH2 0x120 JUMPI PUSH1 0x0 DUP1 REVERT JUMPDEST POP PUSH2 0x144 PUSH2 0x12F CALLDATASIZE PUSH1 0x4 PUSH2 0x1501 JUMP JUMPDEST PUSH1 0x2 PUSH1 0x20 MSTORE PUSH1 0x0 SWAP1 DUP2 MSTORE PUSH1 0x40 SWAP1 KECCAK256 SLOAD PUSH1 0xFF AND DUP2 JUMP JUMPDEST PUSH1 0x40 MLOAD SWAP1 ISZERO ISZERO DUP2 MSTORE PUSH1 0x20 ADD PUSH2 0xE1 JUMP JUMPDEST CALLVALUE DUP1 ISZERO PUSH2 0x160 JUMPI PUSH1 0x0 DUP1 REVERT JUMPDEST POP PUSH2 0xFD PUSH2 0x16F CALLDATASIZE PUSH1 0x4 PUSH2 0x152A JUMP JUMPDEST PUSH2 0x6F0 JUMP JUMPDEST CALLVALUE DUP1 ISZERO PUSH2 0x180 JUMPI PUSH1 0x0 DUP1 REVERT JUMPDEST POP PUSH1 0x1 SLOAD PUSH2 0x194 SWAP1 PUSH1 0x1 PUSH1 0x1 PUSH1 0xA0 SHL SUB AND DUP2 JUMP JUMPDEST PUSH1 0x40 MLOAD PUSH1 0x1 PUSH1 0x1 PUSH1 0xA0 SHL SUB SWAP1 SWAP2 AND DUP2 MSTORE PUSH1 0x20 ADD PUSH2 0xE1 JUMP JUMPDEST CALLVALUE DUP1 ISZERO PUSH2 0x1B8 JUMPI PUSH1 0x0 DUP1 REVERT JUMPDEST POP PUSH2 0xFD PUSH2 0x1C7 CALLDATASIZE PUSH1 0x4 PUSH2 0x11DF JUMP JUMPDEST PUSH2 0x75F JUMP JUMPDEST CALLVALUE DUP1 ISZERO PUSH2 0x1D8 JUMPI PUSH1 0x0 DUP1 REVERT JUMPDEST POP PUSH2 0x1E2 PUSH1 0x3 SLOAD DUP2 JUMP JUMPDEST PUSH1 0x40 MLOAD SWAP1 DUP2 MSTORE PUSH1 0x20 ADD PUSH2 0xE1 JUMP JUMPDEST CALLVALUE DUP1 ISZERO PUSH2 0x1FC JUMPI PUSH1 0x0 DUP1 REVERT JUMPDEST POP PUSH2 0xFD PUSH2 0x20B CALLDATASIZE PUSH1 0x4 PUSH2 0x1561 JUMP JUMPDEST PUSH2 0x7A8 JUMP JUMPDEST CALLVALUE DUP1 ISZERO PUSH2 0x21C JUMPI PUSH1 0x0 DUP1 REVERT JUMPDEST POP PUSH2 0xFD PUSH2 0x22B CALLDATASIZE PUSH1 0x4 PUSH2 0x15D6 JUMP JUMPDEST PUSH2 0x85B JUMP JUMPDEST PUSH2 0xFD PUSH2 0x23E CALLDATASIZE PUSH1 0x4 PUSH2 0x1600 JUMP JUMPDEST PUSH2 0x918 JUMP JUMPDEST CALLVALUE DUP1 ISZERO PUSH2 0x24F JUMPI PUSH1 0x0 DUP1 REVERT JUMPDEST POP PUSH2 0xFD PUSH2 0x25E CALLDATASIZE PUSH1 0x4 PUSH2 0x15D6 JUMP JUMPDEST PUSH2 0xF90 JUMP JUMPDEST PUSH1 0x4 PUSH1 0x20 MSTORE PUSH1 0x0 SWAP1 DUP2 MSTORE PUSH1 0x40 SWAP1 KECCAK256 DUP1 SLOAD PUSH1 0x1 DUP3 ADD DUP1 SLOAD SWAP2 SWAP3 SWAP2 PUSH2 0x285 SWAP1 PUSH2 0x16CA JUMP JUMPDEST DUP1 PUSH1 0x1F ADD PUSH1 0x20 DUP1 SWAP2 DIV MUL PUSH1 0x20 ADD PUSH1 0x40 MLOAD SWAP1 DUP2 ADD PUSH1 0x40 MSTORE DUP1 SWAP3 SWAP2 SWAP1 DUP2 DUP2 MSTORE PUSH1 0x20 ADD DUP3 DUP1 SLOAD PUSH2 0x2B1 SWAP1 PUSH2 0x16CA JUMP JUMPDEST DUP1 ISZERO PUSH2 0x2FE JUMPI DUP1 PUSH1 0x1F LT PUSH2 0x2D3 JUMPI PUSH2 0x100 DUP1 DUP4 SLOAD DIV MUL DUP4 MSTORE SWAP2 PUSH1 0x20 ADD SWAP2 PUSH2 0x2FE JUMP JUMPDEST DUP3 ADD SWAP2 SWAP1 PUSH1 0x0 MSTORE PUSH1 0x20 PUSH1 0x0 KECCAK256 SWAP1 JUMPDEST DUP2 SLOAD DUP2 MSTORE SWAP1 PUSH1 0x1 ADD SWAP1 PUSH1 0x20 ADD DUP1 DUP4 GT PUSH2 0x2E1 JUMPI DUP3 SWAP1 SUB PUSH1 0x1F AND DUP3 ADD SWAP2 JUMPDEST POP POP POP POP POP SWAP1 DUP1 PUSH1 0x2 ADD DUP1 SLOAD PUSH2 0x313 SWAP1 PUSH2 0x16CA JUMP JUMPDEST DUP1 PUSH1 0x1F ADD PUSH1 0x20 DUP1 SWAP2 DIV MUL PUSH1 0x20 ADD PUSH1 0x40 MLOAD SWAP1 DUP2 ADD PUSH1 0x40 MSTORE DUP1 SWAP3 SWAP2 SWAP1 DUP2 DUP2 MSTORE PUSH1 0x20 ADD DUP3 DUP1 SLOAD PUSH2 0x33F SWAP1 PUSH2 0x16CA JUMP JUMPDEST DUP1 ISZERO PUSH2 0x38C JUMPI DUP1 PUSH1 0x1F LT PUSH2 0x361 JUMPI PUSH2 0x100 DUP1 DUP4 SLOAD DIV MUL DUP4 MSTORE SWAP2 PUSH1 0x20 ADD SWAP2 PUSH2 0x38C JUMP JUMPDEST DUP3 ADD SWAP2 SWAP1 PUSH1 0x0 MSTORE PUSH1 0x20 PUSH1 0x0 KECCAK256 SWAP1 JUMPDEST DUP2 SLOAD DUP2 MSTORE SWAP1 PUSH1 0x1 ADD SWAP1 PUSH1 0x20 ADD DUP1 DUP4 GT PUSH2 0x36F JUMPI DUP3 SWAP1 SUB PUSH1 0x1F AND DUP3 ADD SWAP2 JUMPDEST POP POP POP POP POP SWAP1 DUP1 PUSH1 0x3 ADD SLOAD SWAP1 DUP1 PUSH1 0x4 ADD SLOAD SWAP1 DUP1 PUSH1 0x5 ADD DUP1 SLOAD PUSH2 0x3AD SWAP1 PUSH2 0x16CA JUMP JUMPDEST DUP1 PUSH1 0x1F ADD PUSH1 0x20 DUP1 SWAP2 DIV MUL PUSH1 0x20 ADD PUSH1 0x40 MLOAD SWAP1 DUP2 ADD PUSH1 0x40 MSTORE DUP1 SWAP3 SWAP2 SWAP1 DUP2 DUP2 MSTORE PUSH1 0x20 ADD DUP3 DUP1 SLOAD PUSH2 0x3D9 SWAP1 PUSH2 0x16CA JUMP JUMPDEST DUP1 ISZERO PUSH2 0x426 JUMPI DUP1 PUSH1 0x1F LT PUSH2 0x3FB JUMPI PUSH2 0x100 DUP1 DUP4 SLOAD DIV MUL DUP4 MSTORE SWAP2 PUSH1 0x20 ADD SWAP2 PUSH2 0x426 JUMP JUMPDEST DUP3 ADD SWAP2 SWAP1 PUSH1 0x0 MSTORE PUSH1 0x20 PUSH1 0x0 KECCAK256 SWAP1 JUMPDEST DUP2 SLOAD DUP2 MSTORE SWAP1 PUSH1 0x1 ADD SWAP1 PUSH1 0x20 ADD DUP1 DUP4 GT PUSH2 0x409 JUMPI DUP3 SWAP1 SUB PUSH1 0x1F AND DUP3 ADD SWAP2 JUMPDEST POP POP POP POP PUSH1 0x7 DUP4 ADD SLOAD PUSH1 0x9 SWAP1 SWAP4 ADD SLOAD SWAP2 SWAP3 PUSH1 0x1 PUSH1 0x1 PUSH1 0xA0 SHL SUB AND SWAP2 PUSH1 0xFF DUP1 DUP3 AND SWAP3 POP PUSH2 0x100 SWAP1 SWAP2 DIV AND DUP10 JUMP JUMPDEST PUSH1 0x3 SLOAD CALLVALUE LT ISZERO PUSH2 0x49F JUMPI PUSH1 0x40 MLOAD PUSH3 0x461BCD PUSH1 0xE5 SHL DUP2 MSTORE PUSH1 0x20 PUSH1 0x4 DUP3 ADD MSTORE PUSH1 0x13 PUSH1 0x24 DUP3 ADD MSTORE PUSH19 0xC8D2C840DCDEE840E6CADCC840CADCDEEACED PUSH1 0x6B SHL PUSH1 0x44 DUP3 ADD MSTORE PUSH1 0x64 ADD JUMPDEST PUSH1 0x40 MLOAD DUP1 SWAP2 SUB SWAP1 REVERT JUMPDEST PUSH2 0x509 PUSH1 0x40 MLOAD DUP1 PUSH2 0x160 ADD PUSH1 0x40 MSTORE DUP1 PUSH1 0x0 DUP2 MSTORE PUSH1 0x20 ADD PUSH1 0x60 DUP2 MSTORE PUSH1 0x20 ADD PUSH1 0x60 DUP2 MSTORE PUSH1 0x20 ADD PUSH1 0x0 DUP2 MSTORE PUSH1 0x20 ADD PUSH1 0x0 DUP2 MSTORE PUSH1 0x20 ADD PUSH1 0x60 DUP2 MSTORE PUSH1 0x20 ADD PUSH1 0x60 DUP2 MSTORE PUSH1 0x20 ADD PUSH1 0x0 PUSH1 0x1 PUSH1 0x1 PUSH1 0xA0 SHL SUB AND DUP2 MSTORE PUSH1 0x20 ADD PUSH1 0x60 DUP2 MSTORE PUSH1 0x20 ADD PUSH1 0x0 ISZERO ISZERO DUP2 MSTORE PUSH1 0x20 ADD PUSH1 0x0 ISZERO ISZERO DUP2 MSTORE POP SWAP1 JUMP JUMPDEST PUSH1 0x0 DUP1 SLOAD DUP1 DUP4 MSTORE PUSH1 0x20 DUP1 DUP5 ADD DUP11 DUP2 MSTORE PUSH1 0x40 DUP1 DUP7 ADD DUP12 SWAP1 MSTORE PUSH1 0x60 DUP1 DUP8 ADD DUP12 SWAP1 MSTORE PUSH1 0x80 DUP8 ADD DUP11 SWAP1 MSTORE PUSH1 0xA0 DUP8 ADD DUP10 SWAP1 MSTORE PUSH1 0xC0 DUP8 ADD DUP9 SWAP1 MSTORE CALLER PUSH1 0xE0 DUP9 ADD MSTORE PUSH2 0x100 DUP8 ADD DUP2 SWAP1 MSTORE PUSH1 0x1 PUSH2 0x120 DUP9 ADD DUP2 SWAP1 MSTORE PUSH2 0x140 DUP9 ADD DUP8 SWAP1 MSTORE SWAP5 DUP7 MSTORE PUSH1 0x4 DUP5 MSTORE SWAP5 KECCAK256 DUP6 MLOAD DUP2 SSTORE SWAP1 MLOAD DUP1 MLOAD DUP7 SWAP5 SWAP3 SWAP4 PUSH2 0x580 SWAP4 DUP6 ADD SWAP3 ADD SWAP1 PUSH2 0x1041 JUMP JUMPDEST POP PUSH1 0x40 DUP3 ADD MLOAD DUP1 MLOAD PUSH2 0x59C SWAP2 PUSH1 0x2 DUP5 ADD SWAP2 PUSH1 0x20 SWAP1 SWAP2 ADD SWAP1 PUSH2 0x1041 JUMP JUMPDEST POP PUSH1 0x60 DUP3 ADD MLOAD PUSH1 0x3 DUP3 ADD SSTORE PUSH1 0x80 DUP3 ADD MLOAD PUSH1 0x4 DUP3 ADD SSTORE PUSH1 0xA0 DUP3 ADD MLOAD DUP1 MLOAD PUSH2 0x5CC SWAP2 PUSH1 0x5 DUP5 ADD SWAP2 PUSH1 0x20 SWAP1 SWAP2 ADD SWAP1 PUSH2 0x1041 JUMP JUMPDEST POP PUSH1 0xC0 DUP3 ADD MLOAD DUP1 MLOAD PUSH2 0x5E8 SWAP2 PUSH1 0x6 DUP5 ADD SWAP2 PUSH1 0x20 SWAP1 SWAP2 ADD SWAP1 PUSH2 0x10C5 JUMP JUMPDEST POP PUSH1 0xE0 DUP3 ADD MLOAD PUSH1 0x7 DUP3 ADD DUP1 SLOAD PUSH1 0x1 PUSH1 0x1 PUSH1 0xA0 SHL SUB NOT AND PUSH1 0x1 PUSH1 0x1 PUSH1 0xA0 SHL SUB SWAP1 SWAP3 AND SWAP2 SWAP1 SWAP2 OR SWAP1 SSTORE PUSH2 0x100 DUP3 ADD MLOAD DUP1 MLOAD PUSH2 0x62B SWAP2 PUSH1 0x8 DUP5 ADD SWAP2 PUSH1 0x20 SWAP1 SWAP2 ADD SWAP1 PUSH2 0x111E JUMP JUMPDEST POP PUSH2 0x120 DUP3 ADD MLOAD PUSH1 0x9 SWAP1 SWAP2 ADD DUP1 SLOAD PUSH2 0x140 SWAP1 SWAP4 ADD MLOAD ISZERO ISZERO PUSH2 0x100 MUL PUSH2 0xFF00 NOT SWAP3 ISZERO ISZERO SWAP3 SWAP1 SWAP3 AND PUSH2 0xFFFF NOT SWAP1 SWAP4 AND SWAP3 SWAP1 SWAP3 OR OR SWAP1 SSTORE PUSH1 0x0 DUP1 SLOAD SWAP1 DUP1 PUSH2 0x66E DUP4 PUSH2 0x1704 JUMP JUMPDEST SWAP2 SWAP1 POP SSTORE POP POP POP POP POP POP POP POP POP JUMP JUMPDEST PUSH1 0x1 SLOAD PUSH1 0x1 PUSH1 0x1 PUSH1 0xA0 SHL SUB AND CALLER EQ DUP1 PUSH2 0x6A5 JUMPI POP CALLER PUSH1 0x0 SWAP1 DUP2 MSTORE PUSH1 0x2 PUSH1 0x20 MSTORE PUSH1 0x40 SWAP1 KECCAK256 SLOAD PUSH1 0xFF AND JUMPDEST PUSH2 0x6C1 JUMPI PUSH1 0x40 MLOAD PUSH3 0x461BCD PUSH1 0xE5 SHL DUP2 MSTORE PUSH1 0x4 ADD PUSH2 0x496 SWAP1 PUSH2 0x172B JUMP JUMPDEST PUSH1 0x40 MLOAD CALLER SWAP1 SELFBALANCE DUP1 ISZERO PUSH2 0x8FC MUL SWAP2 PUSH1 0x0 DUP2 DUP2 DUP2 DUP6 DUP9 DUP9 CALL SWAP4 POP POP POP POP ISZERO DUP1 ISZERO PUSH2 0x6ED JUMPI RETURNDATASIZE PUSH1 0x0 DUP1 RETURNDATACOPY RETURNDATASIZE PUSH1 0x0 REVERT JUMPDEST POP JUMP JUMPDEST PUSH1 0x1 SLOAD PUSH1 0x1 PUSH1 0x1 PUSH1 0xA0 SHL SUB AND CALLER EQ DUP1 PUSH2 0x718 JUMPI POP CALLER PUSH1 0x0 SWAP1 DUP2 MSTORE PUSH1 0x2 PUSH1 0x20 MSTORE PUSH1 0x40 SWAP1 KECCAK256 SLOAD PUSH1 0xFF AND JUMPDEST PUSH2 0x734 JUMPI PUSH1 0x40 MLOAD PUSH3 0x461BCD PUSH1 0xE5 SHL DUP2 MSTORE PUSH1 0x4 ADD PUSH2 0x496 SWAP1 PUSH2 0x172B JUMP JUMPDEST PUSH1 0x1 PUSH1 0x1 PUSH1 0xA0 SHL SUB SWAP2 SWAP1 SWAP2 AND PUSH1 0x0 SWAP1 DUP2 MSTORE PUSH1 0x2 PUSH1 0x20 MSTORE PUSH1 0x40 SWAP1 KECCAK256 DUP1 SLOAD PUSH1 0xFF NOT AND SWAP2 ISZERO ISZERO SWAP2 SWAP1 SWAP2 OR SWAP1 SSTORE JUMP JUMPDEST PUSH1 0x1 SLOAD PUSH1 0x1 PUSH1 0x1 PUSH1 0xA0 SHL SUB AND CALLER EQ DUP1 PUSH2 0x787 JUMPI POP CALLER PUSH1 0x0 SWAP1 DUP2 MSTORE PUSH1 0x2 PUSH1 0x20 MSTORE PUSH1 0x40 SWAP1 KECCAK256 SLOAD PUSH1 0xFF AND JUMPDEST PUSH2 0x7A3 JUMPI PUSH1 0x40 MLOAD PUSH3 0x461BCD PUSH1 0xE5 SHL DUP2 MSTORE PUSH1 0x4 ADD PUSH2 0x496 SWAP1 PUSH2 0x172B JUMP JUMPDEST PUSH1 0x3 SSTORE JUMP JUMPDEST PUSH1 0x1 SLOAD PUSH1 0x1 PUSH1 0x1 PUSH1 0xA0 SHL SUB AND CALLER EQ DUP1 PUSH2 0x7D0 JUMPI POP CALLER PUSH1 0x0 SWAP1 DUP2 MSTORE PUSH1 0x2 PUSH1 0x20 MSTORE PUSH1 0x40 SWAP1 KECCAK256 SLOAD PUSH1 0xFF AND JUMPDEST PUSH2 0x7EC JUMPI PUSH1 0x40 MLOAD PUSH3 0x461BCD PUSH1 0xE5 SHL DUP2 MSTORE PUSH1 0x4 ADD PUSH2 0x496 SWAP1 PUSH2 0x172B JUMP JUMPDEST PUSH1 0x40 MLOAD PUSH4 0x79212195 PUSH1 0xE1 SHL DUP2 MSTORE DUP5 SWAP1 PUSH1 0x1 PUSH1 0x1 PUSH1 0xA0 SHL SUB DUP3 AND SWAP1 PUSH4 0xF242432A SWAP1 PUSH2 0x822 SWAP1 ADDRESS SWAP1 CALLER SWAP1 DUP10 SWAP1 DUP10 SWAP1 DUP10 SWAP1 PUSH1 0x4 ADD PUSH2 0x174E JUMP JUMPDEST PUSH1 0x0 PUSH1 0x40 MLOAD DUP1 DUP4 SUB DUP2 PUSH1 0x0 DUP8 DUP1 EXTCODESIZE ISZERO DUP1 ISZERO PUSH2 0x83C JUMPI PUSH1 0x0 DUP1 REVERT JUMPDEST POP GAS CALL ISZERO DUP1 ISZERO PUSH2 0x850 JUMPI RETURNDATASIZE PUSH1 0x0 DUP1 RETURNDATACOPY RETURNDATASIZE PUSH1 0x0 REVERT JUMPDEST POP POP POP POP POP POP POP POP POP JUMP JUMPDEST PUSH1 0x1 SLOAD PUSH1 0x1 PUSH1 0x1 PUSH1 0xA0 SHL SUB AND CALLER EQ DUP1 PUSH2 0x883 JUMPI POP CALLER PUSH1 0x0 SWAP1 DUP2 MSTORE PUSH1 0x2 PUSH1 0x20 MSTORE PUSH1 0x40 SWAP1 KECCAK256 SLOAD PUSH1 0xFF AND JUMPDEST PUSH2 0x89F JUMPI PUSH1 0x40 MLOAD PUSH3 0x461BCD PUSH1 0xE5 SHL DUP2 MSTORE PUSH1 0x4 ADD PUSH2 0x496 SWAP1 PUSH2 0x172B JUMP JUMPDEST PUSH1 0x40 MLOAD PUSH4 0xA9059CBB PUSH1 0xE0 SHL DUP2 MSTORE CALLER PUSH1 0x4 DUP3 ADD MSTORE PUSH1 0x24 DUP2 ADD DUP3 SWAP1 MSTORE DUP3 SWAP1 PUSH1 0x1 PUSH1 0x1 PUSH1 0xA0 SHL SUB DUP3 AND SWAP1 PUSH4 0xA9059CBB SWAP1 PUSH1 0x44 ADD PUSH1 0x20 PUSH1 0x40 MLOAD DUP1 DUP4 SUB DUP2 PUSH1 0x0 DUP8 GAS CALL ISZERO DUP1 ISZERO PUSH2 0x8EE JUMPI RETURNDATASIZE PUSH1 0x0 DUP1 RETURNDATACOPY RETURNDATASIZE PUSH1 0x0 REVERT JUMPDEST POP POP POP POP PUSH1 0x40 MLOAD RETURNDATASIZE PUSH1 0x1F NOT PUSH1 0x1F DUP3 ADD AND DUP3 ADD DUP1 PUSH1 0x40 MSTORE POP DUP2 ADD SWAP1 PUSH2 0x912 SWAP2 SWAP1 PUSH2 0x1793 JUMP JUMPDEST POP POP POP POP JUMP JUMPDEST PUSH1 0x3 SLOAD CALLVALUE LT ISZERO PUSH2 0x960 JUMPI PUSH1 0x40 MLOAD PUSH3 0x461BCD PUSH1 0xE5 SHL DUP2 MSTORE PUSH1 0x20 PUSH1 0x4 DUP3 ADD MSTORE PUSH1 0x13 PUSH1 0x24 DUP3 ADD MSTORE PUSH19 0xC8D2C840DCDEE840E6CADCC840CADCDEEACED PUSH1 0x6B SHL PUSH1 0x44 DUP3 ADD MSTORE PUSH1 0x64 ADD PUSH2 0x496 JUMP JUMPDEST PUSH1 0x0 DUP8 DUP2 MSTORE PUSH1 0x4 PUSH1 0x20 SWAP1 DUP2 MSTORE PUSH1 0x40 DUP1 DUP4 KECCAK256 DUP2 MLOAD PUSH2 0x160 DUP2 ADD SWAP1 SWAP3 MSTORE DUP1 SLOAD DUP3 MSTORE PUSH1 0x1 DUP2 ADD DUP1 SLOAD DUP13 SWAP6 SWAP5 DUP5 ADD SWAP2 SWAP1 PUSH2 0x995 SWAP1 PUSH2 0x16CA JUMP JUMPDEST DUP1 PUSH1 0x1F ADD PUSH1 0x20 DUP1 SWAP2 DIV MUL PUSH1 0x20 ADD PUSH1 0x40 MLOAD SWAP1 DUP2 ADD PUSH1 0x40 MSTORE DUP1 SWAP3 SWAP2 SWAP1 DUP2 DUP2 MSTORE PUSH1 0x20 ADD DUP3 DUP1 SLOAD PUSH2 0x9C1 SWAP1 PUSH2 0x16CA JUMP JUMPDEST DUP1 ISZERO PUSH2 0xA0E JUMPI DUP1 PUSH1 0x1F LT PUSH2 0x9E3 JUMPI PUSH2 0x100 DUP1 DUP4 SLOAD DIV MUL DUP4 MSTORE SWAP2 PUSH1 0x20 ADD SWAP2 PUSH2 0xA0E JUMP JUMPDEST DUP3 ADD SWAP2 SWAP1 PUSH1 0x0 MSTORE PUSH1 0x20 PUSH1 0x0 KECCAK256 SWAP1 JUMPDEST DUP2 SLOAD DUP2 MSTORE SWAP1 PUSH1 0x1 ADD SWAP1 PUSH1 0x20 ADD DUP1 DUP4 GT PUSH2 0x9F1 JUMPI DUP3 SWAP1 SUB PUSH1 0x1F AND DUP3 ADD SWAP2 JUMPDEST POP POP POP POP POP DUP2 MSTORE PUSH1 0x20 ADD PUSH1 0x2 DUP3 ADD DUP1 SLOAD PUSH2 0xA27 SWAP1 PUSH2 0x16CA JUMP JUMPDEST DUP1 PUSH1 0x1F ADD PUSH1 0x20 DUP1 SWAP2 DIV MUL PUSH1 0x20 ADD PUSH1 0x40 MLOAD SWAP1 DUP2 ADD PUSH1 0x40 MSTORE DUP1 SWAP3 SWAP2 SWAP1 DUP2 DUP2 MSTORE PUSH1 0x20 ADD DUP3 DUP1 SLOAD PUSH2 0xA53 SWAP1 PUSH2 0x16CA JUMP JUMPDEST DUP1 ISZERO PUSH2 0xAA0 JUMPI DUP1 PUSH1 0x1F LT PUSH2 0xA75 JUMPI PUSH2 0x100 DUP1 DUP4 SLOAD DIV MUL DUP4 MSTORE SWAP2 PUSH1 0x20 ADD SWAP2 PUSH2 0xAA0 JUMP JUMPDEST DUP3 ADD SWAP2 SWAP1 PUSH1 0x0 MSTORE PUSH1 0x20 PUSH1 0x0 KECCAK256 SWAP1 JUMPDEST DUP2 SLOAD DUP2 MSTORE SWAP1 PUSH1 0x1 ADD SWAP1 PUSH1 0x20 ADD DUP1 DUP4 GT PUSH2 0xA83 JUMPI DUP3 SWAP1 SUB PUSH1 0x1F AND DUP3 ADD SWAP2 JUMPDEST POP POP POP POP POP DUP2 MSTORE PUSH1 0x20 ADD PUSH1 0x3 DUP3 ADD SLOAD DUP2 MSTORE PUSH1 0x20 ADD PUSH1 0x4 DUP3 ADD SLOAD DUP2 MSTORE PUSH1 0x20 ADD PUSH1 0x5 DUP3 ADD DUP1 SLOAD PUSH2 0xACD SWAP1 PUSH2 0x16CA JUMP JUMPDEST DUP1 PUSH1 0x1F ADD PUSH1 0x20 DUP1 SWAP2 DIV MUL PUSH1 0x20 ADD PUSH1 0x40 MLOAD SWAP1 DUP2 ADD PUSH1 0x40 MSTORE DUP1 SWAP3 SWAP2 SWAP1 DUP2 DUP2 MSTORE PUSH1 0x20 ADD DUP3 DUP1 SLOAD PUSH2 0xAF9 SWAP1 PUSH2 0x16CA JUMP JUMPDEST DUP1 ISZERO PUSH2 0xB46 JUMPI DUP1 PUSH1 0x1F LT PUSH2 0xB1B JUMPI PUSH2 0x100 DUP1 DUP4 SLOAD DIV MUL DUP4 MSTORE SWAP2 PUSH1 0x20 ADD SWAP2 PUSH2 0xB46 JUMP JUMPDEST DUP3 ADD SWAP2 SWAP1 PUSH1 0x0 MSTORE PUSH1 0x20 PUSH1 0x0 KECCAK256 SWAP1 JUMPDEST DUP2 SLOAD DUP2 MSTORE SWAP1 PUSH1 0x1 ADD SWAP1 PUSH1 0x20 ADD DUP1 DUP4 GT PUSH2 0xB29 JUMPI DUP3 SWAP1 SUB PUSH1 0x1F AND DUP3 ADD SWAP2 JUMPDEST POP POP POP POP POP DUP2 MSTORE PUSH1 0x20 ADD PUSH1 0x6 DUP3 ADD DUP1 SLOAD DUP1 PUSH1 0x20 MUL PUSH1 0x20 ADD PUSH1 0x40 MLOAD SWAP1 DUP2 ADD PUSH1 0x40 MSTORE DUP1 SWAP3 SWAP2 SWAP1 DUP2 DUP2 MSTORE PUSH1 0x20 ADD PUSH1 0x0 SWAP1 JUMPDEST DUP3 DUP3 LT ISZERO PUSH2 0xC20 JUMPI DUP4 DUP3 SWAP1 PUSH1 0x0 MSTORE PUSH1 0x20 PUSH1 0x0 KECCAK256 ADD DUP1 SLOAD PUSH2 0xB93 SWAP1 PUSH2 0x16CA JUMP JUMPDEST DUP1 PUSH1 0x1F ADD PUSH1 0x20 DUP1 SWAP2 DIV MUL PUSH1 0x20 ADD PUSH1 0x40 MLOAD SWAP1 DUP2 ADD PUSH1 0x40 MSTORE DUP1 SWAP3 SWAP2 SWAP1 DUP2 DUP2 MSTORE PUSH1 0x20 ADD DUP3 DUP1 SLOAD PUSH2 0xBBF SWAP1 PUSH2 0x16CA JUMP JUMPDEST DUP1 ISZERO PUSH2 0xC0C JUMPI DUP1 PUSH1 0x1F LT PUSH2 0xBE1 JUMPI PUSH2 0x100 DUP1 DUP4 SLOAD DIV MUL DUP4 MSTORE SWAP2 PUSH1 0x20 ADD SWAP2 PUSH2 0xC0C JUMP JUMPDEST DUP3 ADD SWAP2 SWAP1 PUSH1 0x0 MSTORE PUSH1 0x20 PUSH1 0x0 KECCAK256 SWAP1 JUMPDEST DUP2 SLOAD DUP2 MSTORE SWAP1 PUSH1 0x1 ADD SWAP1 PUSH1 0x20 ADD DUP1 DUP4 GT PUSH2 0xBEF JUMPI DUP3 SWAP1 SUB PUSH1 0x1F AND DUP3 ADD SWAP2 JUMPDEST POP POP POP POP POP DUP2 MSTORE PUSH1 0x20 ADD SWAP1 PUSH1 0x1 ADD SWAP1 PUSH2 0xB74 JUMP JUMPDEST POP POP POP SWAP1 DUP3 MSTORE POP PUSH1 0x7 DUP3 ADD SLOAD PUSH1 0x1 PUSH1 0x1 PUSH1 0xA0 SHL SUB AND PUSH1 0x20 DUP1 DUP4 ADD SWAP2 SWAP1 SWAP2 MSTORE PUSH1 0x8 DUP4 ADD DUP1 SLOAD PUSH1 0x40 DUP1 MLOAD DUP3 DUP6 MUL DUP2 ADD DUP6 ADD DUP3 MSTORE DUP3 DUP2 MSTORE SWAP5 ADD SWAP4 SWAP3 DUP4 ADD DUP3 DUP3 DUP1 ISZERO PUSH2 0xC91 JUMPI PUSH1 0x20 MUL DUP3 ADD SWAP2 SWAP1 PUSH1 0x0 MSTORE PUSH1 0x20 PUSH1 0x0 KECCAK256 SWAP1 JUMPDEST DUP2 SLOAD PUSH1 0x1 PUSH1 0x1 PUSH1 0xA0 SHL SUB AND DUP2 MSTORE PUSH1 0x1 SWAP1 SWAP2 ADD SWAP1 PUSH1 0x20 ADD DUP1 DUP4 GT PUSH2 0xC73 JUMPI JUMPDEST POP POP POP SWAP2 DUP4 MSTORE POP POP PUSH1 0x9 SWAP2 SWAP1 SWAP2 ADD SLOAD PUSH1 0xFF DUP1 DUP3 AND ISZERO ISZERO PUSH1 0x20 DUP5 ADD MSTORE PUSH2 0x100 SWAP1 SWAP2 DIV AND ISZERO ISZERO PUSH1 0x40 SWAP1 SWAP2 ADD MSTORE PUSH1 0xE0 DUP2 ADD MLOAD SWAP1 SWAP2 POP PUSH1 0x1 PUSH1 0x1 PUSH1 0xA0 SHL SUB AND CALLER SUB PUSH2 0xDB2 JUMPI PUSH1 0x0 DUP1 SLOAD DUP11 DUP3 MSTORE PUSH1 0x4 PUSH1 0x20 SWAP1 DUP2 MSTORE PUSH1 0x40 SWAP1 SWAP3 KECCAK256 SWAP1 DUP2 SSTORE DUP10 MLOAD PUSH2 0xCFC SWAP3 PUSH1 0x1 SWAP1 SWAP3 ADD SWAP2 DUP12 ADD SWAP1 PUSH2 0x1041 JUMP JUMPDEST POP PUSH1 0x0 DUP10 DUP2 MSTORE PUSH1 0x4 PUSH1 0x20 SWAP1 DUP2 MSTORE PUSH1 0x40 SWAP1 SWAP2 KECCAK256 DUP9 MLOAD PUSH2 0xD22 SWAP3 PUSH1 0x2 SWAP1 SWAP3 ADD SWAP2 DUP11 ADD SWAP1 PUSH2 0x1041 JUMP JUMPDEST POP PUSH1 0x0 DUP10 DUP2 MSTORE PUSH1 0x4 PUSH1 0x20 DUP2 DUP2 MSTORE PUSH1 0x40 SWAP1 SWAP3 KECCAK256 PUSH1 0x3 DUP2 ADD DUP10 SWAP1 SSTORE SWAP1 DUP2 ADD DUP8 SWAP1 SSTORE DUP6 MLOAD PUSH2 0xD55 SWAP3 PUSH1 0x5 SWAP1 SWAP3 ADD SWAP2 DUP8 ADD SWAP1 PUSH2 0x1041 JUMP JUMPDEST POP PUSH1 0x0 DUP10 DUP2 MSTORE PUSH1 0x4 PUSH1 0x20 SWAP1 DUP2 MSTORE PUSH1 0x40 SWAP1 SWAP2 KECCAK256 DUP5 MLOAD PUSH2 0xD7B SWAP3 PUSH1 0x6 SWAP1 SWAP3 ADD SWAP2 DUP7 ADD SWAP1 PUSH2 0x10C5 JUMP JUMPDEST POP PUSH1 0x0 DUP10 DUP2 MSTORE PUSH1 0x4 PUSH1 0x20 MSTORE PUSH1 0x40 SWAP1 KECCAK256 PUSH1 0x7 DUP2 ADD DUP1 SLOAD PUSH1 0x1 PUSH1 0x1 PUSH1 0xA0 SHL SUB NOT AND CALLER OR SWAP1 SSTORE PUSH1 0x9 ADD DUP1 SLOAD PUSH2 0xFFFF NOT AND PUSH1 0x1 OR SWAP1 SSTORE PUSH2 0x850 JUMP JUMPDEST DUP1 PUSH2 0x140 ADD MLOAD PUSH2 0xDFA JUMPI PUSH1 0x40 MLOAD PUSH3 0x461BCD PUSH1 0xE5 SHL DUP2 MSTORE PUSH1 0x20 PUSH1 0x4 DUP3 ADD MSTORE PUSH1 0x13 PUSH1 0x24 DUP3 ADD MSTORE PUSH19 0x18D85B9B9BDD0819591A5D081C1C9BDA9958DD PUSH1 0x6A SHL PUSH1 0x44 DUP3 ADD MSTORE PUSH1 0x64 ADD PUSH2 0x496 JUMP JUMPDEST PUSH1 0x0 DUP1 JUMPDEST DUP3 PUSH2 0x100 ADD MLOAD MLOAD DUP2 LT ISZERO PUSH2 0xE65 JUMPI PUSH1 0x0 DUP4 PUSH2 0x100 ADD MLOAD DUP3 DUP2 MLOAD DUP2 LT PUSH2 0xE25 JUMPI PUSH2 0xE25 PUSH2 0x17B0 JUMP JUMPDEST PUSH1 0x20 MUL PUSH1 0x20 ADD ADD MLOAD SWAP1 POP DUP1 PUSH1 0x1 PUSH1 0x1 PUSH1 0xA0 SHL SUB AND CALLER PUSH1 0x1 PUSH1 0x1 PUSH1 0xA0 SHL SUB AND SUB PUSH2 0xE52 JUMPI PUSH1 0x1 SWAP3 POP POP PUSH2 0xE65 JUMP JUMPDEST POP DUP1 PUSH2 0xE5D DUP2 PUSH2 0x1704 JUMP JUMPDEST SWAP2 POP POP PUSH2 0xDFE JUMP JUMPDEST POP DUP1 PUSH2 0xEA9 JUMPI PUSH1 0x40 MLOAD PUSH3 0x461BCD PUSH1 0xE5 SHL DUP2 MSTORE PUSH1 0x20 PUSH1 0x4 DUP3 ADD MSTORE PUSH1 0x13 PUSH1 0x24 DUP3 ADD MSTORE PUSH19 0x18D85B9B9BDD0819591A5D081C1C9BDA9958DD PUSH1 0x6A SHL PUSH1 0x44 DUP3 ADD MSTORE PUSH1 0x64 ADD PUSH2 0x496 JUMP JUMPDEST PUSH1 0x0 DUP1 SLOAD DUP12 DUP3 MSTORE PUSH1 0x4 PUSH1 0x20 SWAP1 DUP2 MSTORE PUSH1 0x40 SWAP1 SWAP3 KECCAK256 SWAP1 DUP2 SSTORE DUP11 MLOAD PUSH2 0xED3 SWAP3 PUSH1 0x1 SWAP1 SWAP3 ADD SWAP2 DUP13 ADD SWAP1 PUSH2 0x1041 JUMP JUMPDEST POP PUSH1 0x0 DUP11 DUP2 MSTORE PUSH1 0x4 PUSH1 0x20 SWAP1 DUP2 MSTORE PUSH1 0x40 SWAP1 SWAP2 KECCAK256 DUP10 MLOAD PUSH2 0xEF9 SWAP3 PUSH1 0x2 SWAP1 SWAP3 ADD SWAP2 DUP12 ADD SWAP1 PUSH2 0x1041 JUMP JUMPDEST POP PUSH1 0x0 DUP11 DUP2 MSTORE PUSH1 0x4 PUSH1 0x20 DUP2 DUP2 MSTORE PUSH1 0x40 SWAP1 SWAP3 KECCAK256 PUSH1 0x3 DUP2 ADD DUP11 SWAP1 SSTORE SWAP1 DUP2 ADD DUP9 SWAP1 SSTORE DUP7 MLOAD PUSH2 0xF2C SWAP3 PUSH1 0x5 SWAP1 SWAP3 ADD SWAP2 DUP9 ADD SWAP1 PUSH2 0x1041 JUMP JUMPDEST POP PUSH1 0x0 DUP11 DUP2 MSTORE PUSH1 0x4 PUSH1 0x20 SWAP1 DUP2 MSTORE PUSH1 0x40 SWAP1 SWAP2 KECCAK256 DUP6 MLOAD PUSH2 0xF52 SWAP3 PUSH1 0x6 SWAP1 SWAP3 ADD SWAP2 DUP8 ADD SWAP1 PUSH2 0x10C5 JUMP JUMPDEST POP POP PUSH1 0x0 DUP10 DUP2 MSTORE PUSH1 0x4 PUSH1 0x20 MSTORE PUSH1 0x40 SWAP1 KECCAK256 PUSH1 0x7 DUP2 ADD DUP1 SLOAD PUSH1 0x1 PUSH1 0x1 PUSH1 0xA0 SHL SUB NOT AND CALLER OR SWAP1 SSTORE PUSH1 0x9 ADD DUP1 SLOAD PUSH2 0xFFFF NOT AND PUSH1 0x1 OR SWAP1 SSTORE POP POP POP POP POP POP POP POP POP JUMP JUMPDEST PUSH1 0x1 SLOAD PUSH1 0x1 PUSH1 0x1 PUSH1 0xA0 SHL SUB AND CALLER EQ DUP1 PUSH2 0xFB8 JUMPI POP CALLER PUSH1 0x0 SWAP1 DUP2 MSTORE PUSH1 0x2 PUSH1 0x20 MSTORE PUSH1 0x40 SWAP1 KECCAK256 SLOAD PUSH1 0xFF AND JUMPDEST PUSH2 0xFD4 JUMPI PUSH1 0x40 MLOAD PUSH3 0x461BCD PUSH1 0xE5 SHL DUP2 MSTORE PUSH1 0x4 ADD PUSH2 0x496 SWAP1 PUSH2 0x172B JUMP JUMPDEST PUSH1 0x40 MLOAD PUSH4 0x21421707 PUSH1 0xE1 SHL DUP2 MSTORE ADDRESS PUSH1 0x4 DUP3 ADD MSTORE CALLER PUSH1 0x24 DUP3 ADD MSTORE PUSH1 0x44 DUP2 ADD DUP3 SWAP1 MSTORE DUP3 SWAP1 PUSH1 0x1 PUSH1 0x1 PUSH1 0xA0 SHL SUB DUP3 AND SWAP1 PUSH4 0x42842E0E SWAP1 PUSH1 0x64 ADD PUSH1 0x0 PUSH1 0x40 MLOAD DUP1 DUP4 SUB DUP2 PUSH1 0x0 DUP8 DUP1 EXTCODESIZE ISZERO DUP1 ISZERO PUSH2 0x1024 JUMPI PUSH1 0x0 DUP1 REVERT JUMPDEST POP GAS CALL ISZERO DUP1 ISZERO PUSH2 0x1038 JUMPI RETURNDATASIZE PUSH1 0x0 DUP1 RETURNDATACOPY RETURNDATASIZE PUSH1 0x0 REVERT JUMPDEST POP POP POP POP POP POP POP JUMP JUMPDEST DUP3 DUP1 SLOAD PUSH2 0x104D SWAP1 PUSH2 0x16CA JUMP JUMPDEST SWAP1 PUSH1 0x0 MSTORE PUSH1 0x20 PUSH1 0x0 KECCAK256 SWAP1 PUSH1 0x1F ADD PUSH1 0x20 SWAP1 DIV DUP2 ADD SWAP3 DUP3 PUSH2 0x106F JUMPI PUSH1 0x0 DUP6 SSTORE PUSH2 0x10B5 JUMP JUMPDEST DUP3 PUSH1 0x1F LT PUSH2 0x1088 JUMPI DUP1 MLOAD PUSH1 0xFF NOT AND DUP4 DUP1 ADD OR DUP6 SSTORE PUSH2 0x10B5 JUMP JUMPDEST DUP3 DUP1 ADD PUSH1 0x1 ADD DUP6 SSTORE DUP3 ISZERO PUSH2 0x10B5 JUMPI SWAP2 DUP3 ADD JUMPDEST DUP3 DUP2 GT ISZERO PUSH2 0x10B5 JUMPI DUP3 MLOAD DUP3 SSTORE SWAP2 PUSH1 0x20 ADD SWAP2 SWAP1 PUSH1 0x1 ADD SWAP1 PUSH2 0x109A JUMP JUMPDEST POP PUSH2 0x10C1 SWAP3 SWAP2 POP PUSH2 0x1173 JUMP JUMPDEST POP SWAP1 JUMP JUMPDEST DUP3 DUP1 SLOAD DUP3 DUP3 SSTORE SWAP1 PUSH1 0x0 MSTORE PUSH1 0x20 PUSH1 0x0 KECCAK256 SWAP1 DUP2 ADD SWAP3 DUP3 ISZERO PUSH2 0x1112 JUMPI SWAP2 PUSH1 0x20 MUL DUP3 ADD JUMPDEST DUP3 DUP2 GT ISZERO PUSH2 0x1112 JUMPI DUP3 MLOAD DUP1 MLOAD PUSH2 0x1102 SWAP2 DUP5 SWAP2 PUSH1 0x20 SWAP1 SWAP2 ADD SWAP1 PUSH2 0x1041 JUMP JUMPDEST POP SWAP2 PUSH1 0x20 ADD SWAP2 SWAP1 PUSH1 0x1 ADD SWAP1 PUSH2 0x10E5 JUMP JUMPDEST POP PUSH2 0x10C1 SWAP3 SWAP2 POP PUSH2 0x1188 JUMP JUMPDEST DUP3 DUP1 SLOAD DUP3 DUP3 SSTORE SWAP1 PUSH1 0x0 MSTORE PUSH1 0x20 PUSH1 0x0 KECCAK256 SWAP1 DUP2 ADD SWAP3 DUP3 ISZERO PUSH2 0x10B5 JUMPI SWAP2 PUSH1 0x20 MUL DUP3 ADD JUMPDEST DUP3 DUP2 GT ISZERO PUSH2 0x10B5 JUMPI DUP3 MLOAD DUP3 SLOAD PUSH1 0x1 PUSH1 0x1 PUSH1 0xA0 SHL SUB NOT AND PUSH1 0x1 PUSH1 0x1 PUSH1 0xA0 SHL SUB SWAP1 SWAP2 AND OR DUP3 SSTORE PUSH1 0x20 SWAP1 SWAP3 ADD SWAP2 PUSH1 0x1 SWAP1 SWAP2 ADD SWAP1 PUSH2 0x113E JUMP JUMPDEST JUMPDEST DUP1 DUP3 GT ISZERO PUSH2 0x10C1 JUMPI PUSH1 0x0 DUP2 SSTORE PUSH1 0x1 ADD PUSH2 0x1174 JUMP JUMPDEST DUP1 DUP3 GT ISZERO PUSH2 0x10C1 JUMPI PUSH1 0x0 PUSH2 0x119C DUP3 DUP3 PUSH2 0x11A5 JUMP JUMPDEST POP PUSH1 0x1 ADD PUSH2 0x1188 JUMP JUMPDEST POP DUP1 SLOAD PUSH2 0x11B1 SWAP1 PUSH2 0x16CA JUMP JUMPDEST PUSH1 0x0 DUP3 SSTORE DUP1 PUSH1 0x1F LT PUSH2 0x11C1 JUMPI POP POP JUMP JUMPDEST PUSH1 0x1F ADD PUSH1 0x20 SWAP1 DIV SWAP1 PUSH1 0x0 MSTORE PUSH1 0x20 PUSH1 0x0 KECCAK256 SWAP1 DUP2 ADD SWAP1 PUSH2 0x6ED SWAP2 SWAP1 PUSH2 0x1173 JUMP JUMPDEST PUSH1 0x0 PUSH1 0x20 DUP3 DUP5 SUB SLT ISZERO PUSH2 0x11F1 JUMPI PUSH1 0x0 DUP1 REVERT JUMPDEST POP CALLDATALOAD SWAP2 SWAP1 POP JUMP JUMPDEST PUSH1 0x0 DUP2 MLOAD DUP1 DUP5 MSTORE PUSH1 0x0 JUMPDEST DUP2 DUP2 LT ISZERO PUSH2 0x121E JUMPI PUSH1 0x20 DUP2 DUP6 ADD DUP2 ADD MLOAD DUP7 DUP4 ADD DUP3 ADD MSTORE ADD PUSH2 0x1202 JUMP JUMPDEST DUP2 DUP2 GT ISZERO PUSH2 0x1230 JUMPI PUSH1 0x0 PUSH1 0x20 DUP4 DUP8 ADD ADD MSTORE JUMPDEST POP PUSH1 0x1F ADD PUSH1 0x1F NOT AND SWAP3 SWAP1 SWAP3 ADD PUSH1 0x20 ADD SWAP3 SWAP2 POP POP JUMP JUMPDEST PUSH1 0x0 PUSH2 0x120 DUP12 DUP4 MSTORE DUP1 PUSH1 0x20 DUP5 ADD MSTORE PUSH2 0x125F DUP2 DUP5 ADD DUP13 PUSH2 0x11F8 JUMP JUMPDEST SWAP1 POP DUP3 DUP2 SUB PUSH1 0x40 DUP5 ADD MSTORE PUSH2 0x1273 DUP2 DUP12 PUSH2 0x11F8 JUMP JUMPDEST SWAP1 POP DUP9 PUSH1 0x60 DUP5 ADD MSTORE DUP8 PUSH1 0x80 DUP5 ADD MSTORE DUP3 DUP2 SUB PUSH1 0xA0 DUP5 ADD MSTORE PUSH2 0x1293 DUP2 DUP9 PUSH2 0x11F8 JUMP JUMPDEST PUSH1 0x1 PUSH1 0x1 PUSH1 0xA0 SHL SUB SWAP7 SWAP1 SWAP7 AND PUSH1 0xC0 DUP5 ADD MSTORE POP POP SWAP2 ISZERO ISZERO PUSH1 0xE0 DUP4 ADD MSTORE ISZERO ISZERO PUSH2 0x100 SWAP1 SWAP2 ADD MSTORE SWAP7 SWAP6 POP POP POP POP POP POP JUMP JUMPDEST PUSH4 0x4E487B71 PUSH1 0xE0 SHL PUSH1 0x0 MSTORE PUSH1 0x41 PUSH1 0x4 MSTORE PUSH1 0x24 PUSH1 0x0 REVERT JUMPDEST PUSH1 0x40 MLOAD PUSH1 0x1F DUP3 ADD PUSH1 0x1F NOT AND DUP2 ADD PUSH8 0xFFFFFFFFFFFFFFFF DUP2 GT DUP3 DUP3 LT OR ISZERO PUSH2 0x1300 JUMPI PUSH2 0x1300 PUSH2 0x12C1 JUMP JUMPDEST PUSH1 0x40 MSTORE SWAP2 SWAP1 POP JUMP JUMPDEST PUSH1 0x0 PUSH8 0xFFFFFFFFFFFFFFFF DUP4 GT ISZERO PUSH2 0x1322 JUMPI PUSH2 0x1322 PUSH2 0x12C1 JUMP JUMPDEST PUSH2 0x1335 PUSH1 0x1F DUP5 ADD PUSH1 0x1F NOT AND PUSH1 0x20 ADD PUSH2 0x12D7 JUMP JUMPDEST SWAP1 POP DUP3 DUP2 MSTORE DUP4 DUP4 DUP4 ADD GT ISZERO PUSH2 0x1349 JUMPI PUSH1 0x0 DUP1 REVERT JUMPDEST DUP3 DUP3 PUSH1 0x20 DUP4 ADD CALLDATACOPY PUSH1 0x0 PUSH1 0x20 DUP5 DUP4 ADD ADD MSTORE SWAP4 SWAP3 POP POP POP JUMP JUMPDEST PUSH1 0x0 DUP3 PUSH1 0x1F DUP4 ADD SLT PUSH2 0x1371 JUMPI PUSH1 0x0 DUP1 REVERT JUMPDEST PUSH2 0x1380 DUP4 DUP4 CALLDATALOAD PUSH1 0x20 DUP6 ADD PUSH2 0x1308 JUMP JUMPDEST SWAP4 SWAP3 POP POP POP JUMP JUMPDEST PUSH1 0x0 DUP3 PUSH1 0x1F DUP4 ADD SLT PUSH2 0x1398 JUMPI PUSH1 0x0 DUP1 REVERT JUMPDEST DUP2 CALLDATALOAD PUSH1 0x20 PUSH8 0xFFFFFFFFFFFFFFFF DUP1 DUP4 GT ISZERO PUSH2 0x13B5 JUMPI PUSH2 0x13B5 PUSH2 0x12C1 JUMP JUMPDEST DUP3 PUSH1 0x5 SHL PUSH2 0x13C4 DUP4 DUP3 ADD PUSH2 0x12D7 JUMP JUMPDEST SWAP4 DUP5 MSTORE DUP6 DUP2 ADD DUP4 ADD SWAP4 DUP4 DUP2 ADD SWAP1 DUP9 DUP7 GT ISZERO PUSH2 0x13DE JUMPI PUSH1 0x0 DUP1 REVERT JUMPDEST DUP5 DUP9 ADD SWAP3 POP JUMPDEST DUP6 DUP4 LT ISZERO PUSH2 0x141A JUMPI DUP3 CALLDATALOAD DUP5 DUP2 GT ISZERO PUSH2 0x13FC JUMPI PUSH1 0x0 DUP1 DUP2 REVERT JUMPDEST PUSH2 0x140A DUP11 DUP8 DUP4 DUP13 ADD ADD PUSH2 0x1360 JUMP JUMPDEST DUP4 MSTORE POP SWAP2 DUP5 ADD SWAP2 SWAP1 DUP5 ADD SWAP1 PUSH2 0x13E4 JUMP JUMPDEST SWAP9 SWAP8 POP POP POP POP POP POP POP POP JUMP JUMPDEST PUSH1 0x0 DUP1 PUSH1 0x0 DUP1 PUSH1 0x0 DUP1 PUSH1 0xC0 DUP8 DUP10 SUB SLT ISZERO PUSH2 0x143F JUMPI PUSH1 0x0 DUP1 REVERT JUMPDEST DUP7 CALLDATALOAD PUSH8 0xFFFFFFFFFFFFFFFF DUP1 DUP3 GT ISZERO PUSH2 0x1457 JUMPI PUSH1 0x0 DUP1 REVERT JUMPDEST PUSH2 0x1463 DUP11 DUP4 DUP12 ADD PUSH2 0x1360 JUMP JUMPDEST SWAP8 POP PUSH1 0x20 DUP10 ADD CALLDATALOAD SWAP2 POP DUP1 DUP3 GT ISZERO PUSH2 0x1479 JUMPI PUSH1 0x0 DUP1 REVERT JUMPDEST PUSH2 0x1485 DUP11 DUP4 DUP12 ADD PUSH2 0x1360 JUMP JUMPDEST SWAP7 POP PUSH1 0x40 DUP10 ADD CALLDATALOAD SWAP6 POP PUSH1 0x60 DUP10 ADD CALLDATALOAD SWAP5 POP PUSH1 0x80 DUP10 ADD CALLDATALOAD SWAP2 POP DUP1 DUP3 GT ISZERO PUSH2 0x14A9 JUMPI PUSH1 0x0 DUP1 REVERT JUMPDEST PUSH2 0x14B5 DUP11 DUP4 DUP12 ADD PUSH2 0x1360 JUMP JUMPDEST SWAP4 POP PUSH1 0xA0 DUP10 ADD CALLDATALOAD SWAP2 POP DUP1 DUP3 GT ISZERO PUSH2 0x14CB JUMPI PUSH1 0x0 DUP1 REVERT JUMPDEST POP PUSH2 0x14D8 DUP10 DUP3 DUP11 ADD PUSH2 0x1387 JUMP JUMPDEST SWAP2 POP POP SWAP3 SWAP6 POP SWAP3 SWAP6 POP SWAP3 SWAP6 JUMP JUMPDEST DUP1 CALLDATALOAD PUSH1 0x1 PUSH1 0x1 PUSH1 0xA0 SHL SUB DUP2 AND DUP2 EQ PUSH2 0x14FC JUMPI PUSH1 0x0 DUP1 REVERT JUMPDEST SWAP2 SWAP1 POP JUMP JUMPDEST PUSH1 0x0 PUSH1 0x20 DUP3 DUP5 SUB SLT ISZERO PUSH2 0x1513 JUMPI PUSH1 0x0 DUP1 REVERT JUMPDEST PUSH2 0x1380 DUP3 PUSH2 0x14E5 JUMP JUMPDEST DUP1 ISZERO ISZERO DUP2 EQ PUSH2 0x6ED JUMPI PUSH1 0x0 DUP1 REVERT JUMPDEST PUSH1 0x0 DUP1 PUSH1 0x40 DUP4 DUP6 SUB SLT ISZERO PUSH2 0x153D JUMPI PUSH1 0x0 DUP1 REVERT JUMPDEST PUSH2 0x1546 DUP4 PUSH2 0x14E5 JUMP JUMPDEST SWAP2 POP PUSH1 0x20 DUP4 ADD CALLDATALOAD PUSH2 0x1556 DUP2 PUSH2 0x151C JUMP JUMPDEST DUP1 SWAP2 POP POP SWAP3 POP SWAP3 SWAP1 POP JUMP JUMPDEST PUSH1 0x0 DUP1 PUSH1 0x0 DUP1 PUSH1 0x80 DUP6 DUP8 SUB SLT ISZERO PUSH2 0x1577 JUMPI PUSH1 0x0 DUP1 REVERT JUMPDEST PUSH2 0x1580 DUP6 PUSH2 0x14E5 JUMP JUMPDEST SWAP4 POP PUSH1 0x20 DUP6 ADD CALLDATALOAD SWAP3 POP PUSH1 0x40 DUP6 ADD CALLDATALOAD SWAP2 POP PUSH1 0x60 DUP6 ADD CALLDATALOAD PUSH8 0xFFFFFFFFFFFFFFFF DUP2 GT ISZERO PUSH2 0x15AA JUMPI PUSH1 0x0 DUP1 REVERT JUMPDEST DUP6 ADD PUSH1 0x1F DUP2 ADD DUP8 SGT PUSH2 0x15BB JUMPI PUSH1 0x0 DUP1 REVERT JUMPDEST PUSH2 0x15CA DUP8 DUP3 CALLDATALOAD PUSH1 0x20 DUP5 ADD PUSH2 0x1308 JUMP JUMPDEST SWAP2 POP POP SWAP3 SWAP6 SWAP2 SWAP5 POP SWAP3 POP JUMP JUMPDEST PUSH1 0x0 DUP1 PUSH1 0x40 DUP4 DUP6 SUB SLT ISZERO PUSH2 0x15E9 JUMPI PUSH1 0x0 DUP1 REVERT JUMPDEST PUSH2 0x15F2 DUP4 PUSH2 0x14E5 JUMP JUMPDEST SWAP5 PUSH1 0x20 SWAP4 SWAP1 SWAP4 ADD CALLDATALOAD SWAP4 POP POP POP JUMP JUMPDEST PUSH1 0x0 DUP1 PUSH1 0x0 DUP1 PUSH1 0x0 DUP1 PUSH1 0x0 PUSH1 0xE0 DUP9 DUP11 SUB SLT ISZERO PUSH2 0x161B JUMPI PUSH1 0x0 DUP1 REVERT JUMPDEST DUP8 CALLDATALOAD SWAP7 POP PUSH1 0x20 DUP9 ADD CALLDATALOAD PUSH8 0xFFFFFFFFFFFFFFFF DUP1 DUP3 GT ISZERO PUSH2 0x163A JUMPI PUSH1 0x0 DUP1 REVERT JUMPDEST PUSH2 0x1646 DUP12 DUP4 DUP13 ADD PUSH2 0x1360 JUMP JUMPDEST SWAP8 POP PUSH1 0x40 DUP11 ADD CALLDATALOAD SWAP2 POP DUP1 DUP3 GT ISZERO PUSH2 0x165C JUMPI PUSH1 0x0 DUP1 REVERT JUMPDEST PUSH2 0x1668 DUP12 DUP4 DUP13 ADD PUSH2 0x1360 JUMP JUMPDEST SWAP7 POP PUSH1 0x60 DUP11 ADD CALLDATALOAD SWAP6 POP PUSH1 0x80 DUP11 ADD CALLDATALOAD SWAP5 POP PUSH1 0xA0 DUP11 ADD CALLDATALOAD SWAP2 POP DUP1 DUP3 GT ISZERO PUSH2 0x168C JUMPI PUSH1 0x0 DUP1 REVERT JUMPDEST PUSH2 0x1698 DUP12 DUP4 DUP13 ADD PUSH2 0x1360 JUMP JUMPDEST SWAP4 POP PUSH1 0xC0 DUP11 ADD CALLDATALOAD SWAP2 POP DUP1 DUP3 GT ISZERO PUSH2 0x16AE JUMPI PUSH1 0x0 DUP1 REVERT JUMPDEST POP PUSH2 0x16BB DUP11 DUP3 DUP12 ADD PUSH2 0x1387 JUMP JUMPDEST SWAP2 POP POP SWAP3 SWAP6 SWAP9 SWAP2 SWAP5 SWAP8 POP SWAP3 SWAP6 POP JUMP JUMPDEST PUSH1 0x1 DUP2 DUP2 SHR SWAP1 DUP3 AND DUP1 PUSH2 0x16DE JUMPI PUSH1 0x7F DUP3 AND SWAP2 POP JUMPDEST PUSH1 0x20 DUP3 LT DUP2 SUB PUSH2 0x16FE JUMPI PUSH4 0x4E487B71 PUSH1 0xE0 SHL PUSH1 0x0 MSTORE PUSH1 0x22 PUSH1 0x4 MSTORE PUSH1 0x24 PUSH1 0x0 REVERT JUMPDEST POP SWAP2 SWAP1 POP JUMP JUMPDEST PUSH1 0x0 PUSH1 0x1 DUP3 ADD PUSH2 0x1724 JUMPI PUSH4 0x4E487B71 PUSH1 0xE0 SHL PUSH1 0x0 MSTORE PUSH1 0x11 PUSH1 0x4 MSTORE PUSH1 0x24 PUSH1 0x0 REVERT JUMPDEST POP PUSH1 0x1 ADD SWAP1 JUMP JUMPDEST PUSH1 0x20 DUP1 DUP3 MSTORE PUSH1 0x9 SWAP1 DUP3 ADD MSTORE PUSH9 0x3737BA1030B236B4B7 PUSH1 0xB9 SHL PUSH1 0x40 DUP3 ADD MSTORE PUSH1 0x60 ADD SWAP1 JUMP JUMPDEST PUSH1 0x1 PUSH1 0x1 PUSH1 0xA0 SHL SUB DUP7 DUP2 AND DUP3 MSTORE DUP6 AND PUSH1 0x20 DUP3 ADD MSTORE PUSH1 0x40 DUP2 ADD DUP5 SWAP1 MSTORE PUSH1 0x60 DUP2 ADD DUP4 SWAP1 MSTORE PUSH1 0xA0 PUSH1 0x80 DUP3 ADD DUP2 SWAP1 MSTORE PUSH1 0x0 SWAP1 PUSH2 0x1788 SWAP1 DUP4 ADD DUP5 PUSH2 0x11F8 JUMP JUMPDEST SWAP8 SWAP7 POP POP POP POP POP POP POP JUMP JUMPDEST PUSH1 0x0 PUSH1 0x20 DUP3 DUP5 SUB SLT ISZERO PUSH2 0x17A5 JUMPI PUSH1 0x0 DUP1 REVERT JUMPDEST DUP2 MLOAD PUSH2 0x1380 DUP2 PUSH2 0x151C JUMP JUMPDEST PUSH4 0x4E487B71 PUSH1 0xE0 SHL PUSH1 0x0 MSTORE PUSH1 0x32 PUSH1 0x4 MSTORE PUSH1 0x24 PUSH1 0x0 REVERT INVALID LOG2 PUSH5 0x6970667358 0x22 SLT KECCAK256 SWAP2 0x26 0xB1 EXTCODESIZE LOG0 0x23 0xD5 0xB7 PUSH17 0x3E340EC45974522EFC76C530B8AACBE832 0x1E MSTORE8 PUSH15 0x9D5264736F6C634300080E003300 "
				},
				"gasEstimates": {
					"creation": {
						"codeDepositCost": "1228000",
						"executionCost": "69722",
						"totalCost": "1297722"
					},
					"external": {
						"admins(address)": "2598",
						"create(string,string,uint256,uint256,string,string[])": "infinite",
						"owner()": "2448",
						"price()": "2317",
						"projects(uint256)": "infinite",
						"setAdmin(address,bool)": "29148",
						"setPrice(uint256)": "26660",
						"update(uint256,string,string,uint256,uint256,string,string[])": "infinite",
						"withdrawERC1155(address,uint256,uint256,bytes)": "infinite",
						"withdrawERC20(address,uint256)": "infinite",
						"withdrawERC721(address,uint256)": "infinite",
						"withdrawFunds()": "infinite"
					}
				},
				"methodIdentifiers": {
					"admins(address)": "429b62e5",
					"create(string,string,uint256,uint256,string,string[])": "230abfd0",
					"owner()": "8da5cb5b",
					"price()": "a035b1fe",
					"projects(uint256)": "107046bd",
					"setAdmin(address,bool)": "4b0bddd2",
					"setPrice(uint256)": "91b7f5ed",
					"update(uint256,string,string,uint256,uint256,string,string[])": "e3a51523",
					"withdrawERC1155(address,uint256,uint256,bytes)": "a1538bde",
					"withdrawERC20(address,uint256)": "a1db9782",
					"withdrawERC721(address,uint256)": "f3e414f8",
					"withdrawFunds()": "24600fc3"
				}
			},
			"storageLayout": {
				"storage": [
					{
						"astId": 370,
						"contract": "contracts/GoingUpProjects.sol:GoingUpProjects",
						"label": "idCounter",
						"offset": 0,
						"slot": "0",
						"type": "t_uint256"
					},
					{
						"astId": 372,
						"contract": "contracts/GoingUpProjects.sol:GoingUpProjects",
						"label": "owner",
						"offset": 0,
						"slot": "1",
						"type": "t_address"
					},
					{
						"astId": 388,
						"contract": "contracts/GoingUpProjects.sol:GoingUpProjects",
						"label": "admins",
						"offset": 0,
						"slot": "2",
						"type": "t_mapping(t_address,t_bool)"
					},
					{
						"astId": 429,
						"contract": "contracts/GoingUpProjects.sol:GoingUpProjects",
						"label": "price",
						"offset": 0,
						"slot": "3",
						"type": "t_uint256"
					},
					{
						"astId": 459,
						"contract": "contracts/GoingUpProjects.sol:GoingUpProjects",
						"label": "projects",
						"offset": 0,
						"slot": "4",
						"type": "t_mapping(t_uint256,t_struct(Project)358_storage)"
					}
				],
				"types": {
					"t_address": {
						"encoding": "inplace",
						"label": "address",
						"numberOfBytes": "20"
					},
					"t_array(t_address)dyn_storage": {
						"base": "t_address",
						"encoding": "dynamic_array",
						"label": "address[]",
						"numberOfBytes": "32"
					},
					"t_array(t_string_storage)dyn_storage": {
						"base": "t_string_storage",
						"encoding": "dynamic_array",
						"label": "string[]",
						"numberOfBytes": "32"
					},
					"t_bool": {
						"encoding": "inplace",
						"label": "bool",
						"numberOfBytes": "1"
					},
					"t_mapping(t_address,t_bool)": {
						"encoding": "mapping",
						"key": "t_address",
						"label": "mapping(address => bool)",
						"numberOfBytes": "32",
						"value": "t_bool"
					},
					"t_mapping(t_uint256,t_struct(Project)358_storage)": {
						"encoding": "mapping",
						"key": "t_uint256",
						"label": "mapping(uint256 => struct GoingUpProjects.Project)",
						"numberOfBytes": "32",
						"value": "t_struct(Project)358_storage"
					},
					"t_string_storage": {
						"encoding": "bytes",
						"label": "string",
						"numberOfBytes": "32"
					},
					"t_struct(Project)358_storage": {
						"encoding": "inplace",
						"label": "struct GoingUpProjects.Project",
						"members": [
							{
								"astId": 335,
								"contract": "contracts/GoingUpProjects.sol:GoingUpProjects",
								"label": "id",
								"offset": 0,
								"slot": "0",
								"type": "t_uint256"
							},
							{
								"astId": 337,
								"contract": "contracts/GoingUpProjects.sol:GoingUpProjects",
								"label": "name",
								"offset": 0,
								"slot": "1",
								"type": "t_string_storage"
							},
							{
								"astId": 339,
								"contract": "contracts/GoingUpProjects.sol:GoingUpProjects",
								"label": "description",
								"offset": 0,
								"slot": "2",
								"type": "t_string_storage"
							},
							{
								"astId": 341,
								"contract": "contracts/GoingUpProjects.sol:GoingUpProjects",
								"label": "started",
								"offset": 0,
								"slot": "3",
								"type": "t_uint256"
							},
							{
								"astId": 343,
								"contract": "contracts/GoingUpProjects.sol:GoingUpProjects",
								"label": "ended",
								"offset": 0,
								"slot": "4",
								"type": "t_uint256"
							},
							{
								"astId": 345,
								"contract": "contracts/GoingUpProjects.sol:GoingUpProjects",
								"label": "primaryUrl",
								"offset": 0,
								"slot": "5",
								"type": "t_string_storage"
							},
							{
								"astId": 348,
								"contract": "contracts/GoingUpProjects.sol:GoingUpProjects",
								"label": "tags",
								"offset": 0,
								"slot": "6",
								"type": "t_array(t_string_storage)dyn_storage"
							},
							{
								"astId": 350,
								"contract": "contracts/GoingUpProjects.sol:GoingUpProjects",
								"label": "owner",
								"offset": 0,
								"slot": "7",
								"type": "t_address"
							},
							{
								"astId": 353,
								"contract": "contracts/GoingUpProjects.sol:GoingUpProjects",
								"label": "members",
								"offset": 0,
								"slot": "8",
								"type": "t_array(t_address)dyn_storage"
							},
							{
								"astId": 355,
								"contract": "contracts/GoingUpProjects.sol:GoingUpProjects",
								"label": "active",
								"offset": 0,
								"slot": "9",
								"type": "t_bool"
							},
							{
								"astId": 357,
								"contract": "contracts/GoingUpProjects.sol:GoingUpProjects",
								"label": "allowMembersToEdit",
								"offset": 1,
								"slot": "9",
								"type": "t_bool"
							}
						],
						"numberOfBytes": "320"
					},
					"t_uint256": {
						"encoding": "inplace",
						"label": "uint256",
						"numberOfBytes": "32"
					}
				}
			},
			"userdoc": {
				"kind": "user",
				"methods": {
					"create(string,string,uint256,uint256,string,string[])": {
						"notice": "Create a project"
					},
					"setAdmin(address,bool)": {
						"notice": "Sets the admin flag for address"
					},
					"setPrice(uint256)": {
						"notice": "Sets the price for creating and updating projects"
					},
					"update(uint256,string,string,uint256,uint256,string,string[])": {
						"notice": "Update a project"
					},
					"withdrawERC1155(address,uint256,uint256,bytes)": {
						"notice": "Withdraw ERC1155 token"
					},
					"withdrawERC20(address,uint256)": {
						"notice": "Withdraw ERC20 tokens"
					},
					"withdrawERC721(address,uint256)": {
						"notice": "Withdraw ERC721 token"
					},
					"withdrawFunds()": {
						"notice": "Withdraw native tokens (matic)"
					}
				},
				"version": 1
			}
		}
	}
}