{
	"contracts/GoingUpProjects.sol": {
		"GoingUpProjects": {
			"abi": [
				{
					"inputs": [],
					"stateMutability": "nonpayable",
					"type": "constructor"
				},
				{
					"inputs": [
						{
							"internalType": "address",
							"name": "",
							"type": "address"
						}
					],
					"name": "admins",
					"outputs": [
						{
							"internalType": "bool",
							"name": "",
							"type": "bool"
						}
					],
					"stateMutability": "view",
					"type": "function"
				},
				{
					"inputs": [
						{
							"internalType": "string",
							"name": "name",
							"type": "string"
						},
						{
							"internalType": "string",
							"name": "description",
							"type": "string"
						},
						{
							"internalType": "uint256",
							"name": "started",
							"type": "uint256"
						},
						{
							"internalType": "uint256",
							"name": "ended",
							"type": "uint256"
						},
						{
							"internalType": "string",
							"name": "primaryUrl",
							"type": "string"
						},
						{
							"internalType": "string[]",
							"name": "tags",
							"type": "string[]"
						}
					],
					"name": "create",
					"outputs": [],
					"stateMutability": "nonpayable",
					"type": "function"
				},
				{
					"inputs": [],
					"name": "owner",
					"outputs": [
						{
							"internalType": "address",
							"name": "",
							"type": "address"
						}
					],
					"stateMutability": "view",
					"type": "function"
				},
				{
					"inputs": [],
					"name": "price",
					"outputs": [
						{
							"internalType": "uint256",
							"name": "",
							"type": "uint256"
						}
					],
					"stateMutability": "view",
					"type": "function"
				},
				{
					"inputs": [
						{
							"internalType": "uint256",
							"name": "",
							"type": "uint256"
						}
					],
					"name": "projects",
					"outputs": [
						{
							"internalType": "uint256",
							"name": "id",
							"type": "uint256"
						},
						{
							"internalType": "string",
							"name": "name",
							"type": "string"
						},
						{
							"internalType": "string",
							"name": "description",
							"type": "string"
						},
						{
							"internalType": "uint256",
							"name": "started",
							"type": "uint256"
						},
						{
							"internalType": "uint256",
							"name": "ended",
							"type": "uint256"
						},
						{
							"internalType": "string",
							"name": "primaryUrl",
							"type": "string"
						},
						{
							"internalType": "address",
							"name": "owner",
							"type": "address"
						},
						{
							"internalType": "bool",
							"name": "active",
							"type": "bool"
						},
						{
							"internalType": "bool",
							"name": "allowMembersToEdit",
							"type": "bool"
						}
					],
					"stateMutability": "view",
					"type": "function"
				},
				{
					"inputs": [
						{
							"internalType": "address",
							"name": "targetAddress",
							"type": "address"
						},
						{
							"internalType": "bool",
							"name": "isAdmin",
							"type": "bool"
						}
					],
					"name": "setAdmin",
					"outputs": [],
					"stateMutability": "nonpayable",
					"type": "function"
				},
				{
					"inputs": [
						{
							"internalType": "uint256",
							"name": "newPrice",
							"type": "uint256"
						}
					],
					"name": "setPrice",
					"outputs": [],
					"stateMutability": "nonpayable",
					"type": "function"
				},
				{
					"inputs": [
						{
							"internalType": "address",
							"name": "tokenAddress",
							"type": "address"
						},
						{
							"internalType": "uint256",
							"name": "tokenID",
							"type": "uint256"
						},
						{
							"internalType": "uint256",
							"name": "amount",
							"type": "uint256"
						},
						{
							"internalType": "bytes",
							"name": "data",
							"type": "bytes"
						}
					],
					"name": "withdrawERC1155",
					"outputs": [],
					"stateMutability": "nonpayable",
					"type": "function"
				},
				{
					"inputs": [
						{
							"internalType": "address",
							"name": "tokenAddress",
							"type": "address"
						},
						{
							"internalType": "uint256",
							"name": "amount",
							"type": "uint256"
						}
					],
					"name": "withdrawERC20",
					"outputs": [],
					"stateMutability": "nonpayable",
					"type": "function"
				},
				{
					"inputs": [
						{
							"internalType": "address",
							"name": "tokenAddress",
							"type": "address"
						},
						{
							"internalType": "uint256",
							"name": "tokenID",
							"type": "uint256"
						}
					],
					"name": "withdrawERC721",
					"outputs": [],
					"stateMutability": "nonpayable",
					"type": "function"
				},
				{
					"inputs": [],
					"name": "withdrawFunds",
					"outputs": [],
					"stateMutability": "nonpayable",
					"type": "function"
				}
			],
			"devdoc": {
				"author": "Mark Ibanez",
				"kind": "dev",
				"methods": {
					"create(string,string,uint256,uint256,string,string[])": {
						"params": {
							"description": "Project description",
							"ended": "Project ended (Unix timestamp, set to zero if you do not want to set any value)",
							"name": "Project name",
							"primaryUrl": "Project primary url",
							"started": "Project start (Unix timestamp, set to zero if you do not want to set any value)",
							"tags": "Project tags"
						}
					},
					"setAdmin(address,bool)": {
						"params": {
							"isAdmin": "Admin flag to set (true means address is admin, false mean address is not admin)",
							"targetAddress": "Target address to set admin flag"
						}
					},
					"setPrice(uint256)": {
						"params": {
							"newPrice": "New price for creating and updating projects"
						}
					},
					"withdrawERC1155(address,uint256,uint256,bytes)": {
						"params": {
							"tokenAddress": "Address of ERC1155 contract",
							"tokenID": "Token ID to withdraw"
						}
					},
					"withdrawERC20(address,uint256)": {
						"params": {
							"amount": "Amount to transfer",
							"tokenAddress": "Address of ERC20 contract"
						}
					},
					"withdrawERC721(address,uint256)": {
						"params": {
							"tokenAddress": "Address of ERC721 contract",
							"tokenID": "Token ID to withdraw"
						}
					}
				},
				"title": "GoingUP Platform Projects Smart Contract",
				"version": 1
			},
			"evm": {
				"assembly": "    /* \"contracts/GoingUpProjects.sol\":328:4104  contract GoingUpProjects {... */\n  mstore(0x40, 0x80)\n    /* \"contracts/GoingUpProjects.sol\":763:764  1 */\n  0x01\n    /* \"contracts/GoingUpProjects.sol\":735:764  uint256 private idCounter = 1 */\n  0x00\n  sstore\n    /* \"contracts/GoingUpProjects.sol\":1334:1346  1 * 10 ** 16 */\n  0x2386f26fc10000\n    /* \"contracts/GoingUpProjects.sol\":1311:1346  uint256 public price = 1 * 10 ** 16 */\n  0x03\n  sstore\n    /* \"contracts/GoingUpProjects.sol\":667:727  constructor () {        ... */\n  callvalue\n  dup1\n  iszero\n  tag_1\n  jumpi\n  0x00\n  dup1\n  revert\ntag_1:\n  pop\n    /* \"contracts/GoingUpProjects.sol\":701:706  owner */\n  0x01\n    /* \"contracts/GoingUpProjects.sol\":701:719  owner = msg.sender */\n  dup1\n  sload\n  not(sub(shl(0xa0, 0x01), 0x01))\n  and\n    /* \"contracts/GoingUpProjects.sol\":709:719  msg.sender */\n  caller\n    /* \"contracts/GoingUpProjects.sol\":701:719  owner = msg.sender */\n  or\n  swap1\n  sstore\n    /* \"contracts/GoingUpProjects.sol\":328:4104  contract GoingUpProjects {... */\n  dataSize(sub_0)\n  dup1\n  dataOffset(sub_0)\n  0x00\n  codecopy\n  0x00\n  return\nstop\n\nsub_0: assembly {\n        /* \"contracts/GoingUpProjects.sol\":328:4104  contract GoingUpProjects {... */\n      mstore(0x40, 0x80)\n      callvalue\n      dup1\n      iszero\n      tag_1\n      jumpi\n      0x00\n      dup1\n      revert\n    tag_1:\n      pop\n      jumpi(tag_2, lt(calldatasize, 0x04))\n      shr(0xe0, calldataload(0x00))\n      dup1\n      0x8da5cb5b\n      gt\n      tag_14\n      jumpi\n      dup1\n      0x8da5cb5b\n      eq\n      tag_8\n      jumpi\n      dup1\n      0x91b7f5ed\n      eq\n      tag_9\n      jumpi\n      dup1\n      0xa035b1fe\n      eq\n      tag_10\n      jumpi\n      dup1\n      0xa1538bde\n      eq\n      tag_11\n      jumpi\n      dup1\n      0xa1db9782\n      eq\n      tag_12\n      jumpi\n      dup1\n      0xf3e414f8\n      eq\n      tag_13\n      jumpi\n      0x00\n      dup1\n      revert\n    tag_14:\n      dup1\n      0x107046bd\n      eq\n      tag_3\n      jumpi\n      dup1\n      0x230abfd0\n      eq\n      tag_4\n      jumpi\n      dup1\n      0x24600fc3\n      eq\n      tag_5\n      jumpi\n      dup1\n      0x429b62e5\n      eq\n      tag_6\n      jumpi\n      dup1\n      0x4b0bddd2\n      eq\n      tag_7\n      jumpi\n    tag_2:\n      0x00\n      dup1\n      revert\n        /* \"contracts/GoingUpProjects.sol\":1619:1662  mapping(uint256 => Project) public projects */\n    tag_3:\n      tag_15\n      tag_16\n      calldatasize\n      0x04\n      tag_17\n      jump\t// in\n    tag_16:\n      tag_18\n      jump\t// in\n    tag_15:\n      mload(0x40)\n      tag_19\n      swap10\n      swap9\n      swap8\n      swap7\n      swap6\n      swap5\n      swap4\n      swap3\n      swap2\n      swap1\n      tag_20\n      jump\t// in\n    tag_19:\n      mload(0x40)\n      dup1\n      swap2\n      sub\n      swap1\n      return\n        /* \"contracts/GoingUpProjects.sol\":2072:2794  function create(string memory name, string memory description, uint started, uint ended, string memory primaryUrl, string[] memory tags) public {... */\n    tag_4:\n      tag_21\n      tag_22\n      calldatasize\n      0x04\n      tag_23\n      jump\t// in\n    tag_22:\n      tag_24\n      jump\t// in\n    tag_21:\n      stop\n        /* \"contracts/GoingUpProjects.sol\":2850:2962  function withdrawFunds() public onlyAdmin {... */\n    tag_5:\n      tag_21\n      tag_26\n      jump\t// in\n        /* \"contracts/GoingUpProjects.sol\":800:838  mapping(address => bool) public admins */\n    tag_6:\n      tag_27\n      tag_28\n      calldatasize\n      0x04\n      tag_29\n      jump\t// in\n    tag_28:\n      mstore(0x20, 0x02)\n      0x00\n      swap1\n      dup2\n      mstore\n      0x40\n      swap1\n      keccak256\n      sload\n      0xff\n      and\n      dup2\n      jump\n    tag_27:\n      mload(0x40)\n        /* \"#utility.yul\":5381:5395   */\n      swap1\n      iszero\n        /* \"#utility.yul\":5374:5396   */\n      iszero\n        /* \"#utility.yul\":5356:5397   */\n      dup2\n      mstore\n        /* \"#utility.yul\":5344:5346   */\n      0x20\n        /* \"#utility.yul\":5329:5347   */\n      add\n        /* \"contracts/GoingUpProjects.sol\":800:838  mapping(address => bool) public admins */\n      tag_19\n        /* \"#utility.yul\":5216:5403   */\n      jump\n        /* \"contracts/GoingUpProjects.sol\":1181:1303  function setAdmin(address targetAddress, bool isAdmin) public onlyAdmin {... */\n    tag_7:\n      tag_21\n      tag_34\n      calldatasize\n      0x04\n      tag_35\n      jump\t// in\n    tag_34:\n      tag_36\n      jump\t// in\n        /* \"contracts/GoingUpProjects.sol\":773:793  address public owner */\n    tag_8:\n      sload(0x01)\n      tag_37\n      swap1\n      sub(shl(0xa0, 0x01), 0x01)\n      and\n      dup2\n      jump\n    tag_37:\n      mload(0x40)\n      sub(shl(0xa0, 0x01), 0x01)\n        /* \"#utility.yul\":6015:6047   */\n      swap1\n      swap2\n      and\n        /* \"#utility.yul\":5997:6048   */\n      dup2\n      mstore\n        /* \"#utility.yul\":5985:5987   */\n      0x20\n        /* \"#utility.yul\":5970:5988   */\n      add\n        /* \"contracts/GoingUpProjects.sol\":773:793  address public owner */\n      tag_19\n        /* \"#utility.yul\":5851:6054   */\n      jump\n        /* \"contracts/GoingUpProjects.sol\":1523:1611  function setPrice(uint256 newPrice) public onlyAdmin {... */\n    tag_9:\n      tag_21\n      tag_42\n      calldatasize\n      0x04\n      tag_17\n      jump\t// in\n    tag_42:\n      tag_43\n      jump\t// in\n        /* \"contracts/GoingUpProjects.sol\":1311:1346  uint256 public price = 1 * 10 ** 16 */\n    tag_10:\n      tag_44\n      sload(0x03)\n      dup2\n      jump\n    tag_44:\n      mload(0x40)\n        /* \"#utility.yul\":6205:6230   */\n      swap1\n      dup2\n      mstore\n        /* \"#utility.yul\":6193:6195   */\n      0x20\n        /* \"#utility.yul\":6178:6196   */\n      add\n        /* \"contracts/GoingUpProjects.sol\":1311:1346  uint256 public price = 1 * 10 ** 16 */\n      tag_19\n        /* \"#utility.yul\":6059:6236   */\n      jump\n        /* \"contracts/GoingUpProjects.sol\":3826:4101  function withdrawERC1155(address tokenAddress, uint256 tokenID, uint256 amount, bytes memory data) external onlyAdmin {... */\n    tag_11:\n      tag_21\n      tag_49\n      calldatasize\n      0x04\n      tag_50\n      jump\t// in\n    tag_49:\n      tag_51\n      jump\t// in\n        /* \"contracts/GoingUpProjects.sol\":3106:3301  function withdrawERC20(address tokenAddress, uint256 amount) external onlyAdmin {... */\n    tag_12:\n      tag_21\n      tag_53\n      calldatasize\n      0x04\n      tag_54\n      jump\t// in\n    tag_53:\n      tag_55\n      jump\t// in\n        /* \"contracts/GoingUpProjects.sol\":3449:3672  function withdrawERC721(address tokenAddress, uint256 tokenID) external onlyAdmin {... */\n    tag_13:\n      tag_21\n      tag_57\n      calldatasize\n      0x04\n      tag_54\n      jump\t// in\n    tag_57:\n      tag_58\n      jump\t// in\n        /* \"contracts/GoingUpProjects.sol\":1619:1662  mapping(uint256 => Project) public projects */\n    tag_18:\n      mstore(0x20, 0x04)\n      0x00\n      swap1\n      dup2\n      mstore\n      0x40\n      swap1\n      keccak256\n      dup1\n      sload\n      0x01\n      dup3\n      add\n      dup1\n      sload\n      swap2\n      swap3\n      swap2\n      tag_59\n      swap1\n      tag_60\n      jump\t// in\n    tag_59:\n      dup1\n      0x1f\n      add\n      0x20\n      dup1\n      swap2\n      div\n      mul\n      0x20\n      add\n      mload(0x40)\n      swap1\n      dup2\n      add\n      0x40\n      mstore\n      dup1\n      swap3\n      swap2\n      swap1\n      dup2\n      dup2\n      mstore\n      0x20\n      add\n      dup3\n      dup1\n      sload\n      tag_61\n      swap1\n      tag_60\n      jump\t// in\n    tag_61:\n      dup1\n      iszero\n      tag_62\n      jumpi\n      dup1\n      0x1f\n      lt\n      tag_63\n      jumpi\n      0x0100\n      dup1\n      dup4\n      sload\n      div\n      mul\n      dup4\n      mstore\n      swap2\n      0x20\n      add\n      swap2\n      jump(tag_62)\n    tag_63:\n      dup3\n      add\n      swap2\n      swap1\n      0x00\n      mstore\n      keccak256(0x00, 0x20)\n      swap1\n    tag_64:\n      dup2\n      sload\n      dup2\n      mstore\n      swap1\n      0x01\n      add\n      swap1\n      0x20\n      add\n      dup1\n      dup4\n      gt\n      tag_64\n      jumpi\n      dup3\n      swap1\n      sub\n      0x1f\n      and\n      dup3\n      add\n      swap2\n    tag_62:\n      pop\n      pop\n      pop\n      pop\n      pop\n      swap1\n      dup1\n      0x02\n      add\n      dup1\n      sload\n      tag_65\n      swap1\n      tag_60\n      jump\t// in\n    tag_65:\n      dup1\n      0x1f\n      add\n      0x20\n      dup1\n      swap2\n      div\n      mul\n      0x20\n      add\n      mload(0x40)\n      swap1\n      dup2\n      add\n      0x40\n      mstore\n      dup1\n      swap3\n      swap2\n      swap1\n      dup2\n      dup2\n      mstore\n      0x20\n      add\n      dup3\n      dup1\n      sload\n      tag_66\n      swap1\n      tag_60\n      jump\t// in\n    tag_66:\n      dup1\n      iszero\n      tag_67\n      jumpi\n      dup1\n      0x1f\n      lt\n      tag_68\n      jumpi\n      0x0100\n      dup1\n      dup4\n      sload\n      div\n      mul\n      dup4\n      mstore\n      swap2\n      0x20\n      add\n      swap2\n      jump(tag_67)\n    tag_68:\n      dup3\n      add\n      swap2\n      swap1\n      0x00\n      mstore\n      keccak256(0x00, 0x20)\n      swap1\n    tag_69:\n      dup2\n      sload\n      dup2\n      mstore\n      swap1\n      0x01\n      add\n      swap1\n      0x20\n      add\n      dup1\n      dup4\n      gt\n      tag_69\n      jumpi\n      dup3\n      swap1\n      sub\n      0x1f\n      and\n      dup3\n      add\n      swap2\n    tag_67:\n      pop\n      pop\n      pop\n      pop\n      pop\n      swap1\n      dup1\n      0x03\n      add\n      sload\n      swap1\n      dup1\n      0x04\n      add\n      sload\n      swap1\n      dup1\n      0x05\n      add\n      dup1\n      sload\n      tag_70\n      swap1\n      tag_60\n      jump\t// in\n    tag_70:\n      dup1\n      0x1f\n      add\n      0x20\n      dup1\n      swap2\n      div\n      mul\n      0x20\n      add\n      mload(0x40)\n      swap1\n      dup2\n      add\n      0x40\n      mstore\n      dup1\n      swap3\n      swap2\n      swap1\n      dup2\n      dup2\n      mstore\n      0x20\n      add\n      dup3\n      dup1\n      sload\n      tag_71\n      swap1\n      tag_60\n      jump\t// in\n    tag_71:\n      dup1\n      iszero\n      tag_72\n      jumpi\n      dup1\n      0x1f\n      lt\n      tag_73\n      jumpi\n      0x0100\n      dup1\n      dup4\n      sload\n      div\n      mul\n      dup4\n      mstore\n      swap2\n      0x20\n      add\n      swap2\n      jump(tag_72)\n    tag_73:\n      dup3\n      add\n      swap2\n      swap1\n      0x00\n      mstore\n      keccak256(0x00, 0x20)\n      swap1\n    tag_74:\n      dup2\n      sload\n      dup2\n      mstore\n      swap1\n      0x01\n      add\n      swap1\n      0x20\n      add\n      dup1\n      dup4\n      gt\n      tag_74\n      jumpi\n      dup3\n      swap1\n      sub\n      0x1f\n      and\n      dup3\n      add\n      swap2\n    tag_72:\n      pop\n      pop\n      pop\n      pop\n      0x07\n      dup4\n      add\n      sload\n      0x09\n      swap1\n      swap4\n      add\n      sload\n      swap2\n      swap3\n      sub(shl(0xa0, 0x01), 0x01)\n      and\n      swap2\n      0xff\n      dup1\n      dup3\n      and\n      swap3\n      pop\n      0x0100\n      swap1\n      swap2\n      div\n      and\n      dup10\n      jump\t// out\n        /* \"contracts/GoingUpProjects.sol\":2072:2794  function create(string memory name, string memory description, uint started, uint ended, string memory primaryUrl, string[] memory tags) public {... */\n    tag_24:\n        /* \"contracts/GoingUpProjects.sol\":2227:2252  Project memory newProject */\n      tag_76\n      mload(0x40)\n      dup1\n      0x0160\n      add\n      0x40\n      mstore\n      dup1\n      0x00\n      dup2\n      mstore\n      0x20\n      add\n      0x60\n      dup2\n      mstore\n      0x20\n      add\n      0x60\n      dup2\n      mstore\n      0x20\n      add\n      0x00\n      dup2\n      mstore\n      0x20\n      add\n      0x00\n      dup2\n      mstore\n      0x20\n      add\n      0x60\n      dup2\n      mstore\n      0x20\n      add\n      0x60\n      dup2\n      mstore\n      0x20\n      add\n      and(sub(shl(0xa0, 0x01), 0x01), 0x00)\n      dup2\n      mstore\n      0x20\n      add\n      0x60\n      dup2\n      mstore\n      0x20\n      add\n      iszero(iszero(0x00))\n      dup2\n      mstore\n      0x20\n      add\n      iszero(iszero(0x00))\n      dup2\n      mstore\n      pop\n      swap1\n      jump\n    tag_76:\n        /* \"contracts/GoingUpProjects.sol\":2281:2290  idCounter */\n      0x00\n      dup1\n      sload\n        /* \"contracts/GoingUpProjects.sol\":2265:2290  newProject.id = idCounter */\n      dup1\n      dup4\n      mstore\n        /* \"contracts/GoingUpProjects.sol\":2301:2316  newProject.name */\n      0x20\n      dup1\n      dup5\n      add\n        /* \"contracts/GoingUpProjects.sol\":2301:2323  newProject.name = name */\n      dup11\n      dup2\n      mstore\n        /* \"contracts/GoingUpProjects.sol\":2334:2356  newProject.description */\n      0x40\n      dup1\n      dup7\n      add\n        /* \"contracts/GoingUpProjects.sol\":2334:2370  newProject.description = description */\n      dup12\n      swap1\n      mstore\n        /* \"contracts/GoingUpProjects.sol\":2381:2399  newProject.started */\n      0x60\n      dup1\n      dup8\n      add\n        /* \"contracts/GoingUpProjects.sol\":2381:2409  newProject.started = started */\n      dup12\n      swap1\n      mstore\n        /* \"contracts/GoingUpProjects.sol\":2420:2436  newProject.ended */\n      0x80\n      dup8\n      add\n        /* \"contracts/GoingUpProjects.sol\":2420:2444  newProject.ended = ended */\n      dup11\n      swap1\n      mstore\n        /* \"contracts/GoingUpProjects.sol\":2455:2476  newProject.primaryUrl */\n      0xa0\n      dup8\n      add\n        /* \"contracts/GoingUpProjects.sol\":2455:2489  newProject.primaryUrl = primaryUrl */\n      dup10\n      swap1\n      mstore\n        /* \"contracts/GoingUpProjects.sol\":2500:2515  newProject.tags */\n      0xc0\n      dup8\n      add\n        /* \"contracts/GoingUpProjects.sol\":2500:2522  newProject.tags = tags */\n      dup9\n      swap1\n      mstore\n        /* \"contracts/GoingUpProjects.sol\":2552:2562  msg.sender */\n      caller\n        /* \"contracts/GoingUpProjects.sol\":2533:2549  newProject.owner */\n      0xe0\n      dup9\n      add\n        /* \"contracts/GoingUpProjects.sol\":2533:2562  newProject.owner = msg.sender */\n      mstore\n        /* \"contracts/GoingUpProjects.sol\":2608:2626  newProject.members */\n      0x0100\n      dup8\n      add\n        /* \"contracts/GoingUpProjects.sol\":2608:2636  newProject.members = members */\n      dup2\n      swap1\n      mstore\n        /* \"contracts/GoingUpProjects.sol\":2667:2671  true */\n      0x01\n        /* \"contracts/GoingUpProjects.sol\":2647:2664  newProject.active */\n      0x0120\n      dup9\n      add\n        /* \"contracts/GoingUpProjects.sol\":2647:2671  newProject.active = true */\n      dup2\n      swap1\n      mstore\n        /* \"contracts/GoingUpProjects.sol\":2682:2711  newProject.allowMembersToEdit */\n      0x0140\n      dup9\n      add\n        /* \"contracts/GoingUpProjects.sol\":2682:2719  newProject.allowMembersToEdit = false */\n      dup8\n      swap1\n      mstore\n        /* \"contracts/GoingUpProjects.sol\":2732:2751  projects[idCounter] */\n      swap5\n      dup7\n      mstore\n        /* \"contracts/GoingUpProjects.sol\":2732:2740  projects */\n      0x04\n        /* \"contracts/GoingUpProjects.sol\":2732:2751  projects[idCounter] */\n      dup5\n      mstore\n      swap5\n      keccak256\n        /* \"contracts/GoingUpProjects.sol\":2732:2764  projects[idCounter] = newProject */\n      dup6\n      mload\n      dup2\n      sstore\n      swap1\n      mload\n      dup1\n      mload\n        /* \"contracts/GoingUpProjects.sol\":2265:2275  newProject */\n      dup7\n      swap5\n        /* \"contracts/GoingUpProjects.sol\":2732:2751  projects[idCounter] */\n      swap3\n      swap4\n        /* \"contracts/GoingUpProjects.sol\":2732:2764  projects[idCounter] = newProject */\n      tag_78\n      swap4\n      dup6\n      add\n      swap3\n      add\n      swap1\n      tag_79\n      jump\t// in\n    tag_78:\n      pop\n      0x40\n      dup3\n      add\n      mload\n      dup1\n      mload\n      tag_80\n      swap2\n      0x02\n      dup5\n      add\n      swap2\n      0x20\n      swap1\n      swap2\n      add\n      swap1\n      tag_79\n      jump\t// in\n    tag_80:\n      pop\n      0x60\n      dup3\n      add\n      mload\n      0x03\n      dup3\n      add\n      sstore\n      0x80\n      dup3\n      add\n      mload\n      0x04\n      dup3\n      add\n      sstore\n      0xa0\n      dup3\n      add\n      mload\n      dup1\n      mload\n      tag_81\n      swap2\n      0x05\n      dup5\n      add\n      swap2\n      0x20\n      swap1\n      swap2\n      add\n      swap1\n      tag_79\n      jump\t// in\n    tag_81:\n      pop\n      0xc0\n      dup3\n      add\n      mload\n      dup1\n      mload\n      tag_82\n      swap2\n      0x06\n      dup5\n      add\n      swap2\n      0x20\n      swap1\n      swap2\n      add\n      swap1\n      tag_83\n      jump\t// in\n    tag_82:\n      pop\n      0xe0\n      dup3\n      add\n      mload\n      0x07\n      dup3\n      add\n      dup1\n      sload\n      not(sub(shl(0xa0, 0x01), 0x01))\n      and\n      sub(shl(0xa0, 0x01), 0x01)\n      swap1\n      swap3\n      and\n      swap2\n      swap1\n      swap2\n      or\n      swap1\n      sstore\n      0x0100\n      dup3\n      add\n      mload\n      dup1\n      mload\n      tag_84\n      swap2\n      0x08\n      dup5\n      add\n      swap2\n      0x20\n      swap1\n      swap2\n      add\n      swap1\n      tag_85\n      jump\t// in\n    tag_84:\n      pop\n      0x0120\n      dup3\n      add\n      mload\n      0x09\n      swap1\n      swap2\n      add\n      dup1\n      sload\n      0x0140\n      swap1\n      swap4\n      add\n      mload\n      iszero\n      iszero\n      0x0100\n      mul\n      not(0xff00)\n      swap3\n      iszero\n      iszero\n      swap3\n      swap1\n      swap3\n      and\n      not(0xffff)\n      swap1\n      swap4\n      and\n      swap3\n      swap1\n      swap3\n      or\n      or\n      swap1\n      sstore\n      0x00\n        /* \"contracts/GoingUpProjects.sol\":2775:2786  idCounter++ */\n      dup1\n      sload\n      swap1\n        /* \"contracts/GoingUpProjects.sol\":2732:2764  projects[idCounter] = newProject */\n      dup1\n        /* \"contracts/GoingUpProjects.sol\":2775:2786  idCounter++ */\n      tag_86\n      dup4\n      tag_87\n      jump\t// in\n    tag_86:\n      swap2\n      swap1\n      pop\n      sstore\n      pop\n        /* \"contracts/GoingUpProjects.sol\":2216:2794  {... */\n      pop\n      pop\n        /* \"contracts/GoingUpProjects.sol\":2072:2794  function create(string memory name, string memory description, uint started, uint ended, string memory primaryUrl, string[] memory tags) public {... */\n      pop\n      pop\n      pop\n      pop\n      pop\n      pop\n      jump\t// out\n        /* \"contracts/GoingUpProjects.sol\":2850:2962  function withdrawFunds() public onlyAdmin {... */\n    tag_26:\n        /* \"contracts/GoingUpProjects.sol\":883:888  owner */\n      and(sub(shl(0xa0, 0x01), 0x01), sload(0x01))\n        /* \"contracts/GoingUpProjects.sol\":892:902  msg.sender */\n      caller\n        /* \"contracts/GoingUpProjects.sol\":883:902  owner == msg.sender */\n      eq\n      dup1\n        /* \"contracts/GoingUpProjects.sol\":883:924  owner == msg.sender || admins[msg.sender] */\n      tag_89\n      jumpi\n      pop\n        /* \"contracts/GoingUpProjects.sol\":913:923  msg.sender */\n      caller\n        /* \"contracts/GoingUpProjects.sol\":906:924  admins[msg.sender] */\n      0x00\n      swap1\n      dup2\n      mstore\n        /* \"contracts/GoingUpProjects.sol\":906:912  admins */\n      0x02\n        /* \"contracts/GoingUpProjects.sol\":906:924  admins[msg.sender] */\n      0x20\n      mstore\n      0x40\n      swap1\n      keccak256\n      sload\n      0xff\n      and\n        /* \"contracts/GoingUpProjects.sol\":883:924  owner == msg.sender || admins[msg.sender] */\n    tag_89:\n        /* \"contracts/GoingUpProjects.sol\":875:938  require(owner == msg.sender || admins[msg.sender], \"not admin\") */\n      tag_90\n      jumpi\n      mload(0x40)\n      shl(0xe5, 0x461bcd)\n      dup2\n      mstore\n      0x04\n      add\n      tag_91\n      swap1\n      tag_92\n      jump\t// in\n    tag_91:\n      mload(0x40)\n      dup1\n      swap2\n      sub\n      swap1\n      revert\n    tag_90:\n        /* \"contracts/GoingUpProjects.sol\":2903:2954  payable(msg.sender).transfer(address(this).balance) */\n      mload(0x40)\n        /* \"contracts/GoingUpProjects.sol\":2911:2921  msg.sender */\n      caller\n      swap1\n        /* \"contracts/GoingUpProjects.sol\":2932:2953  address(this).balance */\n      selfbalance\n        /* \"contracts/GoingUpProjects.sol\":2903:2954  payable(msg.sender).transfer(address(this).balance) */\n      dup1\n      iszero\n      0x08fc\n      mul\n      swap2\n      0x00\n      dup2\n      dup2\n      dup2\n        /* \"contracts/GoingUpProjects.sol\":2932:2953  address(this).balance */\n      dup6\n        /* \"contracts/GoingUpProjects.sol\":2911:2921  msg.sender */\n      dup9\n        /* \"contracts/GoingUpProjects.sol\":2903:2954  payable(msg.sender).transfer(address(this).balance) */\n      dup9\n      call\n      swap4\n      pop\n      pop\n      pop\n      pop\n      iszero\n      dup1\n      iszero\n      tag_95\n      jumpi\n      returndatasize\n      0x00\n      dup1\n      returndatacopy\n      revert(0x00, returndatasize)\n    tag_95:\n      pop\n        /* \"contracts/GoingUpProjects.sol\":2850:2962  function withdrawFunds() public onlyAdmin {... */\n      jump\t// out\n        /* \"contracts/GoingUpProjects.sol\":1181:1303  function setAdmin(address targetAddress, bool isAdmin) public onlyAdmin {... */\n    tag_36:\n        /* \"contracts/GoingUpProjects.sol\":883:888  owner */\n      and(sub(shl(0xa0, 0x01), 0x01), sload(0x01))\n        /* \"contracts/GoingUpProjects.sol\":892:902  msg.sender */\n      caller\n        /* \"contracts/GoingUpProjects.sol\":883:902  owner == msg.sender */\n      eq\n      dup1\n        /* \"contracts/GoingUpProjects.sol\":883:924  owner == msg.sender || admins[msg.sender] */\n      tag_97\n      jumpi\n      pop\n        /* \"contracts/GoingUpProjects.sol\":913:923  msg.sender */\n      caller\n        /* \"contracts/GoingUpProjects.sol\":906:924  admins[msg.sender] */\n      0x00\n      swap1\n      dup2\n      mstore\n        /* \"contracts/GoingUpProjects.sol\":906:912  admins */\n      0x02\n        /* \"contracts/GoingUpProjects.sol\":906:924  admins[msg.sender] */\n      0x20\n      mstore\n      0x40\n      swap1\n      keccak256\n      sload\n      0xff\n      and\n        /* \"contracts/GoingUpProjects.sol\":883:924  owner == msg.sender || admins[msg.sender] */\n    tag_97:\n        /* \"contracts/GoingUpProjects.sol\":875:938  require(owner == msg.sender || admins[msg.sender], \"not admin\") */\n      tag_98\n      jumpi\n      mload(0x40)\n      shl(0xe5, 0x461bcd)\n      dup2\n      mstore\n      0x04\n      add\n      tag_91\n      swap1\n      tag_92\n      jump\t// in\n    tag_98:\n      sub(shl(0xa0, 0x01), 0x01)\n        /* \"contracts/GoingUpProjects.sol\":1264:1285  admins[targetAddress] */\n      swap2\n      swap1\n      swap2\n      and\n      0x00\n      swap1\n      dup2\n      mstore\n        /* \"contracts/GoingUpProjects.sol\":1264:1270  admins */\n      0x02\n        /* \"contracts/GoingUpProjects.sol\":1264:1285  admins[targetAddress] */\n      0x20\n      mstore\n      0x40\n      swap1\n      keccak256\n        /* \"contracts/GoingUpProjects.sol\":1264:1295  admins[targetAddress] = isAdmin */\n      dup1\n      sload\n      not(0xff)\n      and\n      swap2\n      iszero\n      iszero\n      swap2\n      swap1\n      swap2\n      or\n      swap1\n      sstore\n        /* \"contracts/GoingUpProjects.sol\":1181:1303  function setAdmin(address targetAddress, bool isAdmin) public onlyAdmin {... */\n      jump\t// out\n        /* \"contracts/GoingUpProjects.sol\":1523:1611  function setPrice(uint256 newPrice) public onlyAdmin {... */\n    tag_43:\n        /* \"contracts/GoingUpProjects.sol\":883:888  owner */\n      and(sub(shl(0xa0, 0x01), 0x01), sload(0x01))\n        /* \"contracts/GoingUpProjects.sol\":892:902  msg.sender */\n      caller\n        /* \"contracts/GoingUpProjects.sol\":883:902  owner == msg.sender */\n      eq\n      dup1\n        /* \"contracts/GoingUpProjects.sol\":883:924  owner == msg.sender || admins[msg.sender] */\n      tag_102\n      jumpi\n      pop\n        /* \"contracts/GoingUpProjects.sol\":913:923  msg.sender */\n      caller\n        /* \"contracts/GoingUpProjects.sol\":906:924  admins[msg.sender] */\n      0x00\n      swap1\n      dup2\n      mstore\n        /* \"contracts/GoingUpProjects.sol\":906:912  admins */\n      0x02\n        /* \"contracts/GoingUpProjects.sol\":906:924  admins[msg.sender] */\n      0x20\n      mstore\n      0x40\n      swap1\n      keccak256\n      sload\n      0xff\n      and\n        /* \"contracts/GoingUpProjects.sol\":883:924  owner == msg.sender || admins[msg.sender] */\n    tag_102:\n        /* \"contracts/GoingUpProjects.sol\":875:938  require(owner == msg.sender || admins[msg.sender], \"not admin\") */\n      tag_103\n      jumpi\n      mload(0x40)\n      shl(0xe5, 0x461bcd)\n      dup2\n      mstore\n      0x04\n      add\n      tag_91\n      swap1\n      tag_92\n      jump\t// in\n    tag_103:\n        /* \"contracts/GoingUpProjects.sol\":1587:1592  price */\n      0x03\n        /* \"contracts/GoingUpProjects.sol\":1587:1603  price = newPrice */\n      sstore\n        /* \"contracts/GoingUpProjects.sol\":1523:1611  function setPrice(uint256 newPrice) public onlyAdmin {... */\n      jump\t// out\n        /* \"contracts/GoingUpProjects.sol\":3826:4101  function withdrawERC1155(address tokenAddress, uint256 tokenID, uint256 amount, bytes memory data) external onlyAdmin {... */\n    tag_51:\n        /* \"contracts/GoingUpProjects.sol\":883:888  owner */\n      and(sub(shl(0xa0, 0x01), 0x01), sload(0x01))\n        /* \"contracts/GoingUpProjects.sol\":892:902  msg.sender */\n      caller\n        /* \"contracts/GoingUpProjects.sol\":883:902  owner == msg.sender */\n      eq\n      dup1\n        /* \"contracts/GoingUpProjects.sol\":883:924  owner == msg.sender || admins[msg.sender] */\n      tag_107\n      jumpi\n      pop\n        /* \"contracts/GoingUpProjects.sol\":913:923  msg.sender */\n      caller\n        /* \"contracts/GoingUpProjects.sol\":906:924  admins[msg.sender] */\n      0x00\n      swap1\n      dup2\n      mstore\n        /* \"contracts/GoingUpProjects.sol\":906:912  admins */\n      0x02\n        /* \"contracts/GoingUpProjects.sol\":906:924  admins[msg.sender] */\n      0x20\n      mstore\n      0x40\n      swap1\n      keccak256\n      sload\n      0xff\n      and\n        /* \"contracts/GoingUpProjects.sol\":883:924  owner == msg.sender || admins[msg.sender] */\n    tag_107:\n        /* \"contracts/GoingUpProjects.sol\":875:938  require(owner == msg.sender || admins[msg.sender], \"not admin\") */\n      tag_108\n      jumpi\n      mload(0x40)\n      shl(0xe5, 0x461bcd)\n      dup2\n      mstore\n      0x04\n      add\n      tag_91\n      swap1\n      tag_92\n      jump\t// in\n    tag_108:\n        /* \"contracts/GoingUpProjects.sol\":4013:4093  tokenContract.safeTransferFrom(address(this), msg.sender, tokenID, amount, data) */\n      mload(0x40)\n      shl(0xe1, 0x79212195)\n      dup2\n      mstore\n        /* \"contracts/GoingUpProjects.sol\":3989:4001  tokenAddress */\n      dup5\n      swap1\n      sub(shl(0xa0, 0x01), 0x01)\n        /* \"contracts/GoingUpProjects.sol\":4013:4043  tokenContract.safeTransferFrom */\n      dup3\n      and\n      swap1\n      0xf242432a\n      swap1\n        /* \"contracts/GoingUpProjects.sol\":4013:4093  tokenContract.safeTransferFrom(address(this), msg.sender, tokenID, amount, data) */\n      tag_111\n      swap1\n        /* \"contracts/GoingUpProjects.sol\":4052:4056  this */\n      address\n      swap1\n        /* \"contracts/GoingUpProjects.sol\":4059:4069  msg.sender */\n      caller\n      swap1\n        /* \"contracts/GoingUpProjects.sol\":4071:4078  tokenID */\n      dup10\n      swap1\n        /* \"contracts/GoingUpProjects.sol\":4080:4086  amount */\n      dup10\n      swap1\n        /* \"contracts/GoingUpProjects.sol\":4088:4092  data */\n      dup10\n      swap1\n        /* \"contracts/GoingUpProjects.sol\":4013:4093  tokenContract.safeTransferFrom(address(this), msg.sender, tokenID, amount, data) */\n      0x04\n      add\n      tag_112\n      jump\t// in\n    tag_111:\n      0x00\n      mload(0x40)\n      dup1\n      dup4\n      sub\n      dup2\n      0x00\n      dup8\n      dup1\n      extcodesize\n      iszero\n      dup1\n      iszero\n      tag_113\n      jumpi\n      0x00\n      dup1\n      revert\n    tag_113:\n      pop\n      gas\n      call\n      iszero\n      dup1\n      iszero\n      tag_115\n      jumpi\n      returndatasize\n      0x00\n      dup1\n      returndatacopy\n      revert(0x00, returndatasize)\n    tag_115:\n      pop\n      pop\n      pop\n      pop\n        /* \"contracts/GoingUpProjects.sol\":3944:4101  {... */\n      pop\n        /* \"contracts/GoingUpProjects.sol\":3826:4101  function withdrawERC1155(address tokenAddress, uint256 tokenID, uint256 amount, bytes memory data) external onlyAdmin {... */\n      pop\n      pop\n      pop\n      pop\n      jump\t// out\n        /* \"contracts/GoingUpProjects.sol\":3106:3301  function withdrawERC20(address tokenAddress, uint256 amount) external onlyAdmin {... */\n    tag_55:\n        /* \"contracts/GoingUpProjects.sol\":883:888  owner */\n      and(sub(shl(0xa0, 0x01), 0x01), sload(0x01))\n        /* \"contracts/GoingUpProjects.sol\":892:902  msg.sender */\n      caller\n        /* \"contracts/GoingUpProjects.sol\":883:902  owner == msg.sender */\n      eq\n      dup1\n        /* \"contracts/GoingUpProjects.sol\":883:924  owner == msg.sender || admins[msg.sender] */\n      tag_117\n      jumpi\n      pop\n        /* \"contracts/GoingUpProjects.sol\":913:923  msg.sender */\n      caller\n        /* \"contracts/GoingUpProjects.sol\":906:924  admins[msg.sender] */\n      0x00\n      swap1\n      dup2\n      mstore\n        /* \"contracts/GoingUpProjects.sol\":906:912  admins */\n      0x02\n        /* \"contracts/GoingUpProjects.sol\":906:924  admins[msg.sender] */\n      0x20\n      mstore\n      0x40\n      swap1\n      keccak256\n      sload\n      0xff\n      and\n        /* \"contracts/GoingUpProjects.sol\":883:924  owner == msg.sender || admins[msg.sender] */\n    tag_117:\n        /* \"contracts/GoingUpProjects.sol\":875:938  require(owner == msg.sender || admins[msg.sender], \"not admin\") */\n      tag_118\n      jumpi\n      mload(0x40)\n      shl(0xe5, 0x461bcd)\n      dup2\n      mstore\n      0x04\n      add\n      tag_91\n      swap1\n      tag_92\n      jump\t// in\n    tag_118:\n        /* \"contracts/GoingUpProjects.sol\":3251:3293  tokenContract.transfer(msg.sender, amount) */\n      mload(0x40)\n      shl(0xe0, 0xa9059cbb)\n      dup2\n      mstore\n        /* \"contracts/GoingUpProjects.sol\":3274:3284  msg.sender */\n      caller\n        /* \"contracts/GoingUpProjects.sol\":3251:3293  tokenContract.transfer(msg.sender, amount) */\n      0x04\n      dup3\n      add\n        /* \"#utility.yul\":8865:8916   */\n      mstore\n        /* \"#utility.yul\":8932:8950   */\n      0x24\n      dup2\n      add\n        /* \"#utility.yul\":8925:8959   */\n      dup3\n      swap1\n      mstore\n        /* \"contracts/GoingUpProjects.sol\":3227:3239  tokenAddress */\n      dup3\n      swap1\n      sub(shl(0xa0, 0x01), 0x01)\n        /* \"contracts/GoingUpProjects.sol\":3251:3273  tokenContract.transfer */\n      dup3\n      and\n      swap1\n      0xa9059cbb\n      swap1\n        /* \"#utility.yul\":8838:8856   */\n      0x44\n      add\n        /* \"contracts/GoingUpProjects.sol\":3251:3293  tokenContract.transfer(msg.sender, amount) */\n      0x20\n      mload(0x40)\n      dup1\n      dup4\n      sub\n      dup2\n      0x00\n      dup8\n      gas\n      call\n      iszero\n      dup1\n      iszero\n      tag_124\n      jumpi\n      returndatasize\n      0x00\n      dup1\n      returndatacopy\n      revert(0x00, returndatasize)\n    tag_124:\n      pop\n      pop\n      pop\n      pop\n      mload(0x40)\n      returndatasize\n      not(0x1f)\n      0x1f\n      dup3\n      add\n      and\n      dup3\n      add\n      dup1\n      0x40\n      mstore\n      pop\n      dup2\n      add\n      swap1\n      tag_125\n      swap2\n      swap1\n      tag_126\n      jump\t// in\n    tag_125:\n      pop\n        /* \"contracts/GoingUpProjects.sol\":3186:3301  {... */\n      pop\n        /* \"contracts/GoingUpProjects.sol\":3106:3301  function withdrawERC20(address tokenAddress, uint256 amount) external onlyAdmin {... */\n      pop\n      pop\n      jump\t// out\n        /* \"contracts/GoingUpProjects.sol\":3449:3672  function withdrawERC721(address tokenAddress, uint256 tokenID) external onlyAdmin {... */\n    tag_58:\n        /* \"contracts/GoingUpProjects.sol\":883:888  owner */\n      and(sub(shl(0xa0, 0x01), 0x01), sload(0x01))\n        /* \"contracts/GoingUpProjects.sol\":892:902  msg.sender */\n      caller\n        /* \"contracts/GoingUpProjects.sol\":883:902  owner == msg.sender */\n      eq\n      dup1\n        /* \"contracts/GoingUpProjects.sol\":883:924  owner == msg.sender || admins[msg.sender] */\n      tag_128\n      jumpi\n      pop\n        /* \"contracts/GoingUpProjects.sol\":913:923  msg.sender */\n      caller\n        /* \"contracts/GoingUpProjects.sol\":906:924  admins[msg.sender] */\n      0x00\n      swap1\n      dup2\n      mstore\n        /* \"contracts/GoingUpProjects.sol\":906:912  admins */\n      0x02\n        /* \"contracts/GoingUpProjects.sol\":906:924  admins[msg.sender] */\n      0x20\n      mstore\n      0x40\n      swap1\n      keccak256\n      sload\n      0xff\n      and\n        /* \"contracts/GoingUpProjects.sol\":883:924  owner == msg.sender || admins[msg.sender] */\n    tag_128:\n        /* \"contracts/GoingUpProjects.sol\":875:938  require(owner == msg.sender || admins[msg.sender], \"not admin\") */\n      tag_129\n      jumpi\n      mload(0x40)\n      shl(0xe5, 0x461bcd)\n      dup2\n      mstore\n      0x04\n      add\n      tag_91\n      swap1\n      tag_92\n      jump\t// in\n    tag_129:\n        /* \"contracts/GoingUpProjects.sol\":3598:3664  tokenContract.safeTransferFrom(address(this), msg.sender, tokenID) */\n      mload(0x40)\n      shl(0xe1, 0x21421707)\n      dup2\n      mstore\n        /* \"contracts/GoingUpProjects.sol\":3637:3641  this */\n      address\n        /* \"contracts/GoingUpProjects.sol\":3598:3664  tokenContract.safeTransferFrom(address(this), msg.sender, tokenID) */\n      0x04\n      dup3\n      add\n        /* \"#utility.yul\":9460:9494   */\n      mstore\n        /* \"contracts/GoingUpProjects.sol\":3644:3654  msg.sender */\n      caller\n        /* \"#utility.yul\":9510:9528   */\n      0x24\n      dup3\n      add\n        /* \"#utility.yul\":9503:9546   */\n      mstore\n        /* \"#utility.yul\":9562:9580   */\n      0x44\n      dup2\n      add\n        /* \"#utility.yul\":9555:9589   */\n      dup3\n      swap1\n      mstore\n        /* \"contracts/GoingUpProjects.sol\":3574:3586  tokenAddress */\n      dup3\n      swap1\n      sub(shl(0xa0, 0x01), 0x01)\n        /* \"contracts/GoingUpProjects.sol\":3598:3628  tokenContract.safeTransferFrom */\n      dup3\n      and\n      swap1\n      0x42842e0e\n      swap1\n        /* \"#utility.yul\":9395:9413   */\n      0x64\n      add\n        /* \"contracts/GoingUpProjects.sol\":3598:3664  tokenContract.safeTransferFrom(address(this), msg.sender, tokenID) */\n      0x00\n      mload(0x40)\n      dup1\n      dup4\n      sub\n      dup2\n      0x00\n      dup8\n      dup1\n      extcodesize\n      iszero\n      dup1\n      iszero\n      tag_134\n      jumpi\n      0x00\n      dup1\n      revert\n    tag_134:\n      pop\n      gas\n      call\n      iszero\n      dup1\n      iszero\n      tag_136\n      jumpi\n      returndatasize\n      0x00\n      dup1\n      returndatacopy\n      revert(0x00, returndatasize)\n    tag_136:\n      pop\n      pop\n      pop\n      pop\n        /* \"contracts/GoingUpProjects.sol\":3531:3672  {... */\n      pop\n        /* \"contracts/GoingUpProjects.sol\":3449:3672  function withdrawERC721(address tokenAddress, uint256 tokenID) external onlyAdmin {... */\n      pop\n      pop\n      jump\t// out\n    tag_79:\n      dup3\n      dup1\n      sload\n      tag_137\n      swap1\n      tag_60\n      jump\t// in\n    tag_137:\n      swap1\n      0x00\n      mstore\n      keccak256(0x00, 0x20)\n      swap1\n      0x1f\n      add\n      0x20\n      swap1\n      div\n      dup2\n      add\n      swap3\n      dup3\n      tag_139\n      jumpi\n      0x00\n      dup6\n      sstore\n      jump(tag_142)\n    tag_139:\n      dup3\n      0x1f\n      lt\n      tag_140\n      jumpi\n      dup1\n      mload\n      not(0xff)\n      and\n      dup4\n      dup1\n      add\n      or\n      dup6\n      sstore\n      jump(tag_142)\n    tag_140:\n      dup3\n      dup1\n      add\n      0x01\n      add\n      dup6\n      sstore\n      dup3\n      iszero\n      tag_142\n      jumpi\n      swap2\n      dup3\n      add\n    tag_141:\n      dup3\n      dup2\n      gt\n      iszero\n      tag_142\n      jumpi\n      dup3\n      mload\n      dup3\n      sstore\n      swap2\n      0x20\n      add\n      swap2\n      swap1\n      0x01\n      add\n      swap1\n      jump(tag_141)\n    tag_142:\n      pop\n      tag_143\n      swap3\n      swap2\n      pop\n      tag_144\n      jump\t// in\n    tag_143:\n      pop\n      swap1\n      jump\t// out\n    tag_83:\n      dup3\n      dup1\n      sload\n      dup3\n      dup3\n      sstore\n      swap1\n      0x00\n      mstore\n      keccak256(0x00, 0x20)\n      swap1\n      dup2\n      add\n      swap3\n      dup3\n      iszero\n      tag_147\n      jumpi\n      swap2\n      0x20\n      mul\n      dup3\n      add\n    tag_146:\n      dup3\n      dup2\n      gt\n      iszero\n      tag_147\n      jumpi\n      dup3\n      mload\n      dup1\n      mload\n      tag_148\n      swap2\n      dup5\n      swap2\n      0x20\n      swap1\n      swap2\n      add\n      swap1\n      tag_79\n      jump\t// in\n    tag_148:\n      pop\n      swap2\n      0x20\n      add\n      swap2\n      swap1\n      0x01\n      add\n      swap1\n      jump(tag_146)\n    tag_147:\n      pop\n      tag_143\n      swap3\n      swap2\n      pop\n      tag_150\n      jump\t// in\n    tag_85:\n      dup3\n      dup1\n      sload\n      dup3\n      dup3\n      sstore\n      swap1\n      0x00\n      mstore\n      keccak256(0x00, 0x20)\n      swap1\n      dup2\n      add\n      swap3\n      dup3\n      iszero\n      tag_142\n      jumpi\n      swap2\n      0x20\n      mul\n      dup3\n      add\n    tag_152:\n      dup3\n      dup2\n      gt\n      iszero\n      tag_142\n      jumpi\n      dup3\n      mload\n      dup3\n      sload\n      not(sub(shl(0xa0, 0x01), 0x01))\n      and\n      sub(shl(0xa0, 0x01), 0x01)\n      swap1\n      swap2\n      and\n      or\n      dup3\n      sstore\n      0x20\n      swap1\n      swap3\n      add\n      swap2\n      0x01\n      swap1\n      swap2\n      add\n      swap1\n      jump(tag_152)\n    tag_144:\n    tag_155:\n      dup1\n      dup3\n      gt\n      iszero\n      tag_143\n      jumpi\n      0x00\n      dup2\n      sstore\n      0x01\n      add\n      jump(tag_155)\n    tag_150:\n      dup1\n      dup3\n      gt\n      iszero\n      tag_143\n      jumpi\n      0x00\n      tag_159\n      dup3\n      dup3\n      tag_160\n      jump\t// in\n    tag_159:\n      pop\n      0x01\n      add\n      jump(tag_150)\n    tag_160:\n      pop\n      dup1\n      sload\n      tag_161\n      swap1\n      tag_60\n      jump\t// in\n    tag_161:\n      0x00\n      dup3\n      sstore\n      dup1\n      0x1f\n      lt\n      tag_163\n      jumpi\n      pop\n      pop\n      jump\t// out\n    tag_163:\n      0x1f\n      add\n      0x20\n      swap1\n      div\n      swap1\n      0x00\n      mstore\n      keccak256(0x00, 0x20)\n      swap1\n      dup2\n      add\n      swap1\n      tag_95\n      swap2\n      swap1\n      tag_144\n      jump\t// in\n        /* \"#utility.yul\":14:194   */\n    tag_17:\n        /* \"#utility.yul\":73:79   */\n      0x00\n        /* \"#utility.yul\":126:128   */\n      0x20\n        /* \"#utility.yul\":114:123   */\n      dup3\n        /* \"#utility.yul\":105:112   */\n      dup5\n        /* \"#utility.yul\":101:124   */\n      sub\n        /* \"#utility.yul\":97:129   */\n      slt\n        /* \"#utility.yul\":94:146   */\n      iszero\n      tag_175\n      jumpi\n        /* \"#utility.yul\":142:143   */\n      0x00\n        /* \"#utility.yul\":139:140   */\n      dup1\n        /* \"#utility.yul\":132:144   */\n      revert\n        /* \"#utility.yul\":94:146   */\n    tag_175:\n      pop\n        /* \"#utility.yul\":165:188   */\n      calldataload\n      swap2\n        /* \"#utility.yul\":14:194   */\n      swap1\n      pop\n      jump\t// out\n        /* \"#utility.yul\":199:671   */\n    tag_165:\n        /* \"#utility.yul\":241:244   */\n      0x00\n        /* \"#utility.yul\":279:284   */\n      dup2\n        /* \"#utility.yul\":273:285   */\n      mload\n        /* \"#utility.yul\":306:312   */\n      dup1\n        /* \"#utility.yul\":301:304   */\n      dup5\n        /* \"#utility.yul\":294:313   */\n      mstore\n        /* \"#utility.yul\":331:332   */\n      0x00\n        /* \"#utility.yul\":341:503   */\n    tag_177:\n        /* \"#utility.yul\":355:361   */\n      dup2\n        /* \"#utility.yul\":352:353   */\n      dup2\n        /* \"#utility.yul\":349:362   */\n      lt\n        /* \"#utility.yul\":341:503   */\n      iszero\n      tag_179\n      jumpi\n        /* \"#utility.yul\":417:421   */\n      0x20\n        /* \"#utility.yul\":473:486   */\n      dup2\n      dup6\n      add\n        /* \"#utility.yul\":469:491   */\n      dup2\n      add\n        /* \"#utility.yul\":463:492   */\n      mload\n        /* \"#utility.yul\":445:456   */\n      dup7\n      dup4\n      add\n        /* \"#utility.yul\":441:461   */\n      dup3\n      add\n        /* \"#utility.yul\":434:493   */\n      mstore\n        /* \"#utility.yul\":370:382   */\n      add\n        /* \"#utility.yul\":341:503   */\n      jump(tag_177)\n    tag_179:\n        /* \"#utility.yul\":521:527   */\n      dup2\n        /* \"#utility.yul\":518:519   */\n      dup2\n        /* \"#utility.yul\":515:528   */\n      gt\n        /* \"#utility.yul\":512:599   */\n      iszero\n      tag_180\n      jumpi\n        /* \"#utility.yul\":587:588   */\n      0x00\n        /* \"#utility.yul\":580:584   */\n      0x20\n        /* \"#utility.yul\":571:577   */\n      dup4\n        /* \"#utility.yul\":566:569   */\n      dup8\n        /* \"#utility.yul\":562:578   */\n      add\n        /* \"#utility.yul\":558:585   */\n      add\n        /* \"#utility.yul\":551:589   */\n      mstore\n        /* \"#utility.yul\":512:599   */\n    tag_180:\n      pop\n        /* \"#utility.yul\":653:655   */\n      0x1f\n        /* \"#utility.yul\":632:647   */\n      add\n      not(0x1f)\n        /* \"#utility.yul\":628:657   */\n      and\n        /* \"#utility.yul\":619:658   */\n      swap3\n      swap1\n      swap3\n      add\n        /* \"#utility.yul\":660:664   */\n      0x20\n        /* \"#utility.yul\":615:665   */\n      add\n      swap3\n        /* \"#utility.yul\":199:671   */\n      swap2\n      pop\n      pop\n      jump\t// out\n        /* \"#utility.yul\":676:1721   */\n    tag_20:\n        /* \"#utility.yul\":1040:1044   */\n      0x00\n        /* \"#utility.yul\":1069:1072   */\n      0x0120\n        /* \"#utility.yul\":1099:1105   */\n      dup12\n        /* \"#utility.yul\":1088:1097   */\n      dup4\n        /* \"#utility.yul\":1081:1106   */\n      mstore\n        /* \"#utility.yul\":1142:1144   */\n      dup1\n        /* \"#utility.yul\":1137:1139   */\n      0x20\n        /* \"#utility.yul\":1126:1135   */\n      dup5\n        /* \"#utility.yul\":1122:1140   */\n      add\n        /* \"#utility.yul\":1115:1145   */\n      mstore\n        /* \"#utility.yul\":1168:1213   */\n      tag_182\n        /* \"#utility.yul\":1209:1211   */\n      dup2\n        /* \"#utility.yul\":1198:1207   */\n      dup5\n        /* \"#utility.yul\":1194:1212   */\n      add\n        /* \"#utility.yul\":1186:1192   */\n      dup13\n        /* \"#utility.yul\":1168:1213   */\n      tag_165\n      jump\t// in\n    tag_182:\n        /* \"#utility.yul\":1154:1213   */\n      swap1\n      pop\n        /* \"#utility.yul\":1261:1270   */\n      dup3\n        /* \"#utility.yul\":1253:1259   */\n      dup2\n        /* \"#utility.yul\":1249:1271   */\n      sub\n        /* \"#utility.yul\":1244:1246   */\n      0x40\n        /* \"#utility.yul\":1233:1242   */\n      dup5\n        /* \"#utility.yul\":1229:1247   */\n      add\n        /* \"#utility.yul\":1222:1272   */\n      mstore\n        /* \"#utility.yul\":1295:1328   */\n      tag_183\n        /* \"#utility.yul\":1321:1327   */\n      dup2\n        /* \"#utility.yul\":1313:1319   */\n      dup12\n        /* \"#utility.yul\":1295:1328   */\n      tag_165\n      jump\t// in\n    tag_183:\n        /* \"#utility.yul\":1281:1328   */\n      swap1\n      pop\n        /* \"#utility.yul\":1364:1370   */\n      dup9\n        /* \"#utility.yul\":1359:1361   */\n      0x60\n        /* \"#utility.yul\":1348:1357   */\n      dup5\n        /* \"#utility.yul\":1344:1362   */\n      add\n        /* \"#utility.yul\":1337:1371   */\n      mstore\n        /* \"#utility.yul\":1408:1414   */\n      dup8\n        /* \"#utility.yul\":1402:1405   */\n      0x80\n        /* \"#utility.yul\":1391:1400   */\n      dup5\n        /* \"#utility.yul\":1387:1406   */\n      add\n        /* \"#utility.yul\":1380:1415   */\n      mstore\n        /* \"#utility.yul\":1464:1473   */\n      dup3\n        /* \"#utility.yul\":1456:1462   */\n      dup2\n        /* \"#utility.yul\":1452:1474   */\n      sub\n        /* \"#utility.yul\":1446:1449   */\n      0xa0\n        /* \"#utility.yul\":1435:1444   */\n      dup5\n        /* \"#utility.yul\":1431:1450   */\n      add\n        /* \"#utility.yul\":1424:1475   */\n      mstore\n        /* \"#utility.yul\":1492:1525   */\n      tag_184\n        /* \"#utility.yul\":1518:1524   */\n      dup2\n        /* \"#utility.yul\":1510:1516   */\n      dup9\n        /* \"#utility.yul\":1492:1525   */\n      tag_165\n      jump\t// in\n    tag_184:\n      sub(shl(0xa0, 0x01), 0x01)\n        /* \"#utility.yul\":1562:1594   */\n      swap7\n      swap1\n      swap7\n      and\n        /* \"#utility.yul\":1556:1559   */\n      0xc0\n        /* \"#utility.yul\":1541:1560   */\n      dup5\n      add\n        /* \"#utility.yul\":1534:1595   */\n      mstore\n      pop\n      pop\n        /* \"#utility.yul\":1639:1653   */\n      swap2\n      iszero\n        /* \"#utility.yul\":1632:1654   */\n      iszero\n        /* \"#utility.yul\":1626:1629   */\n      0xe0\n        /* \"#utility.yul\":1611:1630   */\n      dup4\n      add\n        /* \"#utility.yul\":1604:1655   */\n      mstore\n        /* \"#utility.yul\":1699:1713   */\n      iszero\n        /* \"#utility.yul\":1692:1714   */\n      iszero\n        /* \"#utility.yul\":1686:1689   */\n      0x0100\n        /* \"#utility.yul\":1671:1690   */\n      swap1\n      swap2\n      add\n        /* \"#utility.yul\":1664:1715   */\n      mstore\n        /* \"#utility.yul\":1484:1525   */\n      swap7\n        /* \"#utility.yul\":676:1721   */\n      swap6\n      pop\n      pop\n      pop\n      pop\n      pop\n      pop\n      jump\t// out\n        /* \"#utility.yul\":1726:1853   */\n    tag_166:\n        /* \"#utility.yul\":1787:1797   */\n      0x4e487b71\n        /* \"#utility.yul\":1782:1785   */\n      0xe0\n        /* \"#utility.yul\":1778:1798   */\n      shl\n        /* \"#utility.yul\":1775:1776   */\n      0x00\n        /* \"#utility.yul\":1768:1799   */\n      mstore\n        /* \"#utility.yul\":1818:1822   */\n      0x41\n        /* \"#utility.yul\":1815:1816   */\n      0x04\n        /* \"#utility.yul\":1808:1823   */\n      mstore\n        /* \"#utility.yul\":1842:1846   */\n      0x24\n        /* \"#utility.yul\":1839:1840   */\n      0x00\n        /* \"#utility.yul\":1832:1847   */\n      revert\n        /* \"#utility.yul\":1858:2133   */\n    tag_167:\n        /* \"#utility.yul\":1929:1931   */\n      0x40\n        /* \"#utility.yul\":1923:1932   */\n      mload\n        /* \"#utility.yul\":1994:1996   */\n      0x1f\n        /* \"#utility.yul\":1975:1988   */\n      dup3\n      add\n      not(0x1f)\n        /* \"#utility.yul\":1971:1998   */\n      and\n        /* \"#utility.yul\":1959:1999   */\n      dup2\n      add\n        /* \"#utility.yul\":2029:2047   */\n      0xffffffffffffffff\n        /* \"#utility.yul\":2014:2048   */\n      dup2\n      gt\n        /* \"#utility.yul\":2050:2072   */\n      dup3\n      dup3\n      lt\n        /* \"#utility.yul\":2011:2073   */\n      or\n        /* \"#utility.yul\":2008:2096   */\n      iszero\n      tag_188\n      jumpi\n        /* \"#utility.yul\":2076:2094   */\n      tag_188\n      tag_166\n      jump\t// in\n    tag_188:\n        /* \"#utility.yul\":2112:2114   */\n      0x40\n        /* \"#utility.yul\":2105:2127   */\n      mstore\n        /* \"#utility.yul\":1858:2133   */\n      swap2\n      swap1\n      pop\n      jump\t// out\n        /* \"#utility.yul\":2138:2545   */\n    tag_168:\n        /* \"#utility.yul\":2203:2208   */\n      0x00\n        /* \"#utility.yul\":2237:2255   */\n      0xffffffffffffffff\n        /* \"#utility.yul\":2229:2235   */\n      dup4\n        /* \"#utility.yul\":2226:2256   */\n      gt\n        /* \"#utility.yul\":2223:2279   */\n      iszero\n      tag_191\n      jumpi\n        /* \"#utility.yul\":2259:2277   */\n      tag_191\n      tag_166\n      jump\t// in\n    tag_191:\n        /* \"#utility.yul\":2297:2354   */\n      tag_192\n        /* \"#utility.yul\":2342:2344   */\n      0x1f\n        /* \"#utility.yul\":2321:2336   */\n      dup5\n      add\n      not(0x1f)\n        /* \"#utility.yul\":2317:2346   */\n      and\n        /* \"#utility.yul\":2348:2352   */\n      0x20\n        /* \"#utility.yul\":2313:2353   */\n      add\n        /* \"#utility.yul\":2297:2354   */\n      tag_167\n      jump\t// in\n    tag_192:\n        /* \"#utility.yul\":2288:2354   */\n      swap1\n      pop\n        /* \"#utility.yul\":2377:2383   */\n      dup3\n        /* \"#utility.yul\":2370:2375   */\n      dup2\n        /* \"#utility.yul\":2363:2384   */\n      mstore\n        /* \"#utility.yul\":2417:2420   */\n      dup4\n        /* \"#utility.yul\":2408:2414   */\n      dup4\n        /* \"#utility.yul\":2403:2406   */\n      dup4\n        /* \"#utility.yul\":2399:2415   */\n      add\n        /* \"#utility.yul\":2396:2421   */\n      gt\n        /* \"#utility.yul\":2393:2438   */\n      iszero\n      tag_193\n      jumpi\n        /* \"#utility.yul\":2434:2435   */\n      0x00\n        /* \"#utility.yul\":2431:2432   */\n      dup1\n        /* \"#utility.yul\":2424:2436   */\n      revert\n        /* \"#utility.yul\":2393:2438   */\n    tag_193:\n        /* \"#utility.yul\":2483:2489   */\n      dup3\n        /* \"#utility.yul\":2478:2481   */\n      dup3\n        /* \"#utility.yul\":2471:2475   */\n      0x20\n        /* \"#utility.yul\":2464:2469   */\n      dup4\n        /* \"#utility.yul\":2460:2476   */\n      add\n        /* \"#utility.yul\":2447:2490   */\n      calldatacopy\n        /* \"#utility.yul\":2537:2538   */\n      0x00\n        /* \"#utility.yul\":2530:2534   */\n      0x20\n        /* \"#utility.yul\":2521:2527   */\n      dup5\n        /* \"#utility.yul\":2514:2519   */\n      dup4\n        /* \"#utility.yul\":2510:2528   */\n      add\n        /* \"#utility.yul\":2506:2535   */\n      add\n        /* \"#utility.yul\":2499:2539   */\n      mstore\n        /* \"#utility.yul\":2138:2545   */\n      swap4\n      swap3\n      pop\n      pop\n      pop\n      jump\t// out\n        /* \"#utility.yul\":2550:2772   */\n    tag_169:\n        /* \"#utility.yul\":2593:2598   */\n      0x00\n        /* \"#utility.yul\":2646:2649   */\n      dup3\n        /* \"#utility.yul\":2639:2643   */\n      0x1f\n        /* \"#utility.yul\":2631:2637   */\n      dup4\n        /* \"#utility.yul\":2627:2644   */\n      add\n        /* \"#utility.yul\":2623:2650   */\n      slt\n        /* \"#utility.yul\":2613:2668   */\n      tag_195\n      jumpi\n        /* \"#utility.yul\":2664:2665   */\n      0x00\n        /* \"#utility.yul\":2661:2662   */\n      dup1\n        /* \"#utility.yul\":2654:2666   */\n      revert\n        /* \"#utility.yul\":2613:2668   */\n    tag_195:\n        /* \"#utility.yul\":2686:2766   */\n      tag_196\n        /* \"#utility.yul\":2762:2765   */\n      dup4\n        /* \"#utility.yul\":2753:2759   */\n      dup4\n        /* \"#utility.yul\":2740:2760   */\n      calldataload\n        /* \"#utility.yul\":2733:2737   */\n      0x20\n        /* \"#utility.yul\":2725:2731   */\n      dup6\n        /* \"#utility.yul\":2721:2738   */\n      add\n        /* \"#utility.yul\":2686:2766   */\n      tag_168\n      jump\t// in\n    tag_196:\n        /* \"#utility.yul\":2677:2766   */\n      swap4\n        /* \"#utility.yul\":2550:2772   */\n      swap3\n      pop\n      pop\n      pop\n      jump\t// out\n        /* \"#utility.yul\":2777:3720   */\n    tag_170:\n        /* \"#utility.yul\":2830:2835   */\n      0x00\n        /* \"#utility.yul\":2883:2886   */\n      dup3\n        /* \"#utility.yul\":2876:2880   */\n      0x1f\n        /* \"#utility.yul\":2868:2874   */\n      dup4\n        /* \"#utility.yul\":2864:2881   */\n      add\n        /* \"#utility.yul\":2860:2887   */\n      slt\n        /* \"#utility.yul\":2850:2905   */\n      tag_198\n      jumpi\n        /* \"#utility.yul\":2901:2902   */\n      0x00\n        /* \"#utility.yul\":2898:2899   */\n      dup1\n        /* \"#utility.yul\":2891:2903   */\n      revert\n        /* \"#utility.yul\":2850:2905   */\n    tag_198:\n        /* \"#utility.yul\":2937:2943   */\n      dup2\n        /* \"#utility.yul\":2924:2944   */\n      calldataload\n        /* \"#utility.yul\":2963:2967   */\n      0x20\n        /* \"#utility.yul\":2986:3004   */\n      0xffffffffffffffff\n        /* \"#utility.yul\":3023:3025   */\n      dup1\n        /* \"#utility.yul\":3019:3021   */\n      dup4\n        /* \"#utility.yul\":3016:3026   */\n      gt\n        /* \"#utility.yul\":3013:3049   */\n      iszero\n      tag_200\n      jumpi\n        /* \"#utility.yul\":3029:3047   */\n      tag_200\n      tag_166\n      jump\t// in\n    tag_200:\n        /* \"#utility.yul\":3075:3077   */\n      dup3\n        /* \"#utility.yul\":3072:3073   */\n      0x05\n        /* \"#utility.yul\":3068:3078   */\n      shl\n        /* \"#utility.yul\":3098:3126   */\n      tag_201\n        /* \"#utility.yul\":3122:3124   */\n      dup4\n        /* \"#utility.yul\":3118:3120   */\n      dup3\n        /* \"#utility.yul\":3114:3125   */\n      add\n        /* \"#utility.yul\":3098:3126   */\n      tag_167\n      jump\t// in\n    tag_201:\n        /* \"#utility.yul\":3160:3175   */\n      swap4\n      dup5\n      mstore\n        /* \"#utility.yul\":3230:3245   */\n      dup6\n      dup2\n      add\n        /* \"#utility.yul\":3226:3250   */\n      dup4\n      add\n      swap4\n        /* \"#utility.yul\":3191:3203   */\n      dup4\n      dup2\n      add\n      swap1\n        /* \"#utility.yul\":3262:3277   */\n      dup9\n      dup7\n      gt\n        /* \"#utility.yul\":3259:3294   */\n      iszero\n      tag_202\n      jumpi\n        /* \"#utility.yul\":3290:3291   */\n      0x00\n        /* \"#utility.yul\":3287:3288   */\n      dup1\n        /* \"#utility.yul\":3280:3292   */\n      revert\n        /* \"#utility.yul\":3259:3294   */\n    tag_202:\n        /* \"#utility.yul\":3326:3328   */\n      dup5\n        /* \"#utility.yul\":3318:3324   */\n      dup9\n        /* \"#utility.yul\":3314:3329   */\n      add\n        /* \"#utility.yul\":3303:3329   */\n      swap3\n      pop\n        /* \"#utility.yul\":3338:3691   */\n    tag_203:\n        /* \"#utility.yul\":3354:3360   */\n      dup6\n        /* \"#utility.yul\":3349:3352   */\n      dup4\n        /* \"#utility.yul\":3346:3361   */\n      lt\n        /* \"#utility.yul\":3338:3691   */\n      iszero\n      tag_205\n      jumpi\n        /* \"#utility.yul\":3440:3443   */\n      dup3\n        /* \"#utility.yul\":3427:3444   */\n      calldataload\n        /* \"#utility.yul\":3476:3478   */\n      dup5\n        /* \"#utility.yul\":3463:3474   */\n      dup2\n        /* \"#utility.yul\":3460:3479   */\n      gt\n        /* \"#utility.yul\":3457:3566   */\n      iszero\n      tag_206\n      jumpi\n        /* \"#utility.yul\":3520:3521   */\n      0x00\n        /* \"#utility.yul\":3549:3551   */\n      dup1\n        /* \"#utility.yul\":3545:3547   */\n      dup2\n        /* \"#utility.yul\":3538:3552   */\n      revert\n        /* \"#utility.yul\":3457:3566   */\n    tag_206:\n        /* \"#utility.yul\":3591:3648   */\n      tag_207\n        /* \"#utility.yul\":3644:3647   */\n      dup11\n        /* \"#utility.yul\":3639:3641   */\n      dup8\n        /* \"#utility.yul\":3625:3636   */\n      dup4\n        /* \"#utility.yul\":3617:3623   */\n      dup13\n        /* \"#utility.yul\":3613:3637   */\n      add\n        /* \"#utility.yul\":3609:3642   */\n      add\n        /* \"#utility.yul\":3591:3648   */\n      tag_169\n      jump\t// in\n    tag_207:\n        /* \"#utility.yul\":3579:3649   */\n      dup4\n      mstore\n      pop\n        /* \"#utility.yul\":3371:3383   */\n      swap2\n      dup5\n      add\n      swap2\n        /* \"#utility.yul\":3669:3681   */\n      swap1\n      dup5\n      add\n      swap1\n        /* \"#utility.yul\":3338:3691   */\n      jump(tag_203)\n    tag_205:\n        /* \"#utility.yul\":3709:3714   */\n      swap9\n        /* \"#utility.yul\":2777:3720   */\n      swap8\n      pop\n      pop\n      pop\n      pop\n      pop\n      pop\n      pop\n      pop\n      jump\t// out\n        /* \"#utility.yul\":3725:4842   */\n    tag_23:\n        /* \"#utility.yul\":3894:3900   */\n      0x00\n        /* \"#utility.yul\":3902:3908   */\n      dup1\n        /* \"#utility.yul\":3910:3916   */\n      0x00\n        /* \"#utility.yul\":3918:3924   */\n      dup1\n        /* \"#utility.yul\":3926:3932   */\n      0x00\n        /* \"#utility.yul\":3934:3940   */\n      dup1\n        /* \"#utility.yul\":3987:3990   */\n      0xc0\n        /* \"#utility.yul\":3975:3984   */\n      dup8\n        /* \"#utility.yul\":3966:3973   */\n      dup10\n        /* \"#utility.yul\":3962:3985   */\n      sub\n        /* \"#utility.yul\":3958:3991   */\n      slt\n        /* \"#utility.yul\":3955:4008   */\n      iszero\n      tag_209\n      jumpi\n        /* \"#utility.yul\":4004:4005   */\n      0x00\n        /* \"#utility.yul\":4001:4002   */\n      dup1\n        /* \"#utility.yul\":3994:4006   */\n      revert\n        /* \"#utility.yul\":3955:4008   */\n    tag_209:\n        /* \"#utility.yul\":4044:4053   */\n      dup7\n        /* \"#utility.yul\":4031:4054   */\n      calldataload\n        /* \"#utility.yul\":4073:4091   */\n      0xffffffffffffffff\n        /* \"#utility.yul\":4114:4116   */\n      dup1\n        /* \"#utility.yul\":4106:4112   */\n      dup3\n        /* \"#utility.yul\":4103:4117   */\n      gt\n        /* \"#utility.yul\":4100:4134   */\n      iszero\n      tag_210\n      jumpi\n        /* \"#utility.yul\":4130:4131   */\n      0x00\n        /* \"#utility.yul\":4127:4128   */\n      dup1\n        /* \"#utility.yul\":4120:4132   */\n      revert\n        /* \"#utility.yul\":4100:4134   */\n    tag_210:\n        /* \"#utility.yul\":4153:4203   */\n      tag_211\n        /* \"#utility.yul\":4195:4202   */\n      dup11\n        /* \"#utility.yul\":4186:4192   */\n      dup4\n        /* \"#utility.yul\":4175:4184   */\n      dup12\n        /* \"#utility.yul\":4171:4193   */\n      add\n        /* \"#utility.yul\":4153:4203   */\n      tag_169\n      jump\t// in\n    tag_211:\n        /* \"#utility.yul\":4143:4203   */\n      swap8\n      pop\n        /* \"#utility.yul\":4256:4258   */\n      0x20\n        /* \"#utility.yul\":4245:4254   */\n      dup10\n        /* \"#utility.yul\":4241:4259   */\n      add\n        /* \"#utility.yul\":4228:4260   */\n      calldataload\n        /* \"#utility.yul\":4212:4260   */\n      swap2\n      pop\n        /* \"#utility.yul\":4285:4287   */\n      dup1\n        /* \"#utility.yul\":4275:4283   */\n      dup3\n        /* \"#utility.yul\":4272:4288   */\n      gt\n        /* \"#utility.yul\":4269:4305   */\n      iszero\n      tag_212\n      jumpi\n        /* \"#utility.yul\":4301:4302   */\n      0x00\n        /* \"#utility.yul\":4298:4299   */\n      dup1\n        /* \"#utility.yul\":4291:4303   */\n      revert\n        /* \"#utility.yul\":4269:4305   */\n    tag_212:\n        /* \"#utility.yul\":4324:4376   */\n      tag_213\n        /* \"#utility.yul\":4368:4375   */\n      dup11\n        /* \"#utility.yul\":4357:4365   */\n      dup4\n        /* \"#utility.yul\":4346:4355   */\n      dup12\n        /* \"#utility.yul\":4342:4366   */\n      add\n        /* \"#utility.yul\":4324:4376   */\n      tag_169\n      jump\t// in\n    tag_213:\n        /* \"#utility.yul\":4314:4376   */\n      swap7\n      pop\n        /* \"#utility.yul\":4423:4425   */\n      0x40\n        /* \"#utility.yul\":4412:4421   */\n      dup10\n        /* \"#utility.yul\":4408:4426   */\n      add\n        /* \"#utility.yul\":4395:4427   */\n      calldataload\n        /* \"#utility.yul\":4385:4427   */\n      swap6\n      pop\n        /* \"#utility.yul\":4474:4476   */\n      0x60\n        /* \"#utility.yul\":4463:4472   */\n      dup10\n        /* \"#utility.yul\":4459:4477   */\n      add\n        /* \"#utility.yul\":4446:4478   */\n      calldataload\n        /* \"#utility.yul\":4436:4478   */\n      swap5\n      pop\n        /* \"#utility.yul\":4531:4534   */\n      0x80\n        /* \"#utility.yul\":4520:4529   */\n      dup10\n        /* \"#utility.yul\":4516:4535   */\n      add\n        /* \"#utility.yul\":4503:4536   */\n      calldataload\n        /* \"#utility.yul\":4487:4536   */\n      swap2\n      pop\n        /* \"#utility.yul\":4561:4563   */\n      dup1\n        /* \"#utility.yul\":4551:4559   */\n      dup3\n        /* \"#utility.yul\":4548:4564   */\n      gt\n        /* \"#utility.yul\":4545:4581   */\n      iszero\n      tag_214\n      jumpi\n        /* \"#utility.yul\":4577:4578   */\n      0x00\n        /* \"#utility.yul\":4574:4575   */\n      dup1\n        /* \"#utility.yul\":4567:4579   */\n      revert\n        /* \"#utility.yul\":4545:4581   */\n    tag_214:\n        /* \"#utility.yul\":4600:4652   */\n      tag_215\n        /* \"#utility.yul\":4644:4651   */\n      dup11\n        /* \"#utility.yul\":4633:4641   */\n      dup4\n        /* \"#utility.yul\":4622:4631   */\n      dup12\n        /* \"#utility.yul\":4618:4642   */\n      add\n        /* \"#utility.yul\":4600:4652   */\n      tag_169\n      jump\t// in\n    tag_215:\n        /* \"#utility.yul\":4590:4652   */\n      swap4\n      pop\n        /* \"#utility.yul\":4705:4708   */\n      0xa0\n        /* \"#utility.yul\":4694:4703   */\n      dup10\n        /* \"#utility.yul\":4690:4709   */\n      add\n        /* \"#utility.yul\":4677:4710   */\n      calldataload\n        /* \"#utility.yul\":4661:4710   */\n      swap2\n      pop\n        /* \"#utility.yul\":4735:4737   */\n      dup1\n        /* \"#utility.yul\":4725:4733   */\n      dup3\n        /* \"#utility.yul\":4722:4738   */\n      gt\n        /* \"#utility.yul\":4719:4755   */\n      iszero\n      tag_216\n      jumpi\n        /* \"#utility.yul\":4751:4752   */\n      0x00\n        /* \"#utility.yul\":4748:4749   */\n      dup1\n        /* \"#utility.yul\":4741:4753   */\n      revert\n        /* \"#utility.yul\":4719:4755   */\n    tag_216:\n      pop\n        /* \"#utility.yul\":4774:4836   */\n      tag_217\n        /* \"#utility.yul\":4828:4835   */\n      dup10\n        /* \"#utility.yul\":4817:4825   */\n      dup3\n        /* \"#utility.yul\":4806:4815   */\n      dup11\n        /* \"#utility.yul\":4802:4826   */\n      add\n        /* \"#utility.yul\":4774:4836   */\n      tag_170\n      jump\t// in\n    tag_217:\n        /* \"#utility.yul\":4764:4836   */\n      swap2\n      pop\n      pop\n        /* \"#utility.yul\":3725:4842   */\n      swap3\n      swap6\n      pop\n      swap3\n      swap6\n      pop\n      swap3\n      swap6\n      jump\t// out\n        /* \"#utility.yul\":4847:5020   */\n    tag_171:\n        /* \"#utility.yul\":4915:4935   */\n      dup1\n      calldataload\n      sub(shl(0xa0, 0x01), 0x01)\n        /* \"#utility.yul\":4964:4995   */\n      dup2\n      and\n        /* \"#utility.yul\":4954:4996   */\n      dup2\n      eq\n        /* \"#utility.yul\":4944:5014   */\n      tag_219\n      jumpi\n        /* \"#utility.yul\":5010:5011   */\n      0x00\n        /* \"#utility.yul\":5007:5008   */\n      dup1\n        /* \"#utility.yul\":5000:5012   */\n      revert\n        /* \"#utility.yul\":4944:5014   */\n    tag_219:\n        /* \"#utility.yul\":4847:5020   */\n      swap2\n      swap1\n      pop\n      jump\t// out\n        /* \"#utility.yul\":5025:5211   */\n    tag_29:\n        /* \"#utility.yul\":5084:5090   */\n      0x00\n        /* \"#utility.yul\":5137:5139   */\n      0x20\n        /* \"#utility.yul\":5125:5134   */\n      dup3\n        /* \"#utility.yul\":5116:5123   */\n      dup5\n        /* \"#utility.yul\":5112:5135   */\n      sub\n        /* \"#utility.yul\":5108:5140   */\n      slt\n        /* \"#utility.yul\":5105:5157   */\n      iszero\n      tag_221\n      jumpi\n        /* \"#utility.yul\":5153:5154   */\n      0x00\n        /* \"#utility.yul\":5150:5151   */\n      dup1\n        /* \"#utility.yul\":5143:5155   */\n      revert\n        /* \"#utility.yul\":5105:5157   */\n    tag_221:\n        /* \"#utility.yul\":5176:5205   */\n      tag_196\n        /* \"#utility.yul\":5195:5204   */\n      dup3\n        /* \"#utility.yul\":5176:5205   */\n      tag_171\n      jump\t// in\n        /* \"#utility.yul\":5408:5526   */\n    tag_172:\n        /* \"#utility.yul\":5494:5499   */\n      dup1\n        /* \"#utility.yul\":5487:5500   */\n      iszero\n        /* \"#utility.yul\":5480:5501   */\n      iszero\n        /* \"#utility.yul\":5473:5478   */\n      dup2\n        /* \"#utility.yul\":5470:5502   */\n      eq\n        /* \"#utility.yul\":5460:5520   */\n      tag_95\n      jumpi\n        /* \"#utility.yul\":5516:5517   */\n      0x00\n        /* \"#utility.yul\":5513:5514   */\n      dup1\n        /* \"#utility.yul\":5506:5518   */\n      revert\n        /* \"#utility.yul\":5531:5846   */\n    tag_35:\n        /* \"#utility.yul\":5596:5602   */\n      0x00\n        /* \"#utility.yul\":5604:5610   */\n      dup1\n        /* \"#utility.yul\":5657:5659   */\n      0x40\n        /* \"#utility.yul\":5645:5654   */\n      dup4\n        /* \"#utility.yul\":5636:5643   */\n      dup6\n        /* \"#utility.yul\":5632:5655   */\n      sub\n        /* \"#utility.yul\":5628:5660   */\n      slt\n        /* \"#utility.yul\":5625:5677   */\n      iszero\n      tag_227\n      jumpi\n        /* \"#utility.yul\":5673:5674   */\n      0x00\n        /* \"#utility.yul\":5670:5671   */\n      dup1\n        /* \"#utility.yul\":5663:5675   */\n      revert\n        /* \"#utility.yul\":5625:5677   */\n    tag_227:\n        /* \"#utility.yul\":5696:5725   */\n      tag_228\n        /* \"#utility.yul\":5715:5724   */\n      dup4\n        /* \"#utility.yul\":5696:5725   */\n      tag_171\n      jump\t// in\n    tag_228:\n        /* \"#utility.yul\":5686:5725   */\n      swap2\n      pop\n        /* \"#utility.yul\":5775:5777   */\n      0x20\n        /* \"#utility.yul\":5764:5773   */\n      dup4\n        /* \"#utility.yul\":5760:5778   */\n      add\n        /* \"#utility.yul\":5747:5779   */\n      calldataload\n        /* \"#utility.yul\":5788:5816   */\n      tag_229\n        /* \"#utility.yul\":5810:5815   */\n      dup2\n        /* \"#utility.yul\":5788:5816   */\n      tag_172\n      jump\t// in\n    tag_229:\n        /* \"#utility.yul\":5835:5840   */\n      dup1\n        /* \"#utility.yul\":5825:5840   */\n      swap2\n      pop\n      pop\n        /* \"#utility.yul\":5531:5846   */\n      swap3\n      pop\n      swap3\n      swap1\n      pop\n      jump\t// out\n        /* \"#utility.yul\":6241:6902   */\n    tag_50:\n        /* \"#utility.yul\":6336:6342   */\n      0x00\n        /* \"#utility.yul\":6344:6350   */\n      dup1\n        /* \"#utility.yul\":6352:6358   */\n      0x00\n        /* \"#utility.yul\":6360:6366   */\n      dup1\n        /* \"#utility.yul\":6413:6416   */\n      0x80\n        /* \"#utility.yul\":6401:6410   */\n      dup6\n        /* \"#utility.yul\":6392:6399   */\n      dup8\n        /* \"#utility.yul\":6388:6411   */\n      sub\n        /* \"#utility.yul\":6384:6417   */\n      slt\n        /* \"#utility.yul\":6381:6434   */\n      iszero\n      tag_233\n      jumpi\n        /* \"#utility.yul\":6430:6431   */\n      0x00\n        /* \"#utility.yul\":6427:6428   */\n      dup1\n        /* \"#utility.yul\":6420:6432   */\n      revert\n        /* \"#utility.yul\":6381:6434   */\n    tag_233:\n        /* \"#utility.yul\":6453:6482   */\n      tag_234\n        /* \"#utility.yul\":6472:6481   */\n      dup6\n        /* \"#utility.yul\":6453:6482   */\n      tag_171\n      jump\t// in\n    tag_234:\n        /* \"#utility.yul\":6443:6482   */\n      swap4\n      pop\n        /* \"#utility.yul\":6529:6531   */\n      0x20\n        /* \"#utility.yul\":6518:6527   */\n      dup6\n        /* \"#utility.yul\":6514:6532   */\n      add\n        /* \"#utility.yul\":6501:6533   */\n      calldataload\n        /* \"#utility.yul\":6491:6533   */\n      swap3\n      pop\n        /* \"#utility.yul\":6580:6582   */\n      0x40\n        /* \"#utility.yul\":6569:6578   */\n      dup6\n        /* \"#utility.yul\":6565:6583   */\n      add\n        /* \"#utility.yul\":6552:6584   */\n      calldataload\n        /* \"#utility.yul\":6542:6584   */\n      swap2\n      pop\n        /* \"#utility.yul\":6635:6637   */\n      0x60\n        /* \"#utility.yul\":6624:6633   */\n      dup6\n        /* \"#utility.yul\":6620:6638   */\n      add\n        /* \"#utility.yul\":6607:6639   */\n      calldataload\n        /* \"#utility.yul\":6662:6680   */\n      0xffffffffffffffff\n        /* \"#utility.yul\":6654:6660   */\n      dup2\n        /* \"#utility.yul\":6651:6681   */\n      gt\n        /* \"#utility.yul\":6648:6698   */\n      iszero\n      tag_235\n      jumpi\n        /* \"#utility.yul\":6694:6695   */\n      0x00\n        /* \"#utility.yul\":6691:6692   */\n      dup1\n        /* \"#utility.yul\":6684:6696   */\n      revert\n        /* \"#utility.yul\":6648:6698   */\n    tag_235:\n        /* \"#utility.yul\":6717:6739   */\n      dup6\n      add\n        /* \"#utility.yul\":6770:6774   */\n      0x1f\n        /* \"#utility.yul\":6762:6775   */\n      dup2\n      add\n        /* \"#utility.yul\":6758:6785   */\n      dup8\n      sgt\n        /* \"#utility.yul\":6748:6803   */\n      tag_236\n      jumpi\n        /* \"#utility.yul\":6799:6800   */\n      0x00\n        /* \"#utility.yul\":6796:6797   */\n      dup1\n        /* \"#utility.yul\":6789:6801   */\n      revert\n        /* \"#utility.yul\":6748:6803   */\n    tag_236:\n        /* \"#utility.yul\":6822:6896   */\n      tag_237\n        /* \"#utility.yul\":6888:6895   */\n      dup8\n        /* \"#utility.yul\":6883:6885   */\n      dup3\n        /* \"#utility.yul\":6870:6886   */\n      calldataload\n        /* \"#utility.yul\":6865:6867   */\n      0x20\n        /* \"#utility.yul\":6861:6863   */\n      dup5\n        /* \"#utility.yul\":6857:6868   */\n      add\n        /* \"#utility.yul\":6822:6896   */\n      tag_168\n      jump\t// in\n    tag_237:\n        /* \"#utility.yul\":6812:6896   */\n      swap2\n      pop\n      pop\n        /* \"#utility.yul\":6241:6902   */\n      swap3\n      swap6\n      swap2\n      swap5\n      pop\n      swap3\n      pop\n      jump\t// out\n        /* \"#utility.yul\":6907:7161   */\n    tag_54:\n        /* \"#utility.yul\":6975:6981   */\n      0x00\n        /* \"#utility.yul\":6983:6989   */\n      dup1\n        /* \"#utility.yul\":7036:7038   */\n      0x40\n        /* \"#utility.yul\":7024:7033   */\n      dup4\n        /* \"#utility.yul\":7015:7022   */\n      dup6\n        /* \"#utility.yul\":7011:7034   */\n      sub\n        /* \"#utility.yul\":7007:7039   */\n      slt\n        /* \"#utility.yul\":7004:7056   */\n      iszero\n      tag_239\n      jumpi\n        /* \"#utility.yul\":7052:7053   */\n      0x00\n        /* \"#utility.yul\":7049:7050   */\n      dup1\n        /* \"#utility.yul\":7042:7054   */\n      revert\n        /* \"#utility.yul\":7004:7056   */\n    tag_239:\n        /* \"#utility.yul\":7075:7104   */\n      tag_240\n        /* \"#utility.yul\":7094:7103   */\n      dup4\n        /* \"#utility.yul\":7075:7104   */\n      tag_171\n      jump\t// in\n    tag_240:\n        /* \"#utility.yul\":7065:7104   */\n      swap5\n        /* \"#utility.yul\":7151:7153   */\n      0x20\n        /* \"#utility.yul\":7136:7154   */\n      swap4\n      swap1\n      swap4\n      add\n        /* \"#utility.yul\":7123:7155   */\n      calldataload\n      swap4\n      pop\n      pop\n      pop\n        /* \"#utility.yul\":6907:7161   */\n      jump\t// out\n        /* \"#utility.yul\":7166:7546   */\n    tag_60:\n        /* \"#utility.yul\":7245:7246   */\n      0x01\n        /* \"#utility.yul\":7241:7253   */\n      dup2\n      dup2\n      shr\n      swap1\n        /* \"#utility.yul\":7288:7300   */\n      dup3\n      and\n      dup1\n        /* \"#utility.yul\":7309:7370   */\n      tag_242\n      jumpi\n        /* \"#utility.yul\":7363:7367   */\n      0x7f\n        /* \"#utility.yul\":7355:7361   */\n      dup3\n        /* \"#utility.yul\":7351:7368   */\n      and\n        /* \"#utility.yul\":7341:7368   */\n      swap2\n      pop\n        /* \"#utility.yul\":7309:7370   */\n    tag_242:\n        /* \"#utility.yul\":7416:7418   */\n      0x20\n        /* \"#utility.yul\":7408:7414   */\n      dup3\n        /* \"#utility.yul\":7405:7419   */\n      lt\n        /* \"#utility.yul\":7385:7403   */\n      dup2\n        /* \"#utility.yul\":7382:7420   */\n      sub\n        /* \"#utility.yul\":7379:7540   */\n      tag_243\n      jumpi\n        /* \"#utility.yul\":7462:7472   */\n      0x4e487b71\n        /* \"#utility.yul\":7457:7460   */\n      0xe0\n        /* \"#utility.yul\":7453:7473   */\n      shl\n        /* \"#utility.yul\":7450:7451   */\n      0x00\n        /* \"#utility.yul\":7443:7474   */\n      mstore\n        /* \"#utility.yul\":7497:7501   */\n      0x22\n        /* \"#utility.yul\":7494:7495   */\n      0x04\n        /* \"#utility.yul\":7487:7502   */\n      mstore\n        /* \"#utility.yul\":7525:7529   */\n      0x24\n        /* \"#utility.yul\":7522:7523   */\n      0x00\n        /* \"#utility.yul\":7515:7530   */\n      revert\n        /* \"#utility.yul\":7379:7540   */\n    tag_243:\n      pop\n        /* \"#utility.yul\":7166:7546   */\n      swap2\n      swap1\n      pop\n      jump\t// out\n        /* \"#utility.yul\":7551:7783   */\n    tag_87:\n        /* \"#utility.yul\":7590:7593   */\n      0x00\n        /* \"#utility.yul\":7611:7628   */\n      0x01\n      dup3\n      add\n        /* \"#utility.yul\":7608:7748   */\n      tag_245\n      jumpi\n        /* \"#utility.yul\":7670:7680   */\n      0x4e487b71\n        /* \"#utility.yul\":7665:7668   */\n      0xe0\n        /* \"#utility.yul\":7661:7681   */\n      shl\n        /* \"#utility.yul\":7658:7659   */\n      0x00\n        /* \"#utility.yul\":7651:7682   */\n      mstore\n        /* \"#utility.yul\":7705:7709   */\n      0x11\n        /* \"#utility.yul\":7702:7703   */\n      0x04\n        /* \"#utility.yul\":7695:7710   */\n      mstore\n        /* \"#utility.yul\":7733:7737   */\n      0x24\n        /* \"#utility.yul\":7730:7731   */\n      0x00\n        /* \"#utility.yul\":7723:7738   */\n      revert\n        /* \"#utility.yul\":7608:7748   */\n    tag_245:\n      pop\n        /* \"#utility.yul\":7775:7776   */\n      0x01\n        /* \"#utility.yul\":7764:7777   */\n      add\n      swap1\n        /* \"#utility.yul\":7551:7783   */\n      jump\t// out\n        /* \"#utility.yul\":7788:8120   */\n    tag_92:\n        /* \"#utility.yul\":7990:7992   */\n      0x20\n        /* \"#utility.yul\":7972:7993   */\n      dup1\n      dup3\n      mstore\n        /* \"#utility.yul\":8029:8030   */\n      0x09\n        /* \"#utility.yul\":8009:8027   */\n      swap1\n      dup3\n      add\n        /* \"#utility.yul\":8002:8031   */\n      mstore\n      shl(0xb9, 0x3737ba1030b236b4b7)\n        /* \"#utility.yul\":8062:8064   */\n      0x40\n        /* \"#utility.yul\":8047:8065   */\n      dup3\n      add\n        /* \"#utility.yul\":8040:8079   */\n      mstore\n        /* \"#utility.yul\":8111:8113   */\n      0x60\n        /* \"#utility.yul\":8096:8114   */\n      add\n      swap1\n        /* \"#utility.yul\":7788:8120   */\n      jump\t// out\n        /* \"#utility.yul\":8125:8686   */\n    tag_112:\n      sub(shl(0xa0, 0x01), 0x01)\n        /* \"#utility.yul\":8422:8437   */\n      dup7\n      dup2\n      and\n        /* \"#utility.yul\":8404:8438   */\n      dup3\n      mstore\n        /* \"#utility.yul\":8474:8489   */\n      dup6\n      and\n        /* \"#utility.yul\":8469:8471   */\n      0x20\n        /* \"#utility.yul\":8454:8472   */\n      dup3\n      add\n        /* \"#utility.yul\":8447:8490   */\n      mstore\n        /* \"#utility.yul\":8521:8523   */\n      0x40\n        /* \"#utility.yul\":8506:8524   */\n      dup2\n      add\n        /* \"#utility.yul\":8499:8533   */\n      dup5\n      swap1\n      mstore\n        /* \"#utility.yul\":8564:8566   */\n      0x60\n        /* \"#utility.yul\":8549:8567   */\n      dup2\n      add\n        /* \"#utility.yul\":8542:8576   */\n      dup4\n      swap1\n      mstore\n        /* \"#utility.yul\":8384:8387   */\n      0xa0\n        /* \"#utility.yul\":8607:8610   */\n      0x80\n        /* \"#utility.yul\":8592:8611   */\n      dup3\n      add\n        /* \"#utility.yul\":8585:8617   */\n      dup2\n      swap1\n      mstore\n        /* \"#utility.yul\":8347:8351   */\n      0x00\n      swap1\n        /* \"#utility.yul\":8634:8680   */\n      tag_248\n      swap1\n        /* \"#utility.yul\":8660:8679   */\n      dup4\n      add\n        /* \"#utility.yul\":8652:8658   */\n      dup5\n        /* \"#utility.yul\":8634:8680   */\n      tag_165\n      jump\t// in\n    tag_248:\n        /* \"#utility.yul\":8626:8680   */\n      swap8\n        /* \"#utility.yul\":8125:8686   */\n      swap7\n      pop\n      pop\n      pop\n      pop\n      pop\n      pop\n      pop\n      jump\t// out\n        /* \"#utility.yul\":8970:9215   */\n    tag_126:\n        /* \"#utility.yul\":9037:9043   */\n      0x00\n        /* \"#utility.yul\":9090:9092   */\n      0x20\n        /* \"#utility.yul\":9078:9087   */\n      dup3\n        /* \"#utility.yul\":9069:9076   */\n      dup5\n        /* \"#utility.yul\":9065:9088   */\n      sub\n        /* \"#utility.yul\":9061:9093   */\n      slt\n        /* \"#utility.yul\":9058:9110   */\n      iszero\n      tag_251\n      jumpi\n        /* \"#utility.yul\":9106:9107   */\n      0x00\n        /* \"#utility.yul\":9103:9104   */\n      dup1\n        /* \"#utility.yul\":9096:9108   */\n      revert\n        /* \"#utility.yul\":9058:9110   */\n    tag_251:\n        /* \"#utility.yul\":9138:9147   */\n      dup2\n        /* \"#utility.yul\":9132:9148   */\n      mload\n        /* \"#utility.yul\":9157:9185   */\n      tag_196\n        /* \"#utility.yul\":9179:9184   */\n      dup2\n        /* \"#utility.yul\":9157:9185   */\n      tag_172\n      jump\t// in\n\n    auxdata: 0xa2646970667358221220ff1ad5ed0615eb05e5e7b943775cdd7582aa12ff95f43d0100720af9959cded764736f6c634300080e0033\n}\n",
				"bytecode": {
					"linkReferences": {},
					"object": "60806040526001600055662386f26fc1000060035534801561002057600080fd5b50600180546001600160a01b03191633179055610fcd806100426000396000f3fe608060405234801561001057600080fd5b50600436106100a95760003560e01c80638da5cb5b116100715780638da5cb5b1461014257806391b7f5ed1461016d578063a035b1fe14610180578063a1538bde14610197578063a1db9782146101aa578063f3e414f8146101bd57600080fd5b8063107046bd146100ae578063230abfd0146100df57806324600fc3146100f4578063429b62e5146100fc5780634b0bddd21461012f575b600080fd5b6100c16100bc366004610a90565b6101d0565b6040516100d699989796959493929190610af6565b60405180910390f35b6100f26100ed366004610cd7565b6103bf565b005b6100f261059d565b61011f61010a366004610db2565b60026020526000908152604090205460ff1681565b60405190151581526020016100d6565b6100f261013d366004610ddb565b610619565b600154610155906001600160a01b031681565b6040516001600160a01b0390911681526020016100d6565b6100f261017b366004610a90565b610688565b61018960035481565b6040519081526020016100d6565b6100f26101a5366004610e12565b6106d1565b6100f26101b8366004610e87565b610784565b6100f26101cb366004610e87565b610841565b600460205260009081526040902080546001820180549192916101f290610eb1565b80601f016020809104026020016040519081016040528092919081815260200182805461021e90610eb1565b801561026b5780601f106102405761010080835404028352916020019161026b565b820191906000526020600020905b81548152906001019060200180831161024e57829003601f168201915b50505050509080600201805461028090610eb1565b80601f01602080910402602001604051908101604052809291908181526020018280546102ac90610eb1565b80156102f95780601f106102ce576101008083540402835291602001916102f9565b820191906000526020600020905b8154815290600101906020018083116102dc57829003601f168201915b50505050509080600301549080600401549080600501805461031a90610eb1565b80601f016020809104026020016040519081016040528092919081815260200182805461034690610eb1565b80156103935780601f1061036857610100808354040283529160200191610393565b820191906000526020600020905b81548152906001019060200180831161037657829003601f168201915b50505050600783015460099093015491926001600160a01b03169160ff80821692506101009091041689565b6104296040518061016001604052806000815260200160608152602001606081526020016000815260200160008152602001606081526020016060815260200160006001600160a01b03168152602001606081526020016000151581526020016000151581525090565b6000805480835260208084018a815260408086018b905260608087018b9052608087018a905260a0870189905260c087018890523360e088015261010087018190526001610120880181905261014088018790529486526004845294208551815590518051869492936104a09385019201906108f2565b50604082015180516104bc9160028401916020909101906108f2565b50606082015160038201556080820151600482015560a082015180516104ec9160058401916020909101906108f2565b5060c08201518051610508916006840191602090910190610976565b5060e08201516007820180546001600160a01b0319166001600160a01b03909216919091179055610100820151805161054b9160088401916020909101906109cf565b50610120820151600990910180546101409093015115156101000261ff00199215159290921661ffff199093169290921717905560008054908061058e83610eeb565b91905055505050505050505050565b6001546001600160a01b03163314806105c557503360009081526002602052604090205460ff165b6105ea5760405162461bcd60e51b81526004016105e190610f12565b60405180910390fd5b60405133904780156108fc02916000818181858888f19350505050158015610616573d6000803e3d6000fd5b50565b6001546001600160a01b031633148061064157503360009081526002602052604090205460ff165b61065d5760405162461bcd60e51b81526004016105e190610f12565b6001600160a01b03919091166000908152600260205260409020805460ff1916911515919091179055565b6001546001600160a01b03163314806106b057503360009081526002602052604090205460ff165b6106cc5760405162461bcd60e51b81526004016105e190610f12565b600355565b6001546001600160a01b03163314806106f957503360009081526002602052604090205460ff165b6107155760405162461bcd60e51b81526004016105e190610f12565b604051637921219560e11b815284906001600160a01b0382169063f242432a9061074b9030903390899089908990600401610f35565b600060405180830381600087803b15801561076557600080fd5b505af1158015610779573d6000803e3d6000fd5b505050505050505050565b6001546001600160a01b03163314806107ac57503360009081526002602052604090205460ff165b6107c85760405162461bcd60e51b81526004016105e190610f12565b60405163a9059cbb60e01b81523360048201526024810182905282906001600160a01b0382169063a9059cbb906044016020604051808303816000875af1158015610817573d6000803e3d6000fd5b505050506040513d601f19601f8201168201806040525081019061083b9190610f7a565b50505050565b6001546001600160a01b031633148061086957503360009081526002602052604090205460ff165b6108855760405162461bcd60e51b81526004016105e190610f12565b604051632142170760e11b81523060048201523360248201526044810182905282906001600160a01b038216906342842e0e90606401600060405180830381600087803b1580156108d557600080fd5b505af11580156108e9573d6000803e3d6000fd5b50505050505050565b8280546108fe90610eb1565b90600052602060002090601f0160209004810192826109205760008555610966565b82601f1061093957805160ff1916838001178555610966565b82800160010185558215610966579182015b8281111561096657825182559160200191906001019061094b565b50610972929150610a24565b5090565b8280548282559060005260206000209081019282156109c3579160200282015b828111156109c357825180516109b39184916020909101906108f2565b5091602001919060010190610996565b50610972929150610a39565b828054828255906000526020600020908101928215610966579160200282015b8281111561096657825182546001600160a01b0319166001600160a01b039091161782556020909201916001909101906109ef565b5b808211156109725760008155600101610a25565b80821115610972576000610a4d8282610a56565b50600101610a39565b508054610a6290610eb1565b6000825580601f10610a72575050565b601f0160209004906000526020600020908101906106169190610a24565b600060208284031215610aa257600080fd5b5035919050565b6000815180845260005b81811015610acf57602081850181015186830182015201610ab3565b81811115610ae1576000602083870101525b50601f01601f19169290920160200192915050565b60006101208b8352806020840152610b108184018c610aa9565b90508281036040840152610b24818b610aa9565b905088606084015287608084015282810360a0840152610b448188610aa9565b6001600160a01b039690961660c0840152505091151560e08301521515610100909101529695505050505050565b634e487b7160e01b600052604160045260246000fd5b604051601f8201601f1916810167ffffffffffffffff81118282101715610bb157610bb1610b72565b604052919050565b600067ffffffffffffffff831115610bd357610bd3610b72565b610be6601f8401601f1916602001610b88565b9050828152838383011115610bfa57600080fd5b828260208301376000602084830101529392505050565b600082601f830112610c2257600080fd5b610c3183833560208501610bb9565b9392505050565b600082601f830112610c4957600080fd5b8135602067ffffffffffffffff80831115610c6657610c66610b72565b8260051b610c75838201610b88565b9384528581018301938381019088861115610c8f57600080fd5b84880192505b85831015610ccb57823584811115610cad5760008081fd5b610cbb8a87838c0101610c11565b8352509184019190840190610c95565b98975050505050505050565b60008060008060008060c08789031215610cf057600080fd5b863567ffffffffffffffff80821115610d0857600080fd5b610d148a838b01610c11565b97506020890135915080821115610d2a57600080fd5b610d368a838b01610c11565b965060408901359550606089013594506080890135915080821115610d5a57600080fd5b610d668a838b01610c11565b935060a0890135915080821115610d7c57600080fd5b50610d8989828a01610c38565b9150509295509295509295565b80356001600160a01b0381168114610dad57600080fd5b919050565b600060208284031215610dc457600080fd5b610c3182610d96565b801515811461061657600080fd5b60008060408385031215610dee57600080fd5b610df783610d96565b91506020830135610e0781610dcd565b809150509250929050565b60008060008060808587031215610e2857600080fd5b610e3185610d96565b93506020850135925060408501359150606085013567ffffffffffffffff811115610e5b57600080fd5b8501601f81018713610e6c57600080fd5b610e7b87823560208401610bb9565b91505092959194509250565b60008060408385031215610e9a57600080fd5b610ea383610d96565b946020939093013593505050565b600181811c90821680610ec557607f821691505b602082108103610ee557634e487b7160e01b600052602260045260246000fd5b50919050565b600060018201610f0b57634e487b7160e01b600052601160045260246000fd5b5060010190565b6020808252600990820152683737ba1030b236b4b760b91b604082015260600190565b6001600160a01b03868116825285166020820152604081018490526060810183905260a060808201819052600090610f6f90830184610aa9565b979650505050505050565b600060208284031215610f8c57600080fd5b8151610c3181610dcd56fea2646970667358221220ff1ad5ed0615eb05e5e7b943775cdd7582aa12ff95f43d0100720af9959cded764736f6c634300080e0033",
					"opcodes": "PUSH1 0x80 PUSH1 0x40 MSTORE PUSH1 0x1 PUSH1 0x0 SSTORE PUSH7 0x2386F26FC10000 PUSH1 0x3 SSTORE CALLVALUE DUP1 ISZERO PUSH2 0x20 JUMPI PUSH1 0x0 DUP1 REVERT JUMPDEST POP PUSH1 0x1 DUP1 SLOAD PUSH1 0x1 PUSH1 0x1 PUSH1 0xA0 SHL SUB NOT AND CALLER OR SWAP1 SSTORE PUSH2 0xFCD DUP1 PUSH2 0x42 PUSH1 0x0 CODECOPY PUSH1 0x0 RETURN INVALID PUSH1 0x80 PUSH1 0x40 MSTORE CALLVALUE DUP1 ISZERO PUSH2 0x10 JUMPI PUSH1 0x0 DUP1 REVERT JUMPDEST POP PUSH1 0x4 CALLDATASIZE LT PUSH2 0xA9 JUMPI PUSH1 0x0 CALLDATALOAD PUSH1 0xE0 SHR DUP1 PUSH4 0x8DA5CB5B GT PUSH2 0x71 JUMPI DUP1 PUSH4 0x8DA5CB5B EQ PUSH2 0x142 JUMPI DUP1 PUSH4 0x91B7F5ED EQ PUSH2 0x16D JUMPI DUP1 PUSH4 0xA035B1FE EQ PUSH2 0x180 JUMPI DUP1 PUSH4 0xA1538BDE EQ PUSH2 0x197 JUMPI DUP1 PUSH4 0xA1DB9782 EQ PUSH2 0x1AA JUMPI DUP1 PUSH4 0xF3E414F8 EQ PUSH2 0x1BD JUMPI PUSH1 0x0 DUP1 REVERT JUMPDEST DUP1 PUSH4 0x107046BD EQ PUSH2 0xAE JUMPI DUP1 PUSH4 0x230ABFD0 EQ PUSH2 0xDF JUMPI DUP1 PUSH4 0x24600FC3 EQ PUSH2 0xF4 JUMPI DUP1 PUSH4 0x429B62E5 EQ PUSH2 0xFC JUMPI DUP1 PUSH4 0x4B0BDDD2 EQ PUSH2 0x12F JUMPI JUMPDEST PUSH1 0x0 DUP1 REVERT JUMPDEST PUSH2 0xC1 PUSH2 0xBC CALLDATASIZE PUSH1 0x4 PUSH2 0xA90 JUMP JUMPDEST PUSH2 0x1D0 JUMP JUMPDEST PUSH1 0x40 MLOAD PUSH2 0xD6 SWAP10 SWAP9 SWAP8 SWAP7 SWAP6 SWAP5 SWAP4 SWAP3 SWAP2 SWAP1 PUSH2 0xAF6 JUMP JUMPDEST PUSH1 0x40 MLOAD DUP1 SWAP2 SUB SWAP1 RETURN JUMPDEST PUSH2 0xF2 PUSH2 0xED CALLDATASIZE PUSH1 0x4 PUSH2 0xCD7 JUMP JUMPDEST PUSH2 0x3BF JUMP JUMPDEST STOP JUMPDEST PUSH2 0xF2 PUSH2 0x59D JUMP JUMPDEST PUSH2 0x11F PUSH2 0x10A CALLDATASIZE PUSH1 0x4 PUSH2 0xDB2 JUMP JUMPDEST PUSH1 0x2 PUSH1 0x20 MSTORE PUSH1 0x0 SWAP1 DUP2 MSTORE PUSH1 0x40 SWAP1 KECCAK256 SLOAD PUSH1 0xFF AND DUP2 JUMP JUMPDEST PUSH1 0x40 MLOAD SWAP1 ISZERO ISZERO DUP2 MSTORE PUSH1 0x20 ADD PUSH2 0xD6 JUMP JUMPDEST PUSH2 0xF2 PUSH2 0x13D CALLDATASIZE PUSH1 0x4 PUSH2 0xDDB JUMP JUMPDEST PUSH2 0x619 JUMP JUMPDEST PUSH1 0x1 SLOAD PUSH2 0x155 SWAP1 PUSH1 0x1 PUSH1 0x1 PUSH1 0xA0 SHL SUB AND DUP2 JUMP JUMPDEST PUSH1 0x40 MLOAD PUSH1 0x1 PUSH1 0x1 PUSH1 0xA0 SHL SUB SWAP1 SWAP2 AND DUP2 MSTORE PUSH1 0x20 ADD PUSH2 0xD6 JUMP JUMPDEST PUSH2 0xF2 PUSH2 0x17B CALLDATASIZE PUSH1 0x4 PUSH2 0xA90 JUMP JUMPDEST PUSH2 0x688 JUMP JUMPDEST PUSH2 0x189 PUSH1 0x3 SLOAD DUP2 JUMP JUMPDEST PUSH1 0x40 MLOAD SWAP1 DUP2 MSTORE PUSH1 0x20 ADD PUSH2 0xD6 JUMP JUMPDEST PUSH2 0xF2 PUSH2 0x1A5 CALLDATASIZE PUSH1 0x4 PUSH2 0xE12 JUMP JUMPDEST PUSH2 0x6D1 JUMP JUMPDEST PUSH2 0xF2 PUSH2 0x1B8 CALLDATASIZE PUSH1 0x4 PUSH2 0xE87 JUMP JUMPDEST PUSH2 0x784 JUMP JUMPDEST PUSH2 0xF2 PUSH2 0x1CB CALLDATASIZE PUSH1 0x4 PUSH2 0xE87 JUMP JUMPDEST PUSH2 0x841 JUMP JUMPDEST PUSH1 0x4 PUSH1 0x20 MSTORE PUSH1 0x0 SWAP1 DUP2 MSTORE PUSH1 0x40 SWAP1 KECCAK256 DUP1 SLOAD PUSH1 0x1 DUP3 ADD DUP1 SLOAD SWAP2 SWAP3 SWAP2 PUSH2 0x1F2 SWAP1 PUSH2 0xEB1 JUMP JUMPDEST DUP1 PUSH1 0x1F ADD PUSH1 0x20 DUP1 SWAP2 DIV MUL PUSH1 0x20 ADD PUSH1 0x40 MLOAD SWAP1 DUP2 ADD PUSH1 0x40 MSTORE DUP1 SWAP3 SWAP2 SWAP1 DUP2 DUP2 MSTORE PUSH1 0x20 ADD DUP3 DUP1 SLOAD PUSH2 0x21E SWAP1 PUSH2 0xEB1 JUMP JUMPDEST DUP1 ISZERO PUSH2 0x26B JUMPI DUP1 PUSH1 0x1F LT PUSH2 0x240 JUMPI PUSH2 0x100 DUP1 DUP4 SLOAD DIV MUL DUP4 MSTORE SWAP2 PUSH1 0x20 ADD SWAP2 PUSH2 0x26B JUMP JUMPDEST DUP3 ADD SWAP2 SWAP1 PUSH1 0x0 MSTORE PUSH1 0x20 PUSH1 0x0 KECCAK256 SWAP1 JUMPDEST DUP2 SLOAD DUP2 MSTORE SWAP1 PUSH1 0x1 ADD SWAP1 PUSH1 0x20 ADD DUP1 DUP4 GT PUSH2 0x24E JUMPI DUP3 SWAP1 SUB PUSH1 0x1F AND DUP3 ADD SWAP2 JUMPDEST POP POP POP POP POP SWAP1 DUP1 PUSH1 0x2 ADD DUP1 SLOAD PUSH2 0x280 SWAP1 PUSH2 0xEB1 JUMP JUMPDEST DUP1 PUSH1 0x1F ADD PUSH1 0x20 DUP1 SWAP2 DIV MUL PUSH1 0x20 ADD PUSH1 0x40 MLOAD SWAP1 DUP2 ADD PUSH1 0x40 MSTORE DUP1 SWAP3 SWAP2 SWAP1 DUP2 DUP2 MSTORE PUSH1 0x20 ADD DUP3 DUP1 SLOAD PUSH2 0x2AC SWAP1 PUSH2 0xEB1 JUMP JUMPDEST DUP1 ISZERO PUSH2 0x2F9 JUMPI DUP1 PUSH1 0x1F LT PUSH2 0x2CE JUMPI PUSH2 0x100 DUP1 DUP4 SLOAD DIV MUL DUP4 MSTORE SWAP2 PUSH1 0x20 ADD SWAP2 PUSH2 0x2F9 JUMP JUMPDEST DUP3 ADD SWAP2 SWAP1 PUSH1 0x0 MSTORE PUSH1 0x20 PUSH1 0x0 KECCAK256 SWAP1 JUMPDEST DUP2 SLOAD DUP2 MSTORE SWAP1 PUSH1 0x1 ADD SWAP1 PUSH1 0x20 ADD DUP1 DUP4 GT PUSH2 0x2DC JUMPI DUP3 SWAP1 SUB PUSH1 0x1F AND DUP3 ADD SWAP2 JUMPDEST POP POP POP POP POP SWAP1 DUP1 PUSH1 0x3 ADD SLOAD SWAP1 DUP1 PUSH1 0x4 ADD SLOAD SWAP1 DUP1 PUSH1 0x5 ADD DUP1 SLOAD PUSH2 0x31A SWAP1 PUSH2 0xEB1 JUMP JUMPDEST DUP1 PUSH1 0x1F ADD PUSH1 0x20 DUP1 SWAP2 DIV MUL PUSH1 0x20 ADD PUSH1 0x40 MLOAD SWAP1 DUP2 ADD PUSH1 0x40 MSTORE DUP1 SWAP3 SWAP2 SWAP1 DUP2 DUP2 MSTORE PUSH1 0x20 ADD DUP3 DUP1 SLOAD PUSH2 0x346 SWAP1 PUSH2 0xEB1 JUMP JUMPDEST DUP1 ISZERO PUSH2 0x393 JUMPI DUP1 PUSH1 0x1F LT PUSH2 0x368 JUMPI PUSH2 0x100 DUP1 DUP4 SLOAD DIV MUL DUP4 MSTORE SWAP2 PUSH1 0x20 ADD SWAP2 PUSH2 0x393 JUMP JUMPDEST DUP3 ADD SWAP2 SWAP1 PUSH1 0x0 MSTORE PUSH1 0x20 PUSH1 0x0 KECCAK256 SWAP1 JUMPDEST DUP2 SLOAD DUP2 MSTORE SWAP1 PUSH1 0x1 ADD SWAP1 PUSH1 0x20 ADD DUP1 DUP4 GT PUSH2 0x376 JUMPI DUP3 SWAP1 SUB PUSH1 0x1F AND DUP3 ADD SWAP2 JUMPDEST POP POP POP POP PUSH1 0x7 DUP4 ADD SLOAD PUSH1 0x9 SWAP1 SWAP4 ADD SLOAD SWAP2 SWAP3 PUSH1 0x1 PUSH1 0x1 PUSH1 0xA0 SHL SUB AND SWAP2 PUSH1 0xFF DUP1 DUP3 AND SWAP3 POP PUSH2 0x100 SWAP1 SWAP2 DIV AND DUP10 JUMP JUMPDEST PUSH2 0x429 PUSH1 0x40 MLOAD DUP1 PUSH2 0x160 ADD PUSH1 0x40 MSTORE DUP1 PUSH1 0x0 DUP2 MSTORE PUSH1 0x20 ADD PUSH1 0x60 DUP2 MSTORE PUSH1 0x20 ADD PUSH1 0x60 DUP2 MSTORE PUSH1 0x20 ADD PUSH1 0x0 DUP2 MSTORE PUSH1 0x20 ADD PUSH1 0x0 DUP2 MSTORE PUSH1 0x20 ADD PUSH1 0x60 DUP2 MSTORE PUSH1 0x20 ADD PUSH1 0x60 DUP2 MSTORE PUSH1 0x20 ADD PUSH1 0x0 PUSH1 0x1 PUSH1 0x1 PUSH1 0xA0 SHL SUB AND DUP2 MSTORE PUSH1 0x20 ADD PUSH1 0x60 DUP2 MSTORE PUSH1 0x20 ADD PUSH1 0x0 ISZERO ISZERO DUP2 MSTORE PUSH1 0x20 ADD PUSH1 0x0 ISZERO ISZERO DUP2 MSTORE POP SWAP1 JUMP JUMPDEST PUSH1 0x0 DUP1 SLOAD DUP1 DUP4 MSTORE PUSH1 0x20 DUP1 DUP5 ADD DUP11 DUP2 MSTORE PUSH1 0x40 DUP1 DUP7 ADD DUP12 SWAP1 MSTORE PUSH1 0x60 DUP1 DUP8 ADD DUP12 SWAP1 MSTORE PUSH1 0x80 DUP8 ADD DUP11 SWAP1 MSTORE PUSH1 0xA0 DUP8 ADD DUP10 SWAP1 MSTORE PUSH1 0xC0 DUP8 ADD DUP9 SWAP1 MSTORE CALLER PUSH1 0xE0 DUP9 ADD MSTORE PUSH2 0x100 DUP8 ADD DUP2 SWAP1 MSTORE PUSH1 0x1 PUSH2 0x120 DUP9 ADD DUP2 SWAP1 MSTORE PUSH2 0x140 DUP9 ADD DUP8 SWAP1 MSTORE SWAP5 DUP7 MSTORE PUSH1 0x4 DUP5 MSTORE SWAP5 KECCAK256 DUP6 MLOAD DUP2 SSTORE SWAP1 MLOAD DUP1 MLOAD DUP7 SWAP5 SWAP3 SWAP4 PUSH2 0x4A0 SWAP4 DUP6 ADD SWAP3 ADD SWAP1 PUSH2 0x8F2 JUMP JUMPDEST POP PUSH1 0x40 DUP3 ADD MLOAD DUP1 MLOAD PUSH2 0x4BC SWAP2 PUSH1 0x2 DUP5 ADD SWAP2 PUSH1 0x20 SWAP1 SWAP2 ADD SWAP1 PUSH2 0x8F2 JUMP JUMPDEST POP PUSH1 0x60 DUP3 ADD MLOAD PUSH1 0x3 DUP3 ADD SSTORE PUSH1 0x80 DUP3 ADD MLOAD PUSH1 0x4 DUP3 ADD SSTORE PUSH1 0xA0 DUP3 ADD MLOAD DUP1 MLOAD PUSH2 0x4EC SWAP2 PUSH1 0x5 DUP5 ADD SWAP2 PUSH1 0x20 SWAP1 SWAP2 ADD SWAP1 PUSH2 0x8F2 JUMP JUMPDEST POP PUSH1 0xC0 DUP3 ADD MLOAD DUP1 MLOAD PUSH2 0x508 SWAP2 PUSH1 0x6 DUP5 ADD SWAP2 PUSH1 0x20 SWAP1 SWAP2 ADD SWAP1 PUSH2 0x976 JUMP JUMPDEST POP PUSH1 0xE0 DUP3 ADD MLOAD PUSH1 0x7 DUP3 ADD DUP1 SLOAD PUSH1 0x1 PUSH1 0x1 PUSH1 0xA0 SHL SUB NOT AND PUSH1 0x1 PUSH1 0x1 PUSH1 0xA0 SHL SUB SWAP1 SWAP3 AND SWAP2 SWAP1 SWAP2 OR SWAP1 SSTORE PUSH2 0x100 DUP3 ADD MLOAD DUP1 MLOAD PUSH2 0x54B SWAP2 PUSH1 0x8 DUP5 ADD SWAP2 PUSH1 0x20 SWAP1 SWAP2 ADD SWAP1 PUSH2 0x9CF JUMP JUMPDEST POP PUSH2 0x120 DUP3 ADD MLOAD PUSH1 0x9 SWAP1 SWAP2 ADD DUP1 SLOAD PUSH2 0x140 SWAP1 SWAP4 ADD MLOAD ISZERO ISZERO PUSH2 0x100 MUL PUSH2 0xFF00 NOT SWAP3 ISZERO ISZERO SWAP3 SWAP1 SWAP3 AND PUSH2 0xFFFF NOT SWAP1 SWAP4 AND SWAP3 SWAP1 SWAP3 OR OR SWAP1 SSTORE PUSH1 0x0 DUP1 SLOAD SWAP1 DUP1 PUSH2 0x58E DUP4 PUSH2 0xEEB JUMP JUMPDEST SWAP2 SWAP1 POP SSTORE POP POP POP POP POP POP POP POP POP JUMP JUMPDEST PUSH1 0x1 SLOAD PUSH1 0x1 PUSH1 0x1 PUSH1 0xA0 SHL SUB AND CALLER EQ DUP1 PUSH2 0x5C5 JUMPI POP CALLER PUSH1 0x0 SWAP1 DUP2 MSTORE PUSH1 0x2 PUSH1 0x20 MSTORE PUSH1 0x40 SWAP1 KECCAK256 SLOAD PUSH1 0xFF AND JUMPDEST PUSH2 0x5EA JUMPI PUSH1 0x40 MLOAD PUSH3 0x461BCD PUSH1 0xE5 SHL DUP2 MSTORE PUSH1 0x4 ADD PUSH2 0x5E1 SWAP1 PUSH2 0xF12 JUMP JUMPDEST PUSH1 0x40 MLOAD DUP1 SWAP2 SUB SWAP1 REVERT JUMPDEST PUSH1 0x40 MLOAD CALLER SWAP1 SELFBALANCE DUP1 ISZERO PUSH2 0x8FC MUL SWAP2 PUSH1 0x0 DUP2 DUP2 DUP2 DUP6 DUP9 DUP9 CALL SWAP4 POP POP POP POP ISZERO DUP1 ISZERO PUSH2 0x616 JUMPI RETURNDATASIZE PUSH1 0x0 DUP1 RETURNDATACOPY RETURNDATASIZE PUSH1 0x0 REVERT JUMPDEST POP JUMP JUMPDEST PUSH1 0x1 SLOAD PUSH1 0x1 PUSH1 0x1 PUSH1 0xA0 SHL SUB AND CALLER EQ DUP1 PUSH2 0x641 JUMPI POP CALLER PUSH1 0x0 SWAP1 DUP2 MSTORE PUSH1 0x2 PUSH1 0x20 MSTORE PUSH1 0x40 SWAP1 KECCAK256 SLOAD PUSH1 0xFF AND JUMPDEST PUSH2 0x65D JUMPI PUSH1 0x40 MLOAD PUSH3 0x461BCD PUSH1 0xE5 SHL DUP2 MSTORE PUSH1 0x4 ADD PUSH2 0x5E1 SWAP1 PUSH2 0xF12 JUMP JUMPDEST PUSH1 0x1 PUSH1 0x1 PUSH1 0xA0 SHL SUB SWAP2 SWAP1 SWAP2 AND PUSH1 0x0 SWAP1 DUP2 MSTORE PUSH1 0x2 PUSH1 0x20 MSTORE PUSH1 0x40 SWAP1 KECCAK256 DUP1 SLOAD PUSH1 0xFF NOT AND SWAP2 ISZERO ISZERO SWAP2 SWAP1 SWAP2 OR SWAP1 SSTORE JUMP JUMPDEST PUSH1 0x1 SLOAD PUSH1 0x1 PUSH1 0x1 PUSH1 0xA0 SHL SUB AND CALLER EQ DUP1 PUSH2 0x6B0 JUMPI POP CALLER PUSH1 0x0 SWAP1 DUP2 MSTORE PUSH1 0x2 PUSH1 0x20 MSTORE PUSH1 0x40 SWAP1 KECCAK256 SLOAD PUSH1 0xFF AND JUMPDEST PUSH2 0x6CC JUMPI PUSH1 0x40 MLOAD PUSH3 0x461BCD PUSH1 0xE5 SHL DUP2 MSTORE PUSH1 0x4 ADD PUSH2 0x5E1 SWAP1 PUSH2 0xF12 JUMP JUMPDEST PUSH1 0x3 SSTORE JUMP JUMPDEST PUSH1 0x1 SLOAD PUSH1 0x1 PUSH1 0x1 PUSH1 0xA0 SHL SUB AND CALLER EQ DUP1 PUSH2 0x6F9 JUMPI POP CALLER PUSH1 0x0 SWAP1 DUP2 MSTORE PUSH1 0x2 PUSH1 0x20 MSTORE PUSH1 0x40 SWAP1 KECCAK256 SLOAD PUSH1 0xFF AND JUMPDEST PUSH2 0x715 JUMPI PUSH1 0x40 MLOAD PUSH3 0x461BCD PUSH1 0xE5 SHL DUP2 MSTORE PUSH1 0x4 ADD PUSH2 0x5E1 SWAP1 PUSH2 0xF12 JUMP JUMPDEST PUSH1 0x40 MLOAD PUSH4 0x79212195 PUSH1 0xE1 SHL DUP2 MSTORE DUP5 SWAP1 PUSH1 0x1 PUSH1 0x1 PUSH1 0xA0 SHL SUB DUP3 AND SWAP1 PUSH4 0xF242432A SWAP1 PUSH2 0x74B SWAP1 ADDRESS SWAP1 CALLER SWAP1 DUP10 SWAP1 DUP10 SWAP1 DUP10 SWAP1 PUSH1 0x4 ADD PUSH2 0xF35 JUMP JUMPDEST PUSH1 0x0 PUSH1 0x40 MLOAD DUP1 DUP4 SUB DUP2 PUSH1 0x0 DUP8 DUP1 EXTCODESIZE ISZERO DUP1 ISZERO PUSH2 0x765 JUMPI PUSH1 0x0 DUP1 REVERT JUMPDEST POP GAS CALL ISZERO DUP1 ISZERO PUSH2 0x779 JUMPI RETURNDATASIZE PUSH1 0x0 DUP1 RETURNDATACOPY RETURNDATASIZE PUSH1 0x0 REVERT JUMPDEST POP POP POP POP POP POP POP POP POP JUMP JUMPDEST PUSH1 0x1 SLOAD PUSH1 0x1 PUSH1 0x1 PUSH1 0xA0 SHL SUB AND CALLER EQ DUP1 PUSH2 0x7AC JUMPI POP CALLER PUSH1 0x0 SWAP1 DUP2 MSTORE PUSH1 0x2 PUSH1 0x20 MSTORE PUSH1 0x40 SWAP1 KECCAK256 SLOAD PUSH1 0xFF AND JUMPDEST PUSH2 0x7C8 JUMPI PUSH1 0x40 MLOAD PUSH3 0x461BCD PUSH1 0xE5 SHL DUP2 MSTORE PUSH1 0x4 ADD PUSH2 0x5E1 SWAP1 PUSH2 0xF12 JUMP JUMPDEST PUSH1 0x40 MLOAD PUSH4 0xA9059CBB PUSH1 0xE0 SHL DUP2 MSTORE CALLER PUSH1 0x4 DUP3 ADD MSTORE PUSH1 0x24 DUP2 ADD DUP3 SWAP1 MSTORE DUP3 SWAP1 PUSH1 0x1 PUSH1 0x1 PUSH1 0xA0 SHL SUB DUP3 AND SWAP1 PUSH4 0xA9059CBB SWAP1 PUSH1 0x44 ADD PUSH1 0x20 PUSH1 0x40 MLOAD DUP1 DUP4 SUB DUP2 PUSH1 0x0 DUP8 GAS CALL ISZERO DUP1 ISZERO PUSH2 0x817 JUMPI RETURNDATASIZE PUSH1 0x0 DUP1 RETURNDATACOPY RETURNDATASIZE PUSH1 0x0 REVERT JUMPDEST POP POP POP POP PUSH1 0x40 MLOAD RETURNDATASIZE PUSH1 0x1F NOT PUSH1 0x1F DUP3 ADD AND DUP3 ADD DUP1 PUSH1 0x40 MSTORE POP DUP2 ADD SWAP1 PUSH2 0x83B SWAP2 SWAP1 PUSH2 0xF7A JUMP JUMPDEST POP POP POP POP JUMP JUMPDEST PUSH1 0x1 SLOAD PUSH1 0x1 PUSH1 0x1 PUSH1 0xA0 SHL SUB AND CALLER EQ DUP1 PUSH2 0x869 JUMPI POP CALLER PUSH1 0x0 SWAP1 DUP2 MSTORE PUSH1 0x2 PUSH1 0x20 MSTORE PUSH1 0x40 SWAP1 KECCAK256 SLOAD PUSH1 0xFF AND JUMPDEST PUSH2 0x885 JUMPI PUSH1 0x40 MLOAD PUSH3 0x461BCD PUSH1 0xE5 SHL DUP2 MSTORE PUSH1 0x4 ADD PUSH2 0x5E1 SWAP1 PUSH2 0xF12 JUMP JUMPDEST PUSH1 0x40 MLOAD PUSH4 0x21421707 PUSH1 0xE1 SHL DUP2 MSTORE ADDRESS PUSH1 0x4 DUP3 ADD MSTORE CALLER PUSH1 0x24 DUP3 ADD MSTORE PUSH1 0x44 DUP2 ADD DUP3 SWAP1 MSTORE DUP3 SWAP1 PUSH1 0x1 PUSH1 0x1 PUSH1 0xA0 SHL SUB DUP3 AND SWAP1 PUSH4 0x42842E0E SWAP1 PUSH1 0x64 ADD PUSH1 0x0 PUSH1 0x40 MLOAD DUP1 DUP4 SUB DUP2 PUSH1 0x0 DUP8 DUP1 EXTCODESIZE ISZERO DUP1 ISZERO PUSH2 0x8D5 JUMPI PUSH1 0x0 DUP1 REVERT JUMPDEST POP GAS CALL ISZERO DUP1 ISZERO PUSH2 0x8E9 JUMPI RETURNDATASIZE PUSH1 0x0 DUP1 RETURNDATACOPY RETURNDATASIZE PUSH1 0x0 REVERT JUMPDEST POP POP POP POP POP POP POP JUMP JUMPDEST DUP3 DUP1 SLOAD PUSH2 0x8FE SWAP1 PUSH2 0xEB1 JUMP JUMPDEST SWAP1 PUSH1 0x0 MSTORE PUSH1 0x20 PUSH1 0x0 KECCAK256 SWAP1 PUSH1 0x1F ADD PUSH1 0x20 SWAP1 DIV DUP2 ADD SWAP3 DUP3 PUSH2 0x920 JUMPI PUSH1 0x0 DUP6 SSTORE PUSH2 0x966 JUMP JUMPDEST DUP3 PUSH1 0x1F LT PUSH2 0x939 JUMPI DUP1 MLOAD PUSH1 0xFF NOT AND DUP4 DUP1 ADD OR DUP6 SSTORE PUSH2 0x966 JUMP JUMPDEST DUP3 DUP1 ADD PUSH1 0x1 ADD DUP6 SSTORE DUP3 ISZERO PUSH2 0x966 JUMPI SWAP2 DUP3 ADD JUMPDEST DUP3 DUP2 GT ISZERO PUSH2 0x966 JUMPI DUP3 MLOAD DUP3 SSTORE SWAP2 PUSH1 0x20 ADD SWAP2 SWAP1 PUSH1 0x1 ADD SWAP1 PUSH2 0x94B JUMP JUMPDEST POP PUSH2 0x972 SWAP3 SWAP2 POP PUSH2 0xA24 JUMP JUMPDEST POP SWAP1 JUMP JUMPDEST DUP3 DUP1 SLOAD DUP3 DUP3 SSTORE SWAP1 PUSH1 0x0 MSTORE PUSH1 0x20 PUSH1 0x0 KECCAK256 SWAP1 DUP2 ADD SWAP3 DUP3 ISZERO PUSH2 0x9C3 JUMPI SWAP2 PUSH1 0x20 MUL DUP3 ADD JUMPDEST DUP3 DUP2 GT ISZERO PUSH2 0x9C3 JUMPI DUP3 MLOAD DUP1 MLOAD PUSH2 0x9B3 SWAP2 DUP5 SWAP2 PUSH1 0x20 SWAP1 SWAP2 ADD SWAP1 PUSH2 0x8F2 JUMP JUMPDEST POP SWAP2 PUSH1 0x20 ADD SWAP2 SWAP1 PUSH1 0x1 ADD SWAP1 PUSH2 0x996 JUMP JUMPDEST POP PUSH2 0x972 SWAP3 SWAP2 POP PUSH2 0xA39 JUMP JUMPDEST DUP3 DUP1 SLOAD DUP3 DUP3 SSTORE SWAP1 PUSH1 0x0 MSTORE PUSH1 0x20 PUSH1 0x0 KECCAK256 SWAP1 DUP2 ADD SWAP3 DUP3 ISZERO PUSH2 0x966 JUMPI SWAP2 PUSH1 0x20 MUL DUP3 ADD JUMPDEST DUP3 DUP2 GT ISZERO PUSH2 0x966 JUMPI DUP3 MLOAD DUP3 SLOAD PUSH1 0x1 PUSH1 0x1 PUSH1 0xA0 SHL SUB NOT AND PUSH1 0x1 PUSH1 0x1 PUSH1 0xA0 SHL SUB SWAP1 SWAP2 AND OR DUP3 SSTORE PUSH1 0x20 SWAP1 SWAP3 ADD SWAP2 PUSH1 0x1 SWAP1 SWAP2 ADD SWAP1 PUSH2 0x9EF JUMP JUMPDEST JUMPDEST DUP1 DUP3 GT ISZERO PUSH2 0x972 JUMPI PUSH1 0x0 DUP2 SSTORE PUSH1 0x1 ADD PUSH2 0xA25 JUMP JUMPDEST DUP1 DUP3 GT ISZERO PUSH2 0x972 JUMPI PUSH1 0x0 PUSH2 0xA4D DUP3 DUP3 PUSH2 0xA56 JUMP JUMPDEST POP PUSH1 0x1 ADD PUSH2 0xA39 JUMP JUMPDEST POP DUP1 SLOAD PUSH2 0xA62 SWAP1 PUSH2 0xEB1 JUMP JUMPDEST PUSH1 0x0 DUP3 SSTORE DUP1 PUSH1 0x1F LT PUSH2 0xA72 JUMPI POP POP JUMP JUMPDEST PUSH1 0x1F ADD PUSH1 0x20 SWAP1 DIV SWAP1 PUSH1 0x0 MSTORE PUSH1 0x20 PUSH1 0x0 KECCAK256 SWAP1 DUP2 ADD SWAP1 PUSH2 0x616 SWAP2 SWAP1 PUSH2 0xA24 JUMP JUMPDEST PUSH1 0x0 PUSH1 0x20 DUP3 DUP5 SUB SLT ISZERO PUSH2 0xAA2 JUMPI PUSH1 0x0 DUP1 REVERT JUMPDEST POP CALLDATALOAD SWAP2 SWAP1 POP JUMP JUMPDEST PUSH1 0x0 DUP2 MLOAD DUP1 DUP5 MSTORE PUSH1 0x0 JUMPDEST DUP2 DUP2 LT ISZERO PUSH2 0xACF JUMPI PUSH1 0x20 DUP2 DUP6 ADD DUP2 ADD MLOAD DUP7 DUP4 ADD DUP3 ADD MSTORE ADD PUSH2 0xAB3 JUMP JUMPDEST DUP2 DUP2 GT ISZERO PUSH2 0xAE1 JUMPI PUSH1 0x0 PUSH1 0x20 DUP4 DUP8 ADD ADD MSTORE JUMPDEST POP PUSH1 0x1F ADD PUSH1 0x1F NOT AND SWAP3 SWAP1 SWAP3 ADD PUSH1 0x20 ADD SWAP3 SWAP2 POP POP JUMP JUMPDEST PUSH1 0x0 PUSH2 0x120 DUP12 DUP4 MSTORE DUP1 PUSH1 0x20 DUP5 ADD MSTORE PUSH2 0xB10 DUP2 DUP5 ADD DUP13 PUSH2 0xAA9 JUMP JUMPDEST SWAP1 POP DUP3 DUP2 SUB PUSH1 0x40 DUP5 ADD MSTORE PUSH2 0xB24 DUP2 DUP12 PUSH2 0xAA9 JUMP JUMPDEST SWAP1 POP DUP9 PUSH1 0x60 DUP5 ADD MSTORE DUP8 PUSH1 0x80 DUP5 ADD MSTORE DUP3 DUP2 SUB PUSH1 0xA0 DUP5 ADD MSTORE PUSH2 0xB44 DUP2 DUP9 PUSH2 0xAA9 JUMP JUMPDEST PUSH1 0x1 PUSH1 0x1 PUSH1 0xA0 SHL SUB SWAP7 SWAP1 SWAP7 AND PUSH1 0xC0 DUP5 ADD MSTORE POP POP SWAP2 ISZERO ISZERO PUSH1 0xE0 DUP4 ADD MSTORE ISZERO ISZERO PUSH2 0x100 SWAP1 SWAP2 ADD MSTORE SWAP7 SWAP6 POP POP POP POP POP POP JUMP JUMPDEST PUSH4 0x4E487B71 PUSH1 0xE0 SHL PUSH1 0x0 MSTORE PUSH1 0x41 PUSH1 0x4 MSTORE PUSH1 0x24 PUSH1 0x0 REVERT JUMPDEST PUSH1 0x40 MLOAD PUSH1 0x1F DUP3 ADD PUSH1 0x1F NOT AND DUP2 ADD PUSH8 0xFFFFFFFFFFFFFFFF DUP2 GT DUP3 DUP3 LT OR ISZERO PUSH2 0xBB1 JUMPI PUSH2 0xBB1 PUSH2 0xB72 JUMP JUMPDEST PUSH1 0x40 MSTORE SWAP2 SWAP1 POP JUMP JUMPDEST PUSH1 0x0 PUSH8 0xFFFFFFFFFFFFFFFF DUP4 GT ISZERO PUSH2 0xBD3 JUMPI PUSH2 0xBD3 PUSH2 0xB72 JUMP JUMPDEST PUSH2 0xBE6 PUSH1 0x1F DUP5 ADD PUSH1 0x1F NOT AND PUSH1 0x20 ADD PUSH2 0xB88 JUMP JUMPDEST SWAP1 POP DUP3 DUP2 MSTORE DUP4 DUP4 DUP4 ADD GT ISZERO PUSH2 0xBFA JUMPI PUSH1 0x0 DUP1 REVERT JUMPDEST DUP3 DUP3 PUSH1 0x20 DUP4 ADD CALLDATACOPY PUSH1 0x0 PUSH1 0x20 DUP5 DUP4 ADD ADD MSTORE SWAP4 SWAP3 POP POP POP JUMP JUMPDEST PUSH1 0x0 DUP3 PUSH1 0x1F DUP4 ADD SLT PUSH2 0xC22 JUMPI PUSH1 0x0 DUP1 REVERT JUMPDEST PUSH2 0xC31 DUP4 DUP4 CALLDATALOAD PUSH1 0x20 DUP6 ADD PUSH2 0xBB9 JUMP JUMPDEST SWAP4 SWAP3 POP POP POP JUMP JUMPDEST PUSH1 0x0 DUP3 PUSH1 0x1F DUP4 ADD SLT PUSH2 0xC49 JUMPI PUSH1 0x0 DUP1 REVERT JUMPDEST DUP2 CALLDATALOAD PUSH1 0x20 PUSH8 0xFFFFFFFFFFFFFFFF DUP1 DUP4 GT ISZERO PUSH2 0xC66 JUMPI PUSH2 0xC66 PUSH2 0xB72 JUMP JUMPDEST DUP3 PUSH1 0x5 SHL PUSH2 0xC75 DUP4 DUP3 ADD PUSH2 0xB88 JUMP JUMPDEST SWAP4 DUP5 MSTORE DUP6 DUP2 ADD DUP4 ADD SWAP4 DUP4 DUP2 ADD SWAP1 DUP9 DUP7 GT ISZERO PUSH2 0xC8F JUMPI PUSH1 0x0 DUP1 REVERT JUMPDEST DUP5 DUP9 ADD SWAP3 POP JUMPDEST DUP6 DUP4 LT ISZERO PUSH2 0xCCB JUMPI DUP3 CALLDATALOAD DUP5 DUP2 GT ISZERO PUSH2 0xCAD JUMPI PUSH1 0x0 DUP1 DUP2 REVERT JUMPDEST PUSH2 0xCBB DUP11 DUP8 DUP4 DUP13 ADD ADD PUSH2 0xC11 JUMP JUMPDEST DUP4 MSTORE POP SWAP2 DUP5 ADD SWAP2 SWAP1 DUP5 ADD SWAP1 PUSH2 0xC95 JUMP JUMPDEST SWAP9 SWAP8 POP POP POP POP POP POP POP POP JUMP JUMPDEST PUSH1 0x0 DUP1 PUSH1 0x0 DUP1 PUSH1 0x0 DUP1 PUSH1 0xC0 DUP8 DUP10 SUB SLT ISZERO PUSH2 0xCF0 JUMPI PUSH1 0x0 DUP1 REVERT JUMPDEST DUP7 CALLDATALOAD PUSH8 0xFFFFFFFFFFFFFFFF DUP1 DUP3 GT ISZERO PUSH2 0xD08 JUMPI PUSH1 0x0 DUP1 REVERT JUMPDEST PUSH2 0xD14 DUP11 DUP4 DUP12 ADD PUSH2 0xC11 JUMP JUMPDEST SWAP8 POP PUSH1 0x20 DUP10 ADD CALLDATALOAD SWAP2 POP DUP1 DUP3 GT ISZERO PUSH2 0xD2A JUMPI PUSH1 0x0 DUP1 REVERT JUMPDEST PUSH2 0xD36 DUP11 DUP4 DUP12 ADD PUSH2 0xC11 JUMP JUMPDEST SWAP7 POP PUSH1 0x40 DUP10 ADD CALLDATALOAD SWAP6 POP PUSH1 0x60 DUP10 ADD CALLDATALOAD SWAP5 POP PUSH1 0x80 DUP10 ADD CALLDATALOAD SWAP2 POP DUP1 DUP3 GT ISZERO PUSH2 0xD5A JUMPI PUSH1 0x0 DUP1 REVERT JUMPDEST PUSH2 0xD66 DUP11 DUP4 DUP12 ADD PUSH2 0xC11 JUMP JUMPDEST SWAP4 POP PUSH1 0xA0 DUP10 ADD CALLDATALOAD SWAP2 POP DUP1 DUP3 GT ISZERO PUSH2 0xD7C JUMPI PUSH1 0x0 DUP1 REVERT JUMPDEST POP PUSH2 0xD89 DUP10 DUP3 DUP11 ADD PUSH2 0xC38 JUMP JUMPDEST SWAP2 POP POP SWAP3 SWAP6 POP SWAP3 SWAP6 POP SWAP3 SWAP6 JUMP JUMPDEST DUP1 CALLDATALOAD PUSH1 0x1 PUSH1 0x1 PUSH1 0xA0 SHL SUB DUP2 AND DUP2 EQ PUSH2 0xDAD JUMPI PUSH1 0x0 DUP1 REVERT JUMPDEST SWAP2 SWAP1 POP JUMP JUMPDEST PUSH1 0x0 PUSH1 0x20 DUP3 DUP5 SUB SLT ISZERO PUSH2 0xDC4 JUMPI PUSH1 0x0 DUP1 REVERT JUMPDEST PUSH2 0xC31 DUP3 PUSH2 0xD96 JUMP JUMPDEST DUP1 ISZERO ISZERO DUP2 EQ PUSH2 0x616 JUMPI PUSH1 0x0 DUP1 REVERT JUMPDEST PUSH1 0x0 DUP1 PUSH1 0x40 DUP4 DUP6 SUB SLT ISZERO PUSH2 0xDEE JUMPI PUSH1 0x0 DUP1 REVERT JUMPDEST PUSH2 0xDF7 DUP4 PUSH2 0xD96 JUMP JUMPDEST SWAP2 POP PUSH1 0x20 DUP4 ADD CALLDATALOAD PUSH2 0xE07 DUP2 PUSH2 0xDCD JUMP JUMPDEST DUP1 SWAP2 POP POP SWAP3 POP SWAP3 SWAP1 POP JUMP JUMPDEST PUSH1 0x0 DUP1 PUSH1 0x0 DUP1 PUSH1 0x80 DUP6 DUP8 SUB SLT ISZERO PUSH2 0xE28 JUMPI PUSH1 0x0 DUP1 REVERT JUMPDEST PUSH2 0xE31 DUP6 PUSH2 0xD96 JUMP JUMPDEST SWAP4 POP PUSH1 0x20 DUP6 ADD CALLDATALOAD SWAP3 POP PUSH1 0x40 DUP6 ADD CALLDATALOAD SWAP2 POP PUSH1 0x60 DUP6 ADD CALLDATALOAD PUSH8 0xFFFFFFFFFFFFFFFF DUP2 GT ISZERO PUSH2 0xE5B JUMPI PUSH1 0x0 DUP1 REVERT JUMPDEST DUP6 ADD PUSH1 0x1F DUP2 ADD DUP8 SGT PUSH2 0xE6C JUMPI PUSH1 0x0 DUP1 REVERT JUMPDEST PUSH2 0xE7B DUP8 DUP3 CALLDATALOAD PUSH1 0x20 DUP5 ADD PUSH2 0xBB9 JUMP JUMPDEST SWAP2 POP POP SWAP3 SWAP6 SWAP2 SWAP5 POP SWAP3 POP JUMP JUMPDEST PUSH1 0x0 DUP1 PUSH1 0x40 DUP4 DUP6 SUB SLT ISZERO PUSH2 0xE9A JUMPI PUSH1 0x0 DUP1 REVERT JUMPDEST PUSH2 0xEA3 DUP4 PUSH2 0xD96 JUMP JUMPDEST SWAP5 PUSH1 0x20 SWAP4 SWAP1 SWAP4 ADD CALLDATALOAD SWAP4 POP POP POP JUMP JUMPDEST PUSH1 0x1 DUP2 DUP2 SHR SWAP1 DUP3 AND DUP1 PUSH2 0xEC5 JUMPI PUSH1 0x7F DUP3 AND SWAP2 POP JUMPDEST PUSH1 0x20 DUP3 LT DUP2 SUB PUSH2 0xEE5 JUMPI PUSH4 0x4E487B71 PUSH1 0xE0 SHL PUSH1 0x0 MSTORE PUSH1 0x22 PUSH1 0x4 MSTORE PUSH1 0x24 PUSH1 0x0 REVERT JUMPDEST POP SWAP2 SWAP1 POP JUMP JUMPDEST PUSH1 0x0 PUSH1 0x1 DUP3 ADD PUSH2 0xF0B JUMPI PUSH4 0x4E487B71 PUSH1 0xE0 SHL PUSH1 0x0 MSTORE PUSH1 0x11 PUSH1 0x4 MSTORE PUSH1 0x24 PUSH1 0x0 REVERT JUMPDEST POP PUSH1 0x1 ADD SWAP1 JUMP JUMPDEST PUSH1 0x20 DUP1 DUP3 MSTORE PUSH1 0x9 SWAP1 DUP3 ADD MSTORE PUSH9 0x3737BA1030B236B4B7 PUSH1 0xB9 SHL PUSH1 0x40 DUP3 ADD MSTORE PUSH1 0x60 ADD SWAP1 JUMP JUMPDEST PUSH1 0x1 PUSH1 0x1 PUSH1 0xA0 SHL SUB DUP7 DUP2 AND DUP3 MSTORE DUP6 AND PUSH1 0x20 DUP3 ADD MSTORE PUSH1 0x40 DUP2 ADD DUP5 SWAP1 MSTORE PUSH1 0x60 DUP2 ADD DUP4 SWAP1 MSTORE PUSH1 0xA0 PUSH1 0x80 DUP3 ADD DUP2 SWAP1 MSTORE PUSH1 0x0 SWAP1 PUSH2 0xF6F SWAP1 DUP4 ADD DUP5 PUSH2 0xAA9 JUMP JUMPDEST SWAP8 SWAP7 POP POP POP POP POP POP POP JUMP JUMPDEST PUSH1 0x0 PUSH1 0x20 DUP3 DUP5 SUB SLT ISZERO PUSH2 0xF8C JUMPI PUSH1 0x0 DUP1 REVERT JUMPDEST DUP2 MLOAD PUSH2 0xC31 DUP2 PUSH2 0xDCD JUMP INVALID LOG2 PUSH5 0x6970667358 0x22 SLT KECCAK256 SELFDESTRUCT BYTE 0xD5 0xED MOD ISZERO 0xEB SDIV 0xE5 0xE7 0xB9 NUMBER PUSH24 0x5CDD7582AA12FF95F43D0100720AF9959CDED764736F6C63 NUMBER STOP ADDMOD 0xE STOP CALLER "
				},
				"gasEstimates": {
					"creation": {
						"codeDepositCost": "809000",
						"executionCost": "69291",
						"totalCost": "878291"
					},
					"external": {
						"admins(address)": "2598",
						"create(string,string,uint256,uint256,string,string[])": "infinite",
						"owner()": "2337",
						"price()": "2339",
						"projects(uint256)": "infinite",
						"setAdmin(address,bool)": "29148",
						"setPrice(uint256)": "26682",
						"withdrawERC1155(address,uint256,uint256,bytes)": "infinite",
						"withdrawERC20(address,uint256)": "infinite",
						"withdrawERC721(address,uint256)": "infinite",
						"withdrawFunds()": "infinite"
					}
				},
				"methodIdentifiers": {
					"admins(address)": "429b62e5",
					"create(string,string,uint256,uint256,string,string[])": "230abfd0",
					"owner()": "8da5cb5b",
					"price()": "a035b1fe",
					"projects(uint256)": "107046bd",
					"setAdmin(address,bool)": "4b0bddd2",
					"setPrice(uint256)": "91b7f5ed",
					"withdrawERC1155(address,uint256,uint256,bytes)": "a1538bde",
					"withdrawERC20(address,uint256)": "a1db9782",
					"withdrawERC721(address,uint256)": "f3e414f8",
					"withdrawFunds()": "24600fc3"
				}
			},
			"storageLayout": {
				"storage": [
					{
						"astId": 370,
						"contract": "contracts/GoingUpProjects.sol:GoingUpProjects",
						"label": "idCounter",
						"offset": 0,
						"slot": "0",
						"type": "t_uint256"
					},
					{
						"astId": 372,
						"contract": "contracts/GoingUpProjects.sol:GoingUpProjects",
						"label": "owner",
						"offset": 0,
						"slot": "1",
						"type": "t_address"
					},
					{
						"astId": 376,
						"contract": "contracts/GoingUpProjects.sol:GoingUpProjects",
						"label": "admins",
						"offset": 0,
						"slot": "2",
						"type": "t_mapping(t_address,t_bool)"
					},
					{
						"astId": 417,
						"contract": "contracts/GoingUpProjects.sol:GoingUpProjects",
						"label": "price",
						"offset": 0,
						"slot": "3",
						"type": "t_uint256"
					},
					{
						"astId": 435,
						"contract": "contracts/GoingUpProjects.sol:GoingUpProjects",
						"label": "projects",
						"offset": 0,
						"slot": "4",
						"type": "t_mapping(t_uint256,t_struct(Project)358_storage)"
					}
				],
				"types": {
					"t_address": {
						"encoding": "inplace",
						"label": "address",
						"numberOfBytes": "20"
					},
					"t_array(t_address)dyn_storage": {
						"base": "t_address",
						"encoding": "dynamic_array",
						"label": "address[]",
						"numberOfBytes": "32"
					},
					"t_array(t_string_storage)dyn_storage": {
						"base": "t_string_storage",
						"encoding": "dynamic_array",
						"label": "string[]",
						"numberOfBytes": "32"
					},
					"t_bool": {
						"encoding": "inplace",
						"label": "bool",
						"numberOfBytes": "1"
					},
					"t_mapping(t_address,t_bool)": {
						"encoding": "mapping",
						"key": "t_address",
						"label": "mapping(address => bool)",
						"numberOfBytes": "32",
						"value": "t_bool"
					},
					"t_mapping(t_uint256,t_struct(Project)358_storage)": {
						"encoding": "mapping",
						"key": "t_uint256",
						"label": "mapping(uint256 => struct GoingUpProjects.Project)",
						"numberOfBytes": "32",
						"value": "t_struct(Project)358_storage"
					},
					"t_string_storage": {
						"encoding": "bytes",
						"label": "string",
						"numberOfBytes": "32"
					},
					"t_struct(Project)358_storage": {
						"encoding": "inplace",
						"label": "struct GoingUpProjects.Project",
						"members": [
							{
								"astId": 335,
								"contract": "contracts/GoingUpProjects.sol:GoingUpProjects",
								"label": "id",
								"offset": 0,
								"slot": "0",
								"type": "t_uint256"
							},
							{
								"astId": 337,
								"contract": "contracts/GoingUpProjects.sol:GoingUpProjects",
								"label": "name",
								"offset": 0,
								"slot": "1",
								"type": "t_string_storage"
							},
							{
								"astId": 339,
								"contract": "contracts/GoingUpProjects.sol:GoingUpProjects",
								"label": "description",
								"offset": 0,
								"slot": "2",
								"type": "t_string_storage"
							},
							{
								"astId": 341,
								"contract": "contracts/GoingUpProjects.sol:GoingUpProjects",
								"label": "started",
								"offset": 0,
								"slot": "3",
								"type": "t_uint256"
							},
							{
								"astId": 343,
								"contract": "contracts/GoingUpProjects.sol:GoingUpProjects",
								"label": "ended",
								"offset": 0,
								"slot": "4",
								"type": "t_uint256"
							},
							{
								"astId": 345,
								"contract": "contracts/GoingUpProjects.sol:GoingUpProjects",
								"label": "primaryUrl",
								"offset": 0,
								"slot": "5",
								"type": "t_string_storage"
							},
							{
								"astId": 348,
								"contract": "contracts/GoingUpProjects.sol:GoingUpProjects",
								"label": "tags",
								"offset": 0,
								"slot": "6",
								"type": "t_array(t_string_storage)dyn_storage"
							},
							{
								"astId": 350,
								"contract": "contracts/GoingUpProjects.sol:GoingUpProjects",
								"label": "owner",
								"offset": 0,
								"slot": "7",
								"type": "t_address"
							},
							{
								"astId": 353,
								"contract": "contracts/GoingUpProjects.sol:GoingUpProjects",
								"label": "members",
								"offset": 0,
								"slot": "8",
								"type": "t_array(t_address)dyn_storage"
							},
							{
								"astId": 355,
								"contract": "contracts/GoingUpProjects.sol:GoingUpProjects",
								"label": "active",
								"offset": 0,
								"slot": "9",
								"type": "t_bool"
							},
							{
								"astId": 357,
								"contract": "contracts/GoingUpProjects.sol:GoingUpProjects",
								"label": "allowMembersToEdit",
								"offset": 1,
								"slot": "9",
								"type": "t_bool"
							}
						],
						"numberOfBytes": "320"
					},
					"t_uint256": {
						"encoding": "inplace",
						"label": "uint256",
						"numberOfBytes": "32"
					}
				}
			},
			"userdoc": {
				"kind": "user",
				"methods": {
					"create(string,string,uint256,uint256,string,string[])": {
						"notice": "Create a project"
					},
					"setAdmin(address,bool)": {
						"notice": "Sets the admin flag for address"
					},
					"setPrice(uint256)": {
						"notice": "Sets the price for creating and updating projects"
					},
					"withdrawERC1155(address,uint256,uint256,bytes)": {
						"notice": "Withdraw ERC1155 token"
					},
					"withdrawERC20(address,uint256)": {
						"notice": "Withdraw ERC20 tokens"
					},
					"withdrawERC721(address,uint256)": {
						"notice": "Withdraw ERC721 token"
					},
					"withdrawFunds()": {
						"notice": "Withdraw native tokens (matic)"
					}
				},
				"version": 1
			}
		}
	}
}