{
	"contracts/GoingUpProjects.sol": {
		"GoingUpProjects": {
			"abi": [
				{
					"inputs": [],
					"stateMutability": "nonpayable",
					"type": "constructor"
				},
				{
					"inputs": [
						{
							"internalType": "address",
							"name": "",
							"type": "address"
						}
					],
					"name": "admins",
					"outputs": [
						{
							"internalType": "bool",
							"name": "",
							"type": "bool"
						}
					],
					"stateMutability": "view",
					"type": "function"
				},
				{
					"inputs": [
						{
							"internalType": "string",
							"name": "name",
							"type": "string"
						},
						{
							"internalType": "string",
							"name": "description",
							"type": "string"
						},
						{
							"internalType": "uint256",
							"name": "started",
							"type": "uint256"
						},
						{
							"internalType": "uint256",
							"name": "ended",
							"type": "uint256"
						},
						{
							"internalType": "string",
							"name": "primaryUrl",
							"type": "string"
						},
						{
							"internalType": "string[]",
							"name": "tags",
							"type": "string[]"
						}
					],
					"name": "create",
					"outputs": [],
					"stateMutability": "nonpayable",
					"type": "function"
				},
				{
					"inputs": [],
					"name": "owner",
					"outputs": [
						{
							"internalType": "address",
							"name": "",
							"type": "address"
						}
					],
					"stateMutability": "view",
					"type": "function"
				},
				{
					"inputs": [],
					"name": "price",
					"outputs": [
						{
							"internalType": "uint256",
							"name": "",
							"type": "uint256"
						}
					],
					"stateMutability": "view",
					"type": "function"
				},
				{
					"inputs": [
						{
							"internalType": "uint256",
							"name": "",
							"type": "uint256"
						}
					],
					"name": "projects",
					"outputs": [
						{
							"internalType": "uint256",
							"name": "id",
							"type": "uint256"
						},
						{
							"internalType": "string",
							"name": "name",
							"type": "string"
						},
						{
							"internalType": "string",
							"name": "description",
							"type": "string"
						},
						{
							"internalType": "uint256",
							"name": "started",
							"type": "uint256"
						},
						{
							"internalType": "uint256",
							"name": "ended",
							"type": "uint256"
						},
						{
							"internalType": "string",
							"name": "primaryUrl",
							"type": "string"
						},
						{
							"internalType": "address",
							"name": "owner",
							"type": "address"
						},
						{
							"internalType": "bool",
							"name": "active",
							"type": "bool"
						},
						{
							"internalType": "bool",
							"name": "allowMembersToEdit",
							"type": "bool"
						}
					],
					"stateMutability": "view",
					"type": "function"
				},
				{
					"inputs": [
						{
							"internalType": "address",
							"name": "targetAddress",
							"type": "address"
						},
						{
							"internalType": "bool",
							"name": "isAdmin",
							"type": "bool"
						}
					],
					"name": "setAdmin",
					"outputs": [],
					"stateMutability": "nonpayable",
					"type": "function"
				},
				{
					"inputs": [
						{
							"internalType": "uint256",
							"name": "newPrice",
							"type": "uint256"
						}
					],
					"name": "setPrice",
					"outputs": [],
					"stateMutability": "nonpayable",
					"type": "function"
				},
				{
					"inputs": [
						{
							"internalType": "uint256",
							"name": "id",
							"type": "uint256"
						},
						{
							"internalType": "string",
							"name": "name",
							"type": "string"
						},
						{
							"internalType": "string",
							"name": "description",
							"type": "string"
						},
						{
							"internalType": "uint256",
							"name": "started",
							"type": "uint256"
						},
						{
							"internalType": "uint256",
							"name": "ended",
							"type": "uint256"
						},
						{
							"internalType": "string",
							"name": "primaryUrl",
							"type": "string"
						},
						{
							"internalType": "string[]",
							"name": "tags",
							"type": "string[]"
						}
					],
					"name": "update",
					"outputs": [],
					"stateMutability": "nonpayable",
					"type": "function"
				},
				{
					"inputs": [
						{
							"internalType": "address",
							"name": "tokenAddress",
							"type": "address"
						},
						{
							"internalType": "uint256",
							"name": "tokenID",
							"type": "uint256"
						},
						{
							"internalType": "uint256",
							"name": "amount",
							"type": "uint256"
						},
						{
							"internalType": "bytes",
							"name": "data",
							"type": "bytes"
						}
					],
					"name": "withdrawERC1155",
					"outputs": [],
					"stateMutability": "nonpayable",
					"type": "function"
				},
				{
					"inputs": [
						{
							"internalType": "address",
							"name": "tokenAddress",
							"type": "address"
						},
						{
							"internalType": "uint256",
							"name": "amount",
							"type": "uint256"
						}
					],
					"name": "withdrawERC20",
					"outputs": [],
					"stateMutability": "nonpayable",
					"type": "function"
				},
				{
					"inputs": [
						{
							"internalType": "address",
							"name": "tokenAddress",
							"type": "address"
						},
						{
							"internalType": "uint256",
							"name": "tokenID",
							"type": "uint256"
						}
					],
					"name": "withdrawERC721",
					"outputs": [],
					"stateMutability": "nonpayable",
					"type": "function"
				},
				{
					"inputs": [],
					"name": "withdrawFunds",
					"outputs": [],
					"stateMutability": "nonpayable",
					"type": "function"
				}
			],
			"devdoc": {
				"author": "Mark Ibanez",
				"kind": "dev",
				"methods": {
					"create(string,string,uint256,uint256,string,string[])": {
						"params": {
							"description": "Project description",
							"ended": "Project ended (Unix timestamp, set to zero if you do not want to set any value)",
							"name": "Project name",
							"primaryUrl": "Project primary url",
							"started": "Project start (Unix timestamp, set to zero if you do not want to set any value)",
							"tags": "Project tags"
						}
					},
					"setAdmin(address,bool)": {
						"params": {
							"isAdmin": "Admin flag to set (true means address is admin, false mean address is not admin)",
							"targetAddress": "Target address to set admin flag"
						}
					},
					"setPrice(uint256)": {
						"params": {
							"newPrice": "New price for creating and updating projects"
						}
					},
					"update(uint256,string,string,uint256,uint256,string,string[])": {
						"params": {
							"description": "Project description",
							"ended": "Project ended (Unix timestamp, set to zero if you do not want to set any value)",
							"id": "Project ID",
							"name": "Project name",
							"primaryUrl": "Project primary url",
							"started": "Project start (Unix timestamp, set to zero if you do not want to set any value)",
							"tags": "Project tags"
						}
					},
					"withdrawERC1155(address,uint256,uint256,bytes)": {
						"params": {
							"tokenAddress": "Address of ERC1155 contract",
							"tokenID": "Token ID to withdraw"
						}
					},
					"withdrawERC20(address,uint256)": {
						"params": {
							"amount": "Amount to transfer",
							"tokenAddress": "Address of ERC20 contract"
						}
					},
					"withdrawERC721(address,uint256)": {
						"params": {
							"tokenAddress": "Address of ERC721 contract",
							"tokenID": "Token ID to withdraw"
						}
					}
				},
				"title": "GoingUP Platform Projects Smart Contract",
				"version": 1
			},
			"evm": {
				"assembly": "    /* \"contracts/GoingUpProjects.sol\":328:6062  contract GoingUpProjects {... */\n  mstore(0x40, 0x80)\n    /* \"contracts/GoingUpProjects.sol\":763:764  1 */\n  0x01\n    /* \"contracts/GoingUpProjects.sol\":735:764  uint256 private idCounter = 1 */\n  0x00\n  sstore\n    /* \"contracts/GoingUpProjects.sol\":1334:1346  1 * 10 ** 16 */\n  0x2386f26fc10000\n    /* \"contracts/GoingUpProjects.sol\":1311:1346  uint256 public price = 1 * 10 ** 16 */\n  0x03\n  sstore\n    /* \"contracts/GoingUpProjects.sol\":667:727  constructor () {        ... */\n  callvalue\n  dup1\n  iszero\n  tag_1\n  jumpi\n  0x00\n  dup1\n  revert\ntag_1:\n  pop\n    /* \"contracts/GoingUpProjects.sol\":701:706  owner */\n  0x01\n    /* \"contracts/GoingUpProjects.sol\":701:719  owner = msg.sender */\n  dup1\n  sload\n  not(sub(shl(0xa0, 0x01), 0x01))\n  and\n    /* \"contracts/GoingUpProjects.sol\":709:719  msg.sender */\n  caller\n    /* \"contracts/GoingUpProjects.sol\":701:719  owner = msg.sender */\n  or\n  swap1\n  sstore\n    /* \"contracts/GoingUpProjects.sol\":328:6062  contract GoingUpProjects {... */\n  dataSize(sub_0)\n  dup1\n  dataOffset(sub_0)\n  0x00\n  codecopy\n  0x00\n  return\nstop\n\nsub_0: assembly {\n        /* \"contracts/GoingUpProjects.sol\":328:6062  contract GoingUpProjects {... */\n      mstore(0x40, 0x80)\n      callvalue\n      dup1\n      iszero\n      tag_1\n      jumpi\n      0x00\n      dup1\n      revert\n    tag_1:\n      pop\n      jumpi(tag_2, lt(calldatasize, 0x04))\n      shr(0xe0, calldataload(0x00))\n      dup1\n      0x91b7f5ed\n      gt\n      tag_15\n      jumpi\n      dup1\n      0x91b7f5ed\n      eq\n      tag_9\n      jumpi\n      dup1\n      0xa035b1fe\n      eq\n      tag_10\n      jumpi\n      dup1\n      0xa1538bde\n      eq\n      tag_11\n      jumpi\n      dup1\n      0xa1db9782\n      eq\n      tag_12\n      jumpi\n      dup1\n      0xe3a51523\n      eq\n      tag_13\n      jumpi\n      dup1\n      0xf3e414f8\n      eq\n      tag_14\n      jumpi\n      0x00\n      dup1\n      revert\n    tag_15:\n      dup1\n      0x107046bd\n      eq\n      tag_3\n      jumpi\n      dup1\n      0x230abfd0\n      eq\n      tag_4\n      jumpi\n      dup1\n      0x24600fc3\n      eq\n      tag_5\n      jumpi\n      dup1\n      0x429b62e5\n      eq\n      tag_6\n      jumpi\n      dup1\n      0x4b0bddd2\n      eq\n      tag_7\n      jumpi\n      dup1\n      0x8da5cb5b\n      eq\n      tag_8\n      jumpi\n    tag_2:\n      0x00\n      dup1\n      revert\n        /* \"contracts/GoingUpProjects.sol\":1724:1767  mapping(uint256 => Project) public projects */\n    tag_3:\n      tag_16\n      tag_17\n      calldatasize\n      0x04\n      tag_18\n      jump\t// in\n    tag_17:\n      tag_19\n      jump\t// in\n    tag_16:\n      mload(0x40)\n      tag_20\n      swap10\n      swap9\n      swap8\n      swap7\n      swap6\n      swap5\n      swap4\n      swap3\n      swap2\n      swap1\n      tag_21\n      jump\t// in\n    tag_20:\n      mload(0x40)\n      dup1\n      swap2\n      sub\n      swap1\n      return\n        /* \"contracts/GoingUpProjects.sol\":2997:3719  function create(string memory name, string memory description, uint started, uint ended, string memory primaryUrl, string[] memory tags) public {... */\n    tag_4:\n      tag_22\n      tag_23\n      calldatasize\n      0x04\n      tag_24\n      jump\t// in\n    tag_23:\n      tag_25\n      jump\t// in\n    tag_22:\n      stop\n        /* \"contracts/GoingUpProjects.sol\":4808:4920  function withdrawFunds() public onlyAdmin {... */\n    tag_5:\n      tag_22\n      tag_27\n      jump\t// in\n        /* \"contracts/GoingUpProjects.sol\":800:838  mapping(address => bool) public admins */\n    tag_6:\n      tag_28\n      tag_29\n      calldatasize\n      0x04\n      tag_30\n      jump\t// in\n    tag_29:\n      mstore(0x20, 0x02)\n      0x00\n      swap1\n      dup2\n      mstore\n      0x40\n      swap1\n      keccak256\n      sload\n      0xff\n      and\n      dup2\n      jump\n    tag_28:\n      mload(0x40)\n        /* \"#utility.yul\":5381:5395   */\n      swap1\n      iszero\n        /* \"#utility.yul\":5374:5396   */\n      iszero\n        /* \"#utility.yul\":5356:5397   */\n      dup2\n      mstore\n        /* \"#utility.yul\":5344:5346   */\n      0x20\n        /* \"#utility.yul\":5329:5347   */\n      add\n        /* \"contracts/GoingUpProjects.sol\":800:838  mapping(address => bool) public admins */\n      tag_20\n        /* \"#utility.yul\":5216:5403   */\n      jump\n        /* \"contracts/GoingUpProjects.sol\":1181:1303  function setAdmin(address targetAddress, bool isAdmin) public onlyAdmin {... */\n    tag_7:\n      tag_22\n      tag_35\n      calldatasize\n      0x04\n      tag_36\n      jump\t// in\n    tag_35:\n      tag_37\n      jump\t// in\n        /* \"contracts/GoingUpProjects.sol\":773:793  address public owner */\n    tag_8:\n      sload(0x01)\n      tag_38\n      swap1\n      sub(shl(0xa0, 0x01), 0x01)\n      and\n      dup2\n      jump\n    tag_38:\n      mload(0x40)\n      sub(shl(0xa0, 0x01), 0x01)\n        /* \"#utility.yul\":6015:6047   */\n      swap1\n      swap2\n      and\n        /* \"#utility.yul\":5997:6048   */\n      dup2\n      mstore\n        /* \"#utility.yul\":5985:5987   */\n      0x20\n        /* \"#utility.yul\":5970:5988   */\n      add\n        /* \"contracts/GoingUpProjects.sol\":773:793  address public owner */\n      tag_20\n        /* \"#utility.yul\":5851:6054   */\n      jump\n        /* \"contracts/GoingUpProjects.sol\":1628:1716  function setPrice(uint256 newPrice) public onlyAdmin {... */\n    tag_9:\n      tag_22\n      tag_43\n      calldatasize\n      0x04\n      tag_18\n      jump\t// in\n    tag_43:\n      tag_44\n      jump\t// in\n        /* \"contracts/GoingUpProjects.sol\":1311:1346  uint256 public price = 1 * 10 ** 16 */\n    tag_10:\n      tag_45\n      sload(0x03)\n      dup2\n      jump\n    tag_45:\n      mload(0x40)\n        /* \"#utility.yul\":6205:6230   */\n      swap1\n      dup2\n      mstore\n        /* \"#utility.yul\":6193:6195   */\n      0x20\n        /* \"#utility.yul\":6178:6196   */\n      add\n        /* \"contracts/GoingUpProjects.sol\":1311:1346  uint256 public price = 1 * 10 ** 16 */\n      tag_20\n        /* \"#utility.yul\":6059:6236   */\n      jump\n        /* \"contracts/GoingUpProjects.sol\":5784:6059  function withdrawERC1155(address tokenAddress, uint256 tokenID, uint256 amount, bytes memory data) external onlyAdmin {... */\n    tag_11:\n      tag_22\n      tag_50\n      calldatasize\n      0x04\n      tag_51\n      jump\t// in\n    tag_50:\n      tag_52\n      jump\t// in\n        /* \"contracts/GoingUpProjects.sol\":5064:5259  function withdrawERC20(address tokenAddress, uint256 amount) external onlyAdmin {... */\n    tag_12:\n      tag_22\n      tag_54\n      calldatasize\n      0x04\n      tag_55\n      jump\t// in\n    tag_54:\n      tag_56\n      jump\t// in\n        /* \"contracts/GoingUpProjects.sol\":4158:4752  function update(uint256 id, string memory name, string memory description, uint started, uint ended, string memory primaryUrl, string[] memory tags) public canEditProject(id) {... */\n    tag_13:\n      tag_22\n      tag_58\n      calldatasize\n      0x04\n      tag_59\n      jump\t// in\n    tag_58:\n      tag_60\n      jump\t// in\n        /* \"contracts/GoingUpProjects.sol\":5407:5630  function withdrawERC721(address tokenAddress, uint256 tokenID) external onlyAdmin {... */\n    tag_14:\n      tag_22\n      tag_62\n      calldatasize\n      0x04\n      tag_55\n      jump\t// in\n    tag_62:\n      tag_63\n      jump\t// in\n        /* \"contracts/GoingUpProjects.sol\":1724:1767  mapping(uint256 => Project) public projects */\n    tag_19:\n      mstore(0x20, 0x04)\n      0x00\n      swap1\n      dup2\n      mstore\n      0x40\n      swap1\n      keccak256\n      dup1\n      sload\n      0x01\n      dup3\n      add\n      dup1\n      sload\n      swap2\n      swap3\n      swap2\n      tag_64\n      swap1\n      tag_65\n      jump\t// in\n    tag_64:\n      dup1\n      0x1f\n      add\n      0x20\n      dup1\n      swap2\n      div\n      mul\n      0x20\n      add\n      mload(0x40)\n      swap1\n      dup2\n      add\n      0x40\n      mstore\n      dup1\n      swap3\n      swap2\n      swap1\n      dup2\n      dup2\n      mstore\n      0x20\n      add\n      dup3\n      dup1\n      sload\n      tag_66\n      swap1\n      tag_65\n      jump\t// in\n    tag_66:\n      dup1\n      iszero\n      tag_67\n      jumpi\n      dup1\n      0x1f\n      lt\n      tag_68\n      jumpi\n      0x0100\n      dup1\n      dup4\n      sload\n      div\n      mul\n      dup4\n      mstore\n      swap2\n      0x20\n      add\n      swap2\n      jump(tag_67)\n    tag_68:\n      dup3\n      add\n      swap2\n      swap1\n      0x00\n      mstore\n      keccak256(0x00, 0x20)\n      swap1\n    tag_69:\n      dup2\n      sload\n      dup2\n      mstore\n      swap1\n      0x01\n      add\n      swap1\n      0x20\n      add\n      dup1\n      dup4\n      gt\n      tag_69\n      jumpi\n      dup3\n      swap1\n      sub\n      0x1f\n      and\n      dup3\n      add\n      swap2\n    tag_67:\n      pop\n      pop\n      pop\n      pop\n      pop\n      swap1\n      dup1\n      0x02\n      add\n      dup1\n      sload\n      tag_70\n      swap1\n      tag_65\n      jump\t// in\n    tag_70:\n      dup1\n      0x1f\n      add\n      0x20\n      dup1\n      swap2\n      div\n      mul\n      0x20\n      add\n      mload(0x40)\n      swap1\n      dup2\n      add\n      0x40\n      mstore\n      dup1\n      swap3\n      swap2\n      swap1\n      dup2\n      dup2\n      mstore\n      0x20\n      add\n      dup3\n      dup1\n      sload\n      tag_71\n      swap1\n      tag_65\n      jump\t// in\n    tag_71:\n      dup1\n      iszero\n      tag_72\n      jumpi\n      dup1\n      0x1f\n      lt\n      tag_73\n      jumpi\n      0x0100\n      dup1\n      dup4\n      sload\n      div\n      mul\n      dup4\n      mstore\n      swap2\n      0x20\n      add\n      swap2\n      jump(tag_72)\n    tag_73:\n      dup3\n      add\n      swap2\n      swap1\n      0x00\n      mstore\n      keccak256(0x00, 0x20)\n      swap1\n    tag_74:\n      dup2\n      sload\n      dup2\n      mstore\n      swap1\n      0x01\n      add\n      swap1\n      0x20\n      add\n      dup1\n      dup4\n      gt\n      tag_74\n      jumpi\n      dup3\n      swap1\n      sub\n      0x1f\n      and\n      dup3\n      add\n      swap2\n    tag_72:\n      pop\n      pop\n      pop\n      pop\n      pop\n      swap1\n      dup1\n      0x03\n      add\n      sload\n      swap1\n      dup1\n      0x04\n      add\n      sload\n      swap1\n      dup1\n      0x05\n      add\n      dup1\n      sload\n      tag_75\n      swap1\n      tag_65\n      jump\t// in\n    tag_75:\n      dup1\n      0x1f\n      add\n      0x20\n      dup1\n      swap2\n      div\n      mul\n      0x20\n      add\n      mload(0x40)\n      swap1\n      dup2\n      add\n      0x40\n      mstore\n      dup1\n      swap3\n      swap2\n      swap1\n      dup2\n      dup2\n      mstore\n      0x20\n      add\n      dup3\n      dup1\n      sload\n      tag_76\n      swap1\n      tag_65\n      jump\t// in\n    tag_76:\n      dup1\n      iszero\n      tag_77\n      jumpi\n      dup1\n      0x1f\n      lt\n      tag_78\n      jumpi\n      0x0100\n      dup1\n      dup4\n      sload\n      div\n      mul\n      dup4\n      mstore\n      swap2\n      0x20\n      add\n      swap2\n      jump(tag_77)\n    tag_78:\n      dup3\n      add\n      swap2\n      swap1\n      0x00\n      mstore\n      keccak256(0x00, 0x20)\n      swap1\n    tag_79:\n      dup2\n      sload\n      dup2\n      mstore\n      swap1\n      0x01\n      add\n      swap1\n      0x20\n      add\n      dup1\n      dup4\n      gt\n      tag_79\n      jumpi\n      dup3\n      swap1\n      sub\n      0x1f\n      and\n      dup3\n      add\n      swap2\n    tag_77:\n      pop\n      pop\n      pop\n      pop\n      0x07\n      dup4\n      add\n      sload\n      0x09\n      swap1\n      swap4\n      add\n      sload\n      swap2\n      swap3\n      sub(shl(0xa0, 0x01), 0x01)\n      and\n      swap2\n      0xff\n      dup1\n      dup3\n      and\n      swap3\n      pop\n      0x0100\n      swap1\n      swap2\n      div\n      and\n      dup10\n      jump\t// out\n        /* \"contracts/GoingUpProjects.sol\":2997:3719  function create(string memory name, string memory description, uint started, uint ended, string memory primaryUrl, string[] memory tags) public {... */\n    tag_25:\n        /* \"contracts/GoingUpProjects.sol\":3152:3177  Project memory newProject */\n      tag_81\n      mload(0x40)\n      dup1\n      0x0160\n      add\n      0x40\n      mstore\n      dup1\n      0x00\n      dup2\n      mstore\n      0x20\n      add\n      0x60\n      dup2\n      mstore\n      0x20\n      add\n      0x60\n      dup2\n      mstore\n      0x20\n      add\n      0x00\n      dup2\n      mstore\n      0x20\n      add\n      0x00\n      dup2\n      mstore\n      0x20\n      add\n      0x60\n      dup2\n      mstore\n      0x20\n      add\n      0x60\n      dup2\n      mstore\n      0x20\n      add\n      and(sub(shl(0xa0, 0x01), 0x01), 0x00)\n      dup2\n      mstore\n      0x20\n      add\n      0x60\n      dup2\n      mstore\n      0x20\n      add\n      iszero(iszero(0x00))\n      dup2\n      mstore\n      0x20\n      add\n      iszero(iszero(0x00))\n      dup2\n      mstore\n      pop\n      swap1\n      jump\n    tag_81:\n        /* \"contracts/GoingUpProjects.sol\":3206:3215  idCounter */\n      0x00\n      dup1\n      sload\n        /* \"contracts/GoingUpProjects.sol\":3190:3215  newProject.id = idCounter */\n      dup1\n      dup4\n      mstore\n        /* \"contracts/GoingUpProjects.sol\":3226:3241  newProject.name */\n      0x20\n      dup1\n      dup5\n      add\n        /* \"contracts/GoingUpProjects.sol\":3226:3248  newProject.name = name */\n      dup11\n      dup2\n      mstore\n        /* \"contracts/GoingUpProjects.sol\":3259:3281  newProject.description */\n      0x40\n      dup1\n      dup7\n      add\n        /* \"contracts/GoingUpProjects.sol\":3259:3295  newProject.description = description */\n      dup12\n      swap1\n      mstore\n        /* \"contracts/GoingUpProjects.sol\":3306:3324  newProject.started */\n      0x60\n      dup1\n      dup8\n      add\n        /* \"contracts/GoingUpProjects.sol\":3306:3334  newProject.started = started */\n      dup12\n      swap1\n      mstore\n        /* \"contracts/GoingUpProjects.sol\":3345:3361  newProject.ended */\n      0x80\n      dup8\n      add\n        /* \"contracts/GoingUpProjects.sol\":3345:3369  newProject.ended = ended */\n      dup11\n      swap1\n      mstore\n        /* \"contracts/GoingUpProjects.sol\":3380:3401  newProject.primaryUrl */\n      0xa0\n      dup8\n      add\n        /* \"contracts/GoingUpProjects.sol\":3380:3414  newProject.primaryUrl = primaryUrl */\n      dup10\n      swap1\n      mstore\n        /* \"contracts/GoingUpProjects.sol\":3425:3440  newProject.tags */\n      0xc0\n      dup8\n      add\n        /* \"contracts/GoingUpProjects.sol\":3425:3447  newProject.tags = tags */\n      dup9\n      swap1\n      mstore\n        /* \"contracts/GoingUpProjects.sol\":3477:3487  msg.sender */\n      caller\n        /* \"contracts/GoingUpProjects.sol\":3458:3474  newProject.owner */\n      0xe0\n      dup9\n      add\n        /* \"contracts/GoingUpProjects.sol\":3458:3487  newProject.owner = msg.sender */\n      mstore\n        /* \"contracts/GoingUpProjects.sol\":3533:3551  newProject.members */\n      0x0100\n      dup8\n      add\n        /* \"contracts/GoingUpProjects.sol\":3533:3561  newProject.members = members */\n      dup2\n      swap1\n      mstore\n        /* \"contracts/GoingUpProjects.sol\":3592:3596  true */\n      0x01\n        /* \"contracts/GoingUpProjects.sol\":3572:3589  newProject.active */\n      0x0120\n      dup9\n      add\n        /* \"contracts/GoingUpProjects.sol\":3572:3596  newProject.active = true */\n      dup2\n      swap1\n      mstore\n        /* \"contracts/GoingUpProjects.sol\":3607:3636  newProject.allowMembersToEdit */\n      0x0140\n      dup9\n      add\n        /* \"contracts/GoingUpProjects.sol\":3607:3644  newProject.allowMembersToEdit = false */\n      dup8\n      swap1\n      mstore\n        /* \"contracts/GoingUpProjects.sol\":3657:3676  projects[idCounter] */\n      swap5\n      dup7\n      mstore\n        /* \"contracts/GoingUpProjects.sol\":3657:3665  projects */\n      0x04\n        /* \"contracts/GoingUpProjects.sol\":3657:3676  projects[idCounter] */\n      dup5\n      mstore\n      swap5\n      keccak256\n        /* \"contracts/GoingUpProjects.sol\":3657:3689  projects[idCounter] = newProject */\n      dup6\n      mload\n      dup2\n      sstore\n      swap1\n      mload\n      dup1\n      mload\n        /* \"contracts/GoingUpProjects.sol\":3190:3200  newProject */\n      dup7\n      swap5\n        /* \"contracts/GoingUpProjects.sol\":3657:3676  projects[idCounter] */\n      swap3\n      swap4\n        /* \"contracts/GoingUpProjects.sol\":3657:3689  projects[idCounter] = newProject */\n      tag_83\n      swap4\n      dup6\n      add\n      swap3\n      add\n      swap1\n      tag_84\n      jump\t// in\n    tag_83:\n      pop\n      0x40\n      dup3\n      add\n      mload\n      dup1\n      mload\n      tag_85\n      swap2\n      0x02\n      dup5\n      add\n      swap2\n      0x20\n      swap1\n      swap2\n      add\n      swap1\n      tag_84\n      jump\t// in\n    tag_85:\n      pop\n      0x60\n      dup3\n      add\n      mload\n      0x03\n      dup3\n      add\n      sstore\n      0x80\n      dup3\n      add\n      mload\n      0x04\n      dup3\n      add\n      sstore\n      0xa0\n      dup3\n      add\n      mload\n      dup1\n      mload\n      tag_86\n      swap2\n      0x05\n      dup5\n      add\n      swap2\n      0x20\n      swap1\n      swap2\n      add\n      swap1\n      tag_84\n      jump\t// in\n    tag_86:\n      pop\n      0xc0\n      dup3\n      add\n      mload\n      dup1\n      mload\n      tag_87\n      swap2\n      0x06\n      dup5\n      add\n      swap2\n      0x20\n      swap1\n      swap2\n      add\n      swap1\n      tag_88\n      jump\t// in\n    tag_87:\n      pop\n      0xe0\n      dup3\n      add\n      mload\n      0x07\n      dup3\n      add\n      dup1\n      sload\n      not(sub(shl(0xa0, 0x01), 0x01))\n      and\n      sub(shl(0xa0, 0x01), 0x01)\n      swap1\n      swap3\n      and\n      swap2\n      swap1\n      swap2\n      or\n      swap1\n      sstore\n      0x0100\n      dup3\n      add\n      mload\n      dup1\n      mload\n      tag_89\n      swap2\n      0x08\n      dup5\n      add\n      swap2\n      0x20\n      swap1\n      swap2\n      add\n      swap1\n      tag_90\n      jump\t// in\n    tag_89:\n      pop\n      0x0120\n      dup3\n      add\n      mload\n      0x09\n      swap1\n      swap2\n      add\n      dup1\n      sload\n      0x0140\n      swap1\n      swap4\n      add\n      mload\n      iszero\n      iszero\n      0x0100\n      mul\n      not(0xff00)\n      swap3\n      iszero\n      iszero\n      swap3\n      swap1\n      swap3\n      and\n      not(0xffff)\n      swap1\n      swap4\n      and\n      swap3\n      swap1\n      swap3\n      or\n      or\n      swap1\n      sstore\n      0x00\n        /* \"contracts/GoingUpProjects.sol\":3700:3711  idCounter++ */\n      dup1\n      sload\n      swap1\n        /* \"contracts/GoingUpProjects.sol\":3657:3689  projects[idCounter] = newProject */\n      dup1\n        /* \"contracts/GoingUpProjects.sol\":3700:3711  idCounter++ */\n      tag_91\n      dup4\n      tag_92\n      jump\t// in\n    tag_91:\n      swap2\n      swap1\n      pop\n      sstore\n      pop\n        /* \"contracts/GoingUpProjects.sol\":3141:3719  {... */\n      pop\n      pop\n        /* \"contracts/GoingUpProjects.sol\":2997:3719  function create(string memory name, string memory description, uint started, uint ended, string memory primaryUrl, string[] memory tags) public {... */\n      pop\n      pop\n      pop\n      pop\n      pop\n      pop\n      jump\t// out\n        /* \"contracts/GoingUpProjects.sol\":4808:4920  function withdrawFunds() public onlyAdmin {... */\n    tag_27:\n        /* \"contracts/GoingUpProjects.sol\":883:888  owner */\n      and(sub(shl(0xa0, 0x01), 0x01), sload(0x01))\n        /* \"contracts/GoingUpProjects.sol\":892:902  msg.sender */\n      caller\n        /* \"contracts/GoingUpProjects.sol\":883:902  owner == msg.sender */\n      eq\n      dup1\n        /* \"contracts/GoingUpProjects.sol\":883:924  owner == msg.sender || admins[msg.sender] */\n      tag_94\n      jumpi\n      pop\n        /* \"contracts/GoingUpProjects.sol\":913:923  msg.sender */\n      caller\n        /* \"contracts/GoingUpProjects.sol\":906:924  admins[msg.sender] */\n      0x00\n      swap1\n      dup2\n      mstore\n        /* \"contracts/GoingUpProjects.sol\":906:912  admins */\n      0x02\n        /* \"contracts/GoingUpProjects.sol\":906:924  admins[msg.sender] */\n      0x20\n      mstore\n      0x40\n      swap1\n      keccak256\n      sload\n      0xff\n      and\n        /* \"contracts/GoingUpProjects.sol\":883:924  owner == msg.sender || admins[msg.sender] */\n    tag_94:\n        /* \"contracts/GoingUpProjects.sol\":875:938  require(owner == msg.sender || admins[msg.sender], \"not admin\") */\n      tag_95\n      jumpi\n      mload(0x40)\n      shl(0xe5, 0x461bcd)\n      dup2\n      mstore\n      0x04\n      add\n      tag_96\n      swap1\n      tag_97\n      jump\t// in\n    tag_96:\n      mload(0x40)\n      dup1\n      swap2\n      sub\n      swap1\n      revert\n    tag_95:\n        /* \"contracts/GoingUpProjects.sol\":4861:4912  payable(msg.sender).transfer(address(this).balance) */\n      mload(0x40)\n        /* \"contracts/GoingUpProjects.sol\":4869:4879  msg.sender */\n      caller\n      swap1\n        /* \"contracts/GoingUpProjects.sol\":4890:4911  address(this).balance */\n      selfbalance\n        /* \"contracts/GoingUpProjects.sol\":4861:4912  payable(msg.sender).transfer(address(this).balance) */\n      dup1\n      iszero\n      0x08fc\n      mul\n      swap2\n      0x00\n      dup2\n      dup2\n      dup2\n        /* \"contracts/GoingUpProjects.sol\":4890:4911  address(this).balance */\n      dup6\n        /* \"contracts/GoingUpProjects.sol\":4869:4879  msg.sender */\n      dup9\n        /* \"contracts/GoingUpProjects.sol\":4861:4912  payable(msg.sender).transfer(address(this).balance) */\n      dup9\n      call\n      swap4\n      pop\n      pop\n      pop\n      pop\n      iszero\n      dup1\n      iszero\n      tag_100\n      jumpi\n      returndatasize\n      0x00\n      dup1\n      returndatacopy\n      revert(0x00, returndatasize)\n    tag_100:\n      pop\n        /* \"contracts/GoingUpProjects.sol\":4808:4920  function withdrawFunds() public onlyAdmin {... */\n      jump\t// out\n        /* \"contracts/GoingUpProjects.sol\":1181:1303  function setAdmin(address targetAddress, bool isAdmin) public onlyAdmin {... */\n    tag_37:\n        /* \"contracts/GoingUpProjects.sol\":883:888  owner */\n      and(sub(shl(0xa0, 0x01), 0x01), sload(0x01))\n        /* \"contracts/GoingUpProjects.sol\":892:902  msg.sender */\n      caller\n        /* \"contracts/GoingUpProjects.sol\":883:902  owner == msg.sender */\n      eq\n      dup1\n        /* \"contracts/GoingUpProjects.sol\":883:924  owner == msg.sender || admins[msg.sender] */\n      tag_102\n      jumpi\n      pop\n        /* \"contracts/GoingUpProjects.sol\":913:923  msg.sender */\n      caller\n        /* \"contracts/GoingUpProjects.sol\":906:924  admins[msg.sender] */\n      0x00\n      swap1\n      dup2\n      mstore\n        /* \"contracts/GoingUpProjects.sol\":906:912  admins */\n      0x02\n        /* \"contracts/GoingUpProjects.sol\":906:924  admins[msg.sender] */\n      0x20\n      mstore\n      0x40\n      swap1\n      keccak256\n      sload\n      0xff\n      and\n        /* \"contracts/GoingUpProjects.sol\":883:924  owner == msg.sender || admins[msg.sender] */\n    tag_102:\n        /* \"contracts/GoingUpProjects.sol\":875:938  require(owner == msg.sender || admins[msg.sender], \"not admin\") */\n      tag_103\n      jumpi\n      mload(0x40)\n      shl(0xe5, 0x461bcd)\n      dup2\n      mstore\n      0x04\n      add\n      tag_96\n      swap1\n      tag_97\n      jump\t// in\n    tag_103:\n      sub(shl(0xa0, 0x01), 0x01)\n        /* \"contracts/GoingUpProjects.sol\":1264:1285  admins[targetAddress] */\n      swap2\n      swap1\n      swap2\n      and\n      0x00\n      swap1\n      dup2\n      mstore\n        /* \"contracts/GoingUpProjects.sol\":1264:1270  admins */\n      0x02\n        /* \"contracts/GoingUpProjects.sol\":1264:1285  admins[targetAddress] */\n      0x20\n      mstore\n      0x40\n      swap1\n      keccak256\n        /* \"contracts/GoingUpProjects.sol\":1264:1295  admins[targetAddress] = isAdmin */\n      dup1\n      sload\n      not(0xff)\n      and\n      swap2\n      iszero\n      iszero\n      swap2\n      swap1\n      swap2\n      or\n      swap1\n      sstore\n        /* \"contracts/GoingUpProjects.sol\":1181:1303  function setAdmin(address targetAddress, bool isAdmin) public onlyAdmin {... */\n      jump\t// out\n        /* \"contracts/GoingUpProjects.sol\":1628:1716  function setPrice(uint256 newPrice) public onlyAdmin {... */\n    tag_44:\n        /* \"contracts/GoingUpProjects.sol\":883:888  owner */\n      and(sub(shl(0xa0, 0x01), 0x01), sload(0x01))\n        /* \"contracts/GoingUpProjects.sol\":892:902  msg.sender */\n      caller\n        /* \"contracts/GoingUpProjects.sol\":883:902  owner == msg.sender */\n      eq\n      dup1\n        /* \"contracts/GoingUpProjects.sol\":883:924  owner == msg.sender || admins[msg.sender] */\n      tag_107\n      jumpi\n      pop\n        /* \"contracts/GoingUpProjects.sol\":913:923  msg.sender */\n      caller\n        /* \"contracts/GoingUpProjects.sol\":906:924  admins[msg.sender] */\n      0x00\n      swap1\n      dup2\n      mstore\n        /* \"contracts/GoingUpProjects.sol\":906:912  admins */\n      0x02\n        /* \"contracts/GoingUpProjects.sol\":906:924  admins[msg.sender] */\n      0x20\n      mstore\n      0x40\n      swap1\n      keccak256\n      sload\n      0xff\n      and\n        /* \"contracts/GoingUpProjects.sol\":883:924  owner == msg.sender || admins[msg.sender] */\n    tag_107:\n        /* \"contracts/GoingUpProjects.sol\":875:938  require(owner == msg.sender || admins[msg.sender], \"not admin\") */\n      tag_108\n      jumpi\n      mload(0x40)\n      shl(0xe5, 0x461bcd)\n      dup2\n      mstore\n      0x04\n      add\n      tag_96\n      swap1\n      tag_97\n      jump\t// in\n    tag_108:\n        /* \"contracts/GoingUpProjects.sol\":1692:1697  price */\n      0x03\n        /* \"contracts/GoingUpProjects.sol\":1692:1708  price = newPrice */\n      sstore\n        /* \"contracts/GoingUpProjects.sol\":1628:1716  function setPrice(uint256 newPrice) public onlyAdmin {... */\n      jump\t// out\n        /* \"contracts/GoingUpProjects.sol\":5784:6059  function withdrawERC1155(address tokenAddress, uint256 tokenID, uint256 amount, bytes memory data) external onlyAdmin {... */\n    tag_52:\n        /* \"contracts/GoingUpProjects.sol\":883:888  owner */\n      and(sub(shl(0xa0, 0x01), 0x01), sload(0x01))\n        /* \"contracts/GoingUpProjects.sol\":892:902  msg.sender */\n      caller\n        /* \"contracts/GoingUpProjects.sol\":883:902  owner == msg.sender */\n      eq\n      dup1\n        /* \"contracts/GoingUpProjects.sol\":883:924  owner == msg.sender || admins[msg.sender] */\n      tag_112\n      jumpi\n      pop\n        /* \"contracts/GoingUpProjects.sol\":913:923  msg.sender */\n      caller\n        /* \"contracts/GoingUpProjects.sol\":906:924  admins[msg.sender] */\n      0x00\n      swap1\n      dup2\n      mstore\n        /* \"contracts/GoingUpProjects.sol\":906:912  admins */\n      0x02\n        /* \"contracts/GoingUpProjects.sol\":906:924  admins[msg.sender] */\n      0x20\n      mstore\n      0x40\n      swap1\n      keccak256\n      sload\n      0xff\n      and\n        /* \"contracts/GoingUpProjects.sol\":883:924  owner == msg.sender || admins[msg.sender] */\n    tag_112:\n        /* \"contracts/GoingUpProjects.sol\":875:938  require(owner == msg.sender || admins[msg.sender], \"not admin\") */\n      tag_113\n      jumpi\n      mload(0x40)\n      shl(0xe5, 0x461bcd)\n      dup2\n      mstore\n      0x04\n      add\n      tag_96\n      swap1\n      tag_97\n      jump\t// in\n    tag_113:\n        /* \"contracts/GoingUpProjects.sol\":5971:6051  tokenContract.safeTransferFrom(address(this), msg.sender, tokenID, amount, data) */\n      mload(0x40)\n      shl(0xe1, 0x79212195)\n      dup2\n      mstore\n        /* \"contracts/GoingUpProjects.sol\":5947:5959  tokenAddress */\n      dup5\n      swap1\n      sub(shl(0xa0, 0x01), 0x01)\n        /* \"contracts/GoingUpProjects.sol\":5971:6001  tokenContract.safeTransferFrom */\n      dup3\n      and\n      swap1\n      0xf242432a\n      swap1\n        /* \"contracts/GoingUpProjects.sol\":5971:6051  tokenContract.safeTransferFrom(address(this), msg.sender, tokenID, amount, data) */\n      tag_116\n      swap1\n        /* \"contracts/GoingUpProjects.sol\":6010:6014  this */\n      address\n      swap1\n        /* \"contracts/GoingUpProjects.sol\":6017:6027  msg.sender */\n      caller\n      swap1\n        /* \"contracts/GoingUpProjects.sol\":6029:6036  tokenID */\n      dup10\n      swap1\n        /* \"contracts/GoingUpProjects.sol\":6038:6044  amount */\n      dup10\n      swap1\n        /* \"contracts/GoingUpProjects.sol\":6046:6050  data */\n      dup10\n      swap1\n        /* \"contracts/GoingUpProjects.sol\":5971:6051  tokenContract.safeTransferFrom(address(this), msg.sender, tokenID, amount, data) */\n      0x04\n      add\n      tag_117\n      jump\t// in\n    tag_116:\n      0x00\n      mload(0x40)\n      dup1\n      dup4\n      sub\n      dup2\n      0x00\n      dup8\n      dup1\n      extcodesize\n      iszero\n      dup1\n      iszero\n      tag_118\n      jumpi\n      0x00\n      dup1\n      revert\n    tag_118:\n      pop\n      gas\n      call\n      iszero\n      dup1\n      iszero\n      tag_120\n      jumpi\n      returndatasize\n      0x00\n      dup1\n      returndatacopy\n      revert(0x00, returndatasize)\n    tag_120:\n      pop\n      pop\n      pop\n      pop\n        /* \"contracts/GoingUpProjects.sol\":5902:6059  {... */\n      pop\n        /* \"contracts/GoingUpProjects.sol\":5784:6059  function withdrawERC1155(address tokenAddress, uint256 tokenID, uint256 amount, bytes memory data) external onlyAdmin {... */\n      pop\n      pop\n      pop\n      pop\n      jump\t// out\n        /* \"contracts/GoingUpProjects.sol\":5064:5259  function withdrawERC20(address tokenAddress, uint256 amount) external onlyAdmin {... */\n    tag_56:\n        /* \"contracts/GoingUpProjects.sol\":883:888  owner */\n      and(sub(shl(0xa0, 0x01), 0x01), sload(0x01))\n        /* \"contracts/GoingUpProjects.sol\":892:902  msg.sender */\n      caller\n        /* \"contracts/GoingUpProjects.sol\":883:902  owner == msg.sender */\n      eq\n      dup1\n        /* \"contracts/GoingUpProjects.sol\":883:924  owner == msg.sender || admins[msg.sender] */\n      tag_122\n      jumpi\n      pop\n        /* \"contracts/GoingUpProjects.sol\":913:923  msg.sender */\n      caller\n        /* \"contracts/GoingUpProjects.sol\":906:924  admins[msg.sender] */\n      0x00\n      swap1\n      dup2\n      mstore\n        /* \"contracts/GoingUpProjects.sol\":906:912  admins */\n      0x02\n        /* \"contracts/GoingUpProjects.sol\":906:924  admins[msg.sender] */\n      0x20\n      mstore\n      0x40\n      swap1\n      keccak256\n      sload\n      0xff\n      and\n        /* \"contracts/GoingUpProjects.sol\":883:924  owner == msg.sender || admins[msg.sender] */\n    tag_122:\n        /* \"contracts/GoingUpProjects.sol\":875:938  require(owner == msg.sender || admins[msg.sender], \"not admin\") */\n      tag_123\n      jumpi\n      mload(0x40)\n      shl(0xe5, 0x461bcd)\n      dup2\n      mstore\n      0x04\n      add\n      tag_96\n      swap1\n      tag_97\n      jump\t// in\n    tag_123:\n        /* \"contracts/GoingUpProjects.sol\":5209:5251  tokenContract.transfer(msg.sender, amount) */\n      mload(0x40)\n      shl(0xe0, 0xa9059cbb)\n      dup2\n      mstore\n        /* \"contracts/GoingUpProjects.sol\":5232:5242  msg.sender */\n      caller\n        /* \"contracts/GoingUpProjects.sol\":5209:5251  tokenContract.transfer(msg.sender, amount) */\n      0x04\n      dup3\n      add\n        /* \"#utility.yul\":10056:10107   */\n      mstore\n        /* \"#utility.yul\":10123:10141   */\n      0x24\n      dup2\n      add\n        /* \"#utility.yul\":10116:10150   */\n      dup3\n      swap1\n      mstore\n        /* \"contracts/GoingUpProjects.sol\":5185:5197  tokenAddress */\n      dup3\n      swap1\n      sub(shl(0xa0, 0x01), 0x01)\n        /* \"contracts/GoingUpProjects.sol\":5209:5231  tokenContract.transfer */\n      dup3\n      and\n      swap1\n      0xa9059cbb\n      swap1\n        /* \"#utility.yul\":10029:10047   */\n      0x44\n      add\n        /* \"contracts/GoingUpProjects.sol\":5209:5251  tokenContract.transfer(msg.sender, amount) */\n      0x20\n      mload(0x40)\n      dup1\n      dup4\n      sub\n      dup2\n      0x00\n      dup8\n      gas\n      call\n      iszero\n      dup1\n      iszero\n      tag_129\n      jumpi\n      returndatasize\n      0x00\n      dup1\n      returndatacopy\n      revert(0x00, returndatasize)\n    tag_129:\n      pop\n      pop\n      pop\n      pop\n      mload(0x40)\n      returndatasize\n      not(0x1f)\n      0x1f\n      dup3\n      add\n      and\n      dup3\n      add\n      dup1\n      0x40\n      mstore\n      pop\n      dup2\n      add\n      swap1\n      tag_130\n      swap2\n      swap1\n      tag_131\n      jump\t// in\n    tag_130:\n      pop\n        /* \"contracts/GoingUpProjects.sol\":5144:5259  {... */\n      pop\n        /* \"contracts/GoingUpProjects.sol\":5064:5259  function withdrawERC20(address tokenAddress, uint256 amount) external onlyAdmin {... */\n      pop\n      pop\n      jump\t// out\n        /* \"contracts/GoingUpProjects.sol\":4158:4752  function update(uint256 id, string memory name, string memory description, uint started, uint ended, string memory primaryUrl, string[] memory tags) public canEditProject(id) {... */\n    tag_60:\n        /* \"contracts/GoingUpProjects.sol\":1828:1850  Project memory project */\n      0x00\n        /* \"contracts/GoingUpProjects.sol\":1853:1872  projects[projectId] */\n      dup8\n      dup2\n      mstore\n        /* \"contracts/GoingUpProjects.sol\":1853:1861  projects */\n      0x04\n        /* \"contracts/GoingUpProjects.sol\":1853:1872  projects[projectId] */\n      0x20\n      swap1\n      dup2\n      mstore\n      0x40\n      dup1\n      dup4\n      keccak256\n        /* \"contracts/GoingUpProjects.sol\":1828:1872  Project memory project = projects[projectId] */\n      dup2\n      mload\n      0x0160\n      dup2\n      add\n      swap1\n      swap3\n      mstore\n      dup1\n      sload\n      dup3\n      mstore\n      0x01\n      dup2\n      add\n      dup1\n      sload\n        /* \"contracts/GoingUpProjects.sol\":4329:4331  id */\n      dup13\n      swap6\n        /* \"contracts/GoingUpProjects.sol\":1828:1850  Project memory project */\n      swap5\n        /* \"contracts/GoingUpProjects.sol\":1828:1872  Project memory project = projects[projectId] */\n      dup5\n      add\n      swap2\n      swap1\n      tag_133\n      swap1\n      tag_65\n      jump\t// in\n    tag_133:\n      dup1\n      0x1f\n      add\n      0x20\n      dup1\n      swap2\n      div\n      mul\n      0x20\n      add\n      mload(0x40)\n      swap1\n      dup2\n      add\n      0x40\n      mstore\n      dup1\n      swap3\n      swap2\n      swap1\n      dup2\n      dup2\n      mstore\n      0x20\n      add\n      dup3\n      dup1\n      sload\n      tag_134\n      swap1\n      tag_65\n      jump\t// in\n    tag_134:\n      dup1\n      iszero\n      tag_135\n      jumpi\n      dup1\n      0x1f\n      lt\n      tag_136\n      jumpi\n      0x0100\n      dup1\n      dup4\n      sload\n      div\n      mul\n      dup4\n      mstore\n      swap2\n      0x20\n      add\n      swap2\n      jump(tag_135)\n    tag_136:\n      dup3\n      add\n      swap2\n      swap1\n      0x00\n      mstore\n      keccak256(0x00, 0x20)\n      swap1\n    tag_137:\n      dup2\n      sload\n      dup2\n      mstore\n      swap1\n      0x01\n      add\n      swap1\n      0x20\n      add\n      dup1\n      dup4\n      gt\n      tag_137\n      jumpi\n      dup3\n      swap1\n      sub\n      0x1f\n      and\n      dup3\n      add\n      swap2\n    tag_135:\n      pop\n      pop\n      pop\n      pop\n      pop\n      dup2\n      mstore\n      0x20\n      add\n      0x02\n      dup3\n      add\n      dup1\n      sload\n      tag_138\n      swap1\n      tag_65\n      jump\t// in\n    tag_138:\n      dup1\n      0x1f\n      add\n      0x20\n      dup1\n      swap2\n      div\n      mul\n      0x20\n      add\n      mload(0x40)\n      swap1\n      dup2\n      add\n      0x40\n      mstore\n      dup1\n      swap3\n      swap2\n      swap1\n      dup2\n      dup2\n      mstore\n      0x20\n      add\n      dup3\n      dup1\n      sload\n      tag_139\n      swap1\n      tag_65\n      jump\t// in\n    tag_139:\n      dup1\n      iszero\n      tag_140\n      jumpi\n      dup1\n      0x1f\n      lt\n      tag_141\n      jumpi\n      0x0100\n      dup1\n      dup4\n      sload\n      div\n      mul\n      dup4\n      mstore\n      swap2\n      0x20\n      add\n      swap2\n      jump(tag_140)\n    tag_141:\n      dup3\n      add\n      swap2\n      swap1\n      0x00\n      mstore\n      keccak256(0x00, 0x20)\n      swap1\n    tag_142:\n      dup2\n      sload\n      dup2\n      mstore\n      swap1\n      0x01\n      add\n      swap1\n      0x20\n      add\n      dup1\n      dup4\n      gt\n      tag_142\n      jumpi\n      dup3\n      swap1\n      sub\n      0x1f\n      and\n      dup3\n      add\n      swap2\n    tag_140:\n      pop\n      pop\n      pop\n      pop\n      pop\n      dup2\n      mstore\n      0x20\n      add\n      0x03\n      dup3\n      add\n      sload\n      dup2\n      mstore\n      0x20\n      add\n      0x04\n      dup3\n      add\n      sload\n      dup2\n      mstore\n      0x20\n      add\n      0x05\n      dup3\n      add\n      dup1\n      sload\n      tag_143\n      swap1\n      tag_65\n      jump\t// in\n    tag_143:\n      dup1\n      0x1f\n      add\n      0x20\n      dup1\n      swap2\n      div\n      mul\n      0x20\n      add\n      mload(0x40)\n      swap1\n      dup2\n      add\n      0x40\n      mstore\n      dup1\n      swap3\n      swap2\n      swap1\n      dup2\n      dup2\n      mstore\n      0x20\n      add\n      dup3\n      dup1\n      sload\n      tag_144\n      swap1\n      tag_65\n      jump\t// in\n    tag_144:\n      dup1\n      iszero\n      tag_145\n      jumpi\n      dup1\n      0x1f\n      lt\n      tag_146\n      jumpi\n      0x0100\n      dup1\n      dup4\n      sload\n      div\n      mul\n      dup4\n      mstore\n      swap2\n      0x20\n      add\n      swap2\n      jump(tag_145)\n    tag_146:\n      dup3\n      add\n      swap2\n      swap1\n      0x00\n      mstore\n      keccak256(0x00, 0x20)\n      swap1\n    tag_147:\n      dup2\n      sload\n      dup2\n      mstore\n      swap1\n      0x01\n      add\n      swap1\n      0x20\n      add\n      dup1\n      dup4\n      gt\n      tag_147\n      jumpi\n      dup3\n      swap1\n      sub\n      0x1f\n      and\n      dup3\n      add\n      swap2\n    tag_145:\n      pop\n      pop\n      pop\n      pop\n      pop\n      dup2\n      mstore\n      0x20\n      add\n      0x06\n      dup3\n      add\n      dup1\n      sload\n      dup1\n      0x20\n      mul\n      0x20\n      add\n      mload(0x40)\n      swap1\n      dup2\n      add\n      0x40\n      mstore\n      dup1\n      swap3\n      swap2\n      swap1\n      dup2\n      dup2\n      mstore\n      0x20\n      add\n      0x00\n      swap1\n    tag_148:\n      dup3\n      dup3\n      lt\n      iszero\n      tag_149\n      jumpi\n      dup4\n      dup3\n      swap1\n      0x00\n      mstore\n      keccak256(0x00, 0x20)\n      add\n      dup1\n      sload\n      tag_151\n      swap1\n      tag_65\n      jump\t// in\n    tag_151:\n      dup1\n      0x1f\n      add\n      0x20\n      dup1\n      swap2\n      div\n      mul\n      0x20\n      add\n      mload(0x40)\n      swap1\n      dup2\n      add\n      0x40\n      mstore\n      dup1\n      swap3\n      swap2\n      swap1\n      dup2\n      dup2\n      mstore\n      0x20\n      add\n      dup3\n      dup1\n      sload\n      tag_152\n      swap1\n      tag_65\n      jump\t// in\n    tag_152:\n      dup1\n      iszero\n      tag_153\n      jumpi\n      dup1\n      0x1f\n      lt\n      tag_154\n      jumpi\n      0x0100\n      dup1\n      dup4\n      sload\n      div\n      mul\n      dup4\n      mstore\n      swap2\n      0x20\n      add\n      swap2\n      jump(tag_153)\n    tag_154:\n      dup3\n      add\n      swap2\n      swap1\n      0x00\n      mstore\n      keccak256(0x00, 0x20)\n      swap1\n    tag_155:\n      dup2\n      sload\n      dup2\n      mstore\n      swap1\n      0x01\n      add\n      swap1\n      0x20\n      add\n      dup1\n      dup4\n      gt\n      tag_155\n      jumpi\n      dup3\n      swap1\n      sub\n      0x1f\n      and\n      dup3\n      add\n      swap2\n    tag_153:\n      pop\n      pop\n      pop\n      pop\n      pop\n      dup2\n      mstore\n      0x20\n      add\n      swap1\n      0x01\n      add\n      swap1\n      jump(tag_148)\n    tag_149:\n      pop\n      pop\n      pop\n      swap1\n      dup3\n      mstore\n      pop\n      0x07\n      dup3\n      add\n      sload\n      sub(shl(0xa0, 0x01), 0x01)\n      and\n      0x20\n      dup1\n      dup4\n      add\n      swap2\n      swap1\n      swap2\n      mstore\n      0x08\n      dup4\n      add\n      dup1\n      sload\n      0x40\n      dup1\n      mload\n      dup3\n      dup6\n      mul\n      dup2\n      add\n      dup6\n      add\n      dup3\n      mstore\n      dup3\n      dup2\n      mstore\n      swap5\n      add\n      swap4\n      swap3\n      dup4\n      add\n      dup3\n      dup3\n      dup1\n      iszero\n      tag_156\n      jumpi\n      0x20\n      mul\n      dup3\n      add\n      swap2\n      swap1\n      0x00\n      mstore\n      keccak256(0x00, 0x20)\n      swap1\n    tag_157:\n      dup2\n      sload\n      sub(shl(0xa0, 0x01), 0x01)\n      and\n      dup2\n      mstore\n      0x01\n      swap1\n      swap2\n      add\n      swap1\n      0x20\n      add\n      dup1\n      dup4\n      gt\n      tag_157\n      jumpi\n    tag_156:\n      pop\n      pop\n      pop\n      swap2\n      dup4\n      mstore\n      pop\n      pop\n      0x09\n      swap2\n      swap1\n      swap2\n      add\n      sload\n      0xff\n      dup1\n      dup3\n      and\n      iszero\n      iszero\n      0x20\n      dup5\n      add\n      mstore\n      0x0100\n      swap1\n      swap2\n      div\n      and\n      iszero\n      iszero\n      0x40\n      swap1\n      swap2\n      add\n      mstore\n        /* \"contracts/GoingUpProjects.sol\":1911:1924  project.owner */\n      0xe0\n      dup2\n      add\n      mload\n        /* \"contracts/GoingUpProjects.sol\":1828:1872  Project memory project = projects[projectId] */\n      swap1\n      swap2\n      pop\n      sub(shl(0xa0, 0x01), 0x01)\n        /* \"contracts/GoingUpProjects.sol\":1897:1924  msg.sender == project.owner */\n      and\n        /* \"contracts/GoingUpProjects.sol\":1897:1907  msg.sender */\n      caller\n        /* \"contracts/GoingUpProjects.sol\":1897:1924  msg.sender == project.owner */\n      sub\n        /* \"contracts/GoingUpProjects.sol\":1893:2578  if (msg.sender == project.owner) {... */\n      tag_158\n      jumpi\n        /* \"contracts/GoingUpProjects.sol\":4362:4371  idCounter */\n      0x00\n      dup1\n      sload\n        /* \"contracts/GoingUpProjects.sol\":4344:4356  projects[id] */\n      dup11\n      dup3\n      mstore\n        /* \"contracts/GoingUpProjects.sol\":4344:4352  projects */\n      0x04\n        /* \"contracts/GoingUpProjects.sol\":4344:4356  projects[id] */\n      0x20\n      swap1\n      dup2\n      mstore\n      0x40\n      swap1\n      swap3\n      keccak256\n        /* \"contracts/GoingUpProjects.sol\":4344:4371  projects[id].id = idCounter */\n      swap1\n      dup2\n      sstore\n        /* \"contracts/GoingUpProjects.sol\":4382:4406  projects[id].name = name */\n      dup10\n      mload\n      tag_160\n      swap3\n        /* \"contracts/GoingUpProjects.sol\":4382:4399  projects[id].name */\n      0x01\n      swap1\n      swap3\n      add\n      swap2\n        /* \"contracts/GoingUpProjects.sol\":4382:4406  projects[id].name = name */\n      dup12\n      add\n      swap1\n      tag_84\n      jump\t// in\n    tag_160:\n      pop\n        /* \"contracts/GoingUpProjects.sol\":4417:4429  projects[id] */\n      0x00\n      dup10\n      dup2\n      mstore\n        /* \"contracts/GoingUpProjects.sol\":4417:4425  projects */\n      0x04\n        /* \"contracts/GoingUpProjects.sol\":4417:4429  projects[id] */\n      0x20\n      swap1\n      dup2\n      mstore\n      0x40\n      swap1\n      swap2\n      keccak256\n        /* \"contracts/GoingUpProjects.sol\":4417:4455  projects[id].description = description */\n      dup9\n      mload\n      tag_161\n      swap3\n        /* \"contracts/GoingUpProjects.sol\":4417:4441  projects[id].description */\n      0x02\n      swap1\n      swap3\n      add\n      swap2\n        /* \"contracts/GoingUpProjects.sol\":4417:4455  projects[id].description = description */\n      dup11\n      add\n      swap1\n      tag_84\n      jump\t// in\n    tag_161:\n      pop\n        /* \"contracts/GoingUpProjects.sol\":4466:4478  projects[id] */\n      0x00\n      dup10\n      dup2\n      mstore\n        /* \"contracts/GoingUpProjects.sol\":4466:4474  projects */\n      0x04\n        /* \"contracts/GoingUpProjects.sol\":4466:4478  projects[id] */\n      0x20\n      dup2\n      dup2\n      mstore\n      0x40\n      swap1\n      swap3\n      keccak256\n        /* \"contracts/GoingUpProjects.sol\":4466:4486  projects[id].started */\n      0x03\n      dup2\n      add\n        /* \"contracts/GoingUpProjects.sol\":4466:4496  projects[id].started = started */\n      dup10\n      swap1\n      sstore\n        /* \"contracts/GoingUpProjects.sol\":4507:4525  projects[id].ended */\n      swap1\n      dup2\n      add\n        /* \"contracts/GoingUpProjects.sol\":4507:4533  projects[id].ended = ended */\n      dup8\n      swap1\n      sstore\n        /* \"contracts/GoingUpProjects.sol\":4544:4580  projects[id].primaryUrl = primaryUrl */\n      dup6\n      mload\n      tag_162\n      swap3\n        /* \"contracts/GoingUpProjects.sol\":4544:4567  projects[id].primaryUrl */\n      0x05\n      swap1\n      swap3\n      add\n      swap2\n        /* \"contracts/GoingUpProjects.sol\":4544:4580  projects[id].primaryUrl = primaryUrl */\n      dup8\n      add\n      swap1\n      tag_84\n      jump\t// in\n    tag_162:\n      pop\n        /* \"contracts/GoingUpProjects.sol\":4591:4603  projects[id] */\n      0x00\n      dup10\n      dup2\n      mstore\n        /* \"contracts/GoingUpProjects.sol\":4591:4599  projects */\n      0x04\n        /* \"contracts/GoingUpProjects.sol\":4591:4603  projects[id] */\n      0x20\n      swap1\n      dup2\n      mstore\n      0x40\n      swap1\n      swap2\n      keccak256\n        /* \"contracts/GoingUpProjects.sol\":4591:4615  projects[id].tags = tags */\n      dup5\n      mload\n      tag_163\n      swap3\n        /* \"contracts/GoingUpProjects.sol\":4591:4608  projects[id].tags */\n      0x06\n      swap1\n      swap3\n      add\n      swap2\n        /* \"contracts/GoingUpProjects.sol\":4591:4615  projects[id].tags = tags */\n      dup7\n      add\n      swap1\n      tag_88\n      jump\t// in\n    tag_163:\n      pop\n        /* \"contracts/GoingUpProjects.sol\":4626:4638  projects[id] */\n      0x00\n      dup10\n      dup2\n      mstore\n        /* \"contracts/GoingUpProjects.sol\":4626:4634  projects */\n      0x04\n        /* \"contracts/GoingUpProjects.sol\":4626:4638  projects[id] */\n      0x20\n      mstore\n      0x40\n      swap1\n      keccak256\n        /* \"contracts/GoingUpProjects.sol\":4626:4644  projects[id].owner */\n      0x07\n      dup2\n      add\n        /* \"contracts/GoingUpProjects.sol\":4626:4657  projects[id].owner = msg.sender */\n      dup1\n      sload\n      not(sub(shl(0xa0, 0x01), 0x01))\n      and\n        /* \"contracts/GoingUpProjects.sol\":4647:4657  msg.sender */\n      caller\n        /* \"contracts/GoingUpProjects.sol\":4626:4657  projects[id].owner = msg.sender */\n      or\n      swap1\n      sstore\n        /* \"contracts/GoingUpProjects.sol\":4668:4687  projects[id].active */\n      0x09\n      add\n        /* \"contracts/GoingUpProjects.sol\":4668:4694  projects[id].active = true */\n      dup1\n      sload\n      not(0xffff)\n        /* \"contracts/GoingUpProjects.sol\":4705:4744  projects[id].allowMembersToEdit = false */\n      and\n        /* \"contracts/GoingUpProjects.sol\":4626:4657  projects[id].owner = msg.sender */\n      0x01\n        /* \"contracts/GoingUpProjects.sol\":4705:4744  projects[id].allowMembersToEdit = false */\n      or\n      swap1\n      sstore\n        /* \"contracts/GoingUpProjects.sol\":1893:2578  if (msg.sender == project.owner) {... */\n      jump(tag_120)\n    tag_158:\n        /* \"contracts/GoingUpProjects.sol\":1980:1987  project */\n      dup1\n        /* \"contracts/GoingUpProjects.sol\":1980:2006  project.allowMembersToEdit */\n      0x0140\n      add\n      mload\n        /* \"contracts/GoingUpProjects.sol\":1975:2555  if (!project.allowMembersToEdit) {... */\n      tag_165\n      jumpi\n        /* \"contracts/GoingUpProjects.sol\":2027:2056  revert(\"cannot edit project\") */\n      mload(0x40)\n      shl(0xe5, 0x461bcd)\n      dup2\n      mstore\n        /* \"#utility.yul\":10613:10615   */\n      0x20\n        /* \"contracts/GoingUpProjects.sol\":2027:2056  revert(\"cannot edit project\") */\n      0x04\n      dup3\n      add\n        /* \"#utility.yul\":10595:10616   */\n      mstore\n        /* \"#utility.yul\":10652:10654   */\n      0x13\n        /* \"#utility.yul\":10632:10650   */\n      0x24\n      dup3\n      add\n        /* \"#utility.yul\":10625:10655   */\n      mstore\n      shl(0x6a, 0x18d85b9b9bdd0819591a5d081c1c9bda9958dd)\n        /* \"#utility.yul\":10671:10689   */\n      0x44\n      dup3\n      add\n        /* \"#utility.yul\":10664:10713   */\n      mstore\n        /* \"#utility.yul\":10730:10748   */\n      0x64\n      add\n        /* \"contracts/GoingUpProjects.sol\":2027:2056  revert(\"cannot edit project\") */\n      tag_96\n        /* \"#utility.yul\":10411:10754   */\n      jump\n        /* \"contracts/GoingUpProjects.sol\":1975:2555  if (!project.allowMembersToEdit) {... */\n    tag_165:\n        /* \"contracts/GoingUpProjects.sol\":2097:2110  bool isMember */\n      0x00\n        /* \"contracts/GoingUpProjects.sol\":2142:2148  uint i */\n      dup1\n        /* \"contracts/GoingUpProjects.sol\":2137:2411  for (uint i = 0; i < project.members.length; i++) {... */\n    tag_169:\n        /* \"contracts/GoingUpProjects.sol\":2158:2165  project */\n      dup3\n        /* \"contracts/GoingUpProjects.sol\":2158:2173  project.members */\n      0x0100\n      add\n      mload\n        /* \"contracts/GoingUpProjects.sol\":2158:2180  project.members.length */\n      mload\n        /* \"contracts/GoingUpProjects.sol\":2154:2155  i */\n      dup2\n        /* \"contracts/GoingUpProjects.sol\":2154:2180  i < project.members.length */\n      lt\n        /* \"contracts/GoingUpProjects.sol\":2137:2411  for (uint i = 0; i < project.members.length; i++) {... */\n      iszero\n      tag_170\n      jumpi\n        /* \"contracts/GoingUpProjects.sol\":2210:2224  address member */\n      0x00\n        /* \"contracts/GoingUpProjects.sol\":2227:2234  project */\n      dup4\n        /* \"contracts/GoingUpProjects.sol\":2227:2242  project.members */\n      0x0100\n      add\n      mload\n        /* \"contracts/GoingUpProjects.sol\":2243:2244  i */\n      dup3\n        /* \"contracts/GoingUpProjects.sol\":2227:2245  project.members[i] */\n      dup2\n      mload\n      dup2\n      lt\n      tag_173\n      jumpi\n      tag_173\n      tag_174\n      jump\t// in\n    tag_173:\n      0x20\n      mul\n      0x20\n      add\n      add\n      mload\n        /* \"contracts/GoingUpProjects.sol\":2210:2245  address member = project.members[i] */\n      swap1\n      pop\n        /* \"contracts/GoingUpProjects.sol\":2286:2292  member */\n      dup1\n      sub(shl(0xa0, 0x01), 0x01)\n        /* \"contracts/GoingUpProjects.sol\":2272:2292  msg.sender == member */\n      and\n        /* \"contracts/GoingUpProjects.sol\":2272:2282  msg.sender */\n      caller\n      sub(shl(0xa0, 0x01), 0x01)\n        /* \"contracts/GoingUpProjects.sol\":2272:2292  msg.sender == member */\n      and\n      sub\n        /* \"contracts/GoingUpProjects.sol\":2268:2392  if (msg.sender == member) {... */\n      tag_175\n      jumpi\n        /* \"contracts/GoingUpProjects.sol\":2332:2336  true */\n      0x01\n        /* \"contracts/GoingUpProjects.sol\":2321:2336  isMember = true */\n      swap3\n      pop\n        /* \"contracts/GoingUpProjects.sol\":2363:2368  break */\n      pop\n      jump(tag_170)\n        /* \"contracts/GoingUpProjects.sol\":2268:2392  if (msg.sender == member) {... */\n    tag_175:\n      pop\n        /* \"contracts/GoingUpProjects.sol\":2182:2185  i++ */\n      dup1\n      tag_176\n      dup2\n      tag_92\n      jump\t// in\n    tag_176:\n      swap2\n      pop\n      pop\n        /* \"contracts/GoingUpProjects.sol\":2137:2411  for (uint i = 0; i < project.members.length; i++) {... */\n      jump(tag_169)\n    tag_170:\n      pop\n        /* \"contracts/GoingUpProjects.sol\":2436:2444  isMember */\n      dup1\n        /* \"contracts/GoingUpProjects.sol\":2431:2518  if (!isMember) {... */\n      tag_177\n      jumpi\n        /* \"contracts/GoingUpProjects.sol\":2469:2498  revert(\"cannot edit project\") */\n      mload(0x40)\n      shl(0xe5, 0x461bcd)\n      dup2\n      mstore\n        /* \"#utility.yul\":10613:10615   */\n      0x20\n        /* \"contracts/GoingUpProjects.sol\":2469:2498  revert(\"cannot edit project\") */\n      0x04\n      dup3\n      add\n        /* \"#utility.yul\":10595:10616   */\n      mstore\n        /* \"#utility.yul\":10652:10654   */\n      0x13\n        /* \"#utility.yul\":10632:10650   */\n      0x24\n      dup3\n      add\n        /* \"#utility.yul\":10625:10655   */\n      mstore\n      shl(0x6a, 0x18d85b9b9bdd0819591a5d081c1c9bda9958dd)\n        /* \"#utility.yul\":10671:10689   */\n      0x44\n      dup3\n      add\n        /* \"#utility.yul\":10664:10713   */\n      mstore\n        /* \"#utility.yul\":10730:10748   */\n      0x64\n      add\n        /* \"contracts/GoingUpProjects.sol\":2469:2498  revert(\"cannot edit project\") */\n      tag_96\n        /* \"#utility.yul\":10411:10754   */\n      jump\n        /* \"contracts/GoingUpProjects.sol\":2431:2518  if (!isMember) {... */\n    tag_177:\n        /* \"contracts/GoingUpProjects.sol\":4362:4371  idCounter */\n      0x00\n      dup1\n      sload\n        /* \"contracts/GoingUpProjects.sol\":4344:4356  projects[id] */\n      dup12\n      dup3\n      mstore\n        /* \"contracts/GoingUpProjects.sol\":4344:4352  projects */\n      0x04\n        /* \"contracts/GoingUpProjects.sol\":4344:4356  projects[id] */\n      0x20\n      swap1\n      dup2\n      mstore\n      0x40\n      swap1\n      swap3\n      keccak256\n        /* \"contracts/GoingUpProjects.sol\":4344:4371  projects[id].id = idCounter */\n      swap1\n      dup2\n      sstore\n        /* \"contracts/GoingUpProjects.sol\":4382:4406  projects[id].name = name */\n      dup11\n      mload\n      tag_180\n      swap3\n        /* \"contracts/GoingUpProjects.sol\":4382:4399  projects[id].name */\n      0x01\n      swap1\n      swap3\n      add\n      swap2\n        /* \"contracts/GoingUpProjects.sol\":4382:4406  projects[id].name = name */\n      dup13\n      add\n      swap1\n      tag_84\n      jump\t// in\n    tag_180:\n      pop\n        /* \"contracts/GoingUpProjects.sol\":4417:4429  projects[id] */\n      0x00\n      dup11\n      dup2\n      mstore\n        /* \"contracts/GoingUpProjects.sol\":4417:4425  projects */\n      0x04\n        /* \"contracts/GoingUpProjects.sol\":4417:4429  projects[id] */\n      0x20\n      swap1\n      dup2\n      mstore\n      0x40\n      swap1\n      swap2\n      keccak256\n        /* \"contracts/GoingUpProjects.sol\":4417:4455  projects[id].description = description */\n      dup10\n      mload\n      tag_181\n      swap3\n        /* \"contracts/GoingUpProjects.sol\":4417:4441  projects[id].description */\n      0x02\n      swap1\n      swap3\n      add\n      swap2\n        /* \"contracts/GoingUpProjects.sol\":4417:4455  projects[id].description = description */\n      dup12\n      add\n      swap1\n      tag_84\n      jump\t// in\n    tag_181:\n      pop\n        /* \"contracts/GoingUpProjects.sol\":4466:4478  projects[id] */\n      0x00\n      dup11\n      dup2\n      mstore\n        /* \"contracts/GoingUpProjects.sol\":4466:4474  projects */\n      0x04\n        /* \"contracts/GoingUpProjects.sol\":4466:4478  projects[id] */\n      0x20\n      dup2\n      dup2\n      mstore\n      0x40\n      swap1\n      swap3\n      keccak256\n        /* \"contracts/GoingUpProjects.sol\":4466:4486  projects[id].started */\n      0x03\n      dup2\n      add\n        /* \"contracts/GoingUpProjects.sol\":4466:4496  projects[id].started = started */\n      dup11\n      swap1\n      sstore\n        /* \"contracts/GoingUpProjects.sol\":4507:4525  projects[id].ended */\n      swap1\n      dup2\n      add\n        /* \"contracts/GoingUpProjects.sol\":4507:4533  projects[id].ended = ended */\n      dup9\n      swap1\n      sstore\n        /* \"contracts/GoingUpProjects.sol\":4544:4580  projects[id].primaryUrl = primaryUrl */\n      dup7\n      mload\n      tag_182\n      swap3\n        /* \"contracts/GoingUpProjects.sol\":4544:4567  projects[id].primaryUrl */\n      0x05\n      swap1\n      swap3\n      add\n      swap2\n        /* \"contracts/GoingUpProjects.sol\":4544:4580  projects[id].primaryUrl = primaryUrl */\n      dup9\n      add\n      swap1\n      tag_84\n      jump\t// in\n    tag_182:\n      pop\n        /* \"contracts/GoingUpProjects.sol\":4591:4603  projects[id] */\n      0x00\n      dup11\n      dup2\n      mstore\n        /* \"contracts/GoingUpProjects.sol\":4591:4599  projects */\n      0x04\n        /* \"contracts/GoingUpProjects.sol\":4591:4603  projects[id] */\n      0x20\n      swap1\n      dup2\n      mstore\n      0x40\n      swap1\n      swap2\n      keccak256\n        /* \"contracts/GoingUpProjects.sol\":4591:4615  projects[id].tags = tags */\n      dup6\n      mload\n      tag_183\n      swap3\n        /* \"contracts/GoingUpProjects.sol\":4591:4608  projects[id].tags */\n      0x06\n      swap1\n      swap3\n      add\n      swap2\n        /* \"contracts/GoingUpProjects.sol\":4591:4615  projects[id].tags = tags */\n      dup8\n      add\n      swap1\n      tag_88\n      jump\t// in\n    tag_183:\n      pop\n      pop\n        /* \"contracts/GoingUpProjects.sol\":4626:4638  projects[id] */\n      0x00\n      dup10\n      dup2\n      mstore\n        /* \"contracts/GoingUpProjects.sol\":4626:4634  projects */\n      0x04\n        /* \"contracts/GoingUpProjects.sol\":4626:4638  projects[id] */\n      0x20\n      mstore\n      0x40\n      swap1\n      keccak256\n        /* \"contracts/GoingUpProjects.sol\":4626:4644  projects[id].owner */\n      0x07\n      dup2\n      add\n        /* \"contracts/GoingUpProjects.sol\":4626:4657  projects[id].owner = msg.sender */\n      dup1\n      sload\n      not(sub(shl(0xa0, 0x01), 0x01))\n      and\n        /* \"contracts/GoingUpProjects.sol\":4647:4657  msg.sender */\n      caller\n        /* \"contracts/GoingUpProjects.sol\":4626:4657  projects[id].owner = msg.sender */\n      or\n      swap1\n      sstore\n        /* \"contracts/GoingUpProjects.sol\":4668:4687  projects[id].active */\n      0x09\n      add\n        /* \"contracts/GoingUpProjects.sol\":4668:4694  projects[id].active = true */\n      dup1\n      sload\n      not(0xffff)\n        /* \"contracts/GoingUpProjects.sol\":4705:4744  projects[id].allowMembersToEdit = false */\n      and\n        /* \"contracts/GoingUpProjects.sol\":4626:4657  projects[id].owner = msg.sender */\n      0x01\n        /* \"contracts/GoingUpProjects.sol\":4705:4744  projects[id].allowMembersToEdit = false */\n      or\n      swap1\n      sstore\n        /* \"contracts/GoingUpProjects.sol\":1817:2588  {... */\n      pop\n        /* \"contracts/GoingUpProjects.sol\":4158:4752  function update(uint256 id, string memory name, string memory description, uint started, uint ended, string memory primaryUrl, string[] memory tags) public canEditProject(id) {... */\n      pop\n      pop\n      pop\n      pop\n      pop\n      pop\n      pop\n      pop\n      jump\t// out\n        /* \"contracts/GoingUpProjects.sol\":5407:5630  function withdrawERC721(address tokenAddress, uint256 tokenID) external onlyAdmin {... */\n    tag_63:\n        /* \"contracts/GoingUpProjects.sol\":883:888  owner */\n      and(sub(shl(0xa0, 0x01), 0x01), sload(0x01))\n        /* \"contracts/GoingUpProjects.sol\":892:902  msg.sender */\n      caller\n        /* \"contracts/GoingUpProjects.sol\":883:902  owner == msg.sender */\n      eq\n      dup1\n        /* \"contracts/GoingUpProjects.sol\":883:924  owner == msg.sender || admins[msg.sender] */\n      tag_185\n      jumpi\n      pop\n        /* \"contracts/GoingUpProjects.sol\":913:923  msg.sender */\n      caller\n        /* \"contracts/GoingUpProjects.sol\":906:924  admins[msg.sender] */\n      0x00\n      swap1\n      dup2\n      mstore\n        /* \"contracts/GoingUpProjects.sol\":906:912  admins */\n      0x02\n        /* \"contracts/GoingUpProjects.sol\":906:924  admins[msg.sender] */\n      0x20\n      mstore\n      0x40\n      swap1\n      keccak256\n      sload\n      0xff\n      and\n        /* \"contracts/GoingUpProjects.sol\":883:924  owner == msg.sender || admins[msg.sender] */\n    tag_185:\n        /* \"contracts/GoingUpProjects.sol\":875:938  require(owner == msg.sender || admins[msg.sender], \"not admin\") */\n      tag_186\n      jumpi\n      mload(0x40)\n      shl(0xe5, 0x461bcd)\n      dup2\n      mstore\n      0x04\n      add\n      tag_96\n      swap1\n      tag_97\n      jump\t// in\n    tag_186:\n        /* \"contracts/GoingUpProjects.sol\":5556:5622  tokenContract.safeTransferFrom(address(this), msg.sender, tokenID) */\n      mload(0x40)\n      shl(0xe1, 0x21421707)\n      dup2\n      mstore\n        /* \"contracts/GoingUpProjects.sol\":5595:5599  this */\n      address\n        /* \"contracts/GoingUpProjects.sol\":5556:5622  tokenContract.safeTransferFrom(address(this), msg.sender, tokenID) */\n      0x04\n      dup3\n      add\n        /* \"#utility.yul\":11131:11165   */\n      mstore\n        /* \"contracts/GoingUpProjects.sol\":5602:5612  msg.sender */\n      caller\n        /* \"#utility.yul\":11181:11199   */\n      0x24\n      dup3\n      add\n        /* \"#utility.yul\":11174:11217   */\n      mstore\n        /* \"#utility.yul\":11233:11251   */\n      0x44\n      dup2\n      add\n        /* \"#utility.yul\":11226:11260   */\n      dup3\n      swap1\n      mstore\n        /* \"contracts/GoingUpProjects.sol\":5532:5544  tokenAddress */\n      dup3\n      swap1\n      sub(shl(0xa0, 0x01), 0x01)\n        /* \"contracts/GoingUpProjects.sol\":5556:5586  tokenContract.safeTransferFrom */\n      dup3\n      and\n      swap1\n      0x42842e0e\n      swap1\n        /* \"#utility.yul\":11066:11084   */\n      0x64\n      add\n        /* \"contracts/GoingUpProjects.sol\":5556:5622  tokenContract.safeTransferFrom(address(this), msg.sender, tokenID) */\n      0x00\n      mload(0x40)\n      dup1\n      dup4\n      sub\n      dup2\n      0x00\n      dup8\n      dup1\n      extcodesize\n      iszero\n      dup1\n      iszero\n      tag_191\n      jumpi\n      0x00\n      dup1\n      revert\n    tag_191:\n      pop\n      gas\n      call\n      iszero\n      dup1\n      iszero\n      tag_193\n      jumpi\n      returndatasize\n      0x00\n      dup1\n      returndatacopy\n      revert(0x00, returndatasize)\n    tag_193:\n      pop\n      pop\n      pop\n      pop\n        /* \"contracts/GoingUpProjects.sol\":5489:5630  {... */\n      pop\n        /* \"contracts/GoingUpProjects.sol\":5407:5630  function withdrawERC721(address tokenAddress, uint256 tokenID) external onlyAdmin {... */\n      pop\n      pop\n      jump\t// out\n    tag_84:\n      dup3\n      dup1\n      sload\n      tag_194\n      swap1\n      tag_65\n      jump\t// in\n    tag_194:\n      swap1\n      0x00\n      mstore\n      keccak256(0x00, 0x20)\n      swap1\n      0x1f\n      add\n      0x20\n      swap1\n      div\n      dup2\n      add\n      swap3\n      dup3\n      tag_196\n      jumpi\n      0x00\n      dup6\n      sstore\n      jump(tag_199)\n    tag_196:\n      dup3\n      0x1f\n      lt\n      tag_197\n      jumpi\n      dup1\n      mload\n      not(0xff)\n      and\n      dup4\n      dup1\n      add\n      or\n      dup6\n      sstore\n      jump(tag_199)\n    tag_197:\n      dup3\n      dup1\n      add\n      0x01\n      add\n      dup6\n      sstore\n      dup3\n      iszero\n      tag_199\n      jumpi\n      swap2\n      dup3\n      add\n    tag_198:\n      dup3\n      dup2\n      gt\n      iszero\n      tag_199\n      jumpi\n      dup3\n      mload\n      dup3\n      sstore\n      swap2\n      0x20\n      add\n      swap2\n      swap1\n      0x01\n      add\n      swap1\n      jump(tag_198)\n    tag_199:\n      pop\n      tag_200\n      swap3\n      swap2\n      pop\n      tag_201\n      jump\t// in\n    tag_200:\n      pop\n      swap1\n      jump\t// out\n    tag_88:\n      dup3\n      dup1\n      sload\n      dup3\n      dup3\n      sstore\n      swap1\n      0x00\n      mstore\n      keccak256(0x00, 0x20)\n      swap1\n      dup2\n      add\n      swap3\n      dup3\n      iszero\n      tag_204\n      jumpi\n      swap2\n      0x20\n      mul\n      dup3\n      add\n    tag_203:\n      dup3\n      dup2\n      gt\n      iszero\n      tag_204\n      jumpi\n      dup3\n      mload\n      dup1\n      mload\n      tag_205\n      swap2\n      dup5\n      swap2\n      0x20\n      swap1\n      swap2\n      add\n      swap1\n      tag_84\n      jump\t// in\n    tag_205:\n      pop\n      swap2\n      0x20\n      add\n      swap2\n      swap1\n      0x01\n      add\n      swap1\n      jump(tag_203)\n    tag_204:\n      pop\n      tag_200\n      swap3\n      swap2\n      pop\n      tag_207\n      jump\t// in\n    tag_90:\n      dup3\n      dup1\n      sload\n      dup3\n      dup3\n      sstore\n      swap1\n      0x00\n      mstore\n      keccak256(0x00, 0x20)\n      swap1\n      dup2\n      add\n      swap3\n      dup3\n      iszero\n      tag_199\n      jumpi\n      swap2\n      0x20\n      mul\n      dup3\n      add\n    tag_209:\n      dup3\n      dup2\n      gt\n      iszero\n      tag_199\n      jumpi\n      dup3\n      mload\n      dup3\n      sload\n      not(sub(shl(0xa0, 0x01), 0x01))\n      and\n      sub(shl(0xa0, 0x01), 0x01)\n      swap1\n      swap2\n      and\n      or\n      dup3\n      sstore\n      0x20\n      swap1\n      swap3\n      add\n      swap2\n      0x01\n      swap1\n      swap2\n      add\n      swap1\n      jump(tag_209)\n    tag_201:\n    tag_212:\n      dup1\n      dup3\n      gt\n      iszero\n      tag_200\n      jumpi\n      0x00\n      dup2\n      sstore\n      0x01\n      add\n      jump(tag_212)\n    tag_207:\n      dup1\n      dup3\n      gt\n      iszero\n      tag_200\n      jumpi\n      0x00\n      tag_216\n      dup3\n      dup3\n      tag_217\n      jump\t// in\n    tag_216:\n      pop\n      0x01\n      add\n      jump(tag_207)\n    tag_217:\n      pop\n      dup1\n      sload\n      tag_218\n      swap1\n      tag_65\n      jump\t// in\n    tag_218:\n      0x00\n      dup3\n      sstore\n      dup1\n      0x1f\n      lt\n      tag_220\n      jumpi\n      pop\n      pop\n      jump\t// out\n    tag_220:\n      0x1f\n      add\n      0x20\n      swap1\n      div\n      swap1\n      0x00\n      mstore\n      keccak256(0x00, 0x20)\n      swap1\n      dup2\n      add\n      swap1\n      tag_100\n      swap2\n      swap1\n      tag_201\n      jump\t// in\n        /* \"#utility.yul\":14:194   */\n    tag_18:\n        /* \"#utility.yul\":73:79   */\n      0x00\n        /* \"#utility.yul\":126:128   */\n      0x20\n        /* \"#utility.yul\":114:123   */\n      dup3\n        /* \"#utility.yul\":105:112   */\n      dup5\n        /* \"#utility.yul\":101:124   */\n      sub\n        /* \"#utility.yul\":97:129   */\n      slt\n        /* \"#utility.yul\":94:146   */\n      iszero\n      tag_232\n      jumpi\n        /* \"#utility.yul\":142:143   */\n      0x00\n        /* \"#utility.yul\":139:140   */\n      dup1\n        /* \"#utility.yul\":132:144   */\n      revert\n        /* \"#utility.yul\":94:146   */\n    tag_232:\n      pop\n        /* \"#utility.yul\":165:188   */\n      calldataload\n      swap2\n        /* \"#utility.yul\":14:194   */\n      swap1\n      pop\n      jump\t// out\n        /* \"#utility.yul\":199:671   */\n    tag_222:\n        /* \"#utility.yul\":241:244   */\n      0x00\n        /* \"#utility.yul\":279:284   */\n      dup2\n        /* \"#utility.yul\":273:285   */\n      mload\n        /* \"#utility.yul\":306:312   */\n      dup1\n        /* \"#utility.yul\":301:304   */\n      dup5\n        /* \"#utility.yul\":294:313   */\n      mstore\n        /* \"#utility.yul\":331:332   */\n      0x00\n        /* \"#utility.yul\":341:503   */\n    tag_234:\n        /* \"#utility.yul\":355:361   */\n      dup2\n        /* \"#utility.yul\":352:353   */\n      dup2\n        /* \"#utility.yul\":349:362   */\n      lt\n        /* \"#utility.yul\":341:503   */\n      iszero\n      tag_236\n      jumpi\n        /* \"#utility.yul\":417:421   */\n      0x20\n        /* \"#utility.yul\":473:486   */\n      dup2\n      dup6\n      add\n        /* \"#utility.yul\":469:491   */\n      dup2\n      add\n        /* \"#utility.yul\":463:492   */\n      mload\n        /* \"#utility.yul\":445:456   */\n      dup7\n      dup4\n      add\n        /* \"#utility.yul\":441:461   */\n      dup3\n      add\n        /* \"#utility.yul\":434:493   */\n      mstore\n        /* \"#utility.yul\":370:382   */\n      add\n        /* \"#utility.yul\":341:503   */\n      jump(tag_234)\n    tag_236:\n        /* \"#utility.yul\":521:527   */\n      dup2\n        /* \"#utility.yul\":518:519   */\n      dup2\n        /* \"#utility.yul\":515:528   */\n      gt\n        /* \"#utility.yul\":512:599   */\n      iszero\n      tag_237\n      jumpi\n        /* \"#utility.yul\":587:588   */\n      0x00\n        /* \"#utility.yul\":580:584   */\n      0x20\n        /* \"#utility.yul\":571:577   */\n      dup4\n        /* \"#utility.yul\":566:569   */\n      dup8\n        /* \"#utility.yul\":562:578   */\n      add\n        /* \"#utility.yul\":558:585   */\n      add\n        /* \"#utility.yul\":551:589   */\n      mstore\n        /* \"#utility.yul\":512:599   */\n    tag_237:\n      pop\n        /* \"#utility.yul\":653:655   */\n      0x1f\n        /* \"#utility.yul\":632:647   */\n      add\n      not(0x1f)\n        /* \"#utility.yul\":628:657   */\n      and\n        /* \"#utility.yul\":619:658   */\n      swap3\n      swap1\n      swap3\n      add\n        /* \"#utility.yul\":660:664   */\n      0x20\n        /* \"#utility.yul\":615:665   */\n      add\n      swap3\n        /* \"#utility.yul\":199:671   */\n      swap2\n      pop\n      pop\n      jump\t// out\n        /* \"#utility.yul\":676:1721   */\n    tag_21:\n        /* \"#utility.yul\":1040:1044   */\n      0x00\n        /* \"#utility.yul\":1069:1072   */\n      0x0120\n        /* \"#utility.yul\":1099:1105   */\n      dup12\n        /* \"#utility.yul\":1088:1097   */\n      dup4\n        /* \"#utility.yul\":1081:1106   */\n      mstore\n        /* \"#utility.yul\":1142:1144   */\n      dup1\n        /* \"#utility.yul\":1137:1139   */\n      0x20\n        /* \"#utility.yul\":1126:1135   */\n      dup5\n        /* \"#utility.yul\":1122:1140   */\n      add\n        /* \"#utility.yul\":1115:1145   */\n      mstore\n        /* \"#utility.yul\":1168:1213   */\n      tag_239\n        /* \"#utility.yul\":1209:1211   */\n      dup2\n        /* \"#utility.yul\":1198:1207   */\n      dup5\n        /* \"#utility.yul\":1194:1212   */\n      add\n        /* \"#utility.yul\":1186:1192   */\n      dup13\n        /* \"#utility.yul\":1168:1213   */\n      tag_222\n      jump\t// in\n    tag_239:\n        /* \"#utility.yul\":1154:1213   */\n      swap1\n      pop\n        /* \"#utility.yul\":1261:1270   */\n      dup3\n        /* \"#utility.yul\":1253:1259   */\n      dup2\n        /* \"#utility.yul\":1249:1271   */\n      sub\n        /* \"#utility.yul\":1244:1246   */\n      0x40\n        /* \"#utility.yul\":1233:1242   */\n      dup5\n        /* \"#utility.yul\":1229:1247   */\n      add\n        /* \"#utility.yul\":1222:1272   */\n      mstore\n        /* \"#utility.yul\":1295:1328   */\n      tag_240\n        /* \"#utility.yul\":1321:1327   */\n      dup2\n        /* \"#utility.yul\":1313:1319   */\n      dup12\n        /* \"#utility.yul\":1295:1328   */\n      tag_222\n      jump\t// in\n    tag_240:\n        /* \"#utility.yul\":1281:1328   */\n      swap1\n      pop\n        /* \"#utility.yul\":1364:1370   */\n      dup9\n        /* \"#utility.yul\":1359:1361   */\n      0x60\n        /* \"#utility.yul\":1348:1357   */\n      dup5\n        /* \"#utility.yul\":1344:1362   */\n      add\n        /* \"#utility.yul\":1337:1371   */\n      mstore\n        /* \"#utility.yul\":1408:1414   */\n      dup8\n        /* \"#utility.yul\":1402:1405   */\n      0x80\n        /* \"#utility.yul\":1391:1400   */\n      dup5\n        /* \"#utility.yul\":1387:1406   */\n      add\n        /* \"#utility.yul\":1380:1415   */\n      mstore\n        /* \"#utility.yul\":1464:1473   */\n      dup3\n        /* \"#utility.yul\":1456:1462   */\n      dup2\n        /* \"#utility.yul\":1452:1474   */\n      sub\n        /* \"#utility.yul\":1446:1449   */\n      0xa0\n        /* \"#utility.yul\":1435:1444   */\n      dup5\n        /* \"#utility.yul\":1431:1450   */\n      add\n        /* \"#utility.yul\":1424:1475   */\n      mstore\n        /* \"#utility.yul\":1492:1525   */\n      tag_241\n        /* \"#utility.yul\":1518:1524   */\n      dup2\n        /* \"#utility.yul\":1510:1516   */\n      dup9\n        /* \"#utility.yul\":1492:1525   */\n      tag_222\n      jump\t// in\n    tag_241:\n      sub(shl(0xa0, 0x01), 0x01)\n        /* \"#utility.yul\":1562:1594   */\n      swap7\n      swap1\n      swap7\n      and\n        /* \"#utility.yul\":1556:1559   */\n      0xc0\n        /* \"#utility.yul\":1541:1560   */\n      dup5\n      add\n        /* \"#utility.yul\":1534:1595   */\n      mstore\n      pop\n      pop\n        /* \"#utility.yul\":1639:1653   */\n      swap2\n      iszero\n        /* \"#utility.yul\":1632:1654   */\n      iszero\n        /* \"#utility.yul\":1626:1629   */\n      0xe0\n        /* \"#utility.yul\":1611:1630   */\n      dup4\n      add\n        /* \"#utility.yul\":1604:1655   */\n      mstore\n        /* \"#utility.yul\":1699:1713   */\n      iszero\n        /* \"#utility.yul\":1692:1714   */\n      iszero\n        /* \"#utility.yul\":1686:1689   */\n      0x0100\n        /* \"#utility.yul\":1671:1690   */\n      swap1\n      swap2\n      add\n        /* \"#utility.yul\":1664:1715   */\n      mstore\n        /* \"#utility.yul\":1484:1525   */\n      swap7\n        /* \"#utility.yul\":676:1721   */\n      swap6\n      pop\n      pop\n      pop\n      pop\n      pop\n      pop\n      jump\t// out\n        /* \"#utility.yul\":1726:1853   */\n    tag_223:\n        /* \"#utility.yul\":1787:1797   */\n      0x4e487b71\n        /* \"#utility.yul\":1782:1785   */\n      0xe0\n        /* \"#utility.yul\":1778:1798   */\n      shl\n        /* \"#utility.yul\":1775:1776   */\n      0x00\n        /* \"#utility.yul\":1768:1799   */\n      mstore\n        /* \"#utility.yul\":1818:1822   */\n      0x41\n        /* \"#utility.yul\":1815:1816   */\n      0x04\n        /* \"#utility.yul\":1808:1823   */\n      mstore\n        /* \"#utility.yul\":1842:1846   */\n      0x24\n        /* \"#utility.yul\":1839:1840   */\n      0x00\n        /* \"#utility.yul\":1832:1847   */\n      revert\n        /* \"#utility.yul\":1858:2133   */\n    tag_224:\n        /* \"#utility.yul\":1929:1931   */\n      0x40\n        /* \"#utility.yul\":1923:1932   */\n      mload\n        /* \"#utility.yul\":1994:1996   */\n      0x1f\n        /* \"#utility.yul\":1975:1988   */\n      dup3\n      add\n      not(0x1f)\n        /* \"#utility.yul\":1971:1998   */\n      and\n        /* \"#utility.yul\":1959:1999   */\n      dup2\n      add\n        /* \"#utility.yul\":2029:2047   */\n      0xffffffffffffffff\n        /* \"#utility.yul\":2014:2048   */\n      dup2\n      gt\n        /* \"#utility.yul\":2050:2072   */\n      dup3\n      dup3\n      lt\n        /* \"#utility.yul\":2011:2073   */\n      or\n        /* \"#utility.yul\":2008:2096   */\n      iszero\n      tag_245\n      jumpi\n        /* \"#utility.yul\":2076:2094   */\n      tag_245\n      tag_223\n      jump\t// in\n    tag_245:\n        /* \"#utility.yul\":2112:2114   */\n      0x40\n        /* \"#utility.yul\":2105:2127   */\n      mstore\n        /* \"#utility.yul\":1858:2133   */\n      swap2\n      swap1\n      pop\n      jump\t// out\n        /* \"#utility.yul\":2138:2545   */\n    tag_225:\n        /* \"#utility.yul\":2203:2208   */\n      0x00\n        /* \"#utility.yul\":2237:2255   */\n      0xffffffffffffffff\n        /* \"#utility.yul\":2229:2235   */\n      dup4\n        /* \"#utility.yul\":2226:2256   */\n      gt\n        /* \"#utility.yul\":2223:2279   */\n      iszero\n      tag_248\n      jumpi\n        /* \"#utility.yul\":2259:2277   */\n      tag_248\n      tag_223\n      jump\t// in\n    tag_248:\n        /* \"#utility.yul\":2297:2354   */\n      tag_249\n        /* \"#utility.yul\":2342:2344   */\n      0x1f\n        /* \"#utility.yul\":2321:2336   */\n      dup5\n      add\n      not(0x1f)\n        /* \"#utility.yul\":2317:2346   */\n      and\n        /* \"#utility.yul\":2348:2352   */\n      0x20\n        /* \"#utility.yul\":2313:2353   */\n      add\n        /* \"#utility.yul\":2297:2354   */\n      tag_224\n      jump\t// in\n    tag_249:\n        /* \"#utility.yul\":2288:2354   */\n      swap1\n      pop\n        /* \"#utility.yul\":2377:2383   */\n      dup3\n        /* \"#utility.yul\":2370:2375   */\n      dup2\n        /* \"#utility.yul\":2363:2384   */\n      mstore\n        /* \"#utility.yul\":2417:2420   */\n      dup4\n        /* \"#utility.yul\":2408:2414   */\n      dup4\n        /* \"#utility.yul\":2403:2406   */\n      dup4\n        /* \"#utility.yul\":2399:2415   */\n      add\n        /* \"#utility.yul\":2396:2421   */\n      gt\n        /* \"#utility.yul\":2393:2438   */\n      iszero\n      tag_250\n      jumpi\n        /* \"#utility.yul\":2434:2435   */\n      0x00\n        /* \"#utility.yul\":2431:2432   */\n      dup1\n        /* \"#utility.yul\":2424:2436   */\n      revert\n        /* \"#utility.yul\":2393:2438   */\n    tag_250:\n        /* \"#utility.yul\":2483:2489   */\n      dup3\n        /* \"#utility.yul\":2478:2481   */\n      dup3\n        /* \"#utility.yul\":2471:2475   */\n      0x20\n        /* \"#utility.yul\":2464:2469   */\n      dup4\n        /* \"#utility.yul\":2460:2476   */\n      add\n        /* \"#utility.yul\":2447:2490   */\n      calldatacopy\n        /* \"#utility.yul\":2537:2538   */\n      0x00\n        /* \"#utility.yul\":2530:2534   */\n      0x20\n        /* \"#utility.yul\":2521:2527   */\n      dup5\n        /* \"#utility.yul\":2514:2519   */\n      dup4\n        /* \"#utility.yul\":2510:2528   */\n      add\n        /* \"#utility.yul\":2506:2535   */\n      add\n        /* \"#utility.yul\":2499:2539   */\n      mstore\n        /* \"#utility.yul\":2138:2545   */\n      swap4\n      swap3\n      pop\n      pop\n      pop\n      jump\t// out\n        /* \"#utility.yul\":2550:2772   */\n    tag_226:\n        /* \"#utility.yul\":2593:2598   */\n      0x00\n        /* \"#utility.yul\":2646:2649   */\n      dup3\n        /* \"#utility.yul\":2639:2643   */\n      0x1f\n        /* \"#utility.yul\":2631:2637   */\n      dup4\n        /* \"#utility.yul\":2627:2644   */\n      add\n        /* \"#utility.yul\":2623:2650   */\n      slt\n        /* \"#utility.yul\":2613:2668   */\n      tag_252\n      jumpi\n        /* \"#utility.yul\":2664:2665   */\n      0x00\n        /* \"#utility.yul\":2661:2662   */\n      dup1\n        /* \"#utility.yul\":2654:2666   */\n      revert\n        /* \"#utility.yul\":2613:2668   */\n    tag_252:\n        /* \"#utility.yul\":2686:2766   */\n      tag_253\n        /* \"#utility.yul\":2762:2765   */\n      dup4\n        /* \"#utility.yul\":2753:2759   */\n      dup4\n        /* \"#utility.yul\":2740:2760   */\n      calldataload\n        /* \"#utility.yul\":2733:2737   */\n      0x20\n        /* \"#utility.yul\":2725:2731   */\n      dup6\n        /* \"#utility.yul\":2721:2738   */\n      add\n        /* \"#utility.yul\":2686:2766   */\n      tag_225\n      jump\t// in\n    tag_253:\n        /* \"#utility.yul\":2677:2766   */\n      swap4\n        /* \"#utility.yul\":2550:2772   */\n      swap3\n      pop\n      pop\n      pop\n      jump\t// out\n        /* \"#utility.yul\":2777:3720   */\n    tag_227:\n        /* \"#utility.yul\":2830:2835   */\n      0x00\n        /* \"#utility.yul\":2883:2886   */\n      dup3\n        /* \"#utility.yul\":2876:2880   */\n      0x1f\n        /* \"#utility.yul\":2868:2874   */\n      dup4\n        /* \"#utility.yul\":2864:2881   */\n      add\n        /* \"#utility.yul\":2860:2887   */\n      slt\n        /* \"#utility.yul\":2850:2905   */\n      tag_255\n      jumpi\n        /* \"#utility.yul\":2901:2902   */\n      0x00\n        /* \"#utility.yul\":2898:2899   */\n      dup1\n        /* \"#utility.yul\":2891:2903   */\n      revert\n        /* \"#utility.yul\":2850:2905   */\n    tag_255:\n        /* \"#utility.yul\":2937:2943   */\n      dup2\n        /* \"#utility.yul\":2924:2944   */\n      calldataload\n        /* \"#utility.yul\":2963:2967   */\n      0x20\n        /* \"#utility.yul\":2986:3004   */\n      0xffffffffffffffff\n        /* \"#utility.yul\":3023:3025   */\n      dup1\n        /* \"#utility.yul\":3019:3021   */\n      dup4\n        /* \"#utility.yul\":3016:3026   */\n      gt\n        /* \"#utility.yul\":3013:3049   */\n      iszero\n      tag_257\n      jumpi\n        /* \"#utility.yul\":3029:3047   */\n      tag_257\n      tag_223\n      jump\t// in\n    tag_257:\n        /* \"#utility.yul\":3075:3077   */\n      dup3\n        /* \"#utility.yul\":3072:3073   */\n      0x05\n        /* \"#utility.yul\":3068:3078   */\n      shl\n        /* \"#utility.yul\":3098:3126   */\n      tag_258\n        /* \"#utility.yul\":3122:3124   */\n      dup4\n        /* \"#utility.yul\":3118:3120   */\n      dup3\n        /* \"#utility.yul\":3114:3125   */\n      add\n        /* \"#utility.yul\":3098:3126   */\n      tag_224\n      jump\t// in\n    tag_258:\n        /* \"#utility.yul\":3160:3175   */\n      swap4\n      dup5\n      mstore\n        /* \"#utility.yul\":3230:3245   */\n      dup6\n      dup2\n      add\n        /* \"#utility.yul\":3226:3250   */\n      dup4\n      add\n      swap4\n        /* \"#utility.yul\":3191:3203   */\n      dup4\n      dup2\n      add\n      swap1\n        /* \"#utility.yul\":3262:3277   */\n      dup9\n      dup7\n      gt\n        /* \"#utility.yul\":3259:3294   */\n      iszero\n      tag_259\n      jumpi\n        /* \"#utility.yul\":3290:3291   */\n      0x00\n        /* \"#utility.yul\":3287:3288   */\n      dup1\n        /* \"#utility.yul\":3280:3292   */\n      revert\n        /* \"#utility.yul\":3259:3294   */\n    tag_259:\n        /* \"#utility.yul\":3326:3328   */\n      dup5\n        /* \"#utility.yul\":3318:3324   */\n      dup9\n        /* \"#utility.yul\":3314:3329   */\n      add\n        /* \"#utility.yul\":3303:3329   */\n      swap3\n      pop\n        /* \"#utility.yul\":3338:3691   */\n    tag_260:\n        /* \"#utility.yul\":3354:3360   */\n      dup6\n        /* \"#utility.yul\":3349:3352   */\n      dup4\n        /* \"#utility.yul\":3346:3361   */\n      lt\n        /* \"#utility.yul\":3338:3691   */\n      iszero\n      tag_262\n      jumpi\n        /* \"#utility.yul\":3440:3443   */\n      dup3\n        /* \"#utility.yul\":3427:3444   */\n      calldataload\n        /* \"#utility.yul\":3476:3478   */\n      dup5\n        /* \"#utility.yul\":3463:3474   */\n      dup2\n        /* \"#utility.yul\":3460:3479   */\n      gt\n        /* \"#utility.yul\":3457:3566   */\n      iszero\n      tag_263\n      jumpi\n        /* \"#utility.yul\":3520:3521   */\n      0x00\n        /* \"#utility.yul\":3549:3551   */\n      dup1\n        /* \"#utility.yul\":3545:3547   */\n      dup2\n        /* \"#utility.yul\":3538:3552   */\n      revert\n        /* \"#utility.yul\":3457:3566   */\n    tag_263:\n        /* \"#utility.yul\":3591:3648   */\n      tag_264\n        /* \"#utility.yul\":3644:3647   */\n      dup11\n        /* \"#utility.yul\":3639:3641   */\n      dup8\n        /* \"#utility.yul\":3625:3636   */\n      dup4\n        /* \"#utility.yul\":3617:3623   */\n      dup13\n        /* \"#utility.yul\":3613:3637   */\n      add\n        /* \"#utility.yul\":3609:3642   */\n      add\n        /* \"#utility.yul\":3591:3648   */\n      tag_226\n      jump\t// in\n    tag_264:\n        /* \"#utility.yul\":3579:3649   */\n      dup4\n      mstore\n      pop\n        /* \"#utility.yul\":3371:3383   */\n      swap2\n      dup5\n      add\n      swap2\n        /* \"#utility.yul\":3669:3681   */\n      swap1\n      dup5\n      add\n      swap1\n        /* \"#utility.yul\":3338:3691   */\n      jump(tag_260)\n    tag_262:\n        /* \"#utility.yul\":3709:3714   */\n      swap9\n        /* \"#utility.yul\":2777:3720   */\n      swap8\n      pop\n      pop\n      pop\n      pop\n      pop\n      pop\n      pop\n      pop\n      jump\t// out\n        /* \"#utility.yul\":3725:4842   */\n    tag_24:\n        /* \"#utility.yul\":3894:3900   */\n      0x00\n        /* \"#utility.yul\":3902:3908   */\n      dup1\n        /* \"#utility.yul\":3910:3916   */\n      0x00\n        /* \"#utility.yul\":3918:3924   */\n      dup1\n        /* \"#utility.yul\":3926:3932   */\n      0x00\n        /* \"#utility.yul\":3934:3940   */\n      dup1\n        /* \"#utility.yul\":3987:3990   */\n      0xc0\n        /* \"#utility.yul\":3975:3984   */\n      dup8\n        /* \"#utility.yul\":3966:3973   */\n      dup10\n        /* \"#utility.yul\":3962:3985   */\n      sub\n        /* \"#utility.yul\":3958:3991   */\n      slt\n        /* \"#utility.yul\":3955:4008   */\n      iszero\n      tag_266\n      jumpi\n        /* \"#utility.yul\":4004:4005   */\n      0x00\n        /* \"#utility.yul\":4001:4002   */\n      dup1\n        /* \"#utility.yul\":3994:4006   */\n      revert\n        /* \"#utility.yul\":3955:4008   */\n    tag_266:\n        /* \"#utility.yul\":4044:4053   */\n      dup7\n        /* \"#utility.yul\":4031:4054   */\n      calldataload\n        /* \"#utility.yul\":4073:4091   */\n      0xffffffffffffffff\n        /* \"#utility.yul\":4114:4116   */\n      dup1\n        /* \"#utility.yul\":4106:4112   */\n      dup3\n        /* \"#utility.yul\":4103:4117   */\n      gt\n        /* \"#utility.yul\":4100:4134   */\n      iszero\n      tag_267\n      jumpi\n        /* \"#utility.yul\":4130:4131   */\n      0x00\n        /* \"#utility.yul\":4127:4128   */\n      dup1\n        /* \"#utility.yul\":4120:4132   */\n      revert\n        /* \"#utility.yul\":4100:4134   */\n    tag_267:\n        /* \"#utility.yul\":4153:4203   */\n      tag_268\n        /* \"#utility.yul\":4195:4202   */\n      dup11\n        /* \"#utility.yul\":4186:4192   */\n      dup4\n        /* \"#utility.yul\":4175:4184   */\n      dup12\n        /* \"#utility.yul\":4171:4193   */\n      add\n        /* \"#utility.yul\":4153:4203   */\n      tag_226\n      jump\t// in\n    tag_268:\n        /* \"#utility.yul\":4143:4203   */\n      swap8\n      pop\n        /* \"#utility.yul\":4256:4258   */\n      0x20\n        /* \"#utility.yul\":4245:4254   */\n      dup10\n        /* \"#utility.yul\":4241:4259   */\n      add\n        /* \"#utility.yul\":4228:4260   */\n      calldataload\n        /* \"#utility.yul\":4212:4260   */\n      swap2\n      pop\n        /* \"#utility.yul\":4285:4287   */\n      dup1\n        /* \"#utility.yul\":4275:4283   */\n      dup3\n        /* \"#utility.yul\":4272:4288   */\n      gt\n        /* \"#utility.yul\":4269:4305   */\n      iszero\n      tag_269\n      jumpi\n        /* \"#utility.yul\":4301:4302   */\n      0x00\n        /* \"#utility.yul\":4298:4299   */\n      dup1\n        /* \"#utility.yul\":4291:4303   */\n      revert\n        /* \"#utility.yul\":4269:4305   */\n    tag_269:\n        /* \"#utility.yul\":4324:4376   */\n      tag_270\n        /* \"#utility.yul\":4368:4375   */\n      dup11\n        /* \"#utility.yul\":4357:4365   */\n      dup4\n        /* \"#utility.yul\":4346:4355   */\n      dup12\n        /* \"#utility.yul\":4342:4366   */\n      add\n        /* \"#utility.yul\":4324:4376   */\n      tag_226\n      jump\t// in\n    tag_270:\n        /* \"#utility.yul\":4314:4376   */\n      swap7\n      pop\n        /* \"#utility.yul\":4423:4425   */\n      0x40\n        /* \"#utility.yul\":4412:4421   */\n      dup10\n        /* \"#utility.yul\":4408:4426   */\n      add\n        /* \"#utility.yul\":4395:4427   */\n      calldataload\n        /* \"#utility.yul\":4385:4427   */\n      swap6\n      pop\n        /* \"#utility.yul\":4474:4476   */\n      0x60\n        /* \"#utility.yul\":4463:4472   */\n      dup10\n        /* \"#utility.yul\":4459:4477   */\n      add\n        /* \"#utility.yul\":4446:4478   */\n      calldataload\n        /* \"#utility.yul\":4436:4478   */\n      swap5\n      pop\n        /* \"#utility.yul\":4531:4534   */\n      0x80\n        /* \"#utility.yul\":4520:4529   */\n      dup10\n        /* \"#utility.yul\":4516:4535   */\n      add\n        /* \"#utility.yul\":4503:4536   */\n      calldataload\n        /* \"#utility.yul\":4487:4536   */\n      swap2\n      pop\n        /* \"#utility.yul\":4561:4563   */\n      dup1\n        /* \"#utility.yul\":4551:4559   */\n      dup3\n        /* \"#utility.yul\":4548:4564   */\n      gt\n        /* \"#utility.yul\":4545:4581   */\n      iszero\n      tag_271\n      jumpi\n        /* \"#utility.yul\":4577:4578   */\n      0x00\n        /* \"#utility.yul\":4574:4575   */\n      dup1\n        /* \"#utility.yul\":4567:4579   */\n      revert\n        /* \"#utility.yul\":4545:4581   */\n    tag_271:\n        /* \"#utility.yul\":4600:4652   */\n      tag_272\n        /* \"#utility.yul\":4644:4651   */\n      dup11\n        /* \"#utility.yul\":4633:4641   */\n      dup4\n        /* \"#utility.yul\":4622:4631   */\n      dup12\n        /* \"#utility.yul\":4618:4642   */\n      add\n        /* \"#utility.yul\":4600:4652   */\n      tag_226\n      jump\t// in\n    tag_272:\n        /* \"#utility.yul\":4590:4652   */\n      swap4\n      pop\n        /* \"#utility.yul\":4705:4708   */\n      0xa0\n        /* \"#utility.yul\":4694:4703   */\n      dup10\n        /* \"#utility.yul\":4690:4709   */\n      add\n        /* \"#utility.yul\":4677:4710   */\n      calldataload\n        /* \"#utility.yul\":4661:4710   */\n      swap2\n      pop\n        /* \"#utility.yul\":4735:4737   */\n      dup1\n        /* \"#utility.yul\":4725:4733   */\n      dup3\n        /* \"#utility.yul\":4722:4738   */\n      gt\n        /* \"#utility.yul\":4719:4755   */\n      iszero\n      tag_273\n      jumpi\n        /* \"#utility.yul\":4751:4752   */\n      0x00\n        /* \"#utility.yul\":4748:4749   */\n      dup1\n        /* \"#utility.yul\":4741:4753   */\n      revert\n        /* \"#utility.yul\":4719:4755   */\n    tag_273:\n      pop\n        /* \"#utility.yul\":4774:4836   */\n      tag_274\n        /* \"#utility.yul\":4828:4835   */\n      dup10\n        /* \"#utility.yul\":4817:4825   */\n      dup3\n        /* \"#utility.yul\":4806:4815   */\n      dup11\n        /* \"#utility.yul\":4802:4826   */\n      add\n        /* \"#utility.yul\":4774:4836   */\n      tag_227\n      jump\t// in\n    tag_274:\n        /* \"#utility.yul\":4764:4836   */\n      swap2\n      pop\n      pop\n        /* \"#utility.yul\":3725:4842   */\n      swap3\n      swap6\n      pop\n      swap3\n      swap6\n      pop\n      swap3\n      swap6\n      jump\t// out\n        /* \"#utility.yul\":4847:5020   */\n    tag_228:\n        /* \"#utility.yul\":4915:4935   */\n      dup1\n      calldataload\n      sub(shl(0xa0, 0x01), 0x01)\n        /* \"#utility.yul\":4964:4995   */\n      dup2\n      and\n        /* \"#utility.yul\":4954:4996   */\n      dup2\n      eq\n        /* \"#utility.yul\":4944:5014   */\n      tag_276\n      jumpi\n        /* \"#utility.yul\":5010:5011   */\n      0x00\n        /* \"#utility.yul\":5007:5008   */\n      dup1\n        /* \"#utility.yul\":5000:5012   */\n      revert\n        /* \"#utility.yul\":4944:5014   */\n    tag_276:\n        /* \"#utility.yul\":4847:5020   */\n      swap2\n      swap1\n      pop\n      jump\t// out\n        /* \"#utility.yul\":5025:5211   */\n    tag_30:\n        /* \"#utility.yul\":5084:5090   */\n      0x00\n        /* \"#utility.yul\":5137:5139   */\n      0x20\n        /* \"#utility.yul\":5125:5134   */\n      dup3\n        /* \"#utility.yul\":5116:5123   */\n      dup5\n        /* \"#utility.yul\":5112:5135   */\n      sub\n        /* \"#utility.yul\":5108:5140   */\n      slt\n        /* \"#utility.yul\":5105:5157   */\n      iszero\n      tag_278\n      jumpi\n        /* \"#utility.yul\":5153:5154   */\n      0x00\n        /* \"#utility.yul\":5150:5151   */\n      dup1\n        /* \"#utility.yul\":5143:5155   */\n      revert\n        /* \"#utility.yul\":5105:5157   */\n    tag_278:\n        /* \"#utility.yul\":5176:5205   */\n      tag_253\n        /* \"#utility.yul\":5195:5204   */\n      dup3\n        /* \"#utility.yul\":5176:5205   */\n      tag_228\n      jump\t// in\n        /* \"#utility.yul\":5408:5526   */\n    tag_229:\n        /* \"#utility.yul\":5494:5499   */\n      dup1\n        /* \"#utility.yul\":5487:5500   */\n      iszero\n        /* \"#utility.yul\":5480:5501   */\n      iszero\n        /* \"#utility.yul\":5473:5478   */\n      dup2\n        /* \"#utility.yul\":5470:5502   */\n      eq\n        /* \"#utility.yul\":5460:5520   */\n      tag_100\n      jumpi\n        /* \"#utility.yul\":5516:5517   */\n      0x00\n        /* \"#utility.yul\":5513:5514   */\n      dup1\n        /* \"#utility.yul\":5506:5518   */\n      revert\n        /* \"#utility.yul\":5531:5846   */\n    tag_36:\n        /* \"#utility.yul\":5596:5602   */\n      0x00\n        /* \"#utility.yul\":5604:5610   */\n      dup1\n        /* \"#utility.yul\":5657:5659   */\n      0x40\n        /* \"#utility.yul\":5645:5654   */\n      dup4\n        /* \"#utility.yul\":5636:5643   */\n      dup6\n        /* \"#utility.yul\":5632:5655   */\n      sub\n        /* \"#utility.yul\":5628:5660   */\n      slt\n        /* \"#utility.yul\":5625:5677   */\n      iszero\n      tag_284\n      jumpi\n        /* \"#utility.yul\":5673:5674   */\n      0x00\n        /* \"#utility.yul\":5670:5671   */\n      dup1\n        /* \"#utility.yul\":5663:5675   */\n      revert\n        /* \"#utility.yul\":5625:5677   */\n    tag_284:\n        /* \"#utility.yul\":5696:5725   */\n      tag_285\n        /* \"#utility.yul\":5715:5724   */\n      dup4\n        /* \"#utility.yul\":5696:5725   */\n      tag_228\n      jump\t// in\n    tag_285:\n        /* \"#utility.yul\":5686:5725   */\n      swap2\n      pop\n        /* \"#utility.yul\":5775:5777   */\n      0x20\n        /* \"#utility.yul\":5764:5773   */\n      dup4\n        /* \"#utility.yul\":5760:5778   */\n      add\n        /* \"#utility.yul\":5747:5779   */\n      calldataload\n        /* \"#utility.yul\":5788:5816   */\n      tag_286\n        /* \"#utility.yul\":5810:5815   */\n      dup2\n        /* \"#utility.yul\":5788:5816   */\n      tag_229\n      jump\t// in\n    tag_286:\n        /* \"#utility.yul\":5835:5840   */\n      dup1\n        /* \"#utility.yul\":5825:5840   */\n      swap2\n      pop\n      pop\n        /* \"#utility.yul\":5531:5846   */\n      swap3\n      pop\n      swap3\n      swap1\n      pop\n      jump\t// out\n        /* \"#utility.yul\":6241:6902   */\n    tag_51:\n        /* \"#utility.yul\":6336:6342   */\n      0x00\n        /* \"#utility.yul\":6344:6350   */\n      dup1\n        /* \"#utility.yul\":6352:6358   */\n      0x00\n        /* \"#utility.yul\":6360:6366   */\n      dup1\n        /* \"#utility.yul\":6413:6416   */\n      0x80\n        /* \"#utility.yul\":6401:6410   */\n      dup6\n        /* \"#utility.yul\":6392:6399   */\n      dup8\n        /* \"#utility.yul\":6388:6411   */\n      sub\n        /* \"#utility.yul\":6384:6417   */\n      slt\n        /* \"#utility.yul\":6381:6434   */\n      iszero\n      tag_290\n      jumpi\n        /* \"#utility.yul\":6430:6431   */\n      0x00\n        /* \"#utility.yul\":6427:6428   */\n      dup1\n        /* \"#utility.yul\":6420:6432   */\n      revert\n        /* \"#utility.yul\":6381:6434   */\n    tag_290:\n        /* \"#utility.yul\":6453:6482   */\n      tag_291\n        /* \"#utility.yul\":6472:6481   */\n      dup6\n        /* \"#utility.yul\":6453:6482   */\n      tag_228\n      jump\t// in\n    tag_291:\n        /* \"#utility.yul\":6443:6482   */\n      swap4\n      pop\n        /* \"#utility.yul\":6529:6531   */\n      0x20\n        /* \"#utility.yul\":6518:6527   */\n      dup6\n        /* \"#utility.yul\":6514:6532   */\n      add\n        /* \"#utility.yul\":6501:6533   */\n      calldataload\n        /* \"#utility.yul\":6491:6533   */\n      swap3\n      pop\n        /* \"#utility.yul\":6580:6582   */\n      0x40\n        /* \"#utility.yul\":6569:6578   */\n      dup6\n        /* \"#utility.yul\":6565:6583   */\n      add\n        /* \"#utility.yul\":6552:6584   */\n      calldataload\n        /* \"#utility.yul\":6542:6584   */\n      swap2\n      pop\n        /* \"#utility.yul\":6635:6637   */\n      0x60\n        /* \"#utility.yul\":6624:6633   */\n      dup6\n        /* \"#utility.yul\":6620:6638   */\n      add\n        /* \"#utility.yul\":6607:6639   */\n      calldataload\n        /* \"#utility.yul\":6662:6680   */\n      0xffffffffffffffff\n        /* \"#utility.yul\":6654:6660   */\n      dup2\n        /* \"#utility.yul\":6651:6681   */\n      gt\n        /* \"#utility.yul\":6648:6698   */\n      iszero\n      tag_292\n      jumpi\n        /* \"#utility.yul\":6694:6695   */\n      0x00\n        /* \"#utility.yul\":6691:6692   */\n      dup1\n        /* \"#utility.yul\":6684:6696   */\n      revert\n        /* \"#utility.yul\":6648:6698   */\n    tag_292:\n        /* \"#utility.yul\":6717:6739   */\n      dup6\n      add\n        /* \"#utility.yul\":6770:6774   */\n      0x1f\n        /* \"#utility.yul\":6762:6775   */\n      dup2\n      add\n        /* \"#utility.yul\":6758:6785   */\n      dup8\n      sgt\n        /* \"#utility.yul\":6748:6803   */\n      tag_293\n      jumpi\n        /* \"#utility.yul\":6799:6800   */\n      0x00\n        /* \"#utility.yul\":6796:6797   */\n      dup1\n        /* \"#utility.yul\":6789:6801   */\n      revert\n        /* \"#utility.yul\":6748:6803   */\n    tag_293:\n        /* \"#utility.yul\":6822:6896   */\n      tag_294\n        /* \"#utility.yul\":6888:6895   */\n      dup8\n        /* \"#utility.yul\":6883:6885   */\n      dup3\n        /* \"#utility.yul\":6870:6886   */\n      calldataload\n        /* \"#utility.yul\":6865:6867   */\n      0x20\n        /* \"#utility.yul\":6861:6863   */\n      dup5\n        /* \"#utility.yul\":6857:6868   */\n      add\n        /* \"#utility.yul\":6822:6896   */\n      tag_225\n      jump\t// in\n    tag_294:\n        /* \"#utility.yul\":6812:6896   */\n      swap2\n      pop\n      pop\n        /* \"#utility.yul\":6241:6902   */\n      swap3\n      swap6\n      swap2\n      swap5\n      pop\n      swap3\n      pop\n      jump\t// out\n        /* \"#utility.yul\":6907:7161   */\n    tag_55:\n        /* \"#utility.yul\":6975:6981   */\n      0x00\n        /* \"#utility.yul\":6983:6989   */\n      dup1\n        /* \"#utility.yul\":7036:7038   */\n      0x40\n        /* \"#utility.yul\":7024:7033   */\n      dup4\n        /* \"#utility.yul\":7015:7022   */\n      dup6\n        /* \"#utility.yul\":7011:7034   */\n      sub\n        /* \"#utility.yul\":7007:7039   */\n      slt\n        /* \"#utility.yul\":7004:7056   */\n      iszero\n      tag_296\n      jumpi\n        /* \"#utility.yul\":7052:7053   */\n      0x00\n        /* \"#utility.yul\":7049:7050   */\n      dup1\n        /* \"#utility.yul\":7042:7054   */\n      revert\n        /* \"#utility.yul\":7004:7056   */\n    tag_296:\n        /* \"#utility.yul\":7075:7104   */\n      tag_297\n        /* \"#utility.yul\":7094:7103   */\n      dup4\n        /* \"#utility.yul\":7075:7104   */\n      tag_228\n      jump\t// in\n    tag_297:\n        /* \"#utility.yul\":7065:7104   */\n      swap5\n        /* \"#utility.yul\":7151:7153   */\n      0x20\n        /* \"#utility.yul\":7136:7154   */\n      swap4\n      swap1\n      swap4\n      add\n        /* \"#utility.yul\":7123:7155   */\n      calldataload\n      swap4\n      pop\n      pop\n      pop\n        /* \"#utility.yul\":6907:7161   */\n      jump\t// out\n        /* \"#utility.yul\":7166:8352   */\n    tag_59:\n        /* \"#utility.yul\":7344:7350   */\n      0x00\n        /* \"#utility.yul\":7352:7358   */\n      dup1\n        /* \"#utility.yul\":7360:7366   */\n      0x00\n        /* \"#utility.yul\":7368:7374   */\n      dup1\n        /* \"#utility.yul\":7376:7382   */\n      0x00\n        /* \"#utility.yul\":7384:7390   */\n      dup1\n        /* \"#utility.yul\":7392:7398   */\n      0x00\n        /* \"#utility.yul\":7445:7448   */\n      0xe0\n        /* \"#utility.yul\":7433:7442   */\n      dup9\n        /* \"#utility.yul\":7424:7431   */\n      dup11\n        /* \"#utility.yul\":7420:7443   */\n      sub\n        /* \"#utility.yul\":7416:7449   */\n      slt\n        /* \"#utility.yul\":7413:7466   */\n      iszero\n      tag_299\n      jumpi\n        /* \"#utility.yul\":7462:7463   */\n      0x00\n        /* \"#utility.yul\":7459:7460   */\n      dup1\n        /* \"#utility.yul\":7452:7464   */\n      revert\n        /* \"#utility.yul\":7413:7466   */\n    tag_299:\n        /* \"#utility.yul\":7498:7507   */\n      dup8\n        /* \"#utility.yul\":7485:7508   */\n      calldataload\n        /* \"#utility.yul\":7475:7508   */\n      swap7\n      pop\n        /* \"#utility.yul\":7559:7561   */\n      0x20\n        /* \"#utility.yul\":7548:7557   */\n      dup9\n        /* \"#utility.yul\":7544:7562   */\n      add\n        /* \"#utility.yul\":7531:7563   */\n      calldataload\n        /* \"#utility.yul\":7582:7600   */\n      0xffffffffffffffff\n        /* \"#utility.yul\":7623:7625   */\n      dup1\n        /* \"#utility.yul\":7615:7621   */\n      dup3\n        /* \"#utility.yul\":7612:7626   */\n      gt\n        /* \"#utility.yul\":7609:7643   */\n      iszero\n      tag_300\n      jumpi\n        /* \"#utility.yul\":7639:7640   */\n      0x00\n        /* \"#utility.yul\":7636:7637   */\n      dup1\n        /* \"#utility.yul\":7629:7641   */\n      revert\n        /* \"#utility.yul\":7609:7643   */\n    tag_300:\n        /* \"#utility.yul\":7662:7712   */\n      tag_301\n        /* \"#utility.yul\":7704:7711   */\n      dup12\n        /* \"#utility.yul\":7695:7701   */\n      dup4\n        /* \"#utility.yul\":7684:7693   */\n      dup13\n        /* \"#utility.yul\":7680:7702   */\n      add\n        /* \"#utility.yul\":7662:7712   */\n      tag_226\n      jump\t// in\n    tag_301:\n        /* \"#utility.yul\":7652:7712   */\n      swap8\n      pop\n        /* \"#utility.yul\":7765:7767   */\n      0x40\n        /* \"#utility.yul\":7754:7763   */\n      dup11\n        /* \"#utility.yul\":7750:7768   */\n      add\n        /* \"#utility.yul\":7737:7769   */\n      calldataload\n        /* \"#utility.yul\":7721:7769   */\n      swap2\n      pop\n        /* \"#utility.yul\":7794:7796   */\n      dup1\n        /* \"#utility.yul\":7784:7792   */\n      dup3\n        /* \"#utility.yul\":7781:7797   */\n      gt\n        /* \"#utility.yul\":7778:7814   */\n      iszero\n      tag_302\n      jumpi\n        /* \"#utility.yul\":7810:7811   */\n      0x00\n        /* \"#utility.yul\":7807:7808   */\n      dup1\n        /* \"#utility.yul\":7800:7812   */\n      revert\n        /* \"#utility.yul\":7778:7814   */\n    tag_302:\n        /* \"#utility.yul\":7833:7885   */\n      tag_303\n        /* \"#utility.yul\":7877:7884   */\n      dup12\n        /* \"#utility.yul\":7866:7874   */\n      dup4\n        /* \"#utility.yul\":7855:7864   */\n      dup13\n        /* \"#utility.yul\":7851:7875   */\n      add\n        /* \"#utility.yul\":7833:7885   */\n      tag_226\n      jump\t// in\n    tag_303:\n        /* \"#utility.yul\":7823:7885   */\n      swap7\n      pop\n        /* \"#utility.yul\":7932:7934   */\n      0x60\n        /* \"#utility.yul\":7921:7930   */\n      dup11\n        /* \"#utility.yul\":7917:7935   */\n      add\n        /* \"#utility.yul\":7904:7936   */\n      calldataload\n        /* \"#utility.yul\":7894:7936   */\n      swap6\n      pop\n        /* \"#utility.yul\":7983:7986   */\n      0x80\n        /* \"#utility.yul\":7972:7981   */\n      dup11\n        /* \"#utility.yul\":7968:7987   */\n      add\n        /* \"#utility.yul\":7955:7988   */\n      calldataload\n        /* \"#utility.yul\":7945:7988   */\n      swap5\n      pop\n        /* \"#utility.yul\":8041:8044   */\n      0xa0\n        /* \"#utility.yul\":8030:8039   */\n      dup11\n        /* \"#utility.yul\":8026:8045   */\n      add\n        /* \"#utility.yul\":8013:8046   */\n      calldataload\n        /* \"#utility.yul\":7997:8046   */\n      swap2\n      pop\n        /* \"#utility.yul\":8071:8073   */\n      dup1\n        /* \"#utility.yul\":8061:8069   */\n      dup3\n        /* \"#utility.yul\":8058:8074   */\n      gt\n        /* \"#utility.yul\":8055:8091   */\n      iszero\n      tag_304\n      jumpi\n        /* \"#utility.yul\":8087:8088   */\n      0x00\n        /* \"#utility.yul\":8084:8085   */\n      dup1\n        /* \"#utility.yul\":8077:8089   */\n      revert\n        /* \"#utility.yul\":8055:8091   */\n    tag_304:\n        /* \"#utility.yul\":8110:8162   */\n      tag_305\n        /* \"#utility.yul\":8154:8161   */\n      dup12\n        /* \"#utility.yul\":8143:8151   */\n      dup4\n        /* \"#utility.yul\":8132:8141   */\n      dup13\n        /* \"#utility.yul\":8128:8152   */\n      add\n        /* \"#utility.yul\":8110:8162   */\n      tag_226\n      jump\t// in\n    tag_305:\n        /* \"#utility.yul\":8100:8162   */\n      swap4\n      pop\n        /* \"#utility.yul\":8215:8218   */\n      0xc0\n        /* \"#utility.yul\":8204:8213   */\n      dup11\n        /* \"#utility.yul\":8200:8219   */\n      add\n        /* \"#utility.yul\":8187:8220   */\n      calldataload\n        /* \"#utility.yul\":8171:8220   */\n      swap2\n      pop\n        /* \"#utility.yul\":8245:8247   */\n      dup1\n        /* \"#utility.yul\":8235:8243   */\n      dup3\n        /* \"#utility.yul\":8232:8248   */\n      gt\n        /* \"#utility.yul\":8229:8265   */\n      iszero\n      tag_306\n      jumpi\n        /* \"#utility.yul\":8261:8262   */\n      0x00\n        /* \"#utility.yul\":8258:8259   */\n      dup1\n        /* \"#utility.yul\":8251:8263   */\n      revert\n        /* \"#utility.yul\":8229:8265   */\n    tag_306:\n      pop\n        /* \"#utility.yul\":8284:8346   */\n      tag_307\n        /* \"#utility.yul\":8338:8345   */\n      dup11\n        /* \"#utility.yul\":8327:8335   */\n      dup3\n        /* \"#utility.yul\":8316:8325   */\n      dup12\n        /* \"#utility.yul\":8312:8336   */\n      add\n        /* \"#utility.yul\":8284:8346   */\n      tag_227\n      jump\t// in\n    tag_307:\n        /* \"#utility.yul\":8274:8346   */\n      swap2\n      pop\n      pop\n        /* \"#utility.yul\":7166:8352   */\n      swap3\n      swap6\n      swap9\n      swap2\n      swap5\n      swap8\n      pop\n      swap3\n      swap6\n      pop\n      jump\t// out\n        /* \"#utility.yul\":8357:8737   */\n    tag_65:\n        /* \"#utility.yul\":8436:8437   */\n      0x01\n        /* \"#utility.yul\":8432:8444   */\n      dup2\n      dup2\n      shr\n      swap1\n        /* \"#utility.yul\":8479:8491   */\n      dup3\n      and\n      dup1\n        /* \"#utility.yul\":8500:8561   */\n      tag_309\n      jumpi\n        /* \"#utility.yul\":8554:8558   */\n      0x7f\n        /* \"#utility.yul\":8546:8552   */\n      dup3\n        /* \"#utility.yul\":8542:8559   */\n      and\n        /* \"#utility.yul\":8532:8559   */\n      swap2\n      pop\n        /* \"#utility.yul\":8500:8561   */\n    tag_309:\n        /* \"#utility.yul\":8607:8609   */\n      0x20\n        /* \"#utility.yul\":8599:8605   */\n      dup3\n        /* \"#utility.yul\":8596:8610   */\n      lt\n        /* \"#utility.yul\":8576:8594   */\n      dup2\n        /* \"#utility.yul\":8573:8611   */\n      sub\n        /* \"#utility.yul\":8570:8731   */\n      tag_310\n      jumpi\n        /* \"#utility.yul\":8653:8663   */\n      0x4e487b71\n        /* \"#utility.yul\":8648:8651   */\n      0xe0\n        /* \"#utility.yul\":8644:8664   */\n      shl\n        /* \"#utility.yul\":8641:8642   */\n      0x00\n        /* \"#utility.yul\":8634:8665   */\n      mstore\n        /* \"#utility.yul\":8688:8692   */\n      0x22\n        /* \"#utility.yul\":8685:8686   */\n      0x04\n        /* \"#utility.yul\":8678:8693   */\n      mstore\n        /* \"#utility.yul\":8716:8720   */\n      0x24\n        /* \"#utility.yul\":8713:8714   */\n      0x00\n        /* \"#utility.yul\":8706:8721   */\n      revert\n        /* \"#utility.yul\":8570:8731   */\n    tag_310:\n      pop\n        /* \"#utility.yul\":8357:8737   */\n      swap2\n      swap1\n      pop\n      jump\t// out\n        /* \"#utility.yul\":8742:8974   */\n    tag_92:\n        /* \"#utility.yul\":8781:8784   */\n      0x00\n        /* \"#utility.yul\":8802:8819   */\n      0x01\n      dup3\n      add\n        /* \"#utility.yul\":8799:8939   */\n      tag_312\n      jumpi\n        /* \"#utility.yul\":8861:8871   */\n      0x4e487b71\n        /* \"#utility.yul\":8856:8859   */\n      0xe0\n        /* \"#utility.yul\":8852:8872   */\n      shl\n        /* \"#utility.yul\":8849:8850   */\n      0x00\n        /* \"#utility.yul\":8842:8873   */\n      mstore\n        /* \"#utility.yul\":8896:8900   */\n      0x11\n        /* \"#utility.yul\":8893:8894   */\n      0x04\n        /* \"#utility.yul\":8886:8901   */\n      mstore\n        /* \"#utility.yul\":8924:8928   */\n      0x24\n        /* \"#utility.yul\":8921:8922   */\n      0x00\n        /* \"#utility.yul\":8914:8929   */\n      revert\n        /* \"#utility.yul\":8799:8939   */\n    tag_312:\n      pop\n        /* \"#utility.yul\":8966:8967   */\n      0x01\n        /* \"#utility.yul\":8955:8968   */\n      add\n      swap1\n        /* \"#utility.yul\":8742:8974   */\n      jump\t// out\n        /* \"#utility.yul\":8979:9311   */\n    tag_97:\n        /* \"#utility.yul\":9181:9183   */\n      0x20\n        /* \"#utility.yul\":9163:9184   */\n      dup1\n      dup3\n      mstore\n        /* \"#utility.yul\":9220:9221   */\n      0x09\n        /* \"#utility.yul\":9200:9218   */\n      swap1\n      dup3\n      add\n        /* \"#utility.yul\":9193:9222   */\n      mstore\n      shl(0xb9, 0x3737ba1030b236b4b7)\n        /* \"#utility.yul\":9253:9255   */\n      0x40\n        /* \"#utility.yul\":9238:9256   */\n      dup3\n      add\n        /* \"#utility.yul\":9231:9270   */\n      mstore\n        /* \"#utility.yul\":9302:9304   */\n      0x60\n        /* \"#utility.yul\":9287:9305   */\n      add\n      swap1\n        /* \"#utility.yul\":8979:9311   */\n      jump\t// out\n        /* \"#utility.yul\":9316:9877   */\n    tag_117:\n      sub(shl(0xa0, 0x01), 0x01)\n        /* \"#utility.yul\":9613:9628   */\n      dup7\n      dup2\n      and\n        /* \"#utility.yul\":9595:9629   */\n      dup3\n      mstore\n        /* \"#utility.yul\":9665:9680   */\n      dup6\n      and\n        /* \"#utility.yul\":9660:9662   */\n      0x20\n        /* \"#utility.yul\":9645:9663   */\n      dup3\n      add\n        /* \"#utility.yul\":9638:9681   */\n      mstore\n        /* \"#utility.yul\":9712:9714   */\n      0x40\n        /* \"#utility.yul\":9697:9715   */\n      dup2\n      add\n        /* \"#utility.yul\":9690:9724   */\n      dup5\n      swap1\n      mstore\n        /* \"#utility.yul\":9755:9757   */\n      0x60\n        /* \"#utility.yul\":9740:9758   */\n      dup2\n      add\n        /* \"#utility.yul\":9733:9767   */\n      dup4\n      swap1\n      mstore\n        /* \"#utility.yul\":9575:9578   */\n      0xa0\n        /* \"#utility.yul\":9798:9801   */\n      0x80\n        /* \"#utility.yul\":9783:9802   */\n      dup3\n      add\n        /* \"#utility.yul\":9776:9808   */\n      dup2\n      swap1\n      mstore\n        /* \"#utility.yul\":9538:9542   */\n      0x00\n      swap1\n        /* \"#utility.yul\":9825:9871   */\n      tag_315\n      swap1\n        /* \"#utility.yul\":9851:9870   */\n      dup4\n      add\n        /* \"#utility.yul\":9843:9849   */\n      dup5\n        /* \"#utility.yul\":9825:9871   */\n      tag_222\n      jump\t// in\n    tag_315:\n        /* \"#utility.yul\":9817:9871   */\n      swap8\n        /* \"#utility.yul\":9316:9877   */\n      swap7\n      pop\n      pop\n      pop\n      pop\n      pop\n      pop\n      pop\n      jump\t// out\n        /* \"#utility.yul\":10161:10406   */\n    tag_131:\n        /* \"#utility.yul\":10228:10234   */\n      0x00\n        /* \"#utility.yul\":10281:10283   */\n      0x20\n        /* \"#utility.yul\":10269:10278   */\n      dup3\n        /* \"#utility.yul\":10260:10267   */\n      dup5\n        /* \"#utility.yul\":10256:10279   */\n      sub\n        /* \"#utility.yul\":10252:10284   */\n      slt\n        /* \"#utility.yul\":10249:10301   */\n      iszero\n      tag_318\n      jumpi\n        /* \"#utility.yul\":10297:10298   */\n      0x00\n        /* \"#utility.yul\":10294:10295   */\n      dup1\n        /* \"#utility.yul\":10287:10299   */\n      revert\n        /* \"#utility.yul\":10249:10301   */\n    tag_318:\n        /* \"#utility.yul\":10329:10338   */\n      dup2\n        /* \"#utility.yul\":10323:10339   */\n      mload\n        /* \"#utility.yul\":10348:10376   */\n      tag_253\n        /* \"#utility.yul\":10370:10375   */\n      dup2\n        /* \"#utility.yul\":10348:10376   */\n      tag_229\n      jump\t// in\n        /* \"#utility.yul\":10759:10886   */\n    tag_174:\n        /* \"#utility.yul\":10820:10830   */\n      0x4e487b71\n        /* \"#utility.yul\":10815:10818   */\n      0xe0\n        /* \"#utility.yul\":10811:10831   */\n      shl\n        /* \"#utility.yul\":10808:10809   */\n      0x00\n        /* \"#utility.yul\":10801:10832   */\n      mstore\n        /* \"#utility.yul\":10851:10855   */\n      0x32\n        /* \"#utility.yul\":10848:10849   */\n      0x04\n        /* \"#utility.yul\":10841:10856   */\n      mstore\n        /* \"#utility.yul\":10875:10879   */\n      0x24\n        /* \"#utility.yul\":10872:10873   */\n      0x00\n        /* \"#utility.yul\":10865:10880   */\n      revert\n\n    auxdata: 0xa26469706673582212202668bfd4e4d864627c25701efd31236cae23c605123d98d73a27d7b8ebe5562964736f6c634300080e0033\n}\n",
				"bytecode": {
					"linkReferences": {},
					"object": "60806040526001600055662386f26fc1000060035534801561002057600080fd5b50600180546001600160a01b031916331790556116fb806100426000396000f3fe608060405234801561001057600080fd5b50600436106100b45760003560e01c806391b7f5ed1161007157806391b7f5ed14610178578063a035b1fe1461018b578063a1538bde146101a2578063a1db9782146101b5578063e3a51523146101c8578063f3e414f8146101db57600080fd5b8063107046bd146100b9578063230abfd0146100ea57806324600fc3146100ff578063429b62e5146101075780634b0bddd21461013a5780638da5cb5b1461014d575b600080fd5b6100cc6100c73660046110de565b6101ee565b6040516100e199989796959493929190611144565b60405180910390f35b6100fd6100f8366004611325565b6103dd565b005b6100fd6105bb565b61012a610115366004611400565b60026020526000908152604090205460ff1681565b60405190151581526020016100e1565b6100fd610148366004611429565b610637565b600154610160906001600160a01b031681565b6040516001600160a01b0390911681526020016100e1565b6100fd6101863660046110de565b6106a6565b61019460035481565b6040519081526020016100e1565b6100fd6101b0366004611460565b6106ef565b6100fd6101c33660046114d5565b6107a2565b6100fd6101d63660046114ff565b61085f565b6100fd6101e93660046114d5565b610e8f565b60046020526000908152604090208054600182018054919291610210906115c9565b80601f016020809104026020016040519081016040528092919081815260200182805461023c906115c9565b80156102895780601f1061025e57610100808354040283529160200191610289565b820191906000526020600020905b81548152906001019060200180831161026c57829003601f168201915b50505050509080600201805461029e906115c9565b80601f01602080910402602001604051908101604052809291908181526020018280546102ca906115c9565b80156103175780601f106102ec57610100808354040283529160200191610317565b820191906000526020600020905b8154815290600101906020018083116102fa57829003601f168201915b505050505090806003015490806004015490806005018054610338906115c9565b80601f0160208091040260200160405190810160405280929190818152602001828054610364906115c9565b80156103b15780601f10610386576101008083540402835291602001916103b1565b820191906000526020600020905b81548152906001019060200180831161039457829003601f168201915b50505050600783015460099093015491926001600160a01b03169160ff80821692506101009091041689565b6104476040518061016001604052806000815260200160608152602001606081526020016000815260200160008152602001606081526020016060815260200160006001600160a01b03168152602001606081526020016000151581526020016000151581525090565b6000805480835260208084018a815260408086018b905260608087018b9052608087018a905260a0870189905260c087018890523360e088015261010087018190526001610120880181905261014088018790529486526004845294208551815590518051869492936104be938501920190610f40565b50604082015180516104da916002840191602090910190610f40565b50606082015160038201556080820151600482015560a0820151805161050a916005840191602090910190610f40565b5060c08201518051610526916006840191602090910190610fc4565b5060e08201516007820180546001600160a01b0319166001600160a01b03909216919091179055610100820151805161056991600884019160209091019061101d565b50610120820151600990910180546101409093015115156101000261ff00199215159290921661ffff19909316929092171790556000805490806105ac83611603565b91905055505050505050505050565b6001546001600160a01b03163314806105e357503360009081526002602052604090205460ff165b6106085760405162461bcd60e51b81526004016105ff9061162a565b60405180910390fd5b60405133904780156108fc02916000818181858888f19350505050158015610634573d6000803e3d6000fd5b50565b6001546001600160a01b031633148061065f57503360009081526002602052604090205460ff165b61067b5760405162461bcd60e51b81526004016105ff9061162a565b6001600160a01b03919091166000908152600260205260409020805460ff1916911515919091179055565b6001546001600160a01b03163314806106ce57503360009081526002602052604090205460ff165b6106ea5760405162461bcd60e51b81526004016105ff9061162a565b600355565b6001546001600160a01b031633148061071757503360009081526002602052604090205460ff165b6107335760405162461bcd60e51b81526004016105ff9061162a565b604051637921219560e11b815284906001600160a01b0382169063f242432a90610769903090339089908990899060040161164d565b600060405180830381600087803b15801561078357600080fd5b505af1158015610797573d6000803e3d6000fd5b505050505050505050565b6001546001600160a01b03163314806107ca57503360009081526002602052604090205460ff165b6107e65760405162461bcd60e51b81526004016105ff9061162a565b60405163a9059cbb60e01b81523360048201526024810182905282906001600160a01b0382169063a9059cbb906044016020604051808303816000875af1158015610835573d6000803e3d6000fd5b505050506040513d601f19601f820116820180604052508101906108599190611692565b50505050565b600087815260046020908152604080832081516101608101909252805482526001810180548c959484019190610894906115c9565b80601f01602080910402602001604051908101604052809291908181526020018280546108c0906115c9565b801561090d5780601f106108e25761010080835404028352916020019161090d565b820191906000526020600020905b8154815290600101906020018083116108f057829003601f168201915b50505050508152602001600282018054610926906115c9565b80601f0160208091040260200160405190810160405280929190818152602001828054610952906115c9565b801561099f5780601f106109745761010080835404028352916020019161099f565b820191906000526020600020905b81548152906001019060200180831161098257829003601f168201915b5050505050815260200160038201548152602001600482015481526020016005820180546109cc906115c9565b80601f01602080910402602001604051908101604052809291908181526020018280546109f8906115c9565b8015610a455780601f10610a1a57610100808354040283529160200191610a45565b820191906000526020600020905b815481529060010190602001808311610a2857829003601f168201915b5050505050815260200160068201805480602002602001604051908101604052809291908181526020016000905b82821015610b1f578382906000526020600020018054610a92906115c9565b80601f0160208091040260200160405190810160405280929190818152602001828054610abe906115c9565b8015610b0b5780601f10610ae057610100808354040283529160200191610b0b565b820191906000526020600020905b815481529060010190602001808311610aee57829003601f168201915b505050505081526020019060010190610a73565b5050509082525060078201546001600160a01b03166020808301919091526008830180546040805182850281018501825282815294019392830182828015610b9057602002820191906000526020600020905b81546001600160a01b03168152600190910190602001808311610b72575b50505091835250506009919091015460ff8082161515602084015261010090910416151560409091015260e08101519091506001600160a01b03163303610cb157600080548a82526004602090815260409092209081558951610bfb926001909201918b0190610f40565b5060008981526004602090815260409091208851610c21926002909201918a0190610f40565b506000898152600460208181526040909220600381018990559081018790558551610c5492600590920191870190610f40565b5060008981526004602090815260409091208451610c7a92600690920191860190610fc4565b5060008981526004602052604090206007810180546001600160a01b03191633179055600901805461ffff19166001179055610797565b806101400151610cf95760405162461bcd60e51b815260206004820152601360248201527218d85b9b9bdd0819591a5d081c1c9bda9958dd606a1b60448201526064016105ff565b6000805b82610100015151811015610d645760008361010001518281518110610d2457610d246116af565b60200260200101519050806001600160a01b0316336001600160a01b031603610d51576001925050610d64565b5080610d5c81611603565b915050610cfd565b5080610da85760405162461bcd60e51b815260206004820152601360248201527218d85b9b9bdd0819591a5d081c1c9bda9958dd606a1b60448201526064016105ff565b600080548b82526004602090815260409092209081558a51610dd2926001909201918c0190610f40565b5060008a81526004602090815260409091208951610df8926002909201918b0190610f40565b5060008a8152600460208181526040909220600381018a90559081018890558651610e2b92600590920191880190610f40565b5060008a81526004602090815260409091208551610e5192600690920191870190610fc4565b505060008981526004602052604090206007810180546001600160a01b03191633179055600901805461ffff19166001179055505050505050505050565b6001546001600160a01b0316331480610eb757503360009081526002602052604090205460ff165b610ed35760405162461bcd60e51b81526004016105ff9061162a565b604051632142170760e11b81523060048201523360248201526044810182905282906001600160a01b038216906342842e0e90606401600060405180830381600087803b158015610f2357600080fd5b505af1158015610f37573d6000803e3d6000fd5b50505050505050565b828054610f4c906115c9565b90600052602060002090601f016020900481019282610f6e5760008555610fb4565b82601f10610f8757805160ff1916838001178555610fb4565b82800160010185558215610fb4579182015b82811115610fb4578251825591602001919060010190610f99565b50610fc0929150611072565b5090565b828054828255906000526020600020908101928215611011579160200282015b828111156110115782518051611001918491602090910190610f40565b5091602001919060010190610fe4565b50610fc0929150611087565b828054828255906000526020600020908101928215610fb4579160200282015b82811115610fb457825182546001600160a01b0319166001600160a01b0390911617825560209092019160019091019061103d565b5b80821115610fc05760008155600101611073565b80821115610fc057600061109b82826110a4565b50600101611087565b5080546110b0906115c9565b6000825580601f106110c0575050565b601f0160209004906000526020600020908101906106349190611072565b6000602082840312156110f057600080fd5b5035919050565b6000815180845260005b8181101561111d57602081850181015186830182015201611101565b8181111561112f576000602083870101525b50601f01601f19169290920160200192915050565b60006101208b835280602084015261115e8184018c6110f7565b90508281036040840152611172818b6110f7565b905088606084015287608084015282810360a084015261119281886110f7565b6001600160a01b039690961660c0840152505091151560e08301521515610100909101529695505050505050565b634e487b7160e01b600052604160045260246000fd5b604051601f8201601f1916810167ffffffffffffffff811182821017156111ff576111ff6111c0565b604052919050565b600067ffffffffffffffff831115611221576112216111c0565b611234601f8401601f19166020016111d6565b905082815283838301111561124857600080fd5b828260208301376000602084830101529392505050565b600082601f83011261127057600080fd5b61127f83833560208501611207565b9392505050565b600082601f83011261129757600080fd5b8135602067ffffffffffffffff808311156112b4576112b46111c0565b8260051b6112c38382016111d6565b93845285810183019383810190888611156112dd57600080fd5b84880192505b85831015611319578235848111156112fb5760008081fd5b6113098a87838c010161125f565b83525091840191908401906112e3565b98975050505050505050565b60008060008060008060c0878903121561133e57600080fd5b863567ffffffffffffffff8082111561135657600080fd5b6113628a838b0161125f565b9750602089013591508082111561137857600080fd5b6113848a838b0161125f565b9650604089013595506060890135945060808901359150808211156113a857600080fd5b6113b48a838b0161125f565b935060a08901359150808211156113ca57600080fd5b506113d789828a01611286565b9150509295509295509295565b80356001600160a01b03811681146113fb57600080fd5b919050565b60006020828403121561141257600080fd5b61127f826113e4565b801515811461063457600080fd5b6000806040838503121561143c57600080fd5b611445836113e4565b915060208301356114558161141b565b809150509250929050565b6000806000806080858703121561147657600080fd5b61147f856113e4565b93506020850135925060408501359150606085013567ffffffffffffffff8111156114a957600080fd5b8501601f810187136114ba57600080fd5b6114c987823560208401611207565b91505092959194509250565b600080604083850312156114e857600080fd5b6114f1836113e4565b946020939093013593505050565b600080600080600080600060e0888a03121561151a57600080fd5b87359650602088013567ffffffffffffffff8082111561153957600080fd5b6115458b838c0161125f565b975060408a013591508082111561155b57600080fd5b6115678b838c0161125f565b965060608a0135955060808a0135945060a08a013591508082111561158b57600080fd5b6115978b838c0161125f565b935060c08a01359150808211156115ad57600080fd5b506115ba8a828b01611286565b91505092959891949750929550565b600181811c908216806115dd57607f821691505b6020821081036115fd57634e487b7160e01b600052602260045260246000fd5b50919050565b60006001820161162357634e487b7160e01b600052601160045260246000fd5b5060010190565b6020808252600990820152683737ba1030b236b4b760b91b604082015260600190565b6001600160a01b03868116825285166020820152604081018490526060810183905260a060808201819052600090611687908301846110f7565b979650505050505050565b6000602082840312156116a457600080fd5b815161127f8161141b565b634e487b7160e01b600052603260045260246000fdfea26469706673582212202668bfd4e4d864627c25701efd31236cae23c605123d98d73a27d7b8ebe5562964736f6c634300080e0033",
					"opcodes": "PUSH1 0x80 PUSH1 0x40 MSTORE PUSH1 0x1 PUSH1 0x0 SSTORE PUSH7 0x2386F26FC10000 PUSH1 0x3 SSTORE CALLVALUE DUP1 ISZERO PUSH2 0x20 JUMPI PUSH1 0x0 DUP1 REVERT JUMPDEST POP PUSH1 0x1 DUP1 SLOAD PUSH1 0x1 PUSH1 0x1 PUSH1 0xA0 SHL SUB NOT AND CALLER OR SWAP1 SSTORE PUSH2 0x16FB DUP1 PUSH2 0x42 PUSH1 0x0 CODECOPY PUSH1 0x0 RETURN INVALID PUSH1 0x80 PUSH1 0x40 MSTORE CALLVALUE DUP1 ISZERO PUSH2 0x10 JUMPI PUSH1 0x0 DUP1 REVERT JUMPDEST POP PUSH1 0x4 CALLDATASIZE LT PUSH2 0xB4 JUMPI PUSH1 0x0 CALLDATALOAD PUSH1 0xE0 SHR DUP1 PUSH4 0x91B7F5ED GT PUSH2 0x71 JUMPI DUP1 PUSH4 0x91B7F5ED EQ PUSH2 0x178 JUMPI DUP1 PUSH4 0xA035B1FE EQ PUSH2 0x18B JUMPI DUP1 PUSH4 0xA1538BDE EQ PUSH2 0x1A2 JUMPI DUP1 PUSH4 0xA1DB9782 EQ PUSH2 0x1B5 JUMPI DUP1 PUSH4 0xE3A51523 EQ PUSH2 0x1C8 JUMPI DUP1 PUSH4 0xF3E414F8 EQ PUSH2 0x1DB JUMPI PUSH1 0x0 DUP1 REVERT JUMPDEST DUP1 PUSH4 0x107046BD EQ PUSH2 0xB9 JUMPI DUP1 PUSH4 0x230ABFD0 EQ PUSH2 0xEA JUMPI DUP1 PUSH4 0x24600FC3 EQ PUSH2 0xFF JUMPI DUP1 PUSH4 0x429B62E5 EQ PUSH2 0x107 JUMPI DUP1 PUSH4 0x4B0BDDD2 EQ PUSH2 0x13A JUMPI DUP1 PUSH4 0x8DA5CB5B EQ PUSH2 0x14D JUMPI JUMPDEST PUSH1 0x0 DUP1 REVERT JUMPDEST PUSH2 0xCC PUSH2 0xC7 CALLDATASIZE PUSH1 0x4 PUSH2 0x10DE JUMP JUMPDEST PUSH2 0x1EE JUMP JUMPDEST PUSH1 0x40 MLOAD PUSH2 0xE1 SWAP10 SWAP9 SWAP8 SWAP7 SWAP6 SWAP5 SWAP4 SWAP3 SWAP2 SWAP1 PUSH2 0x1144 JUMP JUMPDEST PUSH1 0x40 MLOAD DUP1 SWAP2 SUB SWAP1 RETURN JUMPDEST PUSH2 0xFD PUSH2 0xF8 CALLDATASIZE PUSH1 0x4 PUSH2 0x1325 JUMP JUMPDEST PUSH2 0x3DD JUMP JUMPDEST STOP JUMPDEST PUSH2 0xFD PUSH2 0x5BB JUMP JUMPDEST PUSH2 0x12A PUSH2 0x115 CALLDATASIZE PUSH1 0x4 PUSH2 0x1400 JUMP JUMPDEST PUSH1 0x2 PUSH1 0x20 MSTORE PUSH1 0x0 SWAP1 DUP2 MSTORE PUSH1 0x40 SWAP1 KECCAK256 SLOAD PUSH1 0xFF AND DUP2 JUMP JUMPDEST PUSH1 0x40 MLOAD SWAP1 ISZERO ISZERO DUP2 MSTORE PUSH1 0x20 ADD PUSH2 0xE1 JUMP JUMPDEST PUSH2 0xFD PUSH2 0x148 CALLDATASIZE PUSH1 0x4 PUSH2 0x1429 JUMP JUMPDEST PUSH2 0x637 JUMP JUMPDEST PUSH1 0x1 SLOAD PUSH2 0x160 SWAP1 PUSH1 0x1 PUSH1 0x1 PUSH1 0xA0 SHL SUB AND DUP2 JUMP JUMPDEST PUSH1 0x40 MLOAD PUSH1 0x1 PUSH1 0x1 PUSH1 0xA0 SHL SUB SWAP1 SWAP2 AND DUP2 MSTORE PUSH1 0x20 ADD PUSH2 0xE1 JUMP JUMPDEST PUSH2 0xFD PUSH2 0x186 CALLDATASIZE PUSH1 0x4 PUSH2 0x10DE JUMP JUMPDEST PUSH2 0x6A6 JUMP JUMPDEST PUSH2 0x194 PUSH1 0x3 SLOAD DUP2 JUMP JUMPDEST PUSH1 0x40 MLOAD SWAP1 DUP2 MSTORE PUSH1 0x20 ADD PUSH2 0xE1 JUMP JUMPDEST PUSH2 0xFD PUSH2 0x1B0 CALLDATASIZE PUSH1 0x4 PUSH2 0x1460 JUMP JUMPDEST PUSH2 0x6EF JUMP JUMPDEST PUSH2 0xFD PUSH2 0x1C3 CALLDATASIZE PUSH1 0x4 PUSH2 0x14D5 JUMP JUMPDEST PUSH2 0x7A2 JUMP JUMPDEST PUSH2 0xFD PUSH2 0x1D6 CALLDATASIZE PUSH1 0x4 PUSH2 0x14FF JUMP JUMPDEST PUSH2 0x85F JUMP JUMPDEST PUSH2 0xFD PUSH2 0x1E9 CALLDATASIZE PUSH1 0x4 PUSH2 0x14D5 JUMP JUMPDEST PUSH2 0xE8F JUMP JUMPDEST PUSH1 0x4 PUSH1 0x20 MSTORE PUSH1 0x0 SWAP1 DUP2 MSTORE PUSH1 0x40 SWAP1 KECCAK256 DUP1 SLOAD PUSH1 0x1 DUP3 ADD DUP1 SLOAD SWAP2 SWAP3 SWAP2 PUSH2 0x210 SWAP1 PUSH2 0x15C9 JUMP JUMPDEST DUP1 PUSH1 0x1F ADD PUSH1 0x20 DUP1 SWAP2 DIV MUL PUSH1 0x20 ADD PUSH1 0x40 MLOAD SWAP1 DUP2 ADD PUSH1 0x40 MSTORE DUP1 SWAP3 SWAP2 SWAP1 DUP2 DUP2 MSTORE PUSH1 0x20 ADD DUP3 DUP1 SLOAD PUSH2 0x23C SWAP1 PUSH2 0x15C9 JUMP JUMPDEST DUP1 ISZERO PUSH2 0x289 JUMPI DUP1 PUSH1 0x1F LT PUSH2 0x25E JUMPI PUSH2 0x100 DUP1 DUP4 SLOAD DIV MUL DUP4 MSTORE SWAP2 PUSH1 0x20 ADD SWAP2 PUSH2 0x289 JUMP JUMPDEST DUP3 ADD SWAP2 SWAP1 PUSH1 0x0 MSTORE PUSH1 0x20 PUSH1 0x0 KECCAK256 SWAP1 JUMPDEST DUP2 SLOAD DUP2 MSTORE SWAP1 PUSH1 0x1 ADD SWAP1 PUSH1 0x20 ADD DUP1 DUP4 GT PUSH2 0x26C JUMPI DUP3 SWAP1 SUB PUSH1 0x1F AND DUP3 ADD SWAP2 JUMPDEST POP POP POP POP POP SWAP1 DUP1 PUSH1 0x2 ADD DUP1 SLOAD PUSH2 0x29E SWAP1 PUSH2 0x15C9 JUMP JUMPDEST DUP1 PUSH1 0x1F ADD PUSH1 0x20 DUP1 SWAP2 DIV MUL PUSH1 0x20 ADD PUSH1 0x40 MLOAD SWAP1 DUP2 ADD PUSH1 0x40 MSTORE DUP1 SWAP3 SWAP2 SWAP1 DUP2 DUP2 MSTORE PUSH1 0x20 ADD DUP3 DUP1 SLOAD PUSH2 0x2CA SWAP1 PUSH2 0x15C9 JUMP JUMPDEST DUP1 ISZERO PUSH2 0x317 JUMPI DUP1 PUSH1 0x1F LT PUSH2 0x2EC JUMPI PUSH2 0x100 DUP1 DUP4 SLOAD DIV MUL DUP4 MSTORE SWAP2 PUSH1 0x20 ADD SWAP2 PUSH2 0x317 JUMP JUMPDEST DUP3 ADD SWAP2 SWAP1 PUSH1 0x0 MSTORE PUSH1 0x20 PUSH1 0x0 KECCAK256 SWAP1 JUMPDEST DUP2 SLOAD DUP2 MSTORE SWAP1 PUSH1 0x1 ADD SWAP1 PUSH1 0x20 ADD DUP1 DUP4 GT PUSH2 0x2FA JUMPI DUP3 SWAP1 SUB PUSH1 0x1F AND DUP3 ADD SWAP2 JUMPDEST POP POP POP POP POP SWAP1 DUP1 PUSH1 0x3 ADD SLOAD SWAP1 DUP1 PUSH1 0x4 ADD SLOAD SWAP1 DUP1 PUSH1 0x5 ADD DUP1 SLOAD PUSH2 0x338 SWAP1 PUSH2 0x15C9 JUMP JUMPDEST DUP1 PUSH1 0x1F ADD PUSH1 0x20 DUP1 SWAP2 DIV MUL PUSH1 0x20 ADD PUSH1 0x40 MLOAD SWAP1 DUP2 ADD PUSH1 0x40 MSTORE DUP1 SWAP3 SWAP2 SWAP1 DUP2 DUP2 MSTORE PUSH1 0x20 ADD DUP3 DUP1 SLOAD PUSH2 0x364 SWAP1 PUSH2 0x15C9 JUMP JUMPDEST DUP1 ISZERO PUSH2 0x3B1 JUMPI DUP1 PUSH1 0x1F LT PUSH2 0x386 JUMPI PUSH2 0x100 DUP1 DUP4 SLOAD DIV MUL DUP4 MSTORE SWAP2 PUSH1 0x20 ADD SWAP2 PUSH2 0x3B1 JUMP JUMPDEST DUP3 ADD SWAP2 SWAP1 PUSH1 0x0 MSTORE PUSH1 0x20 PUSH1 0x0 KECCAK256 SWAP1 JUMPDEST DUP2 SLOAD DUP2 MSTORE SWAP1 PUSH1 0x1 ADD SWAP1 PUSH1 0x20 ADD DUP1 DUP4 GT PUSH2 0x394 JUMPI DUP3 SWAP1 SUB PUSH1 0x1F AND DUP3 ADD SWAP2 JUMPDEST POP POP POP POP PUSH1 0x7 DUP4 ADD SLOAD PUSH1 0x9 SWAP1 SWAP4 ADD SLOAD SWAP2 SWAP3 PUSH1 0x1 PUSH1 0x1 PUSH1 0xA0 SHL SUB AND SWAP2 PUSH1 0xFF DUP1 DUP3 AND SWAP3 POP PUSH2 0x100 SWAP1 SWAP2 DIV AND DUP10 JUMP JUMPDEST PUSH2 0x447 PUSH1 0x40 MLOAD DUP1 PUSH2 0x160 ADD PUSH1 0x40 MSTORE DUP1 PUSH1 0x0 DUP2 MSTORE PUSH1 0x20 ADD PUSH1 0x60 DUP2 MSTORE PUSH1 0x20 ADD PUSH1 0x60 DUP2 MSTORE PUSH1 0x20 ADD PUSH1 0x0 DUP2 MSTORE PUSH1 0x20 ADD PUSH1 0x0 DUP2 MSTORE PUSH1 0x20 ADD PUSH1 0x60 DUP2 MSTORE PUSH1 0x20 ADD PUSH1 0x60 DUP2 MSTORE PUSH1 0x20 ADD PUSH1 0x0 PUSH1 0x1 PUSH1 0x1 PUSH1 0xA0 SHL SUB AND DUP2 MSTORE PUSH1 0x20 ADD PUSH1 0x60 DUP2 MSTORE PUSH1 0x20 ADD PUSH1 0x0 ISZERO ISZERO DUP2 MSTORE PUSH1 0x20 ADD PUSH1 0x0 ISZERO ISZERO DUP2 MSTORE POP SWAP1 JUMP JUMPDEST PUSH1 0x0 DUP1 SLOAD DUP1 DUP4 MSTORE PUSH1 0x20 DUP1 DUP5 ADD DUP11 DUP2 MSTORE PUSH1 0x40 DUP1 DUP7 ADD DUP12 SWAP1 MSTORE PUSH1 0x60 DUP1 DUP8 ADD DUP12 SWAP1 MSTORE PUSH1 0x80 DUP8 ADD DUP11 SWAP1 MSTORE PUSH1 0xA0 DUP8 ADD DUP10 SWAP1 MSTORE PUSH1 0xC0 DUP8 ADD DUP9 SWAP1 MSTORE CALLER PUSH1 0xE0 DUP9 ADD MSTORE PUSH2 0x100 DUP8 ADD DUP2 SWAP1 MSTORE PUSH1 0x1 PUSH2 0x120 DUP9 ADD DUP2 SWAP1 MSTORE PUSH2 0x140 DUP9 ADD DUP8 SWAP1 MSTORE SWAP5 DUP7 MSTORE PUSH1 0x4 DUP5 MSTORE SWAP5 KECCAK256 DUP6 MLOAD DUP2 SSTORE SWAP1 MLOAD DUP1 MLOAD DUP7 SWAP5 SWAP3 SWAP4 PUSH2 0x4BE SWAP4 DUP6 ADD SWAP3 ADD SWAP1 PUSH2 0xF40 JUMP JUMPDEST POP PUSH1 0x40 DUP3 ADD MLOAD DUP1 MLOAD PUSH2 0x4DA SWAP2 PUSH1 0x2 DUP5 ADD SWAP2 PUSH1 0x20 SWAP1 SWAP2 ADD SWAP1 PUSH2 0xF40 JUMP JUMPDEST POP PUSH1 0x60 DUP3 ADD MLOAD PUSH1 0x3 DUP3 ADD SSTORE PUSH1 0x80 DUP3 ADD MLOAD PUSH1 0x4 DUP3 ADD SSTORE PUSH1 0xA0 DUP3 ADD MLOAD DUP1 MLOAD PUSH2 0x50A SWAP2 PUSH1 0x5 DUP5 ADD SWAP2 PUSH1 0x20 SWAP1 SWAP2 ADD SWAP1 PUSH2 0xF40 JUMP JUMPDEST POP PUSH1 0xC0 DUP3 ADD MLOAD DUP1 MLOAD PUSH2 0x526 SWAP2 PUSH1 0x6 DUP5 ADD SWAP2 PUSH1 0x20 SWAP1 SWAP2 ADD SWAP1 PUSH2 0xFC4 JUMP JUMPDEST POP PUSH1 0xE0 DUP3 ADD MLOAD PUSH1 0x7 DUP3 ADD DUP1 SLOAD PUSH1 0x1 PUSH1 0x1 PUSH1 0xA0 SHL SUB NOT AND PUSH1 0x1 PUSH1 0x1 PUSH1 0xA0 SHL SUB SWAP1 SWAP3 AND SWAP2 SWAP1 SWAP2 OR SWAP1 SSTORE PUSH2 0x100 DUP3 ADD MLOAD DUP1 MLOAD PUSH2 0x569 SWAP2 PUSH1 0x8 DUP5 ADD SWAP2 PUSH1 0x20 SWAP1 SWAP2 ADD SWAP1 PUSH2 0x101D JUMP JUMPDEST POP PUSH2 0x120 DUP3 ADD MLOAD PUSH1 0x9 SWAP1 SWAP2 ADD DUP1 SLOAD PUSH2 0x140 SWAP1 SWAP4 ADD MLOAD ISZERO ISZERO PUSH2 0x100 MUL PUSH2 0xFF00 NOT SWAP3 ISZERO ISZERO SWAP3 SWAP1 SWAP3 AND PUSH2 0xFFFF NOT SWAP1 SWAP4 AND SWAP3 SWAP1 SWAP3 OR OR SWAP1 SSTORE PUSH1 0x0 DUP1 SLOAD SWAP1 DUP1 PUSH2 0x5AC DUP4 PUSH2 0x1603 JUMP JUMPDEST SWAP2 SWAP1 POP SSTORE POP POP POP POP POP POP POP POP POP JUMP JUMPDEST PUSH1 0x1 SLOAD PUSH1 0x1 PUSH1 0x1 PUSH1 0xA0 SHL SUB AND CALLER EQ DUP1 PUSH2 0x5E3 JUMPI POP CALLER PUSH1 0x0 SWAP1 DUP2 MSTORE PUSH1 0x2 PUSH1 0x20 MSTORE PUSH1 0x40 SWAP1 KECCAK256 SLOAD PUSH1 0xFF AND JUMPDEST PUSH2 0x608 JUMPI PUSH1 0x40 MLOAD PUSH3 0x461BCD PUSH1 0xE5 SHL DUP2 MSTORE PUSH1 0x4 ADD PUSH2 0x5FF SWAP1 PUSH2 0x162A JUMP JUMPDEST PUSH1 0x40 MLOAD DUP1 SWAP2 SUB SWAP1 REVERT JUMPDEST PUSH1 0x40 MLOAD CALLER SWAP1 SELFBALANCE DUP1 ISZERO PUSH2 0x8FC MUL SWAP2 PUSH1 0x0 DUP2 DUP2 DUP2 DUP6 DUP9 DUP9 CALL SWAP4 POP POP POP POP ISZERO DUP1 ISZERO PUSH2 0x634 JUMPI RETURNDATASIZE PUSH1 0x0 DUP1 RETURNDATACOPY RETURNDATASIZE PUSH1 0x0 REVERT JUMPDEST POP JUMP JUMPDEST PUSH1 0x1 SLOAD PUSH1 0x1 PUSH1 0x1 PUSH1 0xA0 SHL SUB AND CALLER EQ DUP1 PUSH2 0x65F JUMPI POP CALLER PUSH1 0x0 SWAP1 DUP2 MSTORE PUSH1 0x2 PUSH1 0x20 MSTORE PUSH1 0x40 SWAP1 KECCAK256 SLOAD PUSH1 0xFF AND JUMPDEST PUSH2 0x67B JUMPI PUSH1 0x40 MLOAD PUSH3 0x461BCD PUSH1 0xE5 SHL DUP2 MSTORE PUSH1 0x4 ADD PUSH2 0x5FF SWAP1 PUSH2 0x162A JUMP JUMPDEST PUSH1 0x1 PUSH1 0x1 PUSH1 0xA0 SHL SUB SWAP2 SWAP1 SWAP2 AND PUSH1 0x0 SWAP1 DUP2 MSTORE PUSH1 0x2 PUSH1 0x20 MSTORE PUSH1 0x40 SWAP1 KECCAK256 DUP1 SLOAD PUSH1 0xFF NOT AND SWAP2 ISZERO ISZERO SWAP2 SWAP1 SWAP2 OR SWAP1 SSTORE JUMP JUMPDEST PUSH1 0x1 SLOAD PUSH1 0x1 PUSH1 0x1 PUSH1 0xA0 SHL SUB AND CALLER EQ DUP1 PUSH2 0x6CE JUMPI POP CALLER PUSH1 0x0 SWAP1 DUP2 MSTORE PUSH1 0x2 PUSH1 0x20 MSTORE PUSH1 0x40 SWAP1 KECCAK256 SLOAD PUSH1 0xFF AND JUMPDEST PUSH2 0x6EA JUMPI PUSH1 0x40 MLOAD PUSH3 0x461BCD PUSH1 0xE5 SHL DUP2 MSTORE PUSH1 0x4 ADD PUSH2 0x5FF SWAP1 PUSH2 0x162A JUMP JUMPDEST PUSH1 0x3 SSTORE JUMP JUMPDEST PUSH1 0x1 SLOAD PUSH1 0x1 PUSH1 0x1 PUSH1 0xA0 SHL SUB AND CALLER EQ DUP1 PUSH2 0x717 JUMPI POP CALLER PUSH1 0x0 SWAP1 DUP2 MSTORE PUSH1 0x2 PUSH1 0x20 MSTORE PUSH1 0x40 SWAP1 KECCAK256 SLOAD PUSH1 0xFF AND JUMPDEST PUSH2 0x733 JUMPI PUSH1 0x40 MLOAD PUSH3 0x461BCD PUSH1 0xE5 SHL DUP2 MSTORE PUSH1 0x4 ADD PUSH2 0x5FF SWAP1 PUSH2 0x162A JUMP JUMPDEST PUSH1 0x40 MLOAD PUSH4 0x79212195 PUSH1 0xE1 SHL DUP2 MSTORE DUP5 SWAP1 PUSH1 0x1 PUSH1 0x1 PUSH1 0xA0 SHL SUB DUP3 AND SWAP1 PUSH4 0xF242432A SWAP1 PUSH2 0x769 SWAP1 ADDRESS SWAP1 CALLER SWAP1 DUP10 SWAP1 DUP10 SWAP1 DUP10 SWAP1 PUSH1 0x4 ADD PUSH2 0x164D JUMP JUMPDEST PUSH1 0x0 PUSH1 0x40 MLOAD DUP1 DUP4 SUB DUP2 PUSH1 0x0 DUP8 DUP1 EXTCODESIZE ISZERO DUP1 ISZERO PUSH2 0x783 JUMPI PUSH1 0x0 DUP1 REVERT JUMPDEST POP GAS CALL ISZERO DUP1 ISZERO PUSH2 0x797 JUMPI RETURNDATASIZE PUSH1 0x0 DUP1 RETURNDATACOPY RETURNDATASIZE PUSH1 0x0 REVERT JUMPDEST POP POP POP POP POP POP POP POP POP JUMP JUMPDEST PUSH1 0x1 SLOAD PUSH1 0x1 PUSH1 0x1 PUSH1 0xA0 SHL SUB AND CALLER EQ DUP1 PUSH2 0x7CA JUMPI POP CALLER PUSH1 0x0 SWAP1 DUP2 MSTORE PUSH1 0x2 PUSH1 0x20 MSTORE PUSH1 0x40 SWAP1 KECCAK256 SLOAD PUSH1 0xFF AND JUMPDEST PUSH2 0x7E6 JUMPI PUSH1 0x40 MLOAD PUSH3 0x461BCD PUSH1 0xE5 SHL DUP2 MSTORE PUSH1 0x4 ADD PUSH2 0x5FF SWAP1 PUSH2 0x162A JUMP JUMPDEST PUSH1 0x40 MLOAD PUSH4 0xA9059CBB PUSH1 0xE0 SHL DUP2 MSTORE CALLER PUSH1 0x4 DUP3 ADD MSTORE PUSH1 0x24 DUP2 ADD DUP3 SWAP1 MSTORE DUP3 SWAP1 PUSH1 0x1 PUSH1 0x1 PUSH1 0xA0 SHL SUB DUP3 AND SWAP1 PUSH4 0xA9059CBB SWAP1 PUSH1 0x44 ADD PUSH1 0x20 PUSH1 0x40 MLOAD DUP1 DUP4 SUB DUP2 PUSH1 0x0 DUP8 GAS CALL ISZERO DUP1 ISZERO PUSH2 0x835 JUMPI RETURNDATASIZE PUSH1 0x0 DUP1 RETURNDATACOPY RETURNDATASIZE PUSH1 0x0 REVERT JUMPDEST POP POP POP POP PUSH1 0x40 MLOAD RETURNDATASIZE PUSH1 0x1F NOT PUSH1 0x1F DUP3 ADD AND DUP3 ADD DUP1 PUSH1 0x40 MSTORE POP DUP2 ADD SWAP1 PUSH2 0x859 SWAP2 SWAP1 PUSH2 0x1692 JUMP JUMPDEST POP POP POP POP JUMP JUMPDEST PUSH1 0x0 DUP8 DUP2 MSTORE PUSH1 0x4 PUSH1 0x20 SWAP1 DUP2 MSTORE PUSH1 0x40 DUP1 DUP4 KECCAK256 DUP2 MLOAD PUSH2 0x160 DUP2 ADD SWAP1 SWAP3 MSTORE DUP1 SLOAD DUP3 MSTORE PUSH1 0x1 DUP2 ADD DUP1 SLOAD DUP13 SWAP6 SWAP5 DUP5 ADD SWAP2 SWAP1 PUSH2 0x894 SWAP1 PUSH2 0x15C9 JUMP JUMPDEST DUP1 PUSH1 0x1F ADD PUSH1 0x20 DUP1 SWAP2 DIV MUL PUSH1 0x20 ADD PUSH1 0x40 MLOAD SWAP1 DUP2 ADD PUSH1 0x40 MSTORE DUP1 SWAP3 SWAP2 SWAP1 DUP2 DUP2 MSTORE PUSH1 0x20 ADD DUP3 DUP1 SLOAD PUSH2 0x8C0 SWAP1 PUSH2 0x15C9 JUMP JUMPDEST DUP1 ISZERO PUSH2 0x90D JUMPI DUP1 PUSH1 0x1F LT PUSH2 0x8E2 JUMPI PUSH2 0x100 DUP1 DUP4 SLOAD DIV MUL DUP4 MSTORE SWAP2 PUSH1 0x20 ADD SWAP2 PUSH2 0x90D JUMP JUMPDEST DUP3 ADD SWAP2 SWAP1 PUSH1 0x0 MSTORE PUSH1 0x20 PUSH1 0x0 KECCAK256 SWAP1 JUMPDEST DUP2 SLOAD DUP2 MSTORE SWAP1 PUSH1 0x1 ADD SWAP1 PUSH1 0x20 ADD DUP1 DUP4 GT PUSH2 0x8F0 JUMPI DUP3 SWAP1 SUB PUSH1 0x1F AND DUP3 ADD SWAP2 JUMPDEST POP POP POP POP POP DUP2 MSTORE PUSH1 0x20 ADD PUSH1 0x2 DUP3 ADD DUP1 SLOAD PUSH2 0x926 SWAP1 PUSH2 0x15C9 JUMP JUMPDEST DUP1 PUSH1 0x1F ADD PUSH1 0x20 DUP1 SWAP2 DIV MUL PUSH1 0x20 ADD PUSH1 0x40 MLOAD SWAP1 DUP2 ADD PUSH1 0x40 MSTORE DUP1 SWAP3 SWAP2 SWAP1 DUP2 DUP2 MSTORE PUSH1 0x20 ADD DUP3 DUP1 SLOAD PUSH2 0x952 SWAP1 PUSH2 0x15C9 JUMP JUMPDEST DUP1 ISZERO PUSH2 0x99F JUMPI DUP1 PUSH1 0x1F LT PUSH2 0x974 JUMPI PUSH2 0x100 DUP1 DUP4 SLOAD DIV MUL DUP4 MSTORE SWAP2 PUSH1 0x20 ADD SWAP2 PUSH2 0x99F JUMP JUMPDEST DUP3 ADD SWAP2 SWAP1 PUSH1 0x0 MSTORE PUSH1 0x20 PUSH1 0x0 KECCAK256 SWAP1 JUMPDEST DUP2 SLOAD DUP2 MSTORE SWAP1 PUSH1 0x1 ADD SWAP1 PUSH1 0x20 ADD DUP1 DUP4 GT PUSH2 0x982 JUMPI DUP3 SWAP1 SUB PUSH1 0x1F AND DUP3 ADD SWAP2 JUMPDEST POP POP POP POP POP DUP2 MSTORE PUSH1 0x20 ADD PUSH1 0x3 DUP3 ADD SLOAD DUP2 MSTORE PUSH1 0x20 ADD PUSH1 0x4 DUP3 ADD SLOAD DUP2 MSTORE PUSH1 0x20 ADD PUSH1 0x5 DUP3 ADD DUP1 SLOAD PUSH2 0x9CC SWAP1 PUSH2 0x15C9 JUMP JUMPDEST DUP1 PUSH1 0x1F ADD PUSH1 0x20 DUP1 SWAP2 DIV MUL PUSH1 0x20 ADD PUSH1 0x40 MLOAD SWAP1 DUP2 ADD PUSH1 0x40 MSTORE DUP1 SWAP3 SWAP2 SWAP1 DUP2 DUP2 MSTORE PUSH1 0x20 ADD DUP3 DUP1 SLOAD PUSH2 0x9F8 SWAP1 PUSH2 0x15C9 JUMP JUMPDEST DUP1 ISZERO PUSH2 0xA45 JUMPI DUP1 PUSH1 0x1F LT PUSH2 0xA1A JUMPI PUSH2 0x100 DUP1 DUP4 SLOAD DIV MUL DUP4 MSTORE SWAP2 PUSH1 0x20 ADD SWAP2 PUSH2 0xA45 JUMP JUMPDEST DUP3 ADD SWAP2 SWAP1 PUSH1 0x0 MSTORE PUSH1 0x20 PUSH1 0x0 KECCAK256 SWAP1 JUMPDEST DUP2 SLOAD DUP2 MSTORE SWAP1 PUSH1 0x1 ADD SWAP1 PUSH1 0x20 ADD DUP1 DUP4 GT PUSH2 0xA28 JUMPI DUP3 SWAP1 SUB PUSH1 0x1F AND DUP3 ADD SWAP2 JUMPDEST POP POP POP POP POP DUP2 MSTORE PUSH1 0x20 ADD PUSH1 0x6 DUP3 ADD DUP1 SLOAD DUP1 PUSH1 0x20 MUL PUSH1 0x20 ADD PUSH1 0x40 MLOAD SWAP1 DUP2 ADD PUSH1 0x40 MSTORE DUP1 SWAP3 SWAP2 SWAP1 DUP2 DUP2 MSTORE PUSH1 0x20 ADD PUSH1 0x0 SWAP1 JUMPDEST DUP3 DUP3 LT ISZERO PUSH2 0xB1F JUMPI DUP4 DUP3 SWAP1 PUSH1 0x0 MSTORE PUSH1 0x20 PUSH1 0x0 KECCAK256 ADD DUP1 SLOAD PUSH2 0xA92 SWAP1 PUSH2 0x15C9 JUMP JUMPDEST DUP1 PUSH1 0x1F ADD PUSH1 0x20 DUP1 SWAP2 DIV MUL PUSH1 0x20 ADD PUSH1 0x40 MLOAD SWAP1 DUP2 ADD PUSH1 0x40 MSTORE DUP1 SWAP3 SWAP2 SWAP1 DUP2 DUP2 MSTORE PUSH1 0x20 ADD DUP3 DUP1 SLOAD PUSH2 0xABE SWAP1 PUSH2 0x15C9 JUMP JUMPDEST DUP1 ISZERO PUSH2 0xB0B JUMPI DUP1 PUSH1 0x1F LT PUSH2 0xAE0 JUMPI PUSH2 0x100 DUP1 DUP4 SLOAD DIV MUL DUP4 MSTORE SWAP2 PUSH1 0x20 ADD SWAP2 PUSH2 0xB0B JUMP JUMPDEST DUP3 ADD SWAP2 SWAP1 PUSH1 0x0 MSTORE PUSH1 0x20 PUSH1 0x0 KECCAK256 SWAP1 JUMPDEST DUP2 SLOAD DUP2 MSTORE SWAP1 PUSH1 0x1 ADD SWAP1 PUSH1 0x20 ADD DUP1 DUP4 GT PUSH2 0xAEE JUMPI DUP3 SWAP1 SUB PUSH1 0x1F AND DUP3 ADD SWAP2 JUMPDEST POP POP POP POP POP DUP2 MSTORE PUSH1 0x20 ADD SWAP1 PUSH1 0x1 ADD SWAP1 PUSH2 0xA73 JUMP JUMPDEST POP POP POP SWAP1 DUP3 MSTORE POP PUSH1 0x7 DUP3 ADD SLOAD PUSH1 0x1 PUSH1 0x1 PUSH1 0xA0 SHL SUB AND PUSH1 0x20 DUP1 DUP4 ADD SWAP2 SWAP1 SWAP2 MSTORE PUSH1 0x8 DUP4 ADD DUP1 SLOAD PUSH1 0x40 DUP1 MLOAD DUP3 DUP6 MUL DUP2 ADD DUP6 ADD DUP3 MSTORE DUP3 DUP2 MSTORE SWAP5 ADD SWAP4 SWAP3 DUP4 ADD DUP3 DUP3 DUP1 ISZERO PUSH2 0xB90 JUMPI PUSH1 0x20 MUL DUP3 ADD SWAP2 SWAP1 PUSH1 0x0 MSTORE PUSH1 0x20 PUSH1 0x0 KECCAK256 SWAP1 JUMPDEST DUP2 SLOAD PUSH1 0x1 PUSH1 0x1 PUSH1 0xA0 SHL SUB AND DUP2 MSTORE PUSH1 0x1 SWAP1 SWAP2 ADD SWAP1 PUSH1 0x20 ADD DUP1 DUP4 GT PUSH2 0xB72 JUMPI JUMPDEST POP POP POP SWAP2 DUP4 MSTORE POP POP PUSH1 0x9 SWAP2 SWAP1 SWAP2 ADD SLOAD PUSH1 0xFF DUP1 DUP3 AND ISZERO ISZERO PUSH1 0x20 DUP5 ADD MSTORE PUSH2 0x100 SWAP1 SWAP2 DIV AND ISZERO ISZERO PUSH1 0x40 SWAP1 SWAP2 ADD MSTORE PUSH1 0xE0 DUP2 ADD MLOAD SWAP1 SWAP2 POP PUSH1 0x1 PUSH1 0x1 PUSH1 0xA0 SHL SUB AND CALLER SUB PUSH2 0xCB1 JUMPI PUSH1 0x0 DUP1 SLOAD DUP11 DUP3 MSTORE PUSH1 0x4 PUSH1 0x20 SWAP1 DUP2 MSTORE PUSH1 0x40 SWAP1 SWAP3 KECCAK256 SWAP1 DUP2 SSTORE DUP10 MLOAD PUSH2 0xBFB SWAP3 PUSH1 0x1 SWAP1 SWAP3 ADD SWAP2 DUP12 ADD SWAP1 PUSH2 0xF40 JUMP JUMPDEST POP PUSH1 0x0 DUP10 DUP2 MSTORE PUSH1 0x4 PUSH1 0x20 SWAP1 DUP2 MSTORE PUSH1 0x40 SWAP1 SWAP2 KECCAK256 DUP9 MLOAD PUSH2 0xC21 SWAP3 PUSH1 0x2 SWAP1 SWAP3 ADD SWAP2 DUP11 ADD SWAP1 PUSH2 0xF40 JUMP JUMPDEST POP PUSH1 0x0 DUP10 DUP2 MSTORE PUSH1 0x4 PUSH1 0x20 DUP2 DUP2 MSTORE PUSH1 0x40 SWAP1 SWAP3 KECCAK256 PUSH1 0x3 DUP2 ADD DUP10 SWAP1 SSTORE SWAP1 DUP2 ADD DUP8 SWAP1 SSTORE DUP6 MLOAD PUSH2 0xC54 SWAP3 PUSH1 0x5 SWAP1 SWAP3 ADD SWAP2 DUP8 ADD SWAP1 PUSH2 0xF40 JUMP JUMPDEST POP PUSH1 0x0 DUP10 DUP2 MSTORE PUSH1 0x4 PUSH1 0x20 SWAP1 DUP2 MSTORE PUSH1 0x40 SWAP1 SWAP2 KECCAK256 DUP5 MLOAD PUSH2 0xC7A SWAP3 PUSH1 0x6 SWAP1 SWAP3 ADD SWAP2 DUP7 ADD SWAP1 PUSH2 0xFC4 JUMP JUMPDEST POP PUSH1 0x0 DUP10 DUP2 MSTORE PUSH1 0x4 PUSH1 0x20 MSTORE PUSH1 0x40 SWAP1 KECCAK256 PUSH1 0x7 DUP2 ADD DUP1 SLOAD PUSH1 0x1 PUSH1 0x1 PUSH1 0xA0 SHL SUB NOT AND CALLER OR SWAP1 SSTORE PUSH1 0x9 ADD DUP1 SLOAD PUSH2 0xFFFF NOT AND PUSH1 0x1 OR SWAP1 SSTORE PUSH2 0x797 JUMP JUMPDEST DUP1 PUSH2 0x140 ADD MLOAD PUSH2 0xCF9 JUMPI PUSH1 0x40 MLOAD PUSH3 0x461BCD PUSH1 0xE5 SHL DUP2 MSTORE PUSH1 0x20 PUSH1 0x4 DUP3 ADD MSTORE PUSH1 0x13 PUSH1 0x24 DUP3 ADD MSTORE PUSH19 0x18D85B9B9BDD0819591A5D081C1C9BDA9958DD PUSH1 0x6A SHL PUSH1 0x44 DUP3 ADD MSTORE PUSH1 0x64 ADD PUSH2 0x5FF JUMP JUMPDEST PUSH1 0x0 DUP1 JUMPDEST DUP3 PUSH2 0x100 ADD MLOAD MLOAD DUP2 LT ISZERO PUSH2 0xD64 JUMPI PUSH1 0x0 DUP4 PUSH2 0x100 ADD MLOAD DUP3 DUP2 MLOAD DUP2 LT PUSH2 0xD24 JUMPI PUSH2 0xD24 PUSH2 0x16AF JUMP JUMPDEST PUSH1 0x20 MUL PUSH1 0x20 ADD ADD MLOAD SWAP1 POP DUP1 PUSH1 0x1 PUSH1 0x1 PUSH1 0xA0 SHL SUB AND CALLER PUSH1 0x1 PUSH1 0x1 PUSH1 0xA0 SHL SUB AND SUB PUSH2 0xD51 JUMPI PUSH1 0x1 SWAP3 POP POP PUSH2 0xD64 JUMP JUMPDEST POP DUP1 PUSH2 0xD5C DUP2 PUSH2 0x1603 JUMP JUMPDEST SWAP2 POP POP PUSH2 0xCFD JUMP JUMPDEST POP DUP1 PUSH2 0xDA8 JUMPI PUSH1 0x40 MLOAD PUSH3 0x461BCD PUSH1 0xE5 SHL DUP2 MSTORE PUSH1 0x20 PUSH1 0x4 DUP3 ADD MSTORE PUSH1 0x13 PUSH1 0x24 DUP3 ADD MSTORE PUSH19 0x18D85B9B9BDD0819591A5D081C1C9BDA9958DD PUSH1 0x6A SHL PUSH1 0x44 DUP3 ADD MSTORE PUSH1 0x64 ADD PUSH2 0x5FF JUMP JUMPDEST PUSH1 0x0 DUP1 SLOAD DUP12 DUP3 MSTORE PUSH1 0x4 PUSH1 0x20 SWAP1 DUP2 MSTORE PUSH1 0x40 SWAP1 SWAP3 KECCAK256 SWAP1 DUP2 SSTORE DUP11 MLOAD PUSH2 0xDD2 SWAP3 PUSH1 0x1 SWAP1 SWAP3 ADD SWAP2 DUP13 ADD SWAP1 PUSH2 0xF40 JUMP JUMPDEST POP PUSH1 0x0 DUP11 DUP2 MSTORE PUSH1 0x4 PUSH1 0x20 SWAP1 DUP2 MSTORE PUSH1 0x40 SWAP1 SWAP2 KECCAK256 DUP10 MLOAD PUSH2 0xDF8 SWAP3 PUSH1 0x2 SWAP1 SWAP3 ADD SWAP2 DUP12 ADD SWAP1 PUSH2 0xF40 JUMP JUMPDEST POP PUSH1 0x0 DUP11 DUP2 MSTORE PUSH1 0x4 PUSH1 0x20 DUP2 DUP2 MSTORE PUSH1 0x40 SWAP1 SWAP3 KECCAK256 PUSH1 0x3 DUP2 ADD DUP11 SWAP1 SSTORE SWAP1 DUP2 ADD DUP9 SWAP1 SSTORE DUP7 MLOAD PUSH2 0xE2B SWAP3 PUSH1 0x5 SWAP1 SWAP3 ADD SWAP2 DUP9 ADD SWAP1 PUSH2 0xF40 JUMP JUMPDEST POP PUSH1 0x0 DUP11 DUP2 MSTORE PUSH1 0x4 PUSH1 0x20 SWAP1 DUP2 MSTORE PUSH1 0x40 SWAP1 SWAP2 KECCAK256 DUP6 MLOAD PUSH2 0xE51 SWAP3 PUSH1 0x6 SWAP1 SWAP3 ADD SWAP2 DUP8 ADD SWAP1 PUSH2 0xFC4 JUMP JUMPDEST POP POP PUSH1 0x0 DUP10 DUP2 MSTORE PUSH1 0x4 PUSH1 0x20 MSTORE PUSH1 0x40 SWAP1 KECCAK256 PUSH1 0x7 DUP2 ADD DUP1 SLOAD PUSH1 0x1 PUSH1 0x1 PUSH1 0xA0 SHL SUB NOT AND CALLER OR SWAP1 SSTORE PUSH1 0x9 ADD DUP1 SLOAD PUSH2 0xFFFF NOT AND PUSH1 0x1 OR SWAP1 SSTORE POP POP POP POP POP POP POP POP POP JUMP JUMPDEST PUSH1 0x1 SLOAD PUSH1 0x1 PUSH1 0x1 PUSH1 0xA0 SHL SUB AND CALLER EQ DUP1 PUSH2 0xEB7 JUMPI POP CALLER PUSH1 0x0 SWAP1 DUP2 MSTORE PUSH1 0x2 PUSH1 0x20 MSTORE PUSH1 0x40 SWAP1 KECCAK256 SLOAD PUSH1 0xFF AND JUMPDEST PUSH2 0xED3 JUMPI PUSH1 0x40 MLOAD PUSH3 0x461BCD PUSH1 0xE5 SHL DUP2 MSTORE PUSH1 0x4 ADD PUSH2 0x5FF SWAP1 PUSH2 0x162A JUMP JUMPDEST PUSH1 0x40 MLOAD PUSH4 0x21421707 PUSH1 0xE1 SHL DUP2 MSTORE ADDRESS PUSH1 0x4 DUP3 ADD MSTORE CALLER PUSH1 0x24 DUP3 ADD MSTORE PUSH1 0x44 DUP2 ADD DUP3 SWAP1 MSTORE DUP3 SWAP1 PUSH1 0x1 PUSH1 0x1 PUSH1 0xA0 SHL SUB DUP3 AND SWAP1 PUSH4 0x42842E0E SWAP1 PUSH1 0x64 ADD PUSH1 0x0 PUSH1 0x40 MLOAD DUP1 DUP4 SUB DUP2 PUSH1 0x0 DUP8 DUP1 EXTCODESIZE ISZERO DUP1 ISZERO PUSH2 0xF23 JUMPI PUSH1 0x0 DUP1 REVERT JUMPDEST POP GAS CALL ISZERO DUP1 ISZERO PUSH2 0xF37 JUMPI RETURNDATASIZE PUSH1 0x0 DUP1 RETURNDATACOPY RETURNDATASIZE PUSH1 0x0 REVERT JUMPDEST POP POP POP POP POP POP POP JUMP JUMPDEST DUP3 DUP1 SLOAD PUSH2 0xF4C SWAP1 PUSH2 0x15C9 JUMP JUMPDEST SWAP1 PUSH1 0x0 MSTORE PUSH1 0x20 PUSH1 0x0 KECCAK256 SWAP1 PUSH1 0x1F ADD PUSH1 0x20 SWAP1 DIV DUP2 ADD SWAP3 DUP3 PUSH2 0xF6E JUMPI PUSH1 0x0 DUP6 SSTORE PUSH2 0xFB4 JUMP JUMPDEST DUP3 PUSH1 0x1F LT PUSH2 0xF87 JUMPI DUP1 MLOAD PUSH1 0xFF NOT AND DUP4 DUP1 ADD OR DUP6 SSTORE PUSH2 0xFB4 JUMP JUMPDEST DUP3 DUP1 ADD PUSH1 0x1 ADD DUP6 SSTORE DUP3 ISZERO PUSH2 0xFB4 JUMPI SWAP2 DUP3 ADD JUMPDEST DUP3 DUP2 GT ISZERO PUSH2 0xFB4 JUMPI DUP3 MLOAD DUP3 SSTORE SWAP2 PUSH1 0x20 ADD SWAP2 SWAP1 PUSH1 0x1 ADD SWAP1 PUSH2 0xF99 JUMP JUMPDEST POP PUSH2 0xFC0 SWAP3 SWAP2 POP PUSH2 0x1072 JUMP JUMPDEST POP SWAP1 JUMP JUMPDEST DUP3 DUP1 SLOAD DUP3 DUP3 SSTORE SWAP1 PUSH1 0x0 MSTORE PUSH1 0x20 PUSH1 0x0 KECCAK256 SWAP1 DUP2 ADD SWAP3 DUP3 ISZERO PUSH2 0x1011 JUMPI SWAP2 PUSH1 0x20 MUL DUP3 ADD JUMPDEST DUP3 DUP2 GT ISZERO PUSH2 0x1011 JUMPI DUP3 MLOAD DUP1 MLOAD PUSH2 0x1001 SWAP2 DUP5 SWAP2 PUSH1 0x20 SWAP1 SWAP2 ADD SWAP1 PUSH2 0xF40 JUMP JUMPDEST POP SWAP2 PUSH1 0x20 ADD SWAP2 SWAP1 PUSH1 0x1 ADD SWAP1 PUSH2 0xFE4 JUMP JUMPDEST POP PUSH2 0xFC0 SWAP3 SWAP2 POP PUSH2 0x1087 JUMP JUMPDEST DUP3 DUP1 SLOAD DUP3 DUP3 SSTORE SWAP1 PUSH1 0x0 MSTORE PUSH1 0x20 PUSH1 0x0 KECCAK256 SWAP1 DUP2 ADD SWAP3 DUP3 ISZERO PUSH2 0xFB4 JUMPI SWAP2 PUSH1 0x20 MUL DUP3 ADD JUMPDEST DUP3 DUP2 GT ISZERO PUSH2 0xFB4 JUMPI DUP3 MLOAD DUP3 SLOAD PUSH1 0x1 PUSH1 0x1 PUSH1 0xA0 SHL SUB NOT AND PUSH1 0x1 PUSH1 0x1 PUSH1 0xA0 SHL SUB SWAP1 SWAP2 AND OR DUP3 SSTORE PUSH1 0x20 SWAP1 SWAP3 ADD SWAP2 PUSH1 0x1 SWAP1 SWAP2 ADD SWAP1 PUSH2 0x103D JUMP JUMPDEST JUMPDEST DUP1 DUP3 GT ISZERO PUSH2 0xFC0 JUMPI PUSH1 0x0 DUP2 SSTORE PUSH1 0x1 ADD PUSH2 0x1073 JUMP JUMPDEST DUP1 DUP3 GT ISZERO PUSH2 0xFC0 JUMPI PUSH1 0x0 PUSH2 0x109B DUP3 DUP3 PUSH2 0x10A4 JUMP JUMPDEST POP PUSH1 0x1 ADD PUSH2 0x1087 JUMP JUMPDEST POP DUP1 SLOAD PUSH2 0x10B0 SWAP1 PUSH2 0x15C9 JUMP JUMPDEST PUSH1 0x0 DUP3 SSTORE DUP1 PUSH1 0x1F LT PUSH2 0x10C0 JUMPI POP POP JUMP JUMPDEST PUSH1 0x1F ADD PUSH1 0x20 SWAP1 DIV SWAP1 PUSH1 0x0 MSTORE PUSH1 0x20 PUSH1 0x0 KECCAK256 SWAP1 DUP2 ADD SWAP1 PUSH2 0x634 SWAP2 SWAP1 PUSH2 0x1072 JUMP JUMPDEST PUSH1 0x0 PUSH1 0x20 DUP3 DUP5 SUB SLT ISZERO PUSH2 0x10F0 JUMPI PUSH1 0x0 DUP1 REVERT JUMPDEST POP CALLDATALOAD SWAP2 SWAP1 POP JUMP JUMPDEST PUSH1 0x0 DUP2 MLOAD DUP1 DUP5 MSTORE PUSH1 0x0 JUMPDEST DUP2 DUP2 LT ISZERO PUSH2 0x111D JUMPI PUSH1 0x20 DUP2 DUP6 ADD DUP2 ADD MLOAD DUP7 DUP4 ADD DUP3 ADD MSTORE ADD PUSH2 0x1101 JUMP JUMPDEST DUP2 DUP2 GT ISZERO PUSH2 0x112F JUMPI PUSH1 0x0 PUSH1 0x20 DUP4 DUP8 ADD ADD MSTORE JUMPDEST POP PUSH1 0x1F ADD PUSH1 0x1F NOT AND SWAP3 SWAP1 SWAP3 ADD PUSH1 0x20 ADD SWAP3 SWAP2 POP POP JUMP JUMPDEST PUSH1 0x0 PUSH2 0x120 DUP12 DUP4 MSTORE DUP1 PUSH1 0x20 DUP5 ADD MSTORE PUSH2 0x115E DUP2 DUP5 ADD DUP13 PUSH2 0x10F7 JUMP JUMPDEST SWAP1 POP DUP3 DUP2 SUB PUSH1 0x40 DUP5 ADD MSTORE PUSH2 0x1172 DUP2 DUP12 PUSH2 0x10F7 JUMP JUMPDEST SWAP1 POP DUP9 PUSH1 0x60 DUP5 ADD MSTORE DUP8 PUSH1 0x80 DUP5 ADD MSTORE DUP3 DUP2 SUB PUSH1 0xA0 DUP5 ADD MSTORE PUSH2 0x1192 DUP2 DUP9 PUSH2 0x10F7 JUMP JUMPDEST PUSH1 0x1 PUSH1 0x1 PUSH1 0xA0 SHL SUB SWAP7 SWAP1 SWAP7 AND PUSH1 0xC0 DUP5 ADD MSTORE POP POP SWAP2 ISZERO ISZERO PUSH1 0xE0 DUP4 ADD MSTORE ISZERO ISZERO PUSH2 0x100 SWAP1 SWAP2 ADD MSTORE SWAP7 SWAP6 POP POP POP POP POP POP JUMP JUMPDEST PUSH4 0x4E487B71 PUSH1 0xE0 SHL PUSH1 0x0 MSTORE PUSH1 0x41 PUSH1 0x4 MSTORE PUSH1 0x24 PUSH1 0x0 REVERT JUMPDEST PUSH1 0x40 MLOAD PUSH1 0x1F DUP3 ADD PUSH1 0x1F NOT AND DUP2 ADD PUSH8 0xFFFFFFFFFFFFFFFF DUP2 GT DUP3 DUP3 LT OR ISZERO PUSH2 0x11FF JUMPI PUSH2 0x11FF PUSH2 0x11C0 JUMP JUMPDEST PUSH1 0x40 MSTORE SWAP2 SWAP1 POP JUMP JUMPDEST PUSH1 0x0 PUSH8 0xFFFFFFFFFFFFFFFF DUP4 GT ISZERO PUSH2 0x1221 JUMPI PUSH2 0x1221 PUSH2 0x11C0 JUMP JUMPDEST PUSH2 0x1234 PUSH1 0x1F DUP5 ADD PUSH1 0x1F NOT AND PUSH1 0x20 ADD PUSH2 0x11D6 JUMP JUMPDEST SWAP1 POP DUP3 DUP2 MSTORE DUP4 DUP4 DUP4 ADD GT ISZERO PUSH2 0x1248 JUMPI PUSH1 0x0 DUP1 REVERT JUMPDEST DUP3 DUP3 PUSH1 0x20 DUP4 ADD CALLDATACOPY PUSH1 0x0 PUSH1 0x20 DUP5 DUP4 ADD ADD MSTORE SWAP4 SWAP3 POP POP POP JUMP JUMPDEST PUSH1 0x0 DUP3 PUSH1 0x1F DUP4 ADD SLT PUSH2 0x1270 JUMPI PUSH1 0x0 DUP1 REVERT JUMPDEST PUSH2 0x127F DUP4 DUP4 CALLDATALOAD PUSH1 0x20 DUP6 ADD PUSH2 0x1207 JUMP JUMPDEST SWAP4 SWAP3 POP POP POP JUMP JUMPDEST PUSH1 0x0 DUP3 PUSH1 0x1F DUP4 ADD SLT PUSH2 0x1297 JUMPI PUSH1 0x0 DUP1 REVERT JUMPDEST DUP2 CALLDATALOAD PUSH1 0x20 PUSH8 0xFFFFFFFFFFFFFFFF DUP1 DUP4 GT ISZERO PUSH2 0x12B4 JUMPI PUSH2 0x12B4 PUSH2 0x11C0 JUMP JUMPDEST DUP3 PUSH1 0x5 SHL PUSH2 0x12C3 DUP4 DUP3 ADD PUSH2 0x11D6 JUMP JUMPDEST SWAP4 DUP5 MSTORE DUP6 DUP2 ADD DUP4 ADD SWAP4 DUP4 DUP2 ADD SWAP1 DUP9 DUP7 GT ISZERO PUSH2 0x12DD JUMPI PUSH1 0x0 DUP1 REVERT JUMPDEST DUP5 DUP9 ADD SWAP3 POP JUMPDEST DUP6 DUP4 LT ISZERO PUSH2 0x1319 JUMPI DUP3 CALLDATALOAD DUP5 DUP2 GT ISZERO PUSH2 0x12FB JUMPI PUSH1 0x0 DUP1 DUP2 REVERT JUMPDEST PUSH2 0x1309 DUP11 DUP8 DUP4 DUP13 ADD ADD PUSH2 0x125F JUMP JUMPDEST DUP4 MSTORE POP SWAP2 DUP5 ADD SWAP2 SWAP1 DUP5 ADD SWAP1 PUSH2 0x12E3 JUMP JUMPDEST SWAP9 SWAP8 POP POP POP POP POP POP POP POP JUMP JUMPDEST PUSH1 0x0 DUP1 PUSH1 0x0 DUP1 PUSH1 0x0 DUP1 PUSH1 0xC0 DUP8 DUP10 SUB SLT ISZERO PUSH2 0x133E JUMPI PUSH1 0x0 DUP1 REVERT JUMPDEST DUP7 CALLDATALOAD PUSH8 0xFFFFFFFFFFFFFFFF DUP1 DUP3 GT ISZERO PUSH2 0x1356 JUMPI PUSH1 0x0 DUP1 REVERT JUMPDEST PUSH2 0x1362 DUP11 DUP4 DUP12 ADD PUSH2 0x125F JUMP JUMPDEST SWAP8 POP PUSH1 0x20 DUP10 ADD CALLDATALOAD SWAP2 POP DUP1 DUP3 GT ISZERO PUSH2 0x1378 JUMPI PUSH1 0x0 DUP1 REVERT JUMPDEST PUSH2 0x1384 DUP11 DUP4 DUP12 ADD PUSH2 0x125F JUMP JUMPDEST SWAP7 POP PUSH1 0x40 DUP10 ADD CALLDATALOAD SWAP6 POP PUSH1 0x60 DUP10 ADD CALLDATALOAD SWAP5 POP PUSH1 0x80 DUP10 ADD CALLDATALOAD SWAP2 POP DUP1 DUP3 GT ISZERO PUSH2 0x13A8 JUMPI PUSH1 0x0 DUP1 REVERT JUMPDEST PUSH2 0x13B4 DUP11 DUP4 DUP12 ADD PUSH2 0x125F JUMP JUMPDEST SWAP4 POP PUSH1 0xA0 DUP10 ADD CALLDATALOAD SWAP2 POP DUP1 DUP3 GT ISZERO PUSH2 0x13CA JUMPI PUSH1 0x0 DUP1 REVERT JUMPDEST POP PUSH2 0x13D7 DUP10 DUP3 DUP11 ADD PUSH2 0x1286 JUMP JUMPDEST SWAP2 POP POP SWAP3 SWAP6 POP SWAP3 SWAP6 POP SWAP3 SWAP6 JUMP JUMPDEST DUP1 CALLDATALOAD PUSH1 0x1 PUSH1 0x1 PUSH1 0xA0 SHL SUB DUP2 AND DUP2 EQ PUSH2 0x13FB JUMPI PUSH1 0x0 DUP1 REVERT JUMPDEST SWAP2 SWAP1 POP JUMP JUMPDEST PUSH1 0x0 PUSH1 0x20 DUP3 DUP5 SUB SLT ISZERO PUSH2 0x1412 JUMPI PUSH1 0x0 DUP1 REVERT JUMPDEST PUSH2 0x127F DUP3 PUSH2 0x13E4 JUMP JUMPDEST DUP1 ISZERO ISZERO DUP2 EQ PUSH2 0x634 JUMPI PUSH1 0x0 DUP1 REVERT JUMPDEST PUSH1 0x0 DUP1 PUSH1 0x40 DUP4 DUP6 SUB SLT ISZERO PUSH2 0x143C JUMPI PUSH1 0x0 DUP1 REVERT JUMPDEST PUSH2 0x1445 DUP4 PUSH2 0x13E4 JUMP JUMPDEST SWAP2 POP PUSH1 0x20 DUP4 ADD CALLDATALOAD PUSH2 0x1455 DUP2 PUSH2 0x141B JUMP JUMPDEST DUP1 SWAP2 POP POP SWAP3 POP SWAP3 SWAP1 POP JUMP JUMPDEST PUSH1 0x0 DUP1 PUSH1 0x0 DUP1 PUSH1 0x80 DUP6 DUP8 SUB SLT ISZERO PUSH2 0x1476 JUMPI PUSH1 0x0 DUP1 REVERT JUMPDEST PUSH2 0x147F DUP6 PUSH2 0x13E4 JUMP JUMPDEST SWAP4 POP PUSH1 0x20 DUP6 ADD CALLDATALOAD SWAP3 POP PUSH1 0x40 DUP6 ADD CALLDATALOAD SWAP2 POP PUSH1 0x60 DUP6 ADD CALLDATALOAD PUSH8 0xFFFFFFFFFFFFFFFF DUP2 GT ISZERO PUSH2 0x14A9 JUMPI PUSH1 0x0 DUP1 REVERT JUMPDEST DUP6 ADD PUSH1 0x1F DUP2 ADD DUP8 SGT PUSH2 0x14BA JUMPI PUSH1 0x0 DUP1 REVERT JUMPDEST PUSH2 0x14C9 DUP8 DUP3 CALLDATALOAD PUSH1 0x20 DUP5 ADD PUSH2 0x1207 JUMP JUMPDEST SWAP2 POP POP SWAP3 SWAP6 SWAP2 SWAP5 POP SWAP3 POP JUMP JUMPDEST PUSH1 0x0 DUP1 PUSH1 0x40 DUP4 DUP6 SUB SLT ISZERO PUSH2 0x14E8 JUMPI PUSH1 0x0 DUP1 REVERT JUMPDEST PUSH2 0x14F1 DUP4 PUSH2 0x13E4 JUMP JUMPDEST SWAP5 PUSH1 0x20 SWAP4 SWAP1 SWAP4 ADD CALLDATALOAD SWAP4 POP POP POP JUMP JUMPDEST PUSH1 0x0 DUP1 PUSH1 0x0 DUP1 PUSH1 0x0 DUP1 PUSH1 0x0 PUSH1 0xE0 DUP9 DUP11 SUB SLT ISZERO PUSH2 0x151A JUMPI PUSH1 0x0 DUP1 REVERT JUMPDEST DUP8 CALLDATALOAD SWAP7 POP PUSH1 0x20 DUP9 ADD CALLDATALOAD PUSH8 0xFFFFFFFFFFFFFFFF DUP1 DUP3 GT ISZERO PUSH2 0x1539 JUMPI PUSH1 0x0 DUP1 REVERT JUMPDEST PUSH2 0x1545 DUP12 DUP4 DUP13 ADD PUSH2 0x125F JUMP JUMPDEST SWAP8 POP PUSH1 0x40 DUP11 ADD CALLDATALOAD SWAP2 POP DUP1 DUP3 GT ISZERO PUSH2 0x155B JUMPI PUSH1 0x0 DUP1 REVERT JUMPDEST PUSH2 0x1567 DUP12 DUP4 DUP13 ADD PUSH2 0x125F JUMP JUMPDEST SWAP7 POP PUSH1 0x60 DUP11 ADD CALLDATALOAD SWAP6 POP PUSH1 0x80 DUP11 ADD CALLDATALOAD SWAP5 POP PUSH1 0xA0 DUP11 ADD CALLDATALOAD SWAP2 POP DUP1 DUP3 GT ISZERO PUSH2 0x158B JUMPI PUSH1 0x0 DUP1 REVERT JUMPDEST PUSH2 0x1597 DUP12 DUP4 DUP13 ADD PUSH2 0x125F JUMP JUMPDEST SWAP4 POP PUSH1 0xC0 DUP11 ADD CALLDATALOAD SWAP2 POP DUP1 DUP3 GT ISZERO PUSH2 0x15AD JUMPI PUSH1 0x0 DUP1 REVERT JUMPDEST POP PUSH2 0x15BA DUP11 DUP3 DUP12 ADD PUSH2 0x1286 JUMP JUMPDEST SWAP2 POP POP SWAP3 SWAP6 SWAP9 SWAP2 SWAP5 SWAP8 POP SWAP3 SWAP6 POP JUMP JUMPDEST PUSH1 0x1 DUP2 DUP2 SHR SWAP1 DUP3 AND DUP1 PUSH2 0x15DD JUMPI PUSH1 0x7F DUP3 AND SWAP2 POP JUMPDEST PUSH1 0x20 DUP3 LT DUP2 SUB PUSH2 0x15FD JUMPI PUSH4 0x4E487B71 PUSH1 0xE0 SHL PUSH1 0x0 MSTORE PUSH1 0x22 PUSH1 0x4 MSTORE PUSH1 0x24 PUSH1 0x0 REVERT JUMPDEST POP SWAP2 SWAP1 POP JUMP JUMPDEST PUSH1 0x0 PUSH1 0x1 DUP3 ADD PUSH2 0x1623 JUMPI PUSH4 0x4E487B71 PUSH1 0xE0 SHL PUSH1 0x0 MSTORE PUSH1 0x11 PUSH1 0x4 MSTORE PUSH1 0x24 PUSH1 0x0 REVERT JUMPDEST POP PUSH1 0x1 ADD SWAP1 JUMP JUMPDEST PUSH1 0x20 DUP1 DUP3 MSTORE PUSH1 0x9 SWAP1 DUP3 ADD MSTORE PUSH9 0x3737BA1030B236B4B7 PUSH1 0xB9 SHL PUSH1 0x40 DUP3 ADD MSTORE PUSH1 0x60 ADD SWAP1 JUMP JUMPDEST PUSH1 0x1 PUSH1 0x1 PUSH1 0xA0 SHL SUB DUP7 DUP2 AND DUP3 MSTORE DUP6 AND PUSH1 0x20 DUP3 ADD MSTORE PUSH1 0x40 DUP2 ADD DUP5 SWAP1 MSTORE PUSH1 0x60 DUP2 ADD DUP4 SWAP1 MSTORE PUSH1 0xA0 PUSH1 0x80 DUP3 ADD DUP2 SWAP1 MSTORE PUSH1 0x0 SWAP1 PUSH2 0x1687 SWAP1 DUP4 ADD DUP5 PUSH2 0x10F7 JUMP JUMPDEST SWAP8 SWAP7 POP POP POP POP POP POP POP JUMP JUMPDEST PUSH1 0x0 PUSH1 0x20 DUP3 DUP5 SUB SLT ISZERO PUSH2 0x16A4 JUMPI PUSH1 0x0 DUP1 REVERT JUMPDEST DUP2 MLOAD PUSH2 0x127F DUP2 PUSH2 0x141B JUMP JUMPDEST PUSH4 0x4E487B71 PUSH1 0xE0 SHL PUSH1 0x0 MSTORE PUSH1 0x32 PUSH1 0x4 MSTORE PUSH1 0x24 PUSH1 0x0 REVERT INVALID LOG2 PUSH5 0x6970667358 0x22 SLT KECCAK256 0x26 PUSH9 0xBFD4E4D864627C2570 0x1E REVERT BALANCE 0x23 PUSH13 0xAE23C605123D98D73A27D7B8EB 0xE5 JUMP 0x29 PUSH5 0x736F6C6343 STOP ADDMOD 0xE STOP CALLER "
				},
				"gasEstimates": {
					"creation": {
						"codeDepositCost": "1176600",
						"executionCost": "69668",
						"totalCost": "1246268"
					},
					"external": {
						"admins(address)": "2598",
						"create(string,string,uint256,uint256,string,string[])": "infinite",
						"owner()": "2448",
						"price()": "2317",
						"projects(uint256)": "infinite",
						"setAdmin(address,bool)": "29148",
						"setPrice(uint256)": "26660",
						"update(uint256,string,string,uint256,uint256,string,string[])": "infinite",
						"withdrawERC1155(address,uint256,uint256,bytes)": "infinite",
						"withdrawERC20(address,uint256)": "infinite",
						"withdrawERC721(address,uint256)": "infinite",
						"withdrawFunds()": "infinite"
					}
				},
				"methodIdentifiers": {
					"admins(address)": "429b62e5",
					"create(string,string,uint256,uint256,string,string[])": "230abfd0",
					"owner()": "8da5cb5b",
					"price()": "a035b1fe",
					"projects(uint256)": "107046bd",
					"setAdmin(address,bool)": "4b0bddd2",
					"setPrice(uint256)": "91b7f5ed",
					"update(uint256,string,string,uint256,uint256,string,string[])": "e3a51523",
					"withdrawERC1155(address,uint256,uint256,bytes)": "a1538bde",
					"withdrawERC20(address,uint256)": "a1db9782",
					"withdrawERC721(address,uint256)": "f3e414f8",
					"withdrawFunds()": "24600fc3"
				}
			},
			"storageLayout": {
				"storage": [
					{
						"astId": 370,
						"contract": "contracts/GoingUpProjects.sol:GoingUpProjects",
						"label": "idCounter",
						"offset": 0,
						"slot": "0",
						"type": "t_uint256"
					},
					{
						"astId": 372,
						"contract": "contracts/GoingUpProjects.sol:GoingUpProjects",
						"label": "owner",
						"offset": 0,
						"slot": "1",
						"type": "t_address"
					},
					{
						"astId": 376,
						"contract": "contracts/GoingUpProjects.sol:GoingUpProjects",
						"label": "admins",
						"offset": 0,
						"slot": "2",
						"type": "t_mapping(t_address,t_bool)"
					},
					{
						"astId": 417,
						"contract": "contracts/GoingUpProjects.sol:GoingUpProjects",
						"label": "price",
						"offset": 0,
						"slot": "3",
						"type": "t_uint256"
					},
					{
						"astId": 447,
						"contract": "contracts/GoingUpProjects.sol:GoingUpProjects",
						"label": "projects",
						"offset": 0,
						"slot": "4",
						"type": "t_mapping(t_uint256,t_struct(Project)358_storage)"
					}
				],
				"types": {
					"t_address": {
						"encoding": "inplace",
						"label": "address",
						"numberOfBytes": "20"
					},
					"t_array(t_address)dyn_storage": {
						"base": "t_address",
						"encoding": "dynamic_array",
						"label": "address[]",
						"numberOfBytes": "32"
					},
					"t_array(t_string_storage)dyn_storage": {
						"base": "t_string_storage",
						"encoding": "dynamic_array",
						"label": "string[]",
						"numberOfBytes": "32"
					},
					"t_bool": {
						"encoding": "inplace",
						"label": "bool",
						"numberOfBytes": "1"
					},
					"t_mapping(t_address,t_bool)": {
						"encoding": "mapping",
						"key": "t_address",
						"label": "mapping(address => bool)",
						"numberOfBytes": "32",
						"value": "t_bool"
					},
					"t_mapping(t_uint256,t_struct(Project)358_storage)": {
						"encoding": "mapping",
						"key": "t_uint256",
						"label": "mapping(uint256 => struct GoingUpProjects.Project)",
						"numberOfBytes": "32",
						"value": "t_struct(Project)358_storage"
					},
					"t_string_storage": {
						"encoding": "bytes",
						"label": "string",
						"numberOfBytes": "32"
					},
					"t_struct(Project)358_storage": {
						"encoding": "inplace",
						"label": "struct GoingUpProjects.Project",
						"members": [
							{
								"astId": 335,
								"contract": "contracts/GoingUpProjects.sol:GoingUpProjects",
								"label": "id",
								"offset": 0,
								"slot": "0",
								"type": "t_uint256"
							},
							{
								"astId": 337,
								"contract": "contracts/GoingUpProjects.sol:GoingUpProjects",
								"label": "name",
								"offset": 0,
								"slot": "1",
								"type": "t_string_storage"
							},
							{
								"astId": 339,
								"contract": "contracts/GoingUpProjects.sol:GoingUpProjects",
								"label": "description",
								"offset": 0,
								"slot": "2",
								"type": "t_string_storage"
							},
							{
								"astId": 341,
								"contract": "contracts/GoingUpProjects.sol:GoingUpProjects",
								"label": "started",
								"offset": 0,
								"slot": "3",
								"type": "t_uint256"
							},
							{
								"astId": 343,
								"contract": "contracts/GoingUpProjects.sol:GoingUpProjects",
								"label": "ended",
								"offset": 0,
								"slot": "4",
								"type": "t_uint256"
							},
							{
								"astId": 345,
								"contract": "contracts/GoingUpProjects.sol:GoingUpProjects",
								"label": "primaryUrl",
								"offset": 0,
								"slot": "5",
								"type": "t_string_storage"
							},
							{
								"astId": 348,
								"contract": "contracts/GoingUpProjects.sol:GoingUpProjects",
								"label": "tags",
								"offset": 0,
								"slot": "6",
								"type": "t_array(t_string_storage)dyn_storage"
							},
							{
								"astId": 350,
								"contract": "contracts/GoingUpProjects.sol:GoingUpProjects",
								"label": "owner",
								"offset": 0,
								"slot": "7",
								"type": "t_address"
							},
							{
								"astId": 353,
								"contract": "contracts/GoingUpProjects.sol:GoingUpProjects",
								"label": "members",
								"offset": 0,
								"slot": "8",
								"type": "t_array(t_address)dyn_storage"
							},
							{
								"astId": 355,
								"contract": "contracts/GoingUpProjects.sol:GoingUpProjects",
								"label": "active",
								"offset": 0,
								"slot": "9",
								"type": "t_bool"
							},
							{
								"astId": 357,
								"contract": "contracts/GoingUpProjects.sol:GoingUpProjects",
								"label": "allowMembersToEdit",
								"offset": 1,
								"slot": "9",
								"type": "t_bool"
							}
						],
						"numberOfBytes": "320"
					},
					"t_uint256": {
						"encoding": "inplace",
						"label": "uint256",
						"numberOfBytes": "32"
					}
				}
			},
			"userdoc": {
				"kind": "user",
				"methods": {
					"create(string,string,uint256,uint256,string,string[])": {
						"notice": "Create a project"
					},
					"setAdmin(address,bool)": {
						"notice": "Sets the admin flag for address"
					},
					"setPrice(uint256)": {
						"notice": "Sets the price for creating and updating projects"
					},
					"update(uint256,string,string,uint256,uint256,string,string[])": {
						"notice": "Update a project"
					},
					"withdrawERC1155(address,uint256,uint256,bytes)": {
						"notice": "Withdraw ERC1155 token"
					},
					"withdrawERC20(address,uint256)": {
						"notice": "Withdraw ERC20 tokens"
					},
					"withdrawERC721(address,uint256)": {
						"notice": "Withdraw ERC721 token"
					},
					"withdrawFunds()": {
						"notice": "Withdraw native tokens (matic)"
					}
				},
				"version": 1
			}
		}
	}
}