{
	"contracts/GoingUpProjects.sol": {
		"GoingUpProjects": {
			"abi": [
				{
					"inputs": [],
					"stateMutability": "nonpayable",
					"type": "constructor"
				},
				{
					"inputs": [
						{
							"internalType": "address",
							"name": "",
							"type": "address"
						}
					],
					"name": "admins",
					"outputs": [
						{
							"internalType": "bool",
							"name": "",
							"type": "bool"
						}
					],
					"stateMutability": "view",
					"type": "function"
				},
				{
					"inputs": [],
					"name": "owner",
					"outputs": [
						{
							"internalType": "address",
							"name": "",
							"type": "address"
						}
					],
					"stateMutability": "view",
					"type": "function"
				},
				{
					"inputs": [],
					"name": "price",
					"outputs": [
						{
							"internalType": "uint256",
							"name": "",
							"type": "uint256"
						}
					],
					"stateMutability": "view",
					"type": "function"
				},
				{
					"inputs": [
						{
							"internalType": "address",
							"name": "targetAddress",
							"type": "address"
						},
						{
							"internalType": "bool",
							"name": "isAdmin",
							"type": "bool"
						}
					],
					"name": "setAdmin",
					"outputs": [],
					"stateMutability": "nonpayable",
					"type": "function"
				},
				{
					"inputs": [
						{
							"internalType": "uint256",
							"name": "newPrice",
							"type": "uint256"
						}
					],
					"name": "setPrice",
					"outputs": [],
					"stateMutability": "nonpayable",
					"type": "function"
				}
			],
			"devdoc": {
				"author": "Mark Ibanez",
				"kind": "dev",
				"methods": {
					"setAdmin(address,bool)": {
						"params": {
							"isAdmin": "Admin flag to set (true means address is admin, false mean address is not admin)",
							"targetAddress": "Target address to set admin flag"
						}
					},
					"setPrice(uint256)": {
						"params": {
							"newPrice": "New price for creating and updating projects"
						}
					}
				},
				"title": "GoingUP Platform Projects Smart Contract",
				"version": 1
			},
			"evm": {
				"assembly": "    /* \"contracts/GoingUpProjects.sol\":146:1570  contract GoingUpProjects {... */\n  mstore(0x40, 0x80)\n    /* \"contracts/GoingUpProjects.sol\":547:548  1 */\n  0x01\n    /* \"contracts/GoingUpProjects.sol\":519:548  uint256 private idCounter = 1 */\n  0x00\n  sstore\n    /* \"contracts/GoingUpProjects.sol\":1120:1132  1 * 10 ** 16 */\n  0x2386f26fc10000\n    /* \"contracts/GoingUpProjects.sol\":1097:1132  uint256 public price = 1 * 10 ** 16 */\n  0x03\n  sstore\n    /* \"contracts/GoingUpProjects.sol\":451:511  constructor () {        ... */\n  callvalue\n  dup1\n  iszero\n  tag_1\n  jumpi\n  0x00\n  dup1\n  revert\ntag_1:\n  pop\n    /* \"contracts/GoingUpProjects.sol\":485:490  owner */\n  0x01\n    /* \"contracts/GoingUpProjects.sol\":485:503  owner = msg.sender */\n  dup1\n  sload\n  not(sub(shl(0xa0, 0x01), 0x01))\n  and\n    /* \"contracts/GoingUpProjects.sol\":493:503  msg.sender */\n  caller\n    /* \"contracts/GoingUpProjects.sol\":485:503  owner = msg.sender */\n  or\n  swap1\n  sstore\n    /* \"contracts/GoingUpProjects.sol\":146:1570  contract GoingUpProjects {... */\n  dataSize(sub_0)\n  dup1\n  dataOffset(sub_0)\n  0x00\n  codecopy\n  0x00\n  return\nstop\n\nsub_0: assembly {\n        /* \"contracts/GoingUpProjects.sol\":146:1570  contract GoingUpProjects {... */\n      mstore(0x40, 0x80)\n      callvalue\n      dup1\n      iszero\n      tag_1\n      jumpi\n      0x00\n      dup1\n      revert\n    tag_1:\n      pop\n      jumpi(tag_2, lt(calldatasize, 0x04))\n      shr(0xe0, calldataload(0x00))\n      dup1\n      0x429b62e5\n      eq\n      tag_3\n      jumpi\n      dup1\n      0x4b0bddd2\n      eq\n      tag_4\n      jumpi\n      dup1\n      0x8da5cb5b\n      eq\n      tag_5\n      jumpi\n      dup1\n      0x91b7f5ed\n      eq\n      tag_6\n      jumpi\n      dup1\n      0xa035b1fe\n      eq\n      tag_7\n      jumpi\n    tag_2:\n      0x00\n      dup1\n      revert\n        /* \"contracts/GoingUpProjects.sol\":584:622  mapping(address => bool) public admins */\n    tag_3:\n      tag_8\n      tag_9\n      calldatasize\n      0x04\n      tag_10\n      jump\t// in\n    tag_9:\n      mstore(0x20, 0x02)\n      0x00\n      swap1\n      dup2\n      mstore\n      0x40\n      swap1\n      keccak256\n      sload\n      0xff\n      and\n      dup2\n      jump\n    tag_8:\n      mload(0x40)\n        /* \"#utility.yul\":548:562   */\n      swap1\n      iszero\n        /* \"#utility.yul\":541:563   */\n      iszero\n        /* \"#utility.yul\":523:564   */\n      dup2\n      mstore\n        /* \"#utility.yul\":511:513   */\n      0x20\n        /* \"#utility.yul\":496:514   */\n      add\n        /* \"contracts/GoingUpProjects.sol\":584:622  mapping(address => bool) public admins */\n    tag_12:\n      mload(0x40)\n      dup1\n      swap2\n      sub\n      swap1\n      return\n        /* \"contracts/GoingUpProjects.sol\":965:1087  function setAdmin(address targetAddress, bool isAdmin) public onlyAdmin {... */\n    tag_4:\n      tag_14\n      tag_15\n      calldatasize\n      0x04\n      tag_16\n      jump\t// in\n    tag_15:\n      tag_17\n      jump\t// in\n    tag_14:\n      stop\n        /* \"contracts/GoingUpProjects.sol\":557:577  address public owner */\n    tag_5:\n      sload(0x01)\n      tag_18\n      swap1\n      sub(shl(0xa0, 0x01), 0x01)\n      and\n      dup2\n      jump\n    tag_18:\n      mload(0x40)\n      sub(shl(0xa0, 0x01), 0x01)\n        /* \"#utility.yul\":1091:1123   */\n      swap1\n      swap2\n      and\n        /* \"#utility.yul\":1073:1124   */\n      dup2\n      mstore\n        /* \"#utility.yul\":1061:1063   */\n      0x20\n        /* \"#utility.yul\":1046:1064   */\n      add\n        /* \"contracts/GoingUpProjects.sol\":557:577  address public owner */\n      tag_12\n        /* \"#utility.yul\":927:1130   */\n      jump\n        /* \"contracts/GoingUpProjects.sol\":1309:1397  function setPrice(uint256 newPrice) public onlyAdmin {... */\n    tag_6:\n      tag_14\n      tag_23\n      calldatasize\n      0x04\n      tag_24\n      jump\t// in\n    tag_23:\n      tag_25\n      jump\t// in\n        /* \"contracts/GoingUpProjects.sol\":1097:1132  uint256 public price = 1 * 10 ** 16 */\n    tag_7:\n      tag_26\n      sload(0x03)\n      dup2\n      jump\n    tag_26:\n      mload(0x40)\n        /* \"#utility.yul\":1466:1491   */\n      swap1\n      dup2\n      mstore\n        /* \"#utility.yul\":1454:1456   */\n      0x20\n        /* \"#utility.yul\":1439:1457   */\n      add\n        /* \"contracts/GoingUpProjects.sol\":1097:1132  uint256 public price = 1 * 10 ** 16 */\n      tag_12\n        /* \"#utility.yul\":1320:1497   */\n      jump\n        /* \"contracts/GoingUpProjects.sol\":965:1087  function setAdmin(address targetAddress, bool isAdmin) public onlyAdmin {... */\n    tag_17:\n        /* \"contracts/GoingUpProjects.sol\":667:672  owner */\n      and(sub(shl(0xa0, 0x01), 0x01), sload(0x01))\n        /* \"contracts/GoingUpProjects.sol\":676:686  msg.sender */\n      caller\n        /* \"contracts/GoingUpProjects.sol\":667:686  owner == msg.sender */\n      eq\n      dup1\n        /* \"contracts/GoingUpProjects.sol\":667:708  owner == msg.sender || admins[msg.sender] */\n      tag_31\n      jumpi\n      pop\n        /* \"contracts/GoingUpProjects.sol\":697:707  msg.sender */\n      caller\n        /* \"contracts/GoingUpProjects.sol\":690:708  admins[msg.sender] */\n      0x00\n      swap1\n      dup2\n      mstore\n        /* \"contracts/GoingUpProjects.sol\":690:696  admins */\n      0x02\n        /* \"contracts/GoingUpProjects.sol\":690:708  admins[msg.sender] */\n      0x20\n      mstore\n      0x40\n      swap1\n      keccak256\n      sload\n      0xff\n      and\n        /* \"contracts/GoingUpProjects.sol\":667:708  owner == msg.sender || admins[msg.sender] */\n    tag_31:\n        /* \"contracts/GoingUpProjects.sol\":659:722  require(owner == msg.sender || admins[msg.sender], \"not admin\") */\n      tag_32\n      jumpi\n      mload(0x40)\n      shl(0xe5, 0x461bcd)\n      dup2\n      mstore\n        /* \"#utility.yul\":1704:1706   */\n      0x20\n        /* \"contracts/GoingUpProjects.sol\":659:722  require(owner == msg.sender || admins[msg.sender], \"not admin\") */\n      0x04\n      dup3\n      add\n        /* \"#utility.yul\":1686:1707   */\n      mstore\n        /* \"#utility.yul\":1743:1744   */\n      0x09\n        /* \"#utility.yul\":1723:1741   */\n      0x24\n      dup3\n      add\n        /* \"#utility.yul\":1716:1745   */\n      mstore\n      shl(0xb9, 0x3737ba1030b236b4b7)\n        /* \"#utility.yul\":1761:1779   */\n      0x44\n      dup3\n      add\n        /* \"#utility.yul\":1754:1793   */\n      mstore\n        /* \"#utility.yul\":1810:1828   */\n      0x64\n      add\n        /* \"contracts/GoingUpProjects.sol\":659:722  require(owner == msg.sender || admins[msg.sender], \"not admin\") */\n    tag_33:\n      mload(0x40)\n      dup1\n      swap2\n      sub\n      swap1\n      revert\n    tag_32:\n      sub(shl(0xa0, 0x01), 0x01)\n        /* \"contracts/GoingUpProjects.sol\":1048:1069  admins[targetAddress] */\n      swap2\n      swap1\n      swap2\n      and\n      0x00\n      swap1\n      dup2\n      mstore\n        /* \"contracts/GoingUpProjects.sol\":1048:1054  admins */\n      0x02\n        /* \"contracts/GoingUpProjects.sol\":1048:1069  admins[targetAddress] */\n      0x20\n      mstore\n      0x40\n      swap1\n      keccak256\n        /* \"contracts/GoingUpProjects.sol\":1048:1079  admins[targetAddress] = isAdmin */\n      dup1\n      sload\n      not(0xff)\n      and\n      swap2\n      iszero\n      iszero\n      swap2\n      swap1\n      swap2\n      or\n      swap1\n      sstore\n        /* \"contracts/GoingUpProjects.sol\":965:1087  function setAdmin(address targetAddress, bool isAdmin) public onlyAdmin {... */\n      jump\t// out\n        /* \"contracts/GoingUpProjects.sol\":1309:1397  function setPrice(uint256 newPrice) public onlyAdmin {... */\n    tag_25:\n        /* \"contracts/GoingUpProjects.sol\":667:672  owner */\n      and(sub(shl(0xa0, 0x01), 0x01), sload(0x01))\n        /* \"contracts/GoingUpProjects.sol\":676:686  msg.sender */\n      caller\n        /* \"contracts/GoingUpProjects.sol\":667:686  owner == msg.sender */\n      eq\n      dup1\n        /* \"contracts/GoingUpProjects.sol\":667:708  owner == msg.sender || admins[msg.sender] */\n      tag_37\n      jumpi\n      pop\n        /* \"contracts/GoingUpProjects.sol\":697:707  msg.sender */\n      caller\n        /* \"contracts/GoingUpProjects.sol\":690:708  admins[msg.sender] */\n      0x00\n      swap1\n      dup2\n      mstore\n        /* \"contracts/GoingUpProjects.sol\":690:696  admins */\n      0x02\n        /* \"contracts/GoingUpProjects.sol\":690:708  admins[msg.sender] */\n      0x20\n      mstore\n      0x40\n      swap1\n      keccak256\n      sload\n      0xff\n      and\n        /* \"contracts/GoingUpProjects.sol\":667:708  owner == msg.sender || admins[msg.sender] */\n    tag_37:\n        /* \"contracts/GoingUpProjects.sol\":659:722  require(owner == msg.sender || admins[msg.sender], \"not admin\") */\n      tag_38\n      jumpi\n      mload(0x40)\n      shl(0xe5, 0x461bcd)\n      dup2\n      mstore\n        /* \"#utility.yul\":1704:1706   */\n      0x20\n        /* \"contracts/GoingUpProjects.sol\":659:722  require(owner == msg.sender || admins[msg.sender], \"not admin\") */\n      0x04\n      dup3\n      add\n        /* \"#utility.yul\":1686:1707   */\n      mstore\n        /* \"#utility.yul\":1743:1744   */\n      0x09\n        /* \"#utility.yul\":1723:1741   */\n      0x24\n      dup3\n      add\n        /* \"#utility.yul\":1716:1745   */\n      mstore\n      shl(0xb9, 0x3737ba1030b236b4b7)\n        /* \"#utility.yul\":1761:1779   */\n      0x44\n      dup3\n      add\n        /* \"#utility.yul\":1754:1793   */\n      mstore\n        /* \"#utility.yul\":1810:1828   */\n      0x64\n      add\n        /* \"contracts/GoingUpProjects.sol\":659:722  require(owner == msg.sender || admins[msg.sender], \"not admin\") */\n      tag_33\n        /* \"#utility.yul\":1502:1834   */\n      jump\n        /* \"contracts/GoingUpProjects.sol\":659:722  require(owner == msg.sender || admins[msg.sender], \"not admin\") */\n    tag_38:\n        /* \"contracts/GoingUpProjects.sol\":1373:1378  price */\n      0x03\n        /* \"contracts/GoingUpProjects.sol\":1373:1389  price = newPrice */\n      sstore\n        /* \"contracts/GoingUpProjects.sol\":1309:1397  function setPrice(uint256 newPrice) public onlyAdmin {... */\n      jump\t// out\n        /* \"#utility.yul\":14:187   */\n    tag_41:\n        /* \"#utility.yul\":82:102   */\n      dup1\n      calldataload\n      sub(shl(0xa0, 0x01), 0x01)\n        /* \"#utility.yul\":131:162   */\n      dup2\n      and\n        /* \"#utility.yul\":121:163   */\n      dup2\n      eq\n        /* \"#utility.yul\":111:181   */\n      tag_44\n      jumpi\n        /* \"#utility.yul\":177:178   */\n      0x00\n        /* \"#utility.yul\":174:175   */\n      dup1\n        /* \"#utility.yul\":167:179   */\n      revert\n        /* \"#utility.yul\":111:181   */\n    tag_44:\n        /* \"#utility.yul\":14:187   */\n      swap2\n      swap1\n      pop\n      jump\t// out\n        /* \"#utility.yul\":192:378   */\n    tag_10:\n        /* \"#utility.yul\":251:257   */\n      0x00\n        /* \"#utility.yul\":304:306   */\n      0x20\n        /* \"#utility.yul\":292:301   */\n      dup3\n        /* \"#utility.yul\":283:290   */\n      dup5\n        /* \"#utility.yul\":279:302   */\n      sub\n        /* \"#utility.yul\":275:307   */\n      slt\n        /* \"#utility.yul\":272:324   */\n      iszero\n      tag_46\n      jumpi\n        /* \"#utility.yul\":320:321   */\n      0x00\n        /* \"#utility.yul\":317:318   */\n      dup1\n        /* \"#utility.yul\":310:322   */\n      revert\n        /* \"#utility.yul\":272:324   */\n    tag_46:\n        /* \"#utility.yul\":343:372   */\n      tag_47\n        /* \"#utility.yul\":362:371   */\n      dup3\n        /* \"#utility.yul\":343:372   */\n      tag_41\n      jump\t// in\n    tag_47:\n        /* \"#utility.yul\":333:372   */\n      swap4\n        /* \"#utility.yul\":192:378   */\n      swap3\n      pop\n      pop\n      pop\n      jump\t// out\n        /* \"#utility.yul\":575:922   */\n    tag_16:\n        /* \"#utility.yul\":640:646   */\n      0x00\n        /* \"#utility.yul\":648:654   */\n      dup1\n        /* \"#utility.yul\":701:703   */\n      0x40\n        /* \"#utility.yul\":689:698   */\n      dup4\n        /* \"#utility.yul\":680:687   */\n      dup6\n        /* \"#utility.yul\":676:699   */\n      sub\n        /* \"#utility.yul\":672:704   */\n      slt\n        /* \"#utility.yul\":669:721   */\n      iszero\n      tag_50\n      jumpi\n        /* \"#utility.yul\":717:718   */\n      0x00\n        /* \"#utility.yul\":714:715   */\n      dup1\n        /* \"#utility.yul\":707:719   */\n      revert\n        /* \"#utility.yul\":669:721   */\n    tag_50:\n        /* \"#utility.yul\":740:769   */\n      tag_51\n        /* \"#utility.yul\":759:768   */\n      dup4\n        /* \"#utility.yul\":740:769   */\n      tag_41\n      jump\t// in\n    tag_51:\n        /* \"#utility.yul\":730:769   */\n      swap2\n      pop\n        /* \"#utility.yul\":819:821   */\n      0x20\n        /* \"#utility.yul\":808:817   */\n      dup4\n        /* \"#utility.yul\":804:822   */\n      add\n        /* \"#utility.yul\":791:823   */\n      calldataload\n        /* \"#utility.yul\":866:871   */\n      dup1\n        /* \"#utility.yul\":859:872   */\n      iszero\n        /* \"#utility.yul\":852:873   */\n      iszero\n        /* \"#utility.yul\":845:850   */\n      dup2\n        /* \"#utility.yul\":842:874   */\n      eq\n        /* \"#utility.yul\":832:892   */\n      tag_52\n      jumpi\n        /* \"#utility.yul\":888:889   */\n      0x00\n        /* \"#utility.yul\":885:886   */\n      dup1\n        /* \"#utility.yul\":878:890   */\n      revert\n        /* \"#utility.yul\":832:892   */\n    tag_52:\n        /* \"#utility.yul\":911:916   */\n      dup1\n        /* \"#utility.yul\":901:916   */\n      swap2\n      pop\n      pop\n        /* \"#utility.yul\":575:922   */\n      swap3\n      pop\n      swap3\n      swap1\n      pop\n      jump\t// out\n        /* \"#utility.yul\":1135:1315   */\n    tag_24:\n        /* \"#utility.yul\":1194:1200   */\n      0x00\n        /* \"#utility.yul\":1247:1249   */\n      0x20\n        /* \"#utility.yul\":1235:1244   */\n      dup3\n        /* \"#utility.yul\":1226:1233   */\n      dup5\n        /* \"#utility.yul\":1222:1245   */\n      sub\n        /* \"#utility.yul\":1218:1250   */\n      slt\n        /* \"#utility.yul\":1215:1267   */\n      iszero\n      tag_55\n      jumpi\n        /* \"#utility.yul\":1263:1264   */\n      0x00\n        /* \"#utility.yul\":1260:1261   */\n      dup1\n        /* \"#utility.yul\":1253:1265   */\n      revert\n        /* \"#utility.yul\":1215:1267   */\n    tag_55:\n      pop\n        /* \"#utility.yul\":1286:1309   */\n      calldataload\n      swap2\n        /* \"#utility.yul\":1135:1315   */\n      swap1\n      pop\n      jump\t// out\n\n    auxdata: 0xa264697066735822122058d49fb3fbaceaf28932acf3a1f5bb324782f7a88a94634dc450331355fef57d64736f6c634300080e0033\n}\n",
				"bytecode": {
					"linkReferences": {},
					"object": "60806040526001600055662386f26fc1000060035534801561002057600080fd5b50600180546001600160a01b031916331790556102bc806100426000396000f3fe608060405234801561001057600080fd5b50600436106100575760003560e01c8063429b62e51461005c5780634b0bddd2146100945780638da5cb5b146100a957806391b7f5ed146100d4578063a035b1fe146100e7575b600080fd5b61007f61006a36600461020f565b60026020526000908152604090205460ff1681565b60405190151581526020015b60405180910390f35b6100a76100a2366004610231565b6100fe565b005b6001546100bc906001600160a01b031681565b6040516001600160a01b03909116815260200161008b565b6100a76100e236600461026d565b61018e565b6100f060035481565b60405190815260200161008b565b6001546001600160a01b031633148061012657503360009081526002602052604090205460ff165b6101635760405162461bcd60e51b81526020600482015260096024820152683737ba1030b236b4b760b91b60448201526064015b60405180910390fd5b6001600160a01b03919091166000908152600260205260409020805460ff1916911515919091179055565b6001546001600160a01b03163314806101b657503360009081526002602052604090205460ff165b6101ee5760405162461bcd60e51b81526020600482015260096024820152683737ba1030b236b4b760b91b604482015260640161015a565b600355565b80356001600160a01b038116811461020a57600080fd5b919050565b60006020828403121561022157600080fd5b61022a826101f3565b9392505050565b6000806040838503121561024457600080fd5b61024d836101f3565b91506020830135801515811461026257600080fd5b809150509250929050565b60006020828403121561027f57600080fd5b503591905056fea264697066735822122058d49fb3fbaceaf28932acf3a1f5bb324782f7a88a94634dc450331355fef57d64736f6c634300080e0033",
					"opcodes": "PUSH1 0x80 PUSH1 0x40 MSTORE PUSH1 0x1 PUSH1 0x0 SSTORE PUSH7 0x2386F26FC10000 PUSH1 0x3 SSTORE CALLVALUE DUP1 ISZERO PUSH2 0x20 JUMPI PUSH1 0x0 DUP1 REVERT JUMPDEST POP PUSH1 0x1 DUP1 SLOAD PUSH1 0x1 PUSH1 0x1 PUSH1 0xA0 SHL SUB NOT AND CALLER OR SWAP1 SSTORE PUSH2 0x2BC DUP1 PUSH2 0x42 PUSH1 0x0 CODECOPY PUSH1 0x0 RETURN INVALID PUSH1 0x80 PUSH1 0x40 MSTORE CALLVALUE DUP1 ISZERO PUSH2 0x10 JUMPI PUSH1 0x0 DUP1 REVERT JUMPDEST POP PUSH1 0x4 CALLDATASIZE LT PUSH2 0x57 JUMPI PUSH1 0x0 CALLDATALOAD PUSH1 0xE0 SHR DUP1 PUSH4 0x429B62E5 EQ PUSH2 0x5C JUMPI DUP1 PUSH4 0x4B0BDDD2 EQ PUSH2 0x94 JUMPI DUP1 PUSH4 0x8DA5CB5B EQ PUSH2 0xA9 JUMPI DUP1 PUSH4 0x91B7F5ED EQ PUSH2 0xD4 JUMPI DUP1 PUSH4 0xA035B1FE EQ PUSH2 0xE7 JUMPI JUMPDEST PUSH1 0x0 DUP1 REVERT JUMPDEST PUSH2 0x7F PUSH2 0x6A CALLDATASIZE PUSH1 0x4 PUSH2 0x20F JUMP JUMPDEST PUSH1 0x2 PUSH1 0x20 MSTORE PUSH1 0x0 SWAP1 DUP2 MSTORE PUSH1 0x40 SWAP1 KECCAK256 SLOAD PUSH1 0xFF AND DUP2 JUMP JUMPDEST PUSH1 0x40 MLOAD SWAP1 ISZERO ISZERO DUP2 MSTORE PUSH1 0x20 ADD JUMPDEST PUSH1 0x40 MLOAD DUP1 SWAP2 SUB SWAP1 RETURN JUMPDEST PUSH2 0xA7 PUSH2 0xA2 CALLDATASIZE PUSH1 0x4 PUSH2 0x231 JUMP JUMPDEST PUSH2 0xFE JUMP JUMPDEST STOP JUMPDEST PUSH1 0x1 SLOAD PUSH2 0xBC SWAP1 PUSH1 0x1 PUSH1 0x1 PUSH1 0xA0 SHL SUB AND DUP2 JUMP JUMPDEST PUSH1 0x40 MLOAD PUSH1 0x1 PUSH1 0x1 PUSH1 0xA0 SHL SUB SWAP1 SWAP2 AND DUP2 MSTORE PUSH1 0x20 ADD PUSH2 0x8B JUMP JUMPDEST PUSH2 0xA7 PUSH2 0xE2 CALLDATASIZE PUSH1 0x4 PUSH2 0x26D JUMP JUMPDEST PUSH2 0x18E JUMP JUMPDEST PUSH2 0xF0 PUSH1 0x3 SLOAD DUP2 JUMP JUMPDEST PUSH1 0x40 MLOAD SWAP1 DUP2 MSTORE PUSH1 0x20 ADD PUSH2 0x8B JUMP JUMPDEST PUSH1 0x1 SLOAD PUSH1 0x1 PUSH1 0x1 PUSH1 0xA0 SHL SUB AND CALLER EQ DUP1 PUSH2 0x126 JUMPI POP CALLER PUSH1 0x0 SWAP1 DUP2 MSTORE PUSH1 0x2 PUSH1 0x20 MSTORE PUSH1 0x40 SWAP1 KECCAK256 SLOAD PUSH1 0xFF AND JUMPDEST PUSH2 0x163 JUMPI PUSH1 0x40 MLOAD PUSH3 0x461BCD PUSH1 0xE5 SHL DUP2 MSTORE PUSH1 0x20 PUSH1 0x4 DUP3 ADD MSTORE PUSH1 0x9 PUSH1 0x24 DUP3 ADD MSTORE PUSH9 0x3737BA1030B236B4B7 PUSH1 0xB9 SHL PUSH1 0x44 DUP3 ADD MSTORE PUSH1 0x64 ADD JUMPDEST PUSH1 0x40 MLOAD DUP1 SWAP2 SUB SWAP1 REVERT JUMPDEST PUSH1 0x1 PUSH1 0x1 PUSH1 0xA0 SHL SUB SWAP2 SWAP1 SWAP2 AND PUSH1 0x0 SWAP1 DUP2 MSTORE PUSH1 0x2 PUSH1 0x20 MSTORE PUSH1 0x40 SWAP1 KECCAK256 DUP1 SLOAD PUSH1 0xFF NOT AND SWAP2 ISZERO ISZERO SWAP2 SWAP1 SWAP2 OR SWAP1 SSTORE JUMP JUMPDEST PUSH1 0x1 SLOAD PUSH1 0x1 PUSH1 0x1 PUSH1 0xA0 SHL SUB AND CALLER EQ DUP1 PUSH2 0x1B6 JUMPI POP CALLER PUSH1 0x0 SWAP1 DUP2 MSTORE PUSH1 0x2 PUSH1 0x20 MSTORE PUSH1 0x40 SWAP1 KECCAK256 SLOAD PUSH1 0xFF AND JUMPDEST PUSH2 0x1EE JUMPI PUSH1 0x40 MLOAD PUSH3 0x461BCD PUSH1 0xE5 SHL DUP2 MSTORE PUSH1 0x20 PUSH1 0x4 DUP3 ADD MSTORE PUSH1 0x9 PUSH1 0x24 DUP3 ADD MSTORE PUSH9 0x3737BA1030B236B4B7 PUSH1 0xB9 SHL PUSH1 0x44 DUP3 ADD MSTORE PUSH1 0x64 ADD PUSH2 0x15A JUMP JUMPDEST PUSH1 0x3 SSTORE JUMP JUMPDEST DUP1 CALLDATALOAD PUSH1 0x1 PUSH1 0x1 PUSH1 0xA0 SHL SUB DUP2 AND DUP2 EQ PUSH2 0x20A JUMPI PUSH1 0x0 DUP1 REVERT JUMPDEST SWAP2 SWAP1 POP JUMP JUMPDEST PUSH1 0x0 PUSH1 0x20 DUP3 DUP5 SUB SLT ISZERO PUSH2 0x221 JUMPI PUSH1 0x0 DUP1 REVERT JUMPDEST PUSH2 0x22A DUP3 PUSH2 0x1F3 JUMP JUMPDEST SWAP4 SWAP3 POP POP POP JUMP JUMPDEST PUSH1 0x0 DUP1 PUSH1 0x40 DUP4 DUP6 SUB SLT ISZERO PUSH2 0x244 JUMPI PUSH1 0x0 DUP1 REVERT JUMPDEST PUSH2 0x24D DUP4 PUSH2 0x1F3 JUMP JUMPDEST SWAP2 POP PUSH1 0x20 DUP4 ADD CALLDATALOAD DUP1 ISZERO ISZERO DUP2 EQ PUSH2 0x262 JUMPI PUSH1 0x0 DUP1 REVERT JUMPDEST DUP1 SWAP2 POP POP SWAP3 POP SWAP3 SWAP1 POP JUMP JUMPDEST PUSH1 0x0 PUSH1 0x20 DUP3 DUP5 SUB SLT ISZERO PUSH2 0x27F JUMPI PUSH1 0x0 DUP1 REVERT JUMPDEST POP CALLDATALOAD SWAP2 SWAP1 POP JUMP INVALID LOG2 PUSH5 0x6970667358 0x22 SLT KECCAK256 PC 0xD4 SWAP16 0xB3 0xFB 0xAC 0xEA CALLCODE DUP10 ORIGIN 0xAC RETURN LOG1 CREATE2 0xBB ORIGIN SELFBALANCE DUP3 0xF7 0xA8 DUP11 SWAP5 PUSH4 0x4DC45033 SGT SSTORE INVALID CREATE2 PUSH30 0x64736F6C634300080E003300000000000000000000000000000000000000 "
				},
				"gasEstimates": {
					"creation": {
						"codeDepositCost": "140000",
						"executionCost": "68630",
						"totalCost": "208630"
					},
					"external": {
						"admins(address)": "2498",
						"owner()": "2359",
						"price()": "2361",
						"setAdmin(address,bool)": "29030",
						"setPrice(uint256)": "26704"
					}
				},
				"methodIdentifiers": {
					"admins(address)": "429b62e5",
					"owner()": "8da5cb5b",
					"price()": "a035b1fe",
					"setAdmin(address,bool)": "4b0bddd2",
					"setPrice(uint256)": "91b7f5ed"
				}
			},
			"storageLayout": {
				"storage": [
					{
						"astId": 37,
						"contract": "contracts/GoingUpProjects.sol:GoingUpProjects",
						"label": "idCounter",
						"offset": 0,
						"slot": "0",
						"type": "t_uint256"
					},
					{
						"astId": 39,
						"contract": "contracts/GoingUpProjects.sol:GoingUpProjects",
						"label": "owner",
						"offset": 0,
						"slot": "1",
						"type": "t_address"
					},
					{
						"astId": 43,
						"contract": "contracts/GoingUpProjects.sol:GoingUpProjects",
						"label": "admins",
						"offset": 0,
						"slot": "2",
						"type": "t_mapping(t_address,t_bool)"
					},
					{
						"astId": 84,
						"contract": "contracts/GoingUpProjects.sol:GoingUpProjects",
						"label": "price",
						"offset": 0,
						"slot": "3",
						"type": "t_uint256"
					}
				],
				"types": {
					"t_address": {
						"encoding": "inplace",
						"label": "address",
						"numberOfBytes": "20"
					},
					"t_bool": {
						"encoding": "inplace",
						"label": "bool",
						"numberOfBytes": "1"
					},
					"t_mapping(t_address,t_bool)": {
						"encoding": "mapping",
						"key": "t_address",
						"label": "mapping(address => bool)",
						"numberOfBytes": "32",
						"value": "t_bool"
					},
					"t_uint256": {
						"encoding": "inplace",
						"label": "uint256",
						"numberOfBytes": "32"
					}
				}
			},
			"userdoc": {
				"kind": "user",
				"methods": {
					"setAdmin(address,bool)": {
						"notice": "Sets the admin flag for address"
					},
					"setPrice(uint256)": {
						"notice": "Sets the price for creating and updating projects"
					}
				},
				"version": 1
			}
		}
	}
}